:10D100000008002001D2000057D2000057D20000D2
:10D1100057D2000057D2000057D2000057D200006B
:10D12000000000000000000000000000AD4301000E
:10D1300057D20000000000007943010089D20000AE
:10D140008DD2000091D2000095D20000ED200100A8
:10D150009DD20000A1D20000A5D20000A9D20000FB
:10D16000ADD20000B1D20000B5D20000B9D20000AB
:10D17000BDD20000C1D20000C5D20000C9D200005B
:10D18000CDD20000D1D20000D5D20000D9D200000B
:10D19000DDD20000E1D20000E5D20000A5200100B0
:10D1A000EDD20000F1D20000F5D20000F9D200006B
:10D1B000FDD2000001D3000005D3000009D3000018
:10D1C0000DD300003521010015D3000019D3000054
:10D1D0001DD3000021D3000025D3000029D3000077
:10D1E0002DD3000031D3000035D3000039D3000027
:10D1F0003DD3000041D3000045D3000000000000F3
:10D20000194880F30888194C194DAC4209DA216895
:10D210006268A368043BA2BFC858D050FAE70C3438
:10D22000F3E7144B144CA34208DA19685A6800203B
:10D23000043AA4BF8850FBE70833F4E706F036FD54
:10D24000EFF3148040F0020080F314880B4880F361
:10D25000098804F045FEEFF38880EFF38981EFF34E
:10D260009482FFF7FEBF0000000800204CD30000AE
:10D2700088D3000088D30000C0D300000010002035
:10D2800007F094B807F078B8FFF7FEBFFFF7FEBFCE
:10D29000FFF7FEBFFFF7FEBF04F028BFFFF7FEBF9A
:10D2A000FFF7FEBFFFF7FEBFFFF7FEBFFFF7FEBFB2
:10D2B000FFF7FEBFFFF7FEBFFFF7FEBFFFF7FEBFA2
:10D2C000FFF7FEBFFFF7FEBFFFF7FEBFFFF7FEBF92
:10D2D000FFF7FEBFFFF7FEBFFFF7FEBFFFF7FEBF82
:10D2E000FFF7FEBFFFF7FEBF04F0DCBEFFF7FEBF97
:10D2F000FFF7FEBFFFF7FEBFFFF7FEBFFFF7FEBF62
:10D30000FFF7FEBFFFF7FEBFFFF7FEBFFFF7FEBF51
:10D3100004F010BFFFF7FEBFFFF7FEBFFFF7FEBF31
:10D32000FFF7FEBFFFF7FEBFFFF7FEBFFFF7FEBF31
:10D33000FFF7FEBFFFF7FEBFFFF7FEBFFFF7FEBF21
:0CD34000FFF7FEBFFFF7FEBFFFF7FEBFC8
:10D34C0020BE020080520020D000000000BE02006F
:10D35C00002000200000000000BE02000020002081
:10D36C000000000000BE0200803000200000000021
:0CD37C0000BE0200004500202000000060
:10D3880050530020CC2E0000002000202000000078
:10D398008020002000100000803000208004000061
:10D3A8000035002000100000204500208002000009
:08D3B80000480020800A00007B
:10D3C000024B0A460146186800F07FB8E45200207C
:10D3D00008B5074B044613B1002100E000BF054B20
:10D3E0001868836A03B1984720461CF03DFB00BFD4
:10D3F0000000000088D6000070B50D4D00260D4CD1
:10D40000641BA410A64209D10B4D00260B4C1CF046
:10D410002DFB641BA410A64205D170BD55F8043B3A
:10D4200001369847EEE755F8043B01369847F2E796
:10D430004853002048530020485300204C530020FC
:10D44000024B0146186800F04FB800BFE4520020BC
:10D4500030B501390024A24201D1002005E0035D6E
:10D4600001340D5DAB42F6D0581B30BD0A44431E5B
:10D47000914200D1704710B511F8014B914203F869
:10D48000014FF9D110BD884210B501EB020402D959
:10D490008442234607D8431EA14208D011F8012B2D
:10D4A00003F8012FF8E7024401468A4200D110BD7B
:10D4B00013F8014D02F8014DF7E702440346934289
:10D4C00000D1704703F8011BF9E74A4313B5114631
:10D4D000019200F059F8044618B1019A0021FFF7B3
:10D4E000ECFF204602B010BD37B5002947D051F8F7
:10D4F000043C0C1F0190002BB8BFE41800F0B8F8F2
:10D50000204A01981368154633B96360146003B06C
:10D51000BDE8304000F0B2B8A3420BD921686218D0
:10D52000934202BF1A685B685218636008BF2260AA
:10D530002C60ECE71A465B680BB1A342FAD911687C
:10D540005518A5420BD12468214454181160A342F8
:10D55000DDD11C685B68214453601160D7E702D9B4
:10D560000C230360D3E7256861198B4202BF196859
:10D570005B684919636008BF21605460C7E703B066
:10D5800030BD00BFDC750020F8B5CD1C064625F087
:10D59000030508350C2D38BF0C25002D01DBA942F1
:10D5A00003D90C2333600020F8BD00F061F8214955
:10D5B0000A6814469CB9204F3B6823B9214630467F
:10D5C00000F03CF838602946304600F037F8431C3C
:10D5D00023D10C233046336000F050F8E3E7236892
:10D5E0005B1B17D40B2B03D923601C44256004E07C
:10D5F0006368A2420CBF0B605360304600F03EF8F7
:10D6000004F10B00231D20F00700C21ACCD01B1A16
:10D61000A350C9E722466468CCE7C41C24F0030485
:10D62000A042E3D0211A304600F008F80130DDD1E5
:10D63000CFE700BFDC750020E075002038B500237F
:10D64000054D044608462B601CF000FA431C02D12D
:10D650002B6803B1236038BD18820020034613F8FD
:10D66000012B002AFBD1181A013870477047704708
:10D670000148FFF7FBBF00BF108200200148FFF701
:10D68000F6BF00BF10820020E8520020000000001A
:10D69000000000000000000000000000000000008A
:10D6A000000000000000000000000000000000007A
:10D6B000000000000000000000000000000000006A
:10D6C000000000000000000000000000000000005A
:10D6D000000000000000000000000000000000004A
:10D6E00000000000000000000000000005DF70479F
:10D6F000001000408025000004460122944320468B
:10D70000214622462346254626462746A046A146D0
:10D71000A246A346A44603B4044700BF0EDF7447E5
:10D720000FDF744710DF744711DF744712DF74474F
:10D730001B4B4FF00042B7EE000A70461A60F7EE3E
:10D74000000AB7EE001A7146F7EE001A7246B7EEFD
:10D75000002A7346F7EE002AB7EE003AF7EE003AD9
:10D76000B7EE004AF7EE004AB7EE005AF7EE005A5D
:10D77000B7EE006AF7EE006AB7EE007AF7EE007ACD
:10D780008EF3008810B4F1EE10CA4FF66074C0F644
:10D79000FF740CEA040CE1EE10CA10BCF4467447A6
:10D7A00000A10C581B4B0022B7EE000A70461A600D
:10D7B000F7EE000AB7EE001A7146F7EE001A72464D
:10D7C000B7EE002A7346F7EE002AB7EE003AF7EEFE
:10D7D000003AB7EE004AF7EE004AB7EE005AF7EE0D
:10D7E000005AB7EE006AF7EE006AB7EE007AF7EE7D
:10D7F000007A8EF3008810B4F1EE10CA4FF6607410
:10D80000C0F6FF740CEA040CE1EE10CA10BCF4463A
:10D81000744700BF3400095808B51AF06DFBB7EE25
:10D82000000AF7EE000AB7EE001AF7EE001AB7EE9C
:10D83000002AF7EE002AB7EE003AF7EE003AB7EE0C
:10D84000004AF7EE004AB7EE005AF7EE005AB7EE7C
:10D85000006AF7EE006AB7EE007AF7EE007ABDE8EC
:10D86000084070467146724673468EF3008810B4C5
:10D87000F1EE10CA4FF66074C0F6FF740CEA040CA7
:10D88000E1EE10CA10BCF446744700BF1C4AB7EE64
:10D89000000AF7EE000A70461368B7EE001AF7EEBA
:10D8A000001A714643F00303B7EE002AF7EE002A90
:10D8B0001360B7EE003AF7EE003A7246B7EE004A50
:10D8C0007346F7EE004AB7EE005AF7EE005AB7EE8D
:10D8D000006AF7EE006AB7EE007AF7EE007A8EF390
:10D8E000008810B4F1EE10CA4FF66074C0F6FF74F1
:10D8F0000CEA040CE1EE10CA10BCF446744700BFF9
:10D900002422085808B51AF083FCB7EE000AF7EE97
:10D91000000AB7EE001AF7EE001AB7EE002AF7EE8B
:10D92000002AB7EE003AF7EE003AB7EE004AF7EEFB
:10D93000004AB7EE005AF7EE005AB7EE006AF7EE6B
:10D94000006AB7EE007AF7EE007ABDE8084070464C
:10D950007146724673468EF3008810B4F1EE10CA19
:10D960004FF66074C0F6FF740CEA040CE1EE10CAC6
:10D9700010BCF446744700BF08B51AF0FFFBB7EEC1
:10D98000000AF7EE000AB7EE001AF7EE001AB7EE3B
:10D99000002AF7EE002AB7EE003AF7EE003AB7EEAB
:10D9A000004AF7EE004AB7EE005AF7EE005AB7EE1B
:10D9B000006AF7EE006AB7EE007AF7EE007ABDE88B
:10D9C00008407146724673468EF3008810B4F1EE3B
:10D9D00010CA4FF66074C0F6FF740CEA040CE1EE56
:10D9E00010CA10BCF446744700B5032183B0244824
:10D9F0001C2300914FF0405200211AF0B1FF012288
:10DA00001F480923009200214FF400721AF0A8FF6A
:10DA100003B0B7EE000A5DF804EBF7EE000AB7EECC
:10DA2000001A7046F7EE001A7146B7EE002A7246E9
:10DA3000F7EE002A7346B7EE003AF7EE003AB7EE7B
:10DA4000004AF7EE004AB7EE005AF7EE005AB7EE7A
:10DA5000006AF7EE006AB7EE007AF7EE007A8EF30E
:10DA6000008810B4F1EE10CA4FF66074C0F6FF746F
:10DA70000CEA040CE1EE10CA10BCF446744700BF77
:10DA800000A00C5808B5002301223C211D481AF0C3
:10DA90007AFF0038B7EE000AF7EE000A18BF01203F
:10DAA000B7EE001AF7EE001AB7EE002AF7EE002ADA
:10DAB000B7EE003AF7EE003AB7EE004AF7EE004A4A
:10DAC000B7EE005AF7EE005AB7EE006AF7EE006ABA
:10DAD000B7EE007AF7EE007ABDE80840714672466C
:10DAE00073468EF3008810B4F1EE10CA4FF66074DE
:10DAF000C0F6FF740CEA040CE1EE10CA10BCF44648
:10DB0000744700BF00A00C5808B51AF055FBB7EEDB
:10DB1000000AF7EE000AB7EE001AF7EE001AB7EEA9
:10DB2000002AF7EE002AB7EE003AF7EE003AB7EE19
:10DB3000004AF7EE004AB7EE005AF7EE005AB7EE89
:10DB4000006AF7EE006AB7EE007AF7EE007ABDE8F9
:10DB500008407146724673468EF3008810B4F1EEA9
:10DB600010CA4FF66074C0F6FF740CEA040CE1EEC4
:10DB700010CA10BCF44674471E4A44F20C0344F227
:10DB80000400B7EE000A1288F7EE000AB7EE001A9A
:10DB900071461340F7EE001AB7EE002A7246181AC3
:10DBA000F7EE002AB7EE003A7346B0FA80F0F7EECF
:10DBB000003AB7EE004AF7EE004A4009B7EE005AC5
:10DBC000F7EE005AB7EE006AF7EE006AB7EE007A99
:10DBD000F7EE007A8EF3008810B4F1EE10CA4FF61B
:10DBE0006074C0F6FF740CEA040CE1EE10CA10BCBD
:10DBF000F446744700A00C581E4BB7EE000AF7EE2F
:10DC0000000A70461B68B7EE001AF7EE001A71465C
:10DC1000002B194BB7EE002AB4BF4FF440524FF41B
:10DC20008052F7EE002A1A60B7EE003AF7EE003A9B
:10DC30007246B7EE004A7346F7EE004AB7EE005A56
:10DC4000F7EE005AB7EE006AF7EE006AB7EE007A18
:10DC5000F7EE007A8EF3008810B4F1EE10CA4FF69A
:10DC60006074C0F6FF740CEA040CE1EE10CA10BC3C
:10DC7000F446744708000050A8A00C581E4BB7EE9D
:10DC8000000AF7EE000A70461B68B7EE001AF7EEBE
:10DC9000001A7146002B194BB7EE002AB4BF4FF49F
:10DCA00041524FF48252F7EE002A1A60B7EE003A62
:10DCB000F7EE003A7246B7EE004A7346F7EE004AB6
:10DCC000B7EE005AF7EE005AB7EE006AF7EE006AB8
:10DCD000B7EE007AF7EE007A8EF3008810B4F1EE1A
:10DCE00010CA4FF66074C0F6FF740CEA040CE1EE43
:10DCF00010CA10BCF44674470800005028A10C5804
:10DD000008B51AF04BFAB7EE000AF7EE000AB7EEC4
:10DD1000001AF7EE001AB7EE002AF7EE002AB7EE67
:10DD2000003AF7EE003AB7EE004AF7EE004AB7EED7
:10DD3000005AF7EE005AB7EE006AF7EE006AB7EE47
:10DD4000007AF7EE007ABDE80840704671467246E8
:10DD500073468EF3008810B4F1EE10CA4FF660746B
:10DD6000C0F6FF740CEA040CE1EE10CA10BCF446D5
:10DD7000744700BF08B51D4B40221A601AF00EFA16
:10DD8000B7EE000AF7EE000AB7EE001AF7EE001A37
:10DD9000B7EE002AF7EE002AB7EE003AF7EE003AA7
:10DDA000B7EE004AF7EE004AB7EE005AF7EE005A17
:10DDB000B7EE006AF7EE006AB7EE007AF7EE007A87
:10DDC000BDE8084070467146724673468EF300887F
:10DDD00010B4F1EE10CA4FF66074C0F6FF740CEA8E
:10DDE000040CE1EE10CA10BCF4467447A8A00C580D
:10DDF00008B54FF0FF3200211AF0CCF8B7EE000A58
:10DE0000F7EE000AB7EE001AF7EE001AB7EE002A96
:10DE1000F7EE002AB7EE003AF7EE003AB7EE004A06
:10DE2000F7EE004AB7EE005AF7EE005AB7EE006A76
:10DE3000F7EE006AB7EE007AF7EE007ABDE8084028
:10DE400070467146724673468EF3008810B4F1EE48
:10DE500010CA4FF66074C0F6FF740CEA040CE1EED1
:10DE600010CA10BCF446744708B51AF005F9B7EEAD
:10DE7000000AF7EE000AB7EE001AF7EE001AB7EE46
:10DE8000002AF7EE002AB7EE003AF7EE003AB7EEB6
:10DE9000004AF7EE004AB7EE005AF7EE005AB7EE26
:10DEA000006AF7EE006AB7EE007AF7EE007ABDE896
:10DEB000084070467146724673468EF3008810B46F
:10DEC000F1EE10CA4FF66074C0F6FF740CEA040C51
:10DED000E1EE10CA10BCF446744700BF08B519F053
:10DEE000F3FFB7EE000AF7EE000AB7EE001AF7EEFE
:10DEF000001AB7EE002AF7EE002AB7EE003AF7EE66
:10DF0000003AB7EE004AF7EE004AB7EE005AF7EED5
:10DF1000005AB7EE006AF7EE006AB7EE007AF7EE45
:10DF2000007ABDE8084070467146724673468EF32B
:10DF3000008810B4F1EE10CA4FF66074C0F6FF749A
:10DF40000CEA040CE1EE10CA10BCF446744700BFA2
:10DF5000A0F58063022B00B583B002D9B0F5816FC4
:10DF600046D101901AF0B8F901981AF0D7F9019842
:10DF70001AF0F6F9214B0121214A196013689B0719
:10DF8000FCD503B0B7EE000A5DF804EBF7EE000A2B
:10DF9000B7EE001A7046F7EE001A7146B7EE002A87
:10DFA0007246F7EE002A7346B7EE003AF7EE003AF3
:10DFB000B7EE004AF7EE004AB7EE005AF7EE005A05
:10DFC000B7EE006AF7EE006AB7EE007AF7EE007A75
:10DFD0008EF3008810B4F1EE10CA4FF66074C0F6EC
:10DFE000FF740CEA040CE1EE10CA10BCF44674474E
:10DFF000019005F003FB0198B3E700BF28200860FB
:10E0000028200840A0F58063022B00B583B002D918
:10E01000B0F5816F46D101901AF06EF901981AF0AF
:10E020008DF901981AF0ACF9214B0121214A1960B0
:10E0300013689B07FCD503B0B7EE000A5DF804EB4C
:10E04000F7EE000AB7EE001A7046F7EE001A7146B6
:10E05000B7EE002A7246F7EE002A7346B7EE003A92
:10E06000F7EE003AB7EE004AF7EE004AB7EE005A74
:10E07000F7EE005AB7EE006AF7EE006AB7EE007AE4
:10E08000F7EE007A8EF3008810B4F1EE10CA4FF666
:10E090006074C0F6FF740CEA040CE1EE10CA10BC08
:10E0A000F4467447019005F0A9FA0198B3E700BF60
:10E0B0002820086028200840A0F58063022B00B5C6
:10E0C00083B002D9B0F5816F38D11AF049F903B0A5
:10E0D000B7EE000AF7EE000A5DF804EBB7EE001A9F
:10E0E000F7EE001A7046B7EE002A7146F7EE002AE6
:10E0F0007246B7EE003A7346F7EE003AB7EE004AC2
:10E10000F7EE004AB7EE005AF7EE005AB7EE006A93
:10E11000F7EE006AB7EE007AF7EE007A8EF3008829
:10E1200010B4F1EE10CA4FF66074C0F6FF740CEA3A
:10E13000040CE1EE10CA10BCF4467447019005F0DF
:10E140005DFA0198C1E700BF08B519F0D1FFB7EE3D
:10E15000000AF7EE000AB7EE001AF7EE001AB7EE63
:10E16000002AF7EE002AB7EE003AF7EE003AB7EED3
:10E17000004AF7EE004AB7EE005AF7EE005AB7EE43
:10E18000006AF7EE006AB7EE007AF7EE007ABDE8B3
:10E1900008407146724673468EF3008810B4F1EE63
:10E1A00010CA4FF66074C0F6FF740CEA040CE1EE7E
:10E1B00010CA10BCF446744708B5224B1B68C3F361
:10E1C0008153022B35D0B7EE000AF7EE000AB7EE06
:10E1D000001AF7EE001AB7EE002AF7EE002AB7EEA3
:10E1E000003AF7EE003AB7EE004AF7EE004AB7EE13
:10E1F000005AF7EE005AB7EE006AF7EE006AB7EE83
:10E20000007AF7EE007ABDE8084070467146724623
:10E2100073468EF3008810B4F1EE10CA4FF66074A6
:10E22000C0F6FF740CEA040CE1EE10CA10BCF44610
:10E230007447054B054903448B42C4D81BF010FBBF
:10E24000C1E700BF040000505C8F82FFB71E0500CD
:10E2500008B5FFF709FEB7EE000AF7EE000AB7EEC1
:10E26000001AF7EE001AB7EE002AF7EE002AB7EE12
:10E27000003AF7EE003AB7EE004AF7EE004AB7EE82
:10E28000005AF7EE005AB7EE006AF7EE006AB7EEF2
:10E29000007AF7EE007ABDE8084070467146724693
:10E2A00073468EF3008810B4F1EE10CA4FF6607416
:10E2B000C0F6FF740CEA040CE1EE10CA10BCF44680
:10E2C000744700BF08B51BF0B5FB034A136843F061
:10E2D00000431360FEE700BF2800095838B5304AF4
:10E2E0004BF2F5242F4B054612681B6804FB02F421
:10E2F00003F44023240AB3F5802F3FD02DB92A4BD5
:10E300001B6823F07F431C44640820461BF0A8FAD6
:10E31000B7EE000AF7EE000AB7EE001AF7EE001AA1
:10E32000B7EE002AF7EE002AB7EE003AF7EE003A11
:10E33000B7EE004AF7EE004AB7EE005AF7EE005A81
:10E34000B7EE006AF7EE006AB7EE007AF7EE007AF1
:10E35000BDE8384070467146724673468EF30088B9
:10E3600010B4F1EE10CA4FF66074C0F6FF740CEAF8
:10E37000040CE1EE10CA10BCF44674470B4B1B684A
:10E380009B03BBD419F088FD19F05AFF19F078FFF0
:10E390002311C01000FB03F004EBE034AEE700BF34
:10E3A00008400C4004000050102009588C0B00500D
:10E3B0001B4BB7EE000AF7EE000A71461868B7EE7D
:10E3C000001AF7EE001A7246B7EE002AC0F30720D3
:10E3D000F7EE002A7346B7EE003AF7EE003AB7EED2
:10E3E000004AF7EE004AB7EE005AF7EE005AB7EED1
:10E3F000006AF7EE006AB7EE007AF7EE007A8EF365
:10E40000008810B4F1EE10CA4FF66074C0F6FF74C5
:10E410000CEA040CE1EE10CA10BCF446744700BFCD
:10E4200030A00C581B4BB7EE000AF7EE000A7146FD
:10E430001868B7EE001AF7EE001A7246B7EE002A17
:10E44000C0F38440F7EE002A7346B7EE003AF7EEC9
:10E45000003AB7EE004AF7EE004AB7EE005AF7EE80
:10E46000005AB7EE006AF7EE006AB7EE007AF7EEF0
:10E47000007A8EF3008810B4F1EE10CA4FF6607483
:10E48000C0F6FF740CEA040CE1EE10CA10BCF446AE
:10E49000744700BF04A00C581B4BB7EE000AF7EE00
:10E4A000000A71461868B7EE001AF7EE001A7246B5
:10E4B000B7EE002AC0F38120F7EE002A7346B7EECC
:10E4C000003AF7EE003AB7EE004AF7EE004AB7EE30
:10E4D000005AF7EE005AB7EE006AF7EE006AB7EEA0
:10E4E000007AF7EE007A8EF3008810B4F1EE10CACD
:10E4F0004FF66074C0F6FF740CEA040CE1EE10CA2B
:10E5000010BCF446744700BF20A00C5810B584B26C
:10E5100082B008234FF47F4230211D4800941AF046
:10E520001FFA02B0B7EE000AF7EE000AB7EE001AC3
:10E53000F7EE001AB7EE002AF7EE002AB7EE003A1F
:10E54000F7EE003AB7EE004AF7EE004AB7EE005A8F
:10E55000F7EE005AB7EE006AF7EE006AB7EE007AFF
:10E56000F7EE007ABDE81040704671467246734679
:10E570008EF3008810B4F1EE10CA4FF66074C0F646
:10E58000FF740CEA040CE1EE10CA10BCF4467447A8
:10E5900000A00C5810B584B282B012234FF4F802D8
:10E5A00004211D4800941AF0DBF902B0B7EE000A0E
:10E5B000F7EE000AB7EE001AF7EE001AB7EE002ADF
:10E5C000F7EE002AB7EE003AF7EE003AB7EE004A4F
:10E5D000F7EE004AB7EE005AF7EE005AB7EE006ABF
:10E5E000F7EE006AB7EE007AF7EE007ABDE8104069
:10E5F00070467146724673468EF3008810B4F1EE91
:10E6000010CA4FF66074C0F6FF740CEA040CE1EE19
:10E6100010CA10BCF446744700A00C5810B584B260
:10E6200082B011234FF4003204211D4800941AF0E7
:10E6300097F902B0B7EE000AF7EE000AB7EE001A3B
:10E64000F7EE001AB7EE002AF7EE002AB7EE003A0E
:10E65000F7EE003AB7EE004AF7EE004AB7EE005A7E
:10E66000F7EE005AB7EE006AF7EE006AB7EE007AEE
:10E67000F7EE007ABDE81040704671467246734668
:10E680008EF3008810B4F1EE10CA4FF66074C0F635
:10E69000FF740CEA040CE1EE10CA10BCF446744797
:10E6A00000A00C5810B584B282B00A234FF4406227
:10E6B00020211D4800941AF053F902B0B7EE000A69
:10E6C000F7EE000AB7EE001AF7EE001AB7EE002ACE
:10E6D000F7EE002AB7EE003AF7EE003AB7EE004A3E
:10E6E000F7EE004AB7EE005AF7EE005AB7EE006AAE
:10E6F000F7EE006AB7EE007AF7EE007ABDE8104058
:10E7000070467146724673468EF3008810B4F1EE7F
:10E7100010CA4FF66074C0F6FF740CEA040CE1EE08
:10E7200010CA10BCF446744700A00C5800B5022172
:10E7300083B02348072300914FF4C07200211AF0E0
:10E740000FF907234FF4C07200211D481AF01BF97E
:10E7500003B0B7EE000AF7EE000A5DF804EBB7EE7F
:10E76000001AF7EE001A7046B7EE002A7146F7EE6F
:10E77000002A7246B7EE003A7346F7EE003AB7EE5B
:10E78000004AF7EE004AB7EE005AF7EE005AB7EE2D
:10E79000006AF7EE006AB7EE007AF7EE007A8EF3C1
:10E7A000008810B4F1EE10CA4FF66074C0F6FF7422
:10E7B0000CEA040CE1EE10CA10BCF446744700BF2A
:10E7C00000A00C5810B530F0020482B036D002B070
:10E7D000B7EE000AF7EE000AB7EE001AF7EE001ADD
:10E7E000B7EE002AF7EE002AB7EE003AF7EE003A4D
:10E7F000B7EE004AF7EE004AB7EE005AF7EE005ABD
:10E80000B7EE006AF7EE006AB7EE007AF7EE007A2C
:10E81000BDE8104070467146724673468EF300881C
:10E8200010B4F1EE10CA4FF66074C0F6FF740CEA33
:10E83000040CE1EE10CA10BCF446744780B22146C5
:10E8400004237022009005481AF08AF870232146AC
:10E8500002481A461AF097F8B9E700BF00A00C5812
:10E860002A4B2B4A034093424AD1C0F30B0010B508
:10E8700084B0002840D1274C41F22202684608F0BB
:10E88000B3FD18B92046244908F0F8F804B0BDE8F3
:10E890001040B7EE000A7146F7EE000A7246B7EE76
:10E8A000001A7346F7EE001AB7EE002AF7EE002AB8
:10E8B000B7EE003AF7EE003AB7EE004AF7EE004A3C
:10E8C000B7EE005AF7EE005AB7EE006AF7EE006AAC
:10E8D000B7EE007AF7EE007A8EF3008810B4F1EE0E
:10E8E00010CA4FF66074C0F6FF740CEA040CE1EE37
:10E8F00010CA10BCF4467447012804D1074CBBE78A
:10E900006FF08000C5E76FF08000BFE700F0FFFF09
:10E910000020CDAB289F020064650020F064002039
:10E920002A4B2B4A034093424AD1C0F30B0010B547
:10E9300084B0002840D1274C42F22202684608F0F9
:10E9400053FD18B92046244908F044F904B0BDE845
:10E950001040B7EE000A7146F7EE000A7246B7EEB5
:10E96000001A7346F7EE001AB7EE002AF7EE002AF7
:10E97000B7EE003AF7EE003AB7EE004AF7EE004A7B
:10E98000B7EE005AF7EE005AB7EE006AF7EE006AEB
:10E99000B7EE007AF7EE007A8EF3008810B4F1EE4D
:10E9A00010CA4FF66074C0F6FF740CEA040CE1EE76
:10E9B00010CA10BCF4467447012804D1074CBBE7C9
:10E9C0006FF08000C5E76FF08000BFE700F0FFFF49
:10E9D0000020CDAB289F020064650020F064002079
:10E9E0002DE9F0430F4683B0904601211E220446D4
:10E9F00000F00CF900286DD02146012201A8FEF795
:10EA000035FD9DF80430092B64D8354A52F823406F
:10EA1000002C5FD0A5694FEA450909F10109C145FC
:10EA20005BD817224146384600F0F0F8002851D054
:10EA300085B179193B460D4601F1FF3CACEB030073
:10EA4000E269125C03F8012F9942266A305C05F8EE
:10EA5000010FF3D10423A8EB090207EB0900002101
:10EA60003B70FEF72AFD002003B0B7EE000AF7EE78
:10EA7000000AB7EE001AF7EE001AB7EE002AF7EE1A
:10EA8000002AB7EE003AF7EE003AB7EE004AF7EE8A
:10EA9000004AB7EE005AF7EE005AB7EE006AF7EEFA
:10EAA000006AB7EE007AF7EE007ABDE8F0437146EF
:10EAB000724673468EF3008810B4F1EE10CA4FF61A
:10EAC0006074C0F6FF740CEA040CE1EE10CA10BCCE
:10EAD000F44674476FF08000C6E74FF0FF30C3E79D
:10EAE000A8A1020008B512F05DFCB7EE000AF7EE2F
:10EAF000000AB7EE001AF7EE001AB7EE002AF7EE9A
:10EB0000002AB7EE003AF7EE003AB7EE004AF7EE09
:10EB1000004AB7EE005AF7EE005AB7EE006AF7EE79
:10EB2000006AB7EE007AF7EE007ABDE8084070465A
:10EB30007146724673468EF3008810B4F1EE10CA27
:10EB40004FF66074C0F6FF740CEA040CE1EE10CAD4
:10EB500010BCF446744700BF284A294900EA020362
:10EB60008B4248D170B440F6FE74264E264D2042AA
:10EB7000C0F30B013CD00229304603D100EA020168
:10EB80009942F4D06FF0800070BCB7EE000A714675
:10EB9000F7EE000A7246B7EE001A7346F7EE001A57
:10EBA000B7EE002AF7EE002AB7EE003AF7EE003A89
:10EBB000B7EE004AF7EE004AB7EE005AF7EE005AF9
:10EBC000B7EE006AF7EE006AB7EE007AF7EE007A69
:10EBD0008EF3008810B4F1EE10CA4FF66074C0F6E0
:10EBE000FF740CEA040CE1EE10CA10BCF446744742
:10EBF00005EBC100C2E76FF08000C6E700F0FFFF41
:10EC000000D0CDABC06B0020909F0200C3438B426D
:10EC10006DD332F01F036AD1013902F014030144AD
:10EC200010B481EA0004142B0ED8DFE803F03F0D86
:10EC30000D0D480D0D0D0D0D0D0D0D0D0D0D510D85
:10EC40000D0D1100DC0200D400205DF8044B70476C
:10EC50001F2C40E8C0F305D91C4641E8C0F10B4623
:10EC60009C42F1D122F01402013A0A2AECD801A107
:10EC700051F822F0A7EC0000E9EC0000A1EC000044
:10EC800049EC000049EC000049EC000049EC0000B0
:10EC9000E3EC0000A7EC000045EC0000A1EC000054
:10ECA0009B02D2D4D0E71A03CFD4CDE71F2C40E883
:10ECB00000F3D7D91C4641E800F10B46D0E71F2CE2
:10ECC00040E840F3CED91C4641E840F10B46C7E787
:10ECD0001F2C40E880F3C5D91C4641E880F10B4663
:10ECE000BEE75B03B0D5B0E75902AED5ACE7002074
:10ECF000704700BF53B94AB9002908BF00281CBF9C
:10ED00004FF0FF314FF0FF3000F06CB9ADF1080C5F
:10ED10006DE904CE00F006F8DDF804E0DDE9022339
:10ED200004B070472DE9F047089D04468846002B43
:10ED30007DD18A4217463FD9B2FA82F242B1C2F17E
:10ED400020009140974024FA00F0944040EA0108E6
:10ED50004FEA174C230C1FFA87FEB8FBFCF60CFB9E
:10ED6000168106FB0EF043EA0143984205D9FB18D1
:10ED700002D2984200F22481013E191AA3B2B1FBDB
:10ED8000FCF00CFB101100FB0EFE43EA0144A6450B
:10ED900005D93C1902D2A64500F20F81013840EA9C
:10EDA0000640A4EB0E0400261DB1D4400023C5E9A3
:10EDB00000433146BDE8F08702B9FFDEB2FA82F2C5
:10EDC000002A50D1CB1B4FEA174E1FFA87F80126B5
:10EDD000210CB3FBFEFC0EFB1C300B4608FB0CF9B0
:10EDE00041EA004189450AD979182CBF0123002343
:10EDF000894502D9002B00F0D9800CF1FF3CA1EB32
:10EE00000901A3B2B1FBFEF00EFB101108FB00F8E4
:10EE100043EA0144A04505D93C1902D2A04500F2BD
:10EE2000C9800138A4EB080440EA0C40BCE78B42DF
:10EE300009D9002D00F0B1800026C5E90001304657
:10EE40003146BDE8F087B3FA83F6002E46D18B42F7
:10EE5000C0F0A680824240F2A3803046002DA8D0A8
:10EE6000C5E90048A5E79740C2F1200301FA02F086
:10EE70004FEA174ED94024FA03F31FFA87F894405B
:10EE80000343B1FBFEF01E0C0EFB101100FB08FC4F
:10EE900046EA01418C4509D979182CBF0126002684
:10EEA0008C4502D9002E00F093800138A1EB0C01B3
:10EEB0009BB2B1FBFEF60EFB161106FB08FC43EA03
:10EEC00001418C4505D9791802D28C4500F2878022
:10EED000013EA1EB0C0346EA004679E7C6F12007A4
:10EEE00003FA06F402FA06FC01FA06FEFA4020FADA
:10EEF00007F8F94000FA06F3224348EA0E044FEA05
:10EF000012484FEA144E1FFA82F9B1FBF8FA08FBD7
:10EF10001A110AFB09F04EEA014E70450AD912EBAC
:10EF20000E0E2CBF01210021704501D9002952D0BD
:10EF30000AF1FF3AAEEB000EA4B2BEFBF8F008FBFC
:10EF400010EE00FB09F944EA0E4EF14505D912EB2B
:10EF50000E0E01D2F14538D8013840EA0A40AEEB36
:10EF6000090EA0FB0C89CE4541464C4602D306D182
:10EF7000434504D20138B8EB0C0169EB020415B328
:10EF80005A1A6EEB040EF2400EFA07F72EFA06F349
:10EF900000261743C5E900730BE72E46284608E70D
:10EFA000841A61EB03010120884657E7ACF1020C9B
:10EFB000394424E702383C4434E702383C44EEE666
:10EFC000023E3B44D9E62E46F3E602389644C4E7B7
:10EFD000023839446AE7AAF1020A9644AAE7023ED7
:10EFE000394476E7704700BF2DE9F041002384B033
:10EFF000642A04460D460393CDE9013340F0308185
:10F00000994280F22D8102682D21561C02441F2E48
:10F010000660117100F26D8169420125D74A092904
:10F02000A2FB01034FEAD30303EB8300A1EB4000F3
:10F0300000F130008DF8040040F28581A2FB0370DE
:10F0400063294FEAD00000EB8007A3EB470303F1ED
:10F0500030038DF8053040F28B81A2FB0073B1F5CF
:10F060007A7F4FEAD30303EB8307A0EB470000F15D
:10F0700030008DF80600C0F07D81A2FB037042F2E3
:10F080000F77C008B94200EB800CA3EB4C0303F1EF
:10F0900030038DF8073040F26F81A2FB0073B84F48
:10F0A000DB08B94203EB830CA0EB4C0000F130000D
:10F0B0008DF8080040F26E81A2FB0370B14FC008CA
:10F0C000B94200EB800CA3EB4C0303F130038DF845
:10F0D000093040F2D980A2FB0073AB4FDB08B94284
:10F0E00003EB830CA0EB4C0000F130008DF80A001C
:10F0F000C0F05281A2FB0370A44FC008B94200EBDC
:10F10000800CA3EB4C0303F130038DF80B3040F27D
:10F110004581A2FB00329E4BD208994202EB820746
:10F12000A0EB470000F130008DF80C0040F2388170
:10F13000731C303226441F2B23608DF80D20327152
:10F1400000F2F6802368C1B20A2708265A1C23441D
:10F150001F2A2260197100F2B180236804AA06F107
:10F16000FF3802EB08015A1C234411F80C1C1F2A1B
:10F170002260197178D8B8F1000F6DD0236804AA05
:10F18000A6F1020802EB08015A1C234411F80C1CDA
:10F190001F2A226019716FD8B8F1000F5CD0236864
:10F1A00004AAA6F1030802EB08015A1C234411F833
:10F1B0000C1C1F2A2260197100F28B80B8F1000F1D
:10F1C0004AD0236804AAA6F1040802EB08015A1CDD
:10F1D000234411F80C1C1F2A2260197100F281804F
:10F1E000B8F1000F38D0236804AAA6F1050802EB95
:10F1F00008015A1C234411F80C1C1F2A22601971A3
:10F200007ED8B8F1000F27D0236804AAA6F106081B
:10F2100002EB08015A1C234411F80C1C1F2A22601F
:10F22000197175D8B8F1000F16D0236804AA073EEB
:10F2300091195A1C234411F80C1C1F2A22601971C1
:10F240006ED84EB123689DF804105A1C23441F2A1F
:10F250002260197100F28180E81904B0BDE8F081E4
:10F26000294626680025D9E600232046202140F8BB
:10F27000043B04F02BFD7EE700232046202140F8CC
:10F28000043B04F023FD87E7062707F1FF3804AAB3
:10F29000731C264442441F2B236012F80C2C32713D
:10F2A00049D8236804AA08F1FF3691195A1C23444F
:10F2B00011F80C1C1F2A2260197106D90023204660
:10F2C000202140F8043B04F001FD002E7FF445AFFF
:10F2D000C2E700232046202140F8043B04F0F6FC5E
:10F2E0006CE700232046202140F8043B04F0EEFCAC
:10F2F00076E7202140F8043B04F0E8FC26688BE622
:10F3000000232046202140F8043B04F0DFFC78E78E
:10F3100000232046202140F8043B04F0D7FC81E77D
:10F3200000232046202140F8043B04F0CFFC88E76E
:10F330000A274FF0090800232046202140F8043B0B
:10F3400004F0C4FCADE7731C9DF8042026441F2B79
:10F350002360327126D801277EE720460023202132
:10F3600040F8043B04F0B2FCE81904B0BDE8F081B9
:10F3700002278AE7032788E7042786E7CDCCCCCC91
:10F380009F8601003F420F0080969800FFE0F50540
:10F39000FFC99A3B052778E7072776E7082774E730
:10F3A000092772E7204600232021012740F8043B6B
:10F3B00004F08CFC50E700BF0FB42DE9F04F91B082
:10F3C00000241AAB079453F8047B3A780393002A7D
:10F3D00000F04D831D46DFF87087DFF870972646F2
:10F3E0000CE0079B10A80137591C03441F29079103
:10F3F00003F8202C33D801343A78BAB3252AF0D157
:10F400007B78252B00F0B082583BDAB2202A00F23C
:10F410001881202B00F21581DFE813F04901130158
:10F42000130113011301130113011301130113013C
:10F4300013016D026502130113011301130165022B
:10F4400013011301130113011301130134001301FC
:10F4500013012C0113015C021301130194012021FB
:10F4600007960DEB010004F031FCC4E7079919B1D0
:10F4700008A804F02BFC0444204611B0BDE8F04F6E
:10F4800004B07047DFF8C8B64FF0000A3022079B7F
:10F49000194610A8013301441F2B079301F8202CB3
:10F4A00000F236821BF8012F0AF1010A002AEFD17F
:10F4B00055F8042B5444049602F00F015FEA121C25
:10F4C000059618F801B006968DF810B000F0138379
:10F4D0000CF00F0C18F80C108DF81110110A00F038
:10F4E0001B8301F00F0118F801108DF81210110B99
:10F4F00000F0158301F00F0118F801108DF81310BA
:10F50000110C00F0E88201F00F0118F801108DF8DD
:10F510001410110D00F0068301F00F0118F801100E
:10F520008DF81510110E00F0008301F00F01120F7D
:10F5300018F801108DF8161000F0FA8218F8022061
:10F540004FF0080A8DF8172010A91A4610A80133A9
:10F55000514402441F2B11F8311C079302F8201C60
:10F5600000F28782AAF1020210A910A819440133FF
:10F5700010441F2B079310F8300C01F8200C00F2F8
:10F580003982002A5BD0079B10A9AAF103028818D0
:10F590001944013310F8300C1F2B079301F8200C8D
:10F5A00000F23982002A4AD0079B10A9AAF104026E
:10F5B00088181944013310F8300C1F2B079301F8F9
:10F5C000200C00F23182002A39D0079B10A9AAF141
:10F5D000050288181944013310F8300C1F2B0793CB
:10F5E00001F8200C00F229824AB3079B10A9AAF166
:10F5F000060288181944013310F8300C1F2B0793AA
:10F6000001F8200C00F22282CAB1079B10A9AAF1CE
:10F61000070288181944013310F8300C1F2B079388
:10F6200001F8200C00F243824AB1079B10A95A1C32
:10F630000B441F2A079203F820BC00F24182544475
:10F640004FE1DFF810B54FF0000A5B22079B194627
:10F6500010A8013301441F2B079301F8202C00F25E
:10F6600075811BF8012F0AF1010A002AEFD1013739
:10F670005444C1E655F8043B1A78002A00F0318161
:10F680009A46079BCAF1010B19460DF1400C013354
:10F690000BEB0A0061441F2B079301F8202C00F2AA
:10F6A00046811AF8012F002AEED1044419E155F8D9
:10F6B000043B049603F00F020596069619F802A083
:10F6C0001A098DF810A000F0DC8102F00F0219F881
:10F6D00002208DF811201A0A00F0E38102F00F02D7
:10F6E00019F802208DF812201A0B00F0DD8102F0CB
:10F6F0000F0219F802208DF813201A0C00F0E8818F
:10F7000002F00F0219F802208DF814201A0D00F0F3
:10F71000EC8102F00F0219F802208DF815201A0E64
:10F7200000F0E68102F00F021B0F19F802208DF89D
:10F73000162000F0EE8119F803304FF0080B8DF819
:10F74000173049E055F8043B049603F00F02059684
:10F75000069618F802A01A098DF810A000F0918101
:10F7600002F00F0218F802208DF811201A0A00F09A
:10F77000988102F00F0218F802208DF812201A0B5F
:10F7800000F0928102F00F0218F802208DF8132089
:10F790001A0C00F09D8102F00F0218F802208DF87B
:10F7A00014201A0D00F0A18102F00F0218F80220B7
:10F7B0008DF815201A0E00F09B8102F00F021B0F2E
:10F7C00018F802208DF8162000F0A38118F80330F5
:10F7D0004FF0080B8DF81730079B10A910A81A4698
:10F7E0005944013311F8311C02441F2B079302F8CE
:10F7F000201C00F23481ABF1020210A910A81944B8
:10F800000133104407931F2B10F8300C01F8200C23
:10F8100000F2BA80002A5BD0079B10A9ABF103026B
:10F8200088181944013310F8300C1F2B079301F886
:10F83000200C00F2B280002A4AD0079B10A9ABF13D
:10F84000040288181944013310F8300C1F2B079359
:10F8500001F8200C00F2AA80002A39D0079B10A9D9
:10F86000ABF1050288181944013310F8300C1F2B36
:10F87000079301F8200C00F2A2804AB3079B10A95D
:10F88000ABF1060288181944013310F8300C1F2B15
:10F89000079301F8200C00F29B80CAB1079B10A9C6
:10F8A000ABF1070288181944013310F8300C1F2BF4
:10F8B000079301F8200C00F294804AB1079B10A92D
:10F8C0005A1C0B441F2A079203F820AC00F29B80BD
:10F8D0005C4406E0752207A855F8041BFFF784FB7B
:10F8E0000444023788E5642207A855F8041BFFF793
:10F8F0007BFB0444F5E7079B10AA55F8041B1A4448
:10F9000001331F2B02F8201C079336D80134E8E797
:10F91000202107960AF1010A0DEB010004F0D6F947
:10F920001BF8012F002A7FF4B2AD079BC0E5202110
:10F9300007960DEB010004F0C9F90BEB0A001AF869
:10F94000012F002A3FF4B1AE079B9DE620210796C8
:10F950000AF1010A0DEB010004F0B8F91BF8012FC0
:10F96000002A7FF473AE82E6079B10A8591C03445B
:10F970001F29079103F8202CC8D9202107960DEBE9
:10F98000010004F0A3F9C1E72021019207960DEBD5
:10F99000010004F09BF9019A3CE7202101920796AF
:10F9A0000DEB010004F092F9019A44E72021019245
:10F9B00007960DEB010004F089F9019A4CE720212C
:10F9C000019207960DEB010004F080F9019A54E7CB
:10F9D0002021019207960DEB010004F077F9019ABE
:10F9E0005BE72021019207960DEB010004F06EF910
:10F9F000019A62E72021019207960DEB010004F0C5
:10FA000065F9019ABDE5202107965C440DEB0100E4
:10FA100004F05CF965E72021019207960DEB0100E7
:10FA200004F054F9019ABDE52021019207960DEBEF
:10FA3000010004F04BF9019AC5E5202101920796D7
:10FA40000DEB010004F042F9019ACDE5202101926D
:10FA500007960DEB010004F039F9019AD4E5202155
:10FA600007960DEB010004F031F9079BC3E614463D
:10FA700002E5202107960DEB010004F027F9079B12
:10FA800070E5079B0DF1400C9DF81000591C634474
:10FA90001F29079103F8200C20D84FF0010B5C447C
:10FAA0001FE74FF0020B97E64FF0030B94E620217F
:10FAB000019207960DEB010004F008F9019AB3E5F5
:10FAC0002021079654440DEB010004F0FFF808E7ED
:10FAD0004FF0040B80E64FF0040A35E52021079231
:10FAE0000DEB010004F0F2F8D7E74FF0050B73E6D9
:10FAF0004FF0060B70E610AA9DF810101A4401335F
:10FB00001F2B02F8201C079315D84FF0010A54440C
:10FB1000E7E64FF0070B5FE64FF0020A14E54FF0FF
:10FB2000030A11E54FF0050A0EE54FF0060A0BE552
:10FB30004FF0070A08E52021CDF81CC00DEB0100AD
:10FB400004F0C4F8E1E700BFB4FB0000C4FB000010
:10FB50009CFB0000A0FB000011DF704710DF704726
:10FB600070B584B00E461D46099C01A9089B0196FC
:10FB7000CDE90254FFF7F0FF04B070BD12DF70470B
:10FB80000ADF704713DF704715DF704717DF7047D4
:10FB900018DF70470BDF70470CDF704730780000CC
:10FBA0005B556E737570706F727465642054616715
:10FBB0005D00000030313233343536373839616218
:10FBC0006364656630313233343536373839414213
:10FBD0004344454600000000000000000000000013
:10FBE00008B5002000F05EF901460A4800F092F9DD
:10FBF00010B90346184608BD064800F08FF90346C1
:10FC00000028F7D100F04EF901460248BDE808404F
:10FC100000F080B9CC3400202DE9F04F14461D4689
:10FC200087B054EA0503DDF84090DDF844A06CD0BD
:10FC30003AF0070363D1042203A90390344E3548F8
:10FC4000CDE90445FDF712FC082204A93248FDF76E
:10FC50000DFC32462F49314800F0C6F9074600280E
:10FC60003FD010F18C0F38D140F24C46DFF8B08015
:10FC70004E45404628BF4E46314605F055F83346BE
:10FC80004A4624492548CDE900A800F049F907462D
:10FC900018BBB9EB060520D0C346DFF878A0DFF823
:10FCA0007C9001E02D1B18D040F24C445846AC42E9
:10FCB00028BF2C46214605F037F8334622465146E8
:10FCC0004846CDF80080264400F0B0F90028E9D07D
:10FCD00007461049114800F00BFA384607B0BDE856
:10FCE000F08FB368DB070DD40A490C4800F000FA26
:10FCF00007460028B8D0384607B0BDE8F08F6FF04F
:10FD00008507EAE76FF08407E7E76FF08607E4E727
:10FD1000EC340020E0340020E4340020CC34002017
:10FD2000803000202DE9F04F14461D4687B054EA7C
:10FD30000503109E43D0042203A90390214F2248BB
:10FD4000CDE90445FDF792FB082204A91F48FDF701
:10FD50008DFB3A461C491E4800F046F9834650BBCD
:10FD60003D68B5422BD3AD1B119B1A4F9D42DFF866
:10FD700058A0B946DFF8588028BF1D46129B1D6069
:10FD800003E004F0DFFF2D1B15D040F24C44334656
:10FD900051464046AC42009728BF2C462246264496
:10FDA00000F01CFA834621464846BBF1000FE8D01C
:10FDB0000023129A1360584607B0BDE8F08F6FF029
:10FDC000860BF8E7EC340020E0340020E434002017
:10FDD000CC34002080300020F0B514461D4685B09C
:10FDE00054EA05030A9F1CD0042201900E480DEB33
:10FDF00002010E4ECDE90245FDF738FB08220C4802
:10FE00000DEB0201FDF732FB32460749094800F0CD
:10FE1000EBF820B9B2683368BA60C7E9003305B0BF
:10FE2000F0BD6FF08600FAE7E0340020EC340020EB
:10FE3000E4340020CC34002070B514461D4684B054
:10FE400054EA05021FD00422034612480DEB0201BA
:10FE50000193114ECDE90245FDF708FB08220F483A
:10FE60000DEB0201FDF702FB32460A490C4800F097
:10FE7000BBF830B9B368DB0708D40649084800F07E
:10FE800037F904B070BD6FF08600FAE76FF08400B8
:10FE9000F7E700BFE0340020EC340020E434002019
:10FEA000CC340020014B53F8200070479C0C01001B
:10FEB0002DE9F04FC3B0DDE94C962EB305468A46D6
:10FEC00090469B4606E00094AF68B8470746B8B92D
:10FED000361B19D0B6F5807F34466F684B4628BF75
:10FEE0004FF4807402AA594628460094A144B847AA
:10FEF0000746434602AA51462846A044002FE2D0B6
:10FF0000384643B0BDE8F08F0027384643B0BDE81F
:10FF1000F08F00BF016000F047BB00BF00F0FABCEB
:10FF20002DE9F0431D46036891B09B8C934258D352
:10FF3000164604AA04460F4600F0CEFA002850D018
:10FF400004AB0DF114080DF1200932460093394637
:10FF5000189B2046CDE9019800F04AFCC0B9D5B9FC
:10FF600042460899204600F0A3FD002836D14A46B3
:10FF70000499204600F000FE80BB0499204600F062
:10FF80006BFA58BB089B23BB1DB3204600F040FB17
:10FF900011B0BDE8F08301462A460B9800F004FE3C
:10FFA0000346D8B9199A41462046CDE900524A463F
:10FFB00000F0B0F990B9059E204608990A9500F026
:10FFC00085FA03463146089A2046059300F06CFDF9
:10FFD000C6E7204600F04EFB0028D6D06FF0830025
:10FFE000D6E76FF08600D3E770B58AB014460546B1
:10FFF0000E4601AA00F070FAA8B9284602AA019993
:020000021000EC
:1000000000F074FB08B10AB070BD30460C2207A99D
:10001000FDF71EFA38B9049BDDE905122360C4E937
:1000200001120AB070BD6FF08B00ECE770B58EB0B6
:1000300016461D46044602AA00F04EFA002853D187
:100040000299204606AA00F051FB00284CD10699DF
:10005000204603AA00F098FB002841D1089B9D424E
:100060003ED832462946099800F09EFD002837D137
:10007000129B06AA03A9204601932B46009600F086
:1000800049F968BB089B3544069920469D4288BFC4
:100090000895039D00F01AFA0346069A2946204661
:1000A000039300F001FD03AA0699204600F000FD2D
:1000B000B0B906AA0299204600F05EFD80B9029907
:1000C000204600F0C9F958B9069B23B9204600F034
:1000D0009FFA0EB070BD204600F0CCFA0028F5D093
:1000E0006FF083000EB070BD6FF08B00F1E700BFC2
:1000F0002DE9F04F8DB00368044603AADE8B00F0B3
:10010000EBF9002867D10399204604AA00F0EEFA23
:1001100010B10DB0BDE8F08F09A800F051FD014607
:10012000002858D1202204A8079FDDE90458FDF7D4
:10013000C4F904AA0399204600F01EFD0028E8D166
:100140002368B346DB8C6BB3824681460CE004AA7D
:100150005146204600F010FD0028DAD12368DB8CE0
:100160000AF1010A53451ED9039E514604AA2046AE
:100170005645F5D000F0BAFA0028CAD1049BAB422C
:10018000E5D109A800F01CFD0028E0D1059B4345FE
:10019000A3EB0702DBD907999B45059228BF9B4635
:1001A0008944D4E799465B463A4629462046CDF82D
:1001B0000490CDF8008000F03FF80028A9D135B1B7
:1001C000204600F057FA10B16FF08300A1E72046F7
:1001D00000F01EFA9DE76FF08B009AE7F0B58DB046
:1001E00016461D46044603AA0F4600F075F900BBEB
:1001F0000399204604AA00F079FAB8B938460C22CF
:1002000009A9FDF725F9A0B932462946069800F05C
:10021000CBFC08B10DB0F0BD129B2A4604A92046C4
:100220000093334600F05AF80028F3D06FF08300B3
:10023000F0E76FF08B00EDE72DE9F04186B017464F
:100240009846054603AA0E4600F09EFA044618B1E9
:10025000204606B0BDE8F081059B314628461F4484
:10026000059700F033F90D9B07461BBB049A0C9BC6
:100270009A4208D2991A0092039B01913946286844
:10028000FFF716FE08BB32460399284600F00CFC27
:1002900003AA31462846039700F00AFC0446B8B981
:1002A000002ED5D02868C36898470446204606B07B
:1002B000BDE8F08101930146CDF800800C9A039BC4
:1002C0002868FFF7F5FD0028D0D06FF08304BFE762
:1002D00032463946284600F0E7FBB9E7F0B587B06B
:1002E00015460C46096803AA1F46064600F04CFA5C
:1002F00058B903994B1C08D0306863680C9A009772
:100300002B444468A04707B0F0BD6FF0830007B0EE
:10031000F0BD00BF2DE9F043154685B00E461168CB
:100320001C460746DDE90C9800F0D0F86B6872684F
:1003300001461C4403900092A4EB020C3368386819
:10034000CDF804C0FFF7B4FD40B938682346CDF8B6
:100350000090424684680399A04710B105B0BDE8FB
:10036000F0833868B368C48B6A68E41A3368EE684F
:1003700003993244A41ACDE90024FFF799FD00281F
:10038000ECD12B68002BE9D03868C36805B0BDE814
:10039000F0431847F0B5082787B0002305460097BB
:1003A0000DEB0702006819464468A047B8B99DF8EC
:1003B0000C60012E13D1044628689DF80E2090F899
:1003C00028309A420CD000972346476804AA314649
:1003D000B847F0B10020EC602E6107B0F0BD28688E
:1003E0000821002304AA009101214468A04750B9C4
:1003F0009DF81440012C06D12B689DF8162093F827
:1004000028309A4203D16FF0830007B0F0BD064652
:10041000E0E79DF81440012C1CD12B689DF81620B4
:1004200093F82830934214D09DF80E300AB9012B6E
:10043000EDD1541E18BF0124002B18BF002484F0F6
:10044000010493422CBF002404F0010484F001064F
:10045000C0E726460446BDE7F0B5044600680D46F1
:1004600085B0028C2169022AE3682DD0023A02EBA2
:100470004202920008326E01CDE90026CDE9021356
:10048000FFF716FDE0B924680135228C022ADDE968
:10049000021317D0023A02EB42029200B4F826C0CF
:1004A000283602EB4C17324407F10806964207D96A
:1004B000ACEB0505204600926D010195FFF7F8FCB5
:1004C00005B0F0BD0C22E9E71422D4E709B1406879
:1004D00070470069704700BF2DE9F043054600688A
:1004E0008BB0C38C002B4FD00E46904600242027A3
:1004F000038C022B4DD0023B03EB43039B0003EB29
:100500004413009702AAD0F804900833E968C8475A
:1005100020B16FF083000BB0BDE8F0832B68029A26
:100520001B8C022B14BF023B01239A42F1D207A875
:1005300000F046FBE8B92868059A838C9A42E8D80F
:10054000049B9A42E5D3029B2BBB038C0399022B9D
:10055000B0F826C021D0023B03EB43039B0003EB22
:100560004C1308339942D4D3C08B00F01DFB0028F4
:10057000CFD107A80C223146FCF76AFF78B1286872
:100580000134C38CA342B3D86FF08B000BB0BDE82D
:10059000F0830C23B3E70399E6E70C23DFE7C8F801
:1005A00000400BB0BDE8F08330B50446006883B06E
:1005B0000368984708B103B030BD2046FFF7EAFE54
:1005C000034608BB22460825E16852F8040B009553
:1005D0004568A847C0B9237A012B15D12068A27AB3
:1005E00090F828309A420FD0036921699847002873
:1005F000E1D123681A8C022ADDD9184661681B698B
:1006000003B0BDE8304018476FF0830003B030BD41
:1006100030B5837A0446006883B00133DBB2A3723D
:1006200090F828209A4221D008210023221D009111
:1006300021698568A84718B92068C368984708B138
:1006400003B030BDD4E903132068C4E90331036962
:1006500098470028F4D123681A8C022AF0D918464A
:1006600061681B6903B0BDE8304018470023A372DE
:10067000DAE700BF70B50C2586B004460823009564
:100680000DEB05020068E1684668B047E0B92368F1
:1006900003991A8C914226D2D88BDDE9041200F01E
:1006A00083FA00BB039B012B10D90246049B9342A3
:1006B00019D12068059BC58B0092ED1AAD1AD4E9BB
:1006C00003310195FFF7F4FB06B070BD2268138C6F
:1006D000D28C022B03D0023B03EB43039D0005EBBE
:1006E00042120832E2E76FF09700EDE770B5064678
:1006F000006882B01546048C022C3BD0023C04EB0F
:100700004404A30003EB411320242A460094083339
:100710004468F168A047044648BB33682A681B8CCC
:10072000022B14BF023B01239A4229D205F1140087
:1007300000F046FAD8B93068EA68838C9A421FD82C
:10074000AB689A421CD32B68B3B9038C6968022B3F
:10075000C58C13D0023B03EB43039B0003EB451313
:10076000083399420CD3C08B00F01EFA40B92046E2
:1007700002B070BD0C23C5E76968F4E70C23EDE710
:100780006FF09704F3E700BFF0B501EB410183B0D0
:100790000C2504468B001646009500680833E16876
:1007A0004768B84788B9236831681A8C91421BD2D0
:1007B000D88BD6E9011200F0F7F9A8B93368012BFC
:1007C00005D905467368AB420ED103B0F0BD22686F
:1007D000138CD28C022B03D0023B03EB43039D000E
:1007E00005EB42150835EDE76FF09700EDE700BF28
:1007F0002DE9F04F8DB004468946164600684FF04B
:10080000080800274FF00C0A189D039318E0206891
:100810002A68038C9A4256D2C08BD5E9011200F0A7
:10082000C3F9F0B92B68012B3DD9024620686B68EB
:10083000934248D1AB6808F10C089E4245D9013774
:10084000038C022B14BF023B01239F423BD2CDF805
:1008500000A04346D0F804B02A46E168D8470028F3
:10086000D5D020680127C38C9BB1002608E000F09A
:10087000A7F9002843D123680136DB8C9E4208D2B9
:1008800004AA31462046FFF731FF054609A8002D8E
:10089000EDD04FF6FF73169A6FF08D051360284662
:1008A0000DB0BDE8F08F2068018CC28C022908D001
:1008B000023901EB4101890001EB421101F108020B
:1008C000B5E70C21F8E70127CDE79C46179AC38BC3
:1008D000494617600C22A3EB0C031798179FC660BC
:1008E00014307B600027FCF7C1FDAA68179B961B9C
:1008F00020681946039B8F600B61AE60B3E74FF62B
:10090000FF73169A9E42166001D0002FC7D06FF079
:100910008D05C4E72DE9F0418EB00546FFF73AFD9D
:10092000002870D12E69286831460369984704462B
:10093000002864D12868B6FA86F103694909984706
:10094000044600285BD12868AC72038C022B5CD172
:1009500001220C23EC602A726A602A61C28C08337F
:10096000C18B0C24002603EB421303AA0094C91A7E
:10097000846804930823059101210396A047044647
:1009800000283CD12A680490138CD18B022B05914E
:1009900010D00646033BF11C10469E4206F10106AC
:1009A00061D2136998472A680443138C022BF1D152
:1009B000002C52D12022002106A8FCF77EFD2868D9
:1009C000C38C73B30024202603E02868C38CA342A1
:1009D00027D9028C0096931E022A876806AA03EB89
:1009E000430308BF0C23296918BF9B0003EB441382
:1009F00001340833B8470028E7D06FF0830420465D
:100A00000EB0BDE8F08100268DE7023B01220221F5
:100A1000EC6003EB43032A722A618B40C28C69604D
:100A20009DE7AB7A0133DBB2AB7290F828209A4293
:100A300016D0082100232A1D009129698468A04747
:100A40000028DAD12868C368984704460028D6D120
:100A5000D5E90323C5E90332D1E76FF09104CEE76E
:100A60000023AB72E5E7002CF7D114264FF00C08F9
:100A70000CE0744504F101049CD2CDF80080CDF85F
:100A80000CC08F682969B8470028B6D12968334659
:100A900004F1030C03AA0F8C08460C36022FA7F1B1
:100AA000030EE6D186E700BF02B14160704700BF88
:100AB0002DE9F043074687B00C4621BB06690C259B
:100AC000006808231660009539698568A8470028E2
:100AD0004CD1D7E903650134386804EB4404038C36
:100AE000A100022B01F108023ED0023B03EB4303BD
:100AF0009C00641A3346294600920194FFF7D8F906
:100B000007B0BDE8F08301EB41084FF00C09006825
:100B10004FEA8808CDF800903969856808F1080324
:100B2000A847014610BB384603AA3D69FE68FFF797
:100B30002BFED8B9386803AACDF800900823D0F866
:100B4000089039690395C84780B9012CC3D9A8F129
:100B50000C00142233462946CDE900203868FFF7FF
:100B6000A7F90028B7D0CBE70C24C2E76FF08300C9
:100B700007B0BDE8F08300BF30B5056883B02C8CAA
:100B8000022C0ED0023C04EB4404A40004EB4113FD
:100B900020240169284600940833AC68A04703B0BC
:100BA00030BD0C24F2E700BF814206D8411A9142C1
:100BB00034BF6FF08600002070476FF086007047EA
:100BC0000278D2B94378C3B98278B2B9C378A3B9ED
:100BD000027992B9437983B9827972B9C37963B9D9
:100BE000027A52B9437A43B9837A33B9C37A002B74
:100BF0000CBF6FF08B00002070470020704700BFD3
:100C000008B5034600205B699B689847002818BF19
:100C10006FF0910008BD00BF70B584690E46C58BAA
:100C2000114623444469049A06FB053063699847DA
:100C3000002818BF6FF0910070BD00BF70B58469C7
:100C40000E46C58B114623444469049A06FB0530C1
:100C5000A3699847002818BF6FF0910070BD00BFCE
:100C600000207047C38BBBB170B504460E4600250B
:100C700004E0A28BE38B1544AB420BD9D4E90520E9
:100C800003FB0600D269284490470028F1D06FF09A
:100C9000910070BD002070BD00207047A40C0100C1
:100CA000D00C0100010C0100190C01003D0C0100E9
:100CB000610C0100650C0100749E020000680000D8
:100CC000000800080A0001004C042000FF0000009A
:100CD000010C0100190C01003D0C0100610C010028
:100CE000650C0100749E020000B8000000080008B6
:100CF0000200010028020700FF00000000000000C1
:100D0000F0B5ADF5297D056914AB04AA402D019518
:100D10000293036A0092039323D887680446124E15
:100D20002B46002140683760FEF72EFF854215D123
:100D30000123684602AA194600F0A6FA054618B132
:100D400028460DF5297DF0BD60682946DDE90223BE
:100D5000FEF71CFF28460DF5297DF0BD6FF08305D9
:100D6000EEE76FF08605EBE7904700202DE9F041B4
:100D7000A6B000F075FAF0B915AE02AD564F4FF0BF
:100D800000414FF0FF30FEF7FBFE10F0100847D196
:100D900010F020045CD143060ED509A94020FEF7CF
:100DA000F1FE0999002908DA023150DB21460A9840
:100DB000FEF7EEFEE3E7FEE7FEE779D10222042329
:100DC000DDF8488041200DEB03040396904507951C
:100DD00005940490069208936ED1139B042B6BD15B
:100DE0000B9C032303AA08463C6000F0ADFA029B6B
:100DF0000446119A9A426CD30028D7D13246014654
:100E00000A98FEF7C3FE069B01AA0A980121FEF785
:100E1000BDFE4146089B2A460A98FEF7B7FEC5E785
:100E200031461020FEF7AEFE159B002B06DA02338A
:100E30003FDB00211698FEF7ABFEA0E73AD1304623
:100E4000FFF75EFF01461698FEF7A2FE97E7FEE762
:100E500031462020FEF796FE159B002B02DA023366
:100E6000E7DAFEE727D11D9B01AA1999042B03920B
:100E7000099504910A9322D1043918BF0121F1B9CF
:100E80000423179C16980DEB03023C60FEF77CFED2
:100E9000199B984213D1012309AA03A8194600F00F
:100EA00023FA044670B121461698FEF771FE66E7F4
:100EB000CDE7FEE7FDE7D4E76FF0860476E76FF055
:100EC0008604F0E701460A9B099A1698FEF75EFE33
:100ED000E9E76FF0890469E79047002000232DE9D6
:100EE000F047164682B080460F461C46DFF880A0C9
:100EF00042F216091360BAF800304B4524D1BAF813
:100F0000025055442CB3042221460DEB0200FCF79D
:100F1000ADFABDF80610346804310C440EE004222A
:100F200021460DEB0200FCF7A1FABDF8043013F4E2
:100F30007C6F10D0BDF8063004331C44A542EED8B7
:100F4000002002B0BDE8F0874FF0FF3002B0BDE8EE
:100F5000F087064CF2E703F03F03BDF8062034604B
:100F600098453A80C7D10120F0E700BF2445002012
:100F7000204500202DE9F04F1546CDB00022064651
:100F8000009110A811466FF0060300F0E1F9044645
:100F900038B1012800F0DF80052420464DB0BDE8BF
:100FA000F08F3246A14910A800F05AFA05AA0DF1B7
:100FB000120120460794CDE90544FFF78FFF012871
:100FC00040F0CE80059B08AEBDF812200433CDE979
:100FD000063206AA964910A800F042FA304600F000
:100FE00075FA04460028D8D1924910A8324600F07C
:100FF00037FA2023314605A8059303F015FB002896
:1010000040F0B880059B06AA8B4910A8CDE906637D
:1010100000F026FA304600F0F3FD04460028BCD16B
:10102000326810A88549D31700F00AFA32460DF14C
:10103000120102203460FFF751FF012800F09F8069
:1010400003F09EFAB0F5C24FA6D282B200237C49CB
:1010500010A84FF00008DFF804A242F2160B00F0CF
:10106000EFF910A800F0EAF9CDE90280BAF80030F3
:101070005B457FD1BAF80290724BD144994522D991
:101080001F4604E0738804331F44B9451BD904226A
:1010900039463046FCF7EAF93388C3F3851398459F
:1010A000F0D1029BB6F802900133012B029300F0BD
:1010B000B2800437C6F8049009210398376096E897
:1010C0000C0000F027FB08F10108B8F1070FCDD1A3
:1010D000029B002B70D003980022042100F0C2FB79
:1010E00006A803F063FA306030B1069B32465649D9
:1010F00010A8736000F0CAF906A803F069FA30601E
:1011000030B1069B3246514910A8736000F0BEF919
:101110000023122242F216091F46069307930592F6
:10112000BAF800304B454ED0314605A803F096FA88
:1011300000BB059BCDE90663454910A806AA00F04F
:10114000A5F9294610A800F049F900283FF425AF79
:1011500001287FF421AF022420464DB0BDE8F08F76
:1011600008AE2020314603F03BFA18B92023CDE920
:1011700006632EE7032420464DB0BDE8F08FBDF88E
:1011800012203368022A03F1040108D0042A0DD08A
:10119000012A7FF401AF1879069080B255E705A8BF
:1011A000FCF764F9BDF8140006904BE706A8FCF7BD
:1011B0005DF9BDF8180045E701220023254910A874
:1011C00000F03EF98CE7BAF80280D0440FB33946FC
:1011D00004223046FCF74AF9738804331F44B845AB
:1011E00005D8A1E7738804331F44B8459CD904226D
:1011F00039463046FCF73AF9338813F47C6FF1D165
:1012000003F03F037288012B8AD10437CDE90672BF
:1012100092E70C4FE3E703984FF0FF330E4A00F0DC
:1012200013FA0421039800F0F1FA42E700DBFEFF15
:1012300004DBFEFFFFDAFEFF05DBFEFF07DBFEFF40
:1012400006DBFEFF24450020FEDAFEFF08DBFEFF82
:1012500003DBFEFF01DBFEFF02DBFEFF204500207B
:101260004FF400720649012008B500F0D1FC0528B2
:1012700003D8044B53F8200008BD6FF0830008BD6D
:10128000204500206C1E010030B5D0E9005387B026
:101290001446402BD2E90012CDE90053CDE90212E9
:1012A00007D023F01003202B03D06FF0860007B087
:1012B00030BD002AF9D004AA02A96846FFF75AFEF9
:1012C00028B9DDE90423C4E9002307B030BD0528AF
:1012D00003D96FF0830007B030BD024B53F82000F4
:1012E000E5E700BF6C1E01000368002150681B6821
:1012F000032830B56FF0004487B015680193009162
:10130000CDE9021405D9402B07D023F01003202B80
:1013100003D06FF0860007B030BD04AA02A968466A
:10132000FFF728FE18B9059B2B6007B030BD0528D4
:1013300003D96FF0830007B030BD024B53F8200093
:10134000E9E700BF6C1E01006FF08500704700BF29
:10135000F0B516460D4600F1A007044683B05022B2
:101360000021C0E9265638461E46ED0FFCF7A5F8C9
:101370004FF4803301A8C4F8C060C4F8E430C4F866
:10138000D85000F099F818BB034601990222C4F81E
:10139000DC00C4F8E030204684F8C820C4E93413E7
:1013A000089B93E8060000F037F92146384600F024
:1013B00021FB054628B103280ED0192814BF0325A8
:1013C00001252046052100F021FA284603B0F0BD92
:1013D0000E25284603B0F0BD0425F2E770B504469B
:1013E00082B00D460022052100F03CFA214604F1AE
:1013F000A00000F085FB40B1032816D0192814BFC7
:1014000003230123184602B070BD6E4620463146C4
:1014100000F06AFA01280346F4D050B996E80300B8
:1014200085E80300184602B070BD0423184602B0D8
:1014300070BD0223184602B070BD00BF704700BFE8
:1014400070B51D46164604460A46CB1700F0FCF858
:1014500032462B462046BDE8704000F0F5B800BF8C
:1014600070B5144682B00A46CB170546D4E900642D
:1014700000F0EAF802AB009628460194022113E935
:101480000C0002B0BDE8704000F044B970B51446DD
:1014900082B00A46CB170546D4E9006400F0D4F8C0
:1014A00002AB009628460194032113E90C0002B018
:1014B000BDE8704000F02EB9034B1B6813B1036008
:1014C00000207047052070470045002070B5174D7B
:1014D00082B004462A6832B12CB3154B0020C4E90F
:1014E000003202B070BD134B01921E68C6B11249A2
:1014F00001A803F06DFB98B93246104901A803F02A
:101500008BFB68B90A4E01A82B462022711C03F000
:10151000A7FB28B92A6801231A4433702A60DBE745
:10152000032002B070BD0520DBE700BF8C47002020
:1015300068470020044500200900000124470020DE
:101540002DE9F0470C2986B0DDE90E451FD00D29A5
:1015500018D0002D08BF182C1ED2EAB904EB411197
:101560000DF1150CC9B26646741E06F8011C109BDD
:10157000ACEB040221460194029200F0EDF906B0B2
:10158000BDE8F0870DF1150CBF216646ECE70DF1C3
:10159000150C9F216646E7E707290DF1150C06D1CA
:1015A000002D08BF1F2C02D1FF216646DCE7002A70
:1015B00002DC54EA050328D0DFF858A04FF0000EF3
:1015C00066461AF8019BB9F1000F0BD0A6EB09088B
:1015D000230A06F8014D2F0A464543EA05633D46B6
:1015E0001C46F5D154EA0507A2EB09020EF10103EE
:1015F00001D1002A01DD9E46E3E70EF1180E5FFAE5
:101600008EFE0EEB4111C9B2AEE74FF0170E6646E3
:10161000F7E700BF841E010030B583B004466D4675
:1016200085E8060098220021FBF747FF204695E851
:10163000060000F07DF904F114020423C4F894209C
:10164000A37603B030BD00BF2DE9F047057C86B01E
:1016500045BB1F46002A044677F1000325DB3B46C5
:10166000AC46D4F808800DF11507002B08BF182AE6
:1016700027D239464E1E624443462046BF1B01F81E
:10168000012C314601963A46029700F065F9D4F8EC
:1016900094104FF6FE728B88D21A012A30DD013386
:1016A0008B80257406B0BDE8F087FB43D2434FF032
:1016B000200CD4F80880002B0DF1150708BF182A5C
:1016C000D7D3DFF84CA04FF0000938461AF8011BB9
:1016D000C9B1411A160A00F8012D4FEA132E8842AB
:1016E00046EA036673463246F4D152EA030009F132
:1016F000010602D00846B146E8E709F11802B9E749
:1017000003252574CEE709F101060146F2E700BF83
:10171000841E0100F0B589B0077C04AE86E80C0099
:101720000FBB0929044609D00B29059B1DD08568EC
:101730003A460093CDE90175FFF702FF06AAA368B8
:1017400096E8030082E80300204606CA00F004F988
:10175000D4F894104FF6FE728B88D21A012A0DDD50
:1017600001338B80277409B0F0BD85683A460221A9
:101770000093CDE90175FFF7E3FEE9E7032727743E
:10178000F1E700BF2DE9F0411D4686B0144683689D
:10179000002D0DF1150708BF182A0ED23A46551E26
:1017A000403C7F1B02F8014C294601953A460297BE
:1017B00000F0D2F806B0BDE8F081DFF84CE04FF061
:1017C000000C39461EF8012BB2B18A1A260A01F81C
:1017D000014D4FEA1528914246EA056645463446D2
:1017E000F4D154EA05010CF1010609D011461EF8A6
:1017F000012BB446002AE8D10CF101060A46F5E7B0
:101800000CF11804CBE700BF841E010070B4D0F8BF
:1018100094404FF6FE72A388D21A012A1ADD856819
:101820000133002215F1660FA380027403D9072348
:1018300070BC0374704700F18C039C420ED004F11D
:1018400008061346C0F89460A281A560A1730374D2
:1018500070BC7047032370BC037470470223037489
:10186000F6E700BF037C83B9D0F89430F0B5154695
:1018700000F1140287B00446934207D09879814260
:1018800008D00F23237407B0F0BD704704230374FE
:1018900007B0F0BD02281E68A26823D09B880528E7
:1018A00008BF5B0800270146029620463A4600938F
:1018B0000197FFF745FE65B1214604A800F080F8C6
:1018C000DDE9043296420BD803B13344971BC5E9D6
:1018D0000037D4F89430083BC4F8943007B0F0BD1A
:1018E0003B46F4E7931BDDE770B5837B82B023B101
:1018F00001240474204602B070BD047C002CF9D190
:1019000000F11403D0F894209A4203D00A24204610
:1019100002B070BD6E460D460146304600F050F8EC
:1019200096E8030085E80300204602B070BD00BFC2
:1019300070B483B00346002540F60F366C469E8196
:101940009D609D7384E8060094E8030083E8050029
:1019500003B070BC704700BF70B584B00446807B94
:1019600004AD05E9060030B9A18940F60F32914275
:1019700003D00123A37304B070BDD4E901128A42DD
:10198000F7D8891A039DA942F3D39A42F1D3266866
:10199000D21A019306EB03000BD01EB9A3681D44B5
:1019A000A560E8E701462844FBF76DFD2668019B2A
:1019B000F018002EF2D02A460299FBF764FDEDE7FD
:1019C0008B7B9BB940F60F3210B48C89944206D1C0
:1019D0008A680B685DF8044BC0E900327047012249
:1019E0005DF8044BC0E900338A7370470023C0E9F7
:1019F000003370472DE9F0410446AAB0006A0E4654
:101A000000F00EF900286FD0A36B9A0766D5042169
:101A10003046FFF7FBFE04AD182321462846276A0F
:101A20001A46CDE90043FFF7F7FD05212846FFF7E9
:101A3000EDFE284601220023FFF706FE3A46FB177B
:101A40002846FFF701FE284600220521FFF70AFF7E
:101A5000284602A9FFF748FF0746B8BBDDE9023276
:101A6000C4E90632002B49D01146184685E8030028
:101A70000221304695E80C00FFF74CFEA36BDB0714
:101A800037D4D4F8408005213046E46BFFF7BEFE22
:101A9000B8F1000F0DD064B1042200233046FFF7E7
:101AA000D3FD02213046CDE9044895E80C00FFF74C
:101AB00031FE002230460521FFF7D4FE30460221D8
:101AC000FFF7A4FE38462AB0BDE8F08100230227C4
:101AD000C4E9063338462AB0BDE8F081122200235B
:101AE0003046FFF74FFE92E7012738462AB0BDE89F
:101AF000F0811C2738462AB0BDE8F0810227E9E7CB
:101B00002DE9F043ADB00C46402105461CAB10AEAC
:101B100014AF0D910C932023324620460221CDE9CB
:101B20000E73FFF79FFEA37B33B1012319262374A5
:101B300030462DB0BDE8F083237C012B5DD0002B17
:101B40003ED1226862B30DF1200902AFDDE90E013A
:101B5000CDF81090EA6987E8030096E803008DE865
:101B60000300A969286A00F061F806460028DFD161
:101B7000AB6B0DF12808DB0727D512AB98E8030003
:101B800083E80300204602210CCBFFF7C3FD20466B
:101B900000220421FFF766FE30462DB0BDE8F08339
:101BA000286B0BAB696B0DF1280802930A92EB6A64
:101BB0008DE80300AA6A286A00F0F8F80646DCE718
:101BC000182630462DB0BDE8F083DDE90C0104AAEB
:101BD000CDF81880EB6A82E8030099E80300AA6A4E
:101BE00087E80300D5E90C018DE80300286A00F0BE
:101BF000A3F80028C1D006469AE7192698E700BF47
:101C0000024A0346002012681A607047904700207D
:101C100008B5FBF76BFD003818BF012008BD00BFF9
:101C2000C31D0CBF6FF00F00002070472DE9F0437B
:101C3000BDB03024DFF8FC9080460AAD6F4616A890
:101C40001E4602950025039408AC87E80600302262
:101C50000299FFF7E1FC042116A8FFF7D7FD4846DB
:101C6000FBF7FCFC0346032116A8CDF8209009934E
:101C700094E80C00FFF74EFD97E8030084E80300AA
:101C800016A8022194E80C00FFF744FD16A80221D3
:101C9000CDE9085594E80C00FFF73CFD002E36D145
:101CA00008960221099616A8012594E80C00FFF772
:101CB00031FD042116A80022FFF7D4FD16A804A9BF
:101CC000FFF712FE78BB18F1070F06A80CBF6FF0E4
:101CD0000F01002100F078F8B0B9DDE904235D1BA5
:101CE00025D306A80995089294E8060000F08AF822
:101CF00044AB06A893E8060000F084F8489B06A8C9
:101D0000DDE9461200F090F83DB0BDE8F08344AB49
:101D100093E8030084E803000B2116A894E80C0064
:101D2000FFF7F8FCC5E715203DB0BDE8F083054698
:101D30000246D6E7881E010082B0073010B586B093
:101D400008A981E80C0005D0012006B0BDE81040CC
:101D500002B0704705AA0F9B0E9C13490A98009485
:101D6000CDE90132DDE90C2302F008FF70B110F17A
:101D7000950F14D010F1860FE6D010F18D0F10D012
:101D800010F1970F0CBF12201720DEE7059B109A69
:101D9000C2E9004306B0BDE8104002B070470D2014
:101DA000D3E71020D1E700BF0900061082B007304A
:101DB0008DE80C0002D0012002B07047049A402345
:101DC000002002B01360704738B54FF6FF72002351
:101DD0000B4D0446036011F1100F0CBF294611464C
:101DE00002F0F6FE606038B110F1860F05D010F1F8
:101DF0008A0F0CBF0520042038BD032038BD00BF6A
:101E00000900000110B582B043680DF1080C0CE91F
:101E1000060000992BB921B10446019A02F0FCFE9C
:101E2000606002B010BD00BFF0B583B01E464468CC
:101E300002AB03E9060044B114F1860F13D08A34D3
:101E40000CBF0520042003B0F0BD009F0546331DE4
:101E5000019A394602F004FF6860044637600028A2
:101E6000EAD103B0F0BD032003B0F0BD00000000D4
:101E700070FFFFFF76FFFFFF7CFFFFFF79FFFFFF93
:101E80007CFFFFFF010102045369676E6174757284
:101E900065310000000000000000000000000000AC
:101EA00010B5054C237833B9044B13B1044800E056
:101EB00000BF0123237010BD50530020000000001C
:101EC000E8BD020008B5034B1BB10349034800E01D
:101ED00000BF08BD0000000054530020E8BD020010
:101EE000154B002B08BF134B9D46A3F5803A0021EC
:101EF0008B460F461348144A121AFBF7DEFA0F4BB3
:101F0000002B00D098470E4B002B00D098470020A4
:101F1000002104000D000D48002802D00C4800E00C
:101F200000BFFBF769FA2000290000F053F8FBF727
:101F30004FFA00BF00000800001000200000000061
:101F400000000000505300201C8200200000000010
:101F500000000000014B01221A6070476C53002002
:101F60002DE9F04182B004468668D0E9008700F090
:101F70007FF9054638B3AB6E986801F011FC022377
:101F800000900022B1B2384600F060FA054618B958
:101F90000E4B1B68012B04D00323236002B0BDE865
:101FA000F0815FFA88F800F04BFAB8F1010FF3D135
:101FB00040F205139842EFD1B3B2032BECD9044B96
:101FC0003B602560EAE701F019FBD4E76C53002081
:101FD00016200400F8B52C4B83F30A8802F0C6FAE9
:101FE00060BB02F0C5FA48BB02F0C4FA30BB02F095
:101FF00021FA18BB02F050FB00BB2448FDF7DCF9C6
:10200000FFF7A8FF01F01AFE02F0B6FA0546A8B9DC
:102010001F4B1F689FB31F4C04E002F073FA68B9AE
:10202000BD422CD094F908600135E1681034304687
:1020300002F01EFA014630460029EED001F0DEFA29
:102040000122154B15481146FDF7B6F900F050FF77
:1020500090B902F0B3F900216FF0040002F008FA21
:1020600038B90F4B602283F8222001F099FA002042
:10207000F8BD01F0C3FAF8E701F0C0FAE9E702F0B1
:102080007DFA0028DCD0D9E700040020849A020001
:10209000E09D0200A09D0200B89A0200BC9A0200D6
:1020A00000ED00E038B572B6172002F017FA40F2E2
:1020B0002D1001F04DFB431C11D00B4A7423926884
:1020C00003FB00F3D1180AD0D458081D4D6E44F01C
:1020D0000041D150294001F087FC62B638BD01F0C3
:1020E0008DFA00231B68FFDE8452002038B572B6DB
:1020F000032002F0F3F940F22D1001F029FB431CFC
:1021000011D00B4A7423926803FB00F3D1180AD054
:10211000D458081D4D6E44F08041D150294001F043
:1021200063FC62B638BD01F069FA00231B68FFDE6C
:102130008452002038B572B6212002F0CFF940F267
:102140002D1001F005FB431C11D00B4A742392683B
:1021500003FB00F3D1180AD0D458081D4D6E44F08B
:102160000051D150294001F03FFC62B638BD01F06A
:1021700045FA00231B68FFDE8452002018B1203886
:10218000014B03EBD00070477053002070B504463C
:102190000A480D4601F048FB78B1A16800F19C03A4
:1021A00022460026C0F89840C0E901654B60C0F89F
:1021B0009C1042F8083FC0F8A02070BD705300206A
:1021C00038B504460D460648214601F049FB28B1C2
:1021D000A1680448A94208BF002038BD014838BDA5
:1021E000705300201F000080204B1A68D268904274
:1021F00026D05A6AD268904228D09A6CD26890420F
:1022000026D0DA6ED268904224D0D3F89020D268DB
:10221000904221D0D3F8B420D26890421ED0D3F897
:10222000D820D26890421BD0D3F8FC20D2689042CC
:1022300018D0D3F82021D268824215D000207047F0
:10224000002000EBC00003EB800070470120F8E79E
:102250000220F6E70320F4E70420F2E70520F0E788
:102260000620EEE70720ECE70820EAE7646000209C
:1022700008B501F019FB436D586801F069FA431C79
:1022800005D0044B74229B6802FB003008BD00207F
:1022900008BD00BF84520020026893694BB1012B36
:1022A00005D1536906488B4208BF00207047044897
:1022B0007047536902488B4228BF0020704700BF17
:1022C0000200008038B522B10B681B7CF3B10020FE
:1022D00038BD1446054601F0E7FA436D586801F031
:1022E00037FA431C14D00D4B74229B6802FB00305C
:1022F00070B1836E586948B19B692246043B53F81C
:10230000041FA942E3D001329042F8D1044838BDFD
:1023100001F074F900239B6EFFDE00BF84520020A1
:102320001F0000800C3070472DE9F84F8B46174690
:1023300000218C2204469A46DDE90B59DDE90D683F
:1023400001F0C6F90F982D4900222D4BC4F88400E6
:102350000A98C4F814A0E0612360C4E901B7C4E995
:102360000312B9F1000F1ED06B68B9F1010F63625F
:1023700040D9EB68B9F1020FA36206D06B69B9F1DD
:10238000030FE36201D0EB6923632B68B9F1020FFD
:102390006364AB68E36406D02B69B9F1030F63652E
:1023A00001D0AB69E365B8F1000F1DD0716800235F
:1023B0003268B8F1010F6163C4E9192314D9B8F187
:1023C000020FD6E90221A163C4E91B230CD0B8F1A6
:1023D000030FD6E90421E163C4E91D2304D0D6E943
:1023E00006212164C4E91F23A4610FB13B68236265
:1023F000BDE8F88F2B686364D5E700BF746E76651F
:1024000043431515F8B5044610300F46666801F0D1
:10241000C9F880B9236805463168301D9B680B43B5
:10242000716E3360194001F0DFFA07F10C0001F022
:10243000CFFA2846F8BD014DFBE700BF1F00008022
:1024400008B501F031FA436D586808BD79B138B567
:1024500088B1CC43A0420CD8022B049B04D001F0DD
:10246000F9FB30B9002038BD01F00AFCF9E7002083
:102470007047024838BD4FF0004038BD030000806F
:102480002DE9F04F5E4EA42283B010234FF431614A
:102490005C4801F091F97268002A6BD04FF0000B94
:1024A0004FF074095D4608E0284601F06FF94207D5
:1024B0002AD472680135AA425DD909FB05F8B468CF
:1024C0004444A36E1B68B3F5807FF3D1E76E002F01
:1024D000EAD039680029E7D0284601F0B1FF40B9B9
:1024E00057F8041F0029DFD0284601F0A9FF002873
:1024F000F6D001F083F857F8041F0029ECD12846E4
:1025000001F044F94207D4D5A16E40F22D12236E9A
:10251000496843F008009142206604D143F06043CB
:1025200043F008032366B7680022374B04F10C0020
:102530004744A2606360396F07F1140A2061D1E952
:1025400008C3B96E0969E0605046CDF800C001F0DB
:10255000B1F9B368A26E434452689B6EDB687B623C
:10256000002A3ED0504601F0B1F90028A1D001F078
:1025700045F89EE79346254F4FF00008244C7425FC
:10258000786844F8087C01F0E3F8431C2ED0B36867
:1025900005FB003050B354F8083C08F10108026E06
:1025A0001C379968B8F1090F44F8040C034642EA55
:1025B000010204F114010266C4E90044C26804F196
:1025C0002404516044F8102C43F80C1F44F80C3CD0
:1025D000D6D1584601F0D6F9DBF8440003B0BDE887
:1025E000F08F01F03FFFD346B861BBE701F006F87A
:1025F000084A2421002301FB08271A6E7B60FFDEB6
:102600008452002070530020746E7665349C020062
:102610006C6000206460002038B5054601F036F992
:10262000044601F041F90CB1844200D138BD224684
:1026300001462846BDE8384001F0B6B900F0A0BC1C
:10264000006800F0A1BC00BF0A46D0E9000100F01C
:10265000ADBC00BF2DE9F0438BB00D460446D0F869
:10266000008001F021F9436D586801F071F8431CB6
:1026700038D01F4B74229B6802FB003090B3836EEE
:10268000986801F08DF8636806465A1E0E321FD80E
:1026900018462A4633460C2101F0F2FAC0B90C2242
:1026A000616807A800F0ACFFDDF82490DDE907734E
:1026B000D4E90224002F0EDB39464046CDF80490C1
:1026C0000094CDE9025600F0C1FC0BB0BDE8F083E8
:1026D00000F094FFE3E7CDE9043200F08FFFDDE97D
:1026E0000432E9E700F08AFF00239B6EFFDE00BFA3
:1026F00084520020006800F035BE00BF0020704703
:102700002DE9F041D0E9005801F0CEF8436D58684A
:1027100001F01EF8431C1CD0104B74249E6804FB6F
:1027200000F4371915D03B6E1D420FD0B8F1000FE1
:102730007D6603DB30592840BDE8F081335915EA46
:102740000300F9D1381D01F043F9F3E700F056FF1B
:10275000ECE700F053FF00231B6EFFDE84520020E5
:102760002DE9F843D0E90057284601F01DF800286C
:1027700067D001F099F8436D586800F0E9FF431CF9
:1027800065D0354B74249E6804FB00F416EB0408F6
:102790005DD0D8F86830986801F002F87A1E0346D8
:1027A000323241D800223021384601F069FA00283F
:1027B0003AD13359002B3CD01D423FD008F10C09CF
:1027C000D8F81030994503D123E05B68994526D0AD
:1027D00053F81C2CA3F11C0892689542F5D108F11E
:1027E0001008404600F0F4FE014668B383680122F9
:1027F000384614315A60302200F002FF404600F0A3
:10280000F7FE20B13359002023EA05053551BDE814
:10281000F88300F0F3FED8F810309945D8D14FF086
:10282000000800F0EBFEDAE700F0E8FE3359002B79
:10283000C2D100F0E3FE33591D42BFD100F0DEFEED
:10284000BCE700F0DBFE94E76FF08B00DFE700F001
:10285000D5FE00239B6EFFDE8452002038B5034670
:102860000F48D3E90045A4F10C0100F0F9FF88B14D
:102870000C4B22689A420DD101F016F86368426D44
:102880005B6852689B6E5B689A4203D1A3682562BD
:102890001D6038BD00F0B2FE00231D62FFDE00BFE8
:1028A000705300204343151503462D482DE9F0478A
:1028B000D3E90047D3E90298A4F10C0100F0D0FF5E
:1028C000002848D0274B22689A4244D100F0ECFF00
:1028D0006368426D5B6851689B6E5A6891423AD159
:1028E000986800F05DFF63698246002B2DDB032FA3
:1028F00028D804EB8706756A0DB3B8F1000F0ED027
:10290000B9F1000F24D06FEA0803994520D8534647
:1029100000224146484601F0B3F9C8B9756A4545F9
:1029200004EBC704484628BF4546616C2A4600F0C0
:1029300067FE636C2B446364736A5B1B7362284697
:10294000BDE8F08700F05AFED3E700F057FECEE76F
:1029500000F054FEE2E700F051FE00235B68FFDE6A
:10296000705300204343151503461C4870B5D3E946
:1029700000469D68A4F10C0100F072FF48B3184BAB
:1029800022689A4225D100F08FFF6368426D5B6830
:1029900052689B6E5B689A421BD16369002B15DB02
:1029A000032E10D804EB8602506A58B1854204EB1E
:1029B000C6042B46616C28BF0346C51A18460B4453
:1029C0006364556270BD00F019FEEBE700F016FE7F
:1029D000E6E700F013FE00235B69FFDE7053002082
:1029E000434315152DE9F84303462A48D3E9004827
:1029F000D3E90275A4F10C0100F032FF002844D0A5
:102A0000254B22689A4240D100F04EFF6368426D28
:102A10005B6851689B6E5A68914236D1986800F0A5
:102A2000BFFE63698146002B2CDBB8F1030F26D86B
:102A300004EBC80604EB8804B36E626BD21AAA4298
:102A40000BD365B9706E2A463946184400F0D8FD9C
:102A5000B36E1D44B566BDE8F88300F0CFFD5FB1ED
:102A6000EB439F4208D84B4600222946384601F0E6
:102A7000F1F808B9B36EE5E700F0C0FDFAE700F041
:102A8000BDFDD5E700F0BAFDCFE700F0B7FD0023AC
:102A90005B68FFDE7053002043431515034670B595
:102AA000404ED3E900453046A4F10C0100F0D8FEB9
:102AB000002838D03C4B22689A4234D100F0F4FE12
:102AC0006368426D5B6852689B6E5B689A422AD16C
:102AD0006369991C37D05A1C2AD0002B2FDB636BFB
:102AE0001BB1A26ED4F884305A60A36B1BB1226F65
:102AF000D4F88430DA60E36B1BB1A26FD4F8843071
:102B00005A61236C13B1D4E92023DA6115F1810FE6
:102B100032D0A36800225A60294604F10C00BDE8B7
:102B2000704000F061BF00F069FD00235B68FFDECC
:102B30009DB115F1820F29D015F1830FE9D0002541
:102B400000F05CFDE5E7A0680025D0E92723C5601B
:102B500053601A6000F076FEDBE7144AA56813683C
:102B6000AD1B013303F0070303F12001136001EBF8
:102B7000C50515F1810FCCD1E369002B03DAA368F9
:102B800002225A60C8E700F039FDC5E7A0680023BB
:102B9000D0F89C20C360D0F8A03053601A6000F0D9
:102BA00051FEB6E77053002043431515805E0020A8
:102BB00038B50468002C16DD204600F0C9FD431C22
:102BC00018D00F4A7423926803FB00F3D11811D078
