:10D10000F80B002071EC0100A9EB01007133020063
:10D110007D33020089330200A133020095330200FF
:10D1200000000000000000000000000035FD0100CC
:10D13000B9EB010000000000E1FC0100BDEB0100C3
:10D14000C1EB0100C5EB0100C9EB0100EDFF0100DF
:10D15000CDEB0100D1EB0100D5EB0100D9EB0100D3
:10D16000DDEB0100E1EB0100E5EB0100E9EB010083
:10D17000EDEB0100F1EB0100F5EB0100F9EB010033
:10D18000FDEB010001EC010005EC010009EC0100E0
:10D190000DEC010011EC010015EC0100DDFF0100B8
:10D1A00019EC01001DEC010021EC010025EC01004F
:10D1B00029EC01002DEC010031EC010035EC0100FF
:10D1C00039EC0100FDFF01003DEC010041EC0100E4
:10D1D00045EC010049EC01004DEC010051EC01006F
:10D1E00055EC010059EC01005DEC010061EC01001F
:0CD1F00065EC010069EC01006DEC010031
:10D1FC00405E03000054002031000000801C02003F
:10D20C00201C00200B000000801C0200200C0020C1
:04D21C00000000000E
:10D22000E05400204C0E0000501C0020EC0D0000CB
:10D23000200C002000040000000C0020080000006A
:10D2400000015F5F00000000FE0F000095FE01007E
:10D2500000040000000000000000000000000000CA
:10D2600000000000000000008056002000000000C8
:10D2700001015F5F01000000FF030000F5FE0100F7
:10D28000000100000000000000000000000000009D
:10D290000000000000000000805A00200000000094
:10D2A00001015F5F2D0100000F03000005D40000A5
:10D2B0000010000000000000000000000500000059
:10D2C0000000000003000000801C0020000000009F
:10D2D00024D20200800000AE000500000100000022
:10D2E000000000001000000038D2020070000000B2
:10D2F0000005000001000000000000002000000008
:10D3000044D202007100000000050000010000008E
:10D31000000000004000000050D202007200000037
:10D320000005000001000000000000008000000077
:10D3300064D202007300000000050000010000003C
:10D34000000000000001000019FF0100EDD3000003
:10D350002D01000017000000000000805DFF0100AB
:10D36000E1D300002D010000030000000000004098
:10D370009DFF0100F9D300002D01000021000000F5
:10D380000000002001015F5F2C0100000F0200007F
:10D3900039EB010000100000000000000000000058
:10D3A000010000000000000000000000200C002030
:10D3B0000000000074D20200700000AE0005000002
:0CD3C00001000000000000001000000050
:10D3E00008B5132002F0B4FC002008BD08B52720C2
:10D3F00002F0AEFC002008BD08B5312002F0A8FC08
:10D40000002008BDF0B58DB000F07CF9002840F098
:10D41000718103F021FD03F07DF904F09FF804F021
:10D4200001FC04F0BFFE05F02BFB07F011FD05F039
:10D43000F5FD06F0CFF806F01BFF07F027FB01F023
:10D4400077FF4FF0004016F061FE4FF0005016F0ED
:10D450005DFEAB4C4FF000414FF0FF3016F00EFE7A
:10D46000C5060BD52146102016F010FE2368981C27
:10D470001FD30021606816F029FEEBE7810632D445
:10D48000470600F19580050600F1C780C10540F10F
:10D49000C18021464FF4807016F0F8FD0146002847
:10D4A000D8D123689A1CC0F0E580606816F00EFEA3
:10D4B000D0E7002BC0F2DB80DBB2772B656800F091
:10D4C000EC8049DC442B00F0ED8053DC222B00F093
:10D4D000F380332B38D1204603F01EFD0146284649
:10D4E00016F0F4FDB6E72146202016F0CFFD0146E8
:10D4F0000028AFD123689A1CD7D2002BC0F2B78086
:10D5000023696568082B40F0EB80A669042E40F083
:10D51000E780284608AA676916F0C0FD082840F091
:10D52000DF8033460221606806AA16F0B7FD0428A2
:10D5300040F0D680069BA068CDE90073DDE90823A2
:10D5400000F024F90146CAE7112B40F0C9802046BB
:10D5500003F00CF90146C2E7CC2B00F0B2801CDCD2
:10D56000992B00F0B380AA2B0FD1204606F0F8F8D3
:10D570000146B4E7552B00F0AE80662B40F0B0803A
:10D58000204604F09BFE0146A9E7882B40F0A880C6
:10D59000204605F0ABFA0146A1E7DD2B00F08780BD
:10D5A000EE2B40F09D80204601F080FE014696E77C
:10D5B0002146402016F06AFD014600287FF44AAF5C
:10D5C00023689E1CBFF471AF002B50DB2369656894
:10D5D000082B40F085806669042E40F08180284643
:10D5E00008AA276A16F05AFD082879D13346012186
:10D5F000606805AA16F052FD042871D1059B06AAA1
:10D60000CDE901720093A068DDE9082300F01AF962
:10D61000014664E716F062FD1CE72146802016F003
:10D6200035FD014600287FF415AF2368981CBFF430
:10D630003CAF002B1BDB23696668082B5DD1226A97
:10D640000C2A5AD1304606AA16F028FD082854D1D3
:10D6500008AB0093A068DDE9062300F04DF905460C
:10D66000002840D02946304616F030FDF2E66FF033
:10D6700080011AE7002BFADB23696568082B2FD19C
:10D68000284608AA16F00AFD082829D1DDE9082352
:10D69000A06800F061F9014621E7204607F0F8F99B
:10D6A00001461CE7204603F085FF014617E72046A8
:10D6B00007F038FC014612E7204602F067FC0146FD
:10D6C0000DE7204606F002FE014608E7204605F079
:10D6D000D9FC014603E7204604F0D0FA0146FEE6F5
:10D6E0006FF08001FBE601460C23606808AA16F083
:10D6F000E1FCB7E716F0F2FC8BE66FF08005B1E7CE
:10D70000501C002030B51D4B85B09D6AA8470369A9
:10D71000012B2FD1A8471A4C8368A360A847034662
:10D720001B7D01A8237607F017FF18BBA1689DF8A1
:10D730000C30029A01FB03F3B2FBF3F50199114A95
:10D74000616011482146E360258200F075FA08B156
:10D7500005B030BD0C4800F0C1FA0028F8D00A48E6
:10D7600000F0DAFA0028F3D1074805B0BDE83040F0
:10D7700000F0B4BA6FF08000EAE700BFA41A02001C
:10D78000201C002004E40100CC3000202DE9F047EB
:10D7900052EA030188B0DDE9105446D034F00706A0
:10D7A00040D1CDE9050205A904222148214F079364
:10D7B00016F0C2FB082206A91F4816F0BDFB3A4628
:10D7C0001B491E4800F0AAFA30B310F18C0F20D18B
:10D7D0001B4FDFF85C90DFF8648044F4403A01E0CE
:10D7E0002D1B16D040F24C44AC4228BF2C46384684
:10D7F000214607F095FE524601962B464946404683
:10D800000297009400F09EFA2AF4403A2644002839
:10D81000E6D008B0BDE8F087BB68DB07D8D56FF06D
:10D820008400F6E76FF08500F3E76FF08600F0E71D
:10D83000E4300020F0300020E8300020CC30002020
:10D84000802C002011462DE9F04751EA030286B0F2
:10D850000E9F43D0CDE90301042203A92148224CA5
:10D86000059316F069FB082204A9204816F064FB12
:10D8700022461C491E4800F051FA054650BB266856
:10D88000BE422BD30F9BF61B9E4228BF1E46109B09
:10D89000DFF86080DFF84CA0DFF854901E6005E0F0
:10D8A0002146404607F04AFE361B13D040F24C4456
:10D8B000B44228BF34463B46514648462246CDF83E
:10D8C000008000F043FB274405460028E8D00023F1
:10D8D000109A1360284606B0BDE8F0876FF0860501
:10D8E000F8E700BFE4300020F0300020E8300020EE
:10D8F000CC300020802C0020114630B551EA0302C4
:10D9000085B0089C1CD00422CDE901010DEB020179
:10D910000D48039316F010FB08220C4D0DEB02018D
:10D920000B4816F009FB2A4607490A4800F0F6F9A9
:10D9300020B92B68AA68C4E90033A26005B030BDE5
:10D940006FF08600FAE700BFE4300020F0300020DE
:10D95000E8300020CC30002010B5144654EA030211
:10D9600084B01FD00422CDE901040DEB020111485F
:10D97000039316F0E1FA08220F4C0DEB02010F4859
:10D9800016F0DAFA22460B490D4800F0C7F958B9EB
:10D99000A368DB070AD40749094804B0BDE8104072
:10D9A00000F0C2BA6FF0860004B010BD6FF08400C2
:10D9B000FAE700BFE4300020F0300020E83000201B
:10D9C000CC30002008B503461B6800209B689847B0
:10D9D000002818BF6FF0910008BD00BF70B51D464C
:10D9E000036882B05B6804460E460192984703467E
:10D9F0000B4A6068C3F3410312F823200544069BD9
:10DA0000E0682468B3FBF2F200FB06500199A469B8
:10DA1000A0470028B4BF6FF09100002002B070BD95
:10DA2000F8E3010000207047C368BBB170B504463D
:10DA30000E46002504E0D4E902231544AB420BD97D
:10DA4000D4E9002003FB0600D36928449847002846
:10DA5000F1D06FF0910070BD002070BD00207047C4
:10DA60002DE9F04782B00A9D1DB9002002B0BDE843
:10DA7000F08717464268064613440268C068526839
:10DA800000FB013490472B4BC0F3410013F820A05A
:10DA9000B4FBFAF80AFB08F8444544D03368012285
:10DAA00040465B6901A9984700283FDBA4EB0801C9
:10DAB0006B189A4530D8AAEB040901ABC1444A4619
:10DAC0003846194416F038FAB5EB0905CDD004EB09
:10DAD0000908AA4511D84046B5FBFAF83368424612
:10DAE0005B6907EB0901984700281FDB0AFB08F276
:10DAF000AD1ABAD0914404EB0908336840460122BC
:10DB00005B6901A99847002810DB2A4601A907EBA9
:10DB1000090016F011FAA8E701AB2A463846194465
:10DB200016F00AFAA1E74FF00009D2E76FF0910072
:10DB30009CE700BFF8E301002DE9F04F03688FB0C8
:10DB400006AA04460D46DF6800F076FD10B10FB05E
:10DB5000BDE8F08F0BA807F01DFD0146002865D138
:10DB6000DDE90669202206A8DDF8248016F02EFAE9
:10DB70002946204606AA00F091FF0028E7D1236835
:10DB8000DB8A63B3834682460CE05946204606AAE8
:10DB900000F084FF0028DAD12368DB8A0BF1010B47
:10DBA0005B451DD95D45F9D05946204606AA00F0CF
:10DBB00043FD0028CBD1069BB342E6D10BA807F06A
:10DBC000E9FC0028E1D1079B4B45DED99F4228BFE5
:10DBD0001F46A3EB08030793099B9A44D5E79A468F
:10DBE000B8F1000F0DD14146204603AA00F074FDA4
:10DBF0000028ACD14146204603AA01F05BF868B189
:10DC0000A5E73B46424631462046CDF804A0CDF874
:10DC1000009000F0BDF9002899D11EB1204601F016
:10DC200007F830B9204600F0C7FC90E76FF08B0092
:10DC30008DE76FF083008AE7F8B5E0B10C46D1B10B
:10DC40001646C2B10B8A0546012B18D9032B35D0D5
:10DC5000022B40D1CA68B1F816C0A2F11403898A18
:10DC6000A3EB4C1399428CBF6FF0860700279142BB
:10DC70004FEA4C1C2DD96FF086073846F8BD6FF07F
:10DC80008607E268A18A91421ED96FF08607B4F830
:10DC900016C04FEA4C1C023B03EB43039B009C4421
:10DCA0000CF1080C9445E6D837B9182239462846B5
:10DCB00016F08CF9C5E900463846F8BDCA68898A6D
:10DCC0008A42E2D36FF08607B4F816C04FEA4C1CC4
:10DCD000E1E70C23E3E70027D3E700BF30B583B0CB
:10DCE000054600F02BFF044610B1204603B030BDBE
:10DCF0004FF08071284601AA00F0F6FB30B110F118
:10DD00008C0F18BF0446204603B030BD2846019949
:10DD1000FFF712FF0446E8E700F0DCBD10B58AB05B
:10DD2000144602AB01AA00F061FB40B9DDE9041220
:10DD3000BDF81830C4E90012A3600AB010BD6FF03E
:10DD40008B00FAE72DE9F04393B0154604460E46E2
:10DD5000202200210AA89946DDF868801B9F16F052
:10DD600035F94FF6FF7315F07F4FCDE9053340F0DD
:10DD7000D780314620460AAB05AA00F037FB0028C1
:10DD800000F0988010F18C0F40F09180EB0340F18F
:10DD90008E80069A4FF6FF739A4240F0998023686E
:10DDA0009B8A4B45C0F0BC800AA80290059800955C
:10DDB000821A07AD06A818BF012201904B463146D2
:10DDC0002046039500F0F0FC002870D1B8F1000F58
:10DDD00025D00C9B9F4200F28480424639460D9824
:10DDE00007F0CCFB00287CD11C9B2946CDE90083A1
:10DDF00020463B460AAA00F043F9002871D10C9B4B
:10DE000047440A999F422046079E88BF0C9700F01E
:10DE1000E7FA314607900A9A204600F03BFE2A4670
:10DE200020460A9900F046FF00285AD1069920465C
:10DE30000AAA00F033FE0146002852D1DDE905535D
:10DE40009D4228BF1D4620462A4600F087FA00283A
:10DE500047D14FF6FF72059B934210D0069A93422A
:10DE60000DD09A4238BF1A462046691C00F076FA57
:10DE7000002836D1DDE905539D4238BF1D46236891
:10DE80002046DA8A691C00F069FA50BB0A9B5BBB2A
:10DE9000B8F1000F28D0204600F08EFB38B94FF6BD
:10DEA000FF730599994202D0069B994232D113B073
:10DEB000BDE8F083AA031DD50D9B4B451DD14FF640
:10DEC000FF73059A0C909A420E9506923FF467AF45
:10DED00007AD2A4620460A9900F0FEFB00283FF4D1
:10DEE00075AF6FF08300E2E7204600F0A1FE002846
:10DEF000D1D0F6E7059A06924CE70E9B204643F0F8
:10DF0000807305990AAA0E9300F0C8FD00283FF41B
:10DF100040AFE6E72046FFF70FFE13B0BDE8F08301
:10DF20006FF08600C3E700BF10B582B0002301AADE
:10DF3000044600F05BFA28B920460199FFF7FCFD82
:10DF400002B010BD6FF08B00FAE700BF70B58CB067
:10DF500015461C4603AA04AB064600F047FA98B9DA
:10DF60002A462146069807F009FB58B92246109C1C
:10DF70002B46304604A9009400F060F8002818BF32
:10DF80006FF083000CB070BD6FF08B00FAE700BF3C
:10DF90002DE9F04186B0904603AA05461F460E467D
:10DFA00000F09AFB044618B1204606B0BDE8F081A7
:10DFB000059B314643442846059300F011FA0D9B1A
:10DFC00080463BBB1F46049A0C9B9A4209D29B1A7F
:10DFD000019341462846039B009200F07DFD20BB43
:10DFE000012732462846039900F054FD3146284661
:10DFF00003AACDF80C8000F05DFE0446C0B9002EE7
:10E00000D2D0002FD0D06B684146DB682868984793
:10E010000446C9E7CDE900730146039B28460C9AE4
:10E0200000F05AFD01270028CDD06FF08304BBE734
:10E0300032464146284600F02DFDB5E72DE9F04176
:10E0400084B090460C4601AA096805461E460A9F00
:10E0500000F042FB70B901994B1C0BD00A96636823
:10E06000D5E9000464683A46A446434404B0BDE8D8
:10E07000F04160476FF0830004B0BDE8F08100BF5D
:10E080002DE9F0470F4682B011681646DDE90A987F
:10E090001C46054600F0A4F9824673687A681C4461
:10E0A000A31A00920193284651463B6800F014FDE4
:10E0B00048B9CDF800906968234642468C682868C4
:10E0C0005146A04710B102B0BDE8F087F168726810
:10E0D0002B680A44DB680092B96828465B1A9B1AD1
:10E0E000019351463B6800F0F7FC0028EBD1336800
:10E0F000002BE8D051466B682868DB6802B0BDE8A9
:10E10000F04718472DE9F04700254FF00C0A044668
:10E110000F469046A9468AB02EE0CDF800A066686A
:10E120003946766802AA09F10109B04700286CD186
:10E130009DF809109DF808309DF80A209DF80B0005
:10E140004B4053409DF80C109DF80D2043404B4030
:10E150009DF80E009DF80F10534043409DF810208D
:10E160004B409DF8110053409DF812109DF813206C
:10E1700043404B4053405D40206809EB4903018A0E
:10E180009B0002290CBF01228A1E914503F108035E
:10E19000C3D3C38A002B3BD000264FF020091DE0DB
:10E1A000DDE902235340DDE90410069A4B40434069
:10E1B0000799089853404B40099A43405340C3F392
:10E1C00007225A40C3F3074120684A4082EA13639A
:10E1D000C28A6B409642DDB21AD2018A0229A1F1AD
:10E1E000020303EB430308BF0C23626818BF9B00C4
:10E1F00003EB4613D2F804A0394602AACDF80090EA
:10E200000833D04701360028CAD00AB0BDE8F087ED
:10E21000002088F800500AB0BDE8F0870821F0B56A
:10E22000002304468BB0009140681946456806AA51
:10E230002068A84700284AD0206808AA08266568F0
:10E240000096002301216D68A84700287FD105466C
:10E250004FF0FF3607469DF82430012B2AD0022BC1
:10E260002ED123689DF826201B7E9A4228D00121BA
:10E2700020460DF11702FFF745FF08BB9DF825204A
:10E280009DF817309A421BD1002F56D023689DF875
:10E2900026201B7E9DF81E10B3FA83F35B099A4279
:10E2A00045D099424CD0914233BF0126002601252A
:10E2B000002507E023689DF825201B7E9A42E3D1C4
:10E2C000002F44D00020C4E904650BB0F0BD9DF8D8
:10E2D0001C30012B23D0022BAED1014620689DF8C3
:10E2E0001E20037E9A4208AAA8D020460392FFF778
:10E2F00009FF039A88B99DF81D109DF82030206809
:10E3000099429BD1082665680096002301216D681B
:10E31000A847F8B101250026D4E720688EE72068D9
:10E320009DF81D20037E9A4208AAEBD186E7002AB9
:10E3300014BF022001208142B3D000250126C1E78D
:10E34000002914BF022301239A42E3D1ABE76FF007
:10E350008300BAE7012506462F467CE72DE9F04702
:10E3600006460068551A038AC2B0022B08BF4FF058
:10E370000C09D6E904781EBFA3F1020909EB49098B
:10E380004FEA890909EB41196D0109F108090ED11C
:10E3900021E0706800944B46D0F808A041463068F0
:10E3A00002AAD047A14498B92D1B14D03068B5F506
:10E3B000807F2C4628BF4FF48074D6F804C00094A8
:10E3C0004B463946DCF804A002AAD0470028E0D02A
:10E3D00042B0BDE8F087002042B0BDE8F08700BF42
:10E3E00009B1806870474069704700BF2DE9F04768
:10E3F000054600689846C38A8AB0002B5AD00E465C
:10E40000914600242027B0F810C06B68BCF1020FC1
:10E410000FBF4FF00C0CACF1020C0CEB4C0C4FEAA4
:10E420008C0C00970CEB441CD3F804A0296902AAB9
:10E430000CF10803D04728B16FF0830C60460AB096
:10E44000BDE8F0872B68029A1B8A022B0CBF0123C0
:10E45000023B9342F0D907A807F09CF8F0B928686E
:10E46000059A838A9A42E7D8049B9A42E4D3029B96
:10E4700033BB038AB0F816C0022B0FBF0C23023B3C
:10E4800003EB43039B00039903EB4C1308339942BE
:10E49000D2D3C06807F072F80028CDD10C223146E3
:10E4A00007A81CF08DFD844660B128680134C38A3A
:10E4B000A342A8D86FF08B0C60460AB0BDE8F08785
:10E4C0000399E6E7C9F80040B8F1000FB6D002ACF6
:10E4D0000FCCA8E80F0094E80F0088E80F00604612
:10E4E0000AB0BDE8F08700BF2DE9F043054600689B
:10E4F0008BB0C38A002B51D00E46904600242027B3
:10E50000038A6968022B0FBF0C23023B03EB430312
:10E510009B00009703EB4413D1F8049002AA2969E9
:10E520000833C847814628B16FF0830948460BB0CD
:10E53000BDE8F0832B68029A1B8A022B0CBF0123D3
:10E54000023B9A42F0D207A807F024F8F0B92868F5
:10E55000059A838A9A42E7D8049B9A42E4D3029BA5
:10E5600013BB038AB0F816C0022B0FBF0C23023B6B
:10E5700003EB43039B00039903EB4C1308339942CD
:10E58000D2D3C06806F0FAFF0028CDD1069B1E4208
:10E590000CD128680134C38AA342B1D86FF08B092B
:10E5A00048460BB0BDE8F0830399EAE74846C8F84F
:10E5B00000400BB0BDE8F08370B5827B0168531C4E
:10E5C000DBB28373097E04469942416904BF02327B
:10E5D0008273012982B000F10D022AD8FFF792FD63
:10E5E00078B9082665680346616920680096AD68B9
:10E5F000A219A84728B963686169DB682068984751
:10E6000008B102B070BD6368D4E904121B692068C8
:10E61000C4E9042198470028F3D123681A8A022A02
:10E62000EFD918466268A168136902B0BDE870406E
:10E6300018476FF08600E4E770B504460068154699
:10E64000B0F810C06268BCF1020F0FBF0C23ACF130
:10E65000020C0CEB4C0C4FEA8C0303EB4113202112
:10E6600082B00091566821692A460833B0470646B1
:10E6700010B1304602B070BD23682A681B8A022B95
:10E680000CBF0123023B9A4223D205F1140006F08D
:10E6900081FF0028EDD12068EA68838A9A4218D861
:10E6A000AB689A4215D3D5E900316BB9038AC48AA5
:10E6B000022B0FBF0C23023B03EB43039B0003EB36
:10E6C00044130833994204D3C06806F057FF00286A
:10E6D000CFD06FF09706CCE7F0B50C2583B000954E
:10E6E00001EB41018B00416804464F680833016922
:10E6F00000681646B84708B103B0F0BD236831681A
:10E700001A8A91420CD2B268D868716806F036FF56
:10E7100030B93368012B06D905467368AB42EBD09C
:10E720006FF09700E8E72368DA8A1B8A022B03D090
:10E73000023B03EB43039D0005EB42150835ECE774
:10E74000F0B50C2583B0009501EB41018B004168C9
:10E7500004464F680833016900681646B84708B197
:10E7600003B0F0BD236831681A8A91420CD2B268B6
:10E77000D868716806F002FF30B93368012B06D9FA
:10E7800005467368AB42EBD06FF09700E8E722686C
:10E79000138A022B03D0023B03EB43039D00D38A71
:10E7A00005EB43150835ECE72DE9F04F98464FF09F
:10E7B000080B00264FF00C0992468DB00446199DB7
:10E7C00000680391028A022A0CBF0122023A964293
:10E7D0005ED26268CDF8009057685B462A46216990
:10E7E000B847E8B16FF083072068C38A9BB1002562
:10E7F00056462946204604AAFFF71EFF58B909A825
:10E8000006F0C8FE10B1002E34D101262368013570
:10E81000DB8A9D42EDD34FF6FF756FF08D0731E037
:10E8200020682A68038A9A4250D2D5E90112C0684A
:10E8300006F0A4FE07460028D4D12B68012B0BD983
:10E84000034620686A689A4240D1AA680BF10C0B13
:10E85000904520D90136B5E72068038AC28A022B89
:10E860000FBF0C23023B03EB43039B0003EB42135C
:10E870000833E7E7002FD0D14FF6FF739D4208BF62
:10E880006FF08D073846179B1D600DB0BDE8F08F07
:10E890006FF08D07A9E7189B03991E60C3689B1A48
:10E8A000189A53601346C2F80C8003F114000C222E
:10E8B00015F042FB189B169A20681A610023189ADB
:10E8C0009360AB68A3EB0803AB608EE76FF0830740
:10E8D0008BE700BF2DE9F0418EB00446FFF79EFCA8
:10E8E00000287AD16669636831461B6920689847B9
:10E8F000054600286DD1D4E90003B6FA86F11B69FC
:10E90000490998470546002863D12068037EB3FA79
:10E9100083F35B09A373038A022B60D10122237363
:10E920000C23C68A2561A2606261C268083303EBCA
:10E930004613D21ACDE904320C22012163680092F9
:10E940009D68039108236A44A8470546002840D1E2
:10E9500026680490F3680593338A022B12D0074689
:10E96000033BBB4207F1030107F1010771D963685B
:10E9700030461B69984726680543338A022BEFD13E
:10E98000002D63D12022002106A815F01FFB20686E
:10E99000C38A002B2FD00025202603E02068C38ADD
:10E9A000AB4228D9028A6168022AA2F1020303EB72
:10E9B00043030CBF0C239B0003EB451300968F68A9
:10E9C00006AA616908330135B8470028E6D06FF020
:10E9D000830528460EB0BDE8F081002683E70222B9
:10E9E0000121023B03EB43032273C68A2561934056
:10E9F000A260616199E7A27B531CDBB2A373017E25
:10EA00009942616904BF0232A273012904F10D0227
:10EA1000DDD82046FFF776FB03460028D7D108262D
:10EA20006568616920680096AD68A219A84700284A
:10EA3000CDD163686169DB68206898470546002886
:10EA4000C7D1D4E90423C4E90432C2E76FF09105C9
:10EA5000BFE7002DFAD114274FF00C0811E09542C2
:10EA600090D26168CDF800803B46304603AA8E689C
:10EA7000CDF80CC06169B04701350C370028A6D12C
:10EA80002668338A05F1030C022BA3F10302E6D1B9
:10EA900078E700BF02B18160704700BF30B586469D
:10EAA00000682025B0F810C083B0BCF1020F0EBF83
:10EAB0000C23ACF1020303EB4303DEF8044018BF60
:10EAC0009B0003EB4113DEF814100095A468083393
:10EAD000A04703B030BD00BF2DE9F04FC3B0DDE962
:10EAE0004C863EB305468A46174699460CE0686850
:10EAF00000943B46D0F808B05146286802AAD8478F
:10EB00002744A0B9361B15D0B6F5807F344628BF00
:10EB10004FF48074D5F804C02868009443464946F1
:10EB2000DCF804B002AAD847A0440028DFD043B0E4
:10EB3000BDE8F08F002043B0BDE8F08FF0B504468B
:10EB4000D0E9000387B01B689847054610B12846F6
:10EB500007B0F0BD2046FFF761FB034600283FD118
:10EB6000082665682169206800966D68A219A84783
:10EB7000002835D1237B2169012B2CD0022B2FD1EA
:10EB80002368A27B1B7E9A422AD0012928D82046DE
:10EB900003AAFFF7B7FA18BB627B9DF80C309A42C4
:10EBA0001ED12068636861691B6998470546B8B93A
:10EBB0002068038A022B04D96368A1681B699847FF
:10EBC00070B9237B012B10D0022B18BF6FF0830587
:10EBD000284607B0F0BD2068627B037E9A42E1D1EF
:10EBE0006FF08305284607B0F0BD0021204603AA38
:10EBF000FFF7A6FD05460028A9D16FF007050822FA
:10EC00002368059FDE68ED1B3544D4E904312046B6
:10EC1000CDE90025FFF760FF0546002897D10223C4
:10EC2000627B2046A2732373FFF7C6FC05468EE77E
:10EC300070B50C2586B00095416804464E680823DF
:10EC400001690DEB05020068B04708B106B070BD60
:10EC5000236803991A8A914228D2DDE90412D86800
:10EC600006F08CFC10BB039B012B11D90246049BC0
:10EC700093421BD12168059BC9682046C91A891A8D
:10EC80002369CDE900216169FFF726FF06B070BD59
:10EC90002268138AD28A022B03D0023B03EB430380
:10ECA0009D0005EB421505F10802E0E76FF09700C3
:10ECB000CCE700BF2DE9F04305460C4687B039BBD1
:10ECC000436841690C20116000909E682868082301
:10ECD000B04700284FD1D5E904762B6801341B8A50
:10ECE00004EB4404022B4FEA84010FBF0C249C1E4A
:10ECF00004EB4404A40001F10802641A3B463146C7
:10ED00002846CDE90024FFF7E7FE07B0BDE8F08311
:10ED10004FF00C09466801EB41084FEA8808416949
:10ED20000068CDF80090B66808F10803B0470146C6
:10ED300008BBD5E90476284603AAFFF7CDFCD0B975
:10ED4000CDF800906B686969D3F8089028680823AB
:10ED500003AA0396C84770B9012CBED01422A8F1AB
:10ED60000C03019331463B4628460092FFF7B4FE60
:10ED70000028B2D0C9E76FF0830007B0BDE8F08388
:10ED80002DE9F0478AB070B3144662B305460E46CB
:10ED900028220021684615F019F9A646EC460027FE
:10EDA000BCE80F00D5F804A0B5F80090B5F80280D3
:10EDB000AEE80F00BCE80F00AEE80F009CE80300CF
:10EDC0008EE80300C4F804A0D5E90323C4E90423B2
:10EDD000AB68A4F80090A4F80280C4E90236384673
:10EDE0000AB0BDE8F0876FF08007F8E730B56FF044
:10EDF000F903044691B02822002106A8019315F0DA
:10EE0000E5F82369082B34D1226A042A31D1002184
:10EE1000606802AA15F042F9A368002B21DB029A70
:10EE2000CDE9042304AB06AA93E8030000F03EFFFB
:10EE3000019060B9039BFBB1DDE906250A995D608D
:10EE4000D9600B991A60089A19619A60019004239D
:10EE5000606800210DEB030215F02CF9002011B0C1
:10EE600030BD1722142103981DF094FF08B1A36848
:10EE7000D5E76FF08000F2E76FF08000E6E700BFB3
:10EE80002DE9F0476FF0F90304469CB028220021D9
:10EE900008A8019315F09AF82369102B66D1226A0D
:10EEA000042A63D10021606804AA15F0F7F8A76866
:10EEB000002F47DB049DD5F80480B8F1000F3CD14A
:10EEC00000262822002112A815F080F80DF1480C28
:10EED0000DF1200EB5F800A0B5F80290BCE80F00C7
:10EEE000AEE80F00BCE80F00AEE80F009CE803009E
:10EEF0008EE80300D5E90312CDE90C12AA6802AB33
:10EF0000CDE90A27ADF820A0ADF82290CDF82480F5
:10EF100008A80196DDE9051200F0E4FC0423029F35
:10EF2000079D01902F60606831460DEB030215F0DC
:10EF3000C1F830461CB0BDE8F087079B1B68CDE9DF
:10EF40000237BDE71722082107981DF023FF68B19B
:10EF50001E22282104981DF01DFF38B1DDE90501AE
:10EF60001E221DF017FF08B1A768A3E76FF080000D
:10EF7000E0E700BF2DE9F0476FF0F90304469CB0CD
:10EF80002822002108A8019315F020F82369102BEE
:10EF900062D1226A042A5FD10021606804AA15F0B8
:10EFA0007DF8A668002E43DBDDE904531B68CDE93C
:10EFB0000236002D53D000272822002112A815F078
:10EFC00005F80DF1480C0DF1200EB5F800A0B5F8CC
:10EFD0000280D5F80490BCE80F00AEE80F00BCE852
:10EFE0000F00AEE80F009CE803008EE80300D5E9AF
:10EFF0000323CDE90C23AB68ADF820A0CDF8249015
:10F00000ADF8228008A8CDE90A3602A9079B069A26
:10F01000019700F02BFD05460423606800210DEBED
:10F020000302019515F046F800201CB0BDE8F087FA
:10F030001722082105981DF0ADFE68B11E22282177
:10F0400004981DF0A7FE38B1DDE906011E221DF06F
:10F05000A1FE08B1A668A7E76FF08000E5E76FF0B2
:10F060008005D9E76FF0800230B5036985B0042BC5
:10F07000019238D1036A0446042B34D10D466A4606
:10F080000021406815F00AF845F2EE53A168009A95
:10F090009D42CDE9022118D046F2EE639D421BD07D
:10F0A00041F6EE139D4209D00423606800210DEB68
:10F0B000030214F0FFFF002005B030BD04AB13E9DC
:10F0C000030000F09DFA0190EEE704AB13E90300A2
:10F0D00000F068FD0190E7E704AB13E9030000F0DE
:10F0E00091FD0190E0E71046E6E700BF6FF0800376
:10F0F00030B58BB003930369102B50D1026A0446DC
:10F10000042A4CD10D464068002106AA14F0C6FF1F
:10F11000A368002B17DB42F2EE2206999542CDE957
:10F1200004131ED044F2EE439D422ED043F2EE3340
:10F130009D4220D060680423002103AA14F0BAFF86
:10F1400000200BB030BD1722DDE907011DF022FEC3
:10F1500028B342F2EE22A36806999542CDE9041342
:10F16000E0D1DDE90723099804A9009003C900F064
:10F17000C3FC0390DEE7099804A90090DDE90723AA
:10F1800003C900F02BFC0390D4E7099804A9009070
:10F19000DDE9072303C900F0D9FB0390CAE76FF04C
:10F1A0008000CEE72DE9F041054696B028220021E7
:10F1B00002A814F00BFF2B69042B3FD168680021D3
:10F1C00001AA14F06BFF019CAD6824B32822002132
:10F1D0000CA814F0FBFE0DF1080E0DF1300CB4F884
:10F1E000008066886768BCE80F00AEE80F00BCE8E6
:10F1F0000F00AEE80F009CE803008EE80300D4E99E
:10F200000323CDE90623A368ADF808800397ADF882
:10F210000A60CDE9043502A800F070FD019B83B1BE
:10F22000DDE90640DDE90212C3E9034000205A602F
:10F23000049A19609A6016B0BDE8F0816FF0800002
:10F24000F9E71846F7E700BF6FF0800270B5036971
:10F250008EB0182B059226D1056A0446042D22D1C2
:10F26000816800291FDB002108AA406814F016FFFE
:10F27000A368089A0D99CDE90623DDE90B23CDE9B2
:10F280000131009206A90A9B099A03C900F0AAFA63
:10F2900006462B466068002105AA059614F00AFF71
:10F2A00000200EB070BD1046FBE700BF42F6EE2214
:10F2B00001680346914234D00EDD45F2EE52914290
:10F2C00031D019DD46F2EE6291422CD047F2EE7356
:10F2D000994223D1FFF74EBE40F6EE02914225D06F
:10F2E00010DD41F6EE1291421DD042F2EE22914223
:10F2F00014D11846FFF7FABE43F6EE32914205D11B
:10F30000FFF750BFEE2909D1FFF79EBF44F2EE424E
:10F310009142EED043F2EE329142EAD06FF080009B
:10F320007047FFF763BD1846FFF79CBEFFF7A8BD07
:10F3300000F0A0B92DE9F04784B06C4684E80300E2
:10F340004FF6FF70AC499DF83470096881426CD06B
:10F35000AA4C1E46A068019B90468342009A69D041
:10F36000002962D0606A834200F0CF8001295CD01E
:10F37000206C834200F0D080022956D0E06D834299
:10F3800000F0D180032950D0A06F834200F0A68006
:10F3900004294AD0D4F89400834200F0A6800529BD
:10F3A00043D0D4F8B000834200F0A78006293CD0B7
:10F3B000D4F8CC00834200F0BD80072935D0D4F8C2
:10F3C000E800834200F0BE8008292ED0D4F8040162
:10F3D000834200F0C880092927D0D4F82001834255
:10F3E00000F0C9800A2920D0D4F83C01834200F003
:10F3F000CA800B2919D0D4F85801834200F0CB8081
:10F400000C2912D0D4F87401834200F0CC800D296D
:10F410000BD0D4F89001834200F0CD800E2904D0A7
:10F42000D4F8AC118B4200F095806FF08B0004B0E3
:10F43000BDE8F0876068824292D14FF00009C9EBC5
:10F44000C9034FEA830A04EB83039D6954F80A1049
:10F450000422294403A814F06FFD54F80A1005F1A2
:10F46000240C1CF0FF0C4FEAC900A1F1240215D0B6
:10F470000023ACF1240C01EB0C0E9C4612F8015B4E
:10F48000AC44BCF1100F88BFACF1110C6344102BDD
:10F4900088BF113B9645F1D14CEA434C039B634531
:10F4A00040F0A480002F00F08E804AF6AA23A0EB43
:10F4B000090004EB800462699A4240F09A80A369D3
:10F4C0009E4240F090803246404614F035FD0020C8
:10F4D000A3690C9A136004B0BDE8F087606F8242A4
:10F4E0007FF456AF4FF00409A9E7D4F890008242A8
:10F4F0007FF455AF4FF00509A1E7D4F8AC00824284
:10F500007FF454AF4FF0060999E7206A82427FF4F6
:10F510002DAF4FF0010992E7E06B82427FF42CAFF0
:10F520004FF002098BE7A06D82427FF42BAF4FF0C2
:10F53000030984E7D4F8C80082427FF43EAF4FF05D
:10F5400007097CE7D4F8E40082427FF43DAF4FF036
:10F55000080974E7D4F8A8319A4208BF4FF00F09A0
:10F560007FF463AF6BE7D4F8000182427FF433AFDE
:10F570004FF0090963E7D4F81C0182427FF432AFEF
:10F580004FF00A095BE7D4F8380182427FF431AFCB
:10F590004FF00B0953E7D4F8540182427FF430AFA7
:10F5A0004FF00C094BE7D4F8700182427FF42FAF83
:10F5B0004FF00D0943E7D4F88C0182427FF42EAF5F
:10F5C0004FF00E093BE7E3680E9A934211D123698D
:10F5D0000F9A93420DD1A0EB090004EB8004A369BC
:10F5E0009E423FF470AF6FF0890020E76FF0960005
:10F5F0001DE76FF084001AE7543D0020583D0020BD
:10F6000030B583B06C461A4D84E8030095F851304C
:10F61000C3B1009B002B04DB6FF08304204603B0D2
:10F6200030BD94E8030016F05EF895F851300446BA
:10F63000002BF3D110F1FA0F14D16FF0F90420462A
:10F6400003B030BD4FF0FF31284600F007FC002822
:10F65000F3D1009B002BE4DB95F851306FF083046D
:10F66000002BD9D1024800F003FC204603B030BD86
:10F67000FC3000202DE9F043DFF8648185B098F874
:10F68000003023B10027384605B0BDE8F0834FF4C1
:10F6900040614E4814F074FE15F046FD0746002800
:10F6A000F1D1FEF72FF80746002840F08A80484C39
:10F6B00094F85030002B7CD00822002045491BF0E4
:10F6C0007FFC00286AD1444D04464AF6AA29434EDD
:10F6D000286012E0042202A814F02EFC029B2833BA
:10F6E0001C440422214603A814F026FC039B002B93
:10F6F00058D04FF6FF72934254D0042204F108010F
:10F700000DEB020014F018FC019B04F120014B45A5
:10F71000E0D128680822C0EBC00006EB800004F1AD
:10F720000C01043014F008FC28680422C0EBC0006F
:10F7300006EB800004F11401143014F0FDFB28687E
:10F740000422C0EBC00006EB800004F118010C306D
:10F7500014F0F2FB28680422C0EBC00006EB800026
:10F7600004F11C01103014F0E7FB28680422C0EB00
:10F77000C00006EB800004F12001183014F0DCFB1F
:10F780002A6804F12401C2EBC20346F8231006EBF9
:10F7900083039B6901322A602833A1E74FF6FF7289
:10F7A0000D4B1A600123384688F8003005B0BDE8DB
:10F7B000F0830121204600F04BFB012384F85030F8
:10F7C0007AE715F08DFE6FF083075CE7503100207B
:10F7D000FC30002018E40100543D0020583D00207A
:10F7E000503D00202DE9F0473D4F92B004AC84E835
:10F7F000030082464FF0FF31384690461E46DDF842
:10F80000689000F02BFB00285FD10123AAF1210AA8
:10F81000BAF11F0F054687F851303FD9002E57D057
:10F820001B9BC9F80000009394E803001C9B07AAE7
:10F8300015F022FA044610BB079C0DF1200CD4E908
:10F8400009EACDE910000FCCACE80F0094E80F00F6
:10F850008CE80F00434652467146CDE9006908A87E
:10F8600015F0FFFA079815F0E9FE10F1FA0F0446BB
:10F8700087F851500BD1204612B0BDE8F0870798A9
:10F8800015F0DCFE14F1FA0F87F85150F3D038462A
:10F8900000F0EEFA204612B0BDE8F0871C99CDF8D2
:10F8A000009003911B993346CDE90101424694E84B
:10F8B0000300FFF73FFD10F1FA0F044687F851509F
:10F8C000E5D1204612B0BDE8F0876FF0F904D2E729
:10F8D00038466FF0890487F8516000F0C9FACAE72A
:10F8E000FC3000202DE9F8431E4643680446012BF6
:10F8F0008846914602D13368402B22D9124F4FF0EF
:10F90000FF31384600F0AAFA0546B8B9204601246E
:10F9100033464A46414687F8514015F073FB10F1D3
:10F92000FA0F044687F8515002D12046BDE8F8830B
:10F93000384600F09DFA2046BDE8F8836FF0F904E0
:10F94000F3E76FF08704F0E7FC3000202DE9F04387
:10F95000214E87B004AD85E8030081464FF0FF31AA
:10F9600030461746984600F079FA90BB0123A9F17A
:10F970002109B9F11F0F044686F8513011D90E99AB
:10F98000434600913A4695E8030015F093FA10F1CA
:10F99000FA0F86F85140044614D1204607B0BDE85E
:10F9A000F0830E99CDE9020001930091434695E85A
:10F9B00003003A46FFF7BEFC10F1FA0F86F85140FB
:10F9C0000446EAD0304600F053FA204607B0BDE8BE
:10F9D000F0836FF0F904E0E7FC3000202DE9F043FC
:10F9E000214E87B004AD85E8030081464FF0FF311A
:10F9F00030461746984600F031FA90BB0123A9F132
:10FA00002109B9F11F0F044686F8513011D90E991A
:10FA1000434600913A4695E8030015F0BAFA10F112
:10FA2000FA0F86F85140044614D1204607B0BDE8CD
:10FA3000F0830E99CDE9020001930091434695E8C9
:10FA400003003A46FFF776FC10F1FA0F86F85140B2
:10FA50000446EAD0304600F00BFA204607B0BDE875
:10FA6000F0836FF0F904E0E7FC3000202DE9F0436B
:10FA700004464FF0FF350868D4F8049083B09846E8
:10FA8000B9F1010F40F00053019500932DD11746B5
:10FA9000174A4138904222D8A360164E4B68304630
:10FAA0002946E36000F0DAF90546D8B92046424617
:10FAB00039466B4686F8519015F0A4FA10F1FA0F0A
:10FAC000044686F8515003D1204603B0BDE8F083C8
:10FAD000304600F0CDF9204603B0BDE8F0836FF06A
:10FAE0008704F1E76FF0F904EEE76FF08604EBE7C7
:10FAF000BEFFFF1FFC300020F0B589B004ACB0F1B0
:10FB0000005F84E8030047D24FF0FF3140F000551A
:10FB100021381F280695079122D9214E14463046D8
:10FB20001F4600F09BF9054698BB01210E9886F808
:10FB30005110009008A9224611E903003B4615F038
:10FB4000B9F910F1FA0F044686F8515002D1204657
:10FB500009B0F0BD304600F08BF9204609B0F0BD89
:10FB6000002401250E99009108A911E90300CDE9AF
:10FB700002440195FFF7DEFB094B10F1FA0F83F801
:10FB800051400446E3D0184600F072F9204609B00F
:10FB9000F0BD6FF0F904DAE76FF08704D7E700BF34
:10FBA000FC30002070B582B06C4600F16043213B10
:10FBB0001F2B84E803001DD9114E4FF0FF31304652
:10FBC00000F04CF90546C0B994E80300012386F81B
:10FBD000513015F0F8F810F1FA0F044686F851503C
:10FBE00002D1204602B070BD304600F041F92046F7
:10FBF00002B070BD6FF08504F3E76FF0F904F0E731
:10FC0000FC300020F0B589B06C460390039B84E87B
:10FC10000300202B02D9039B402B41D9224D4FF0EA
:10FC2000FF31284600F01AF9002836D10122039B43
:10FC300085F8512003F1004320331F2B10D894E89E
:10FC4000030015F0C0F8002310F1FA0F044685F800
:10FC5000513002D0144800F00BF9204609B0F0BD35
:10FC60004FF0FF31039B059143F00053049306AF1F
:10FC700004AB3A4693E8030015F0F3FC064600286F
:10FC8000DDD197E8030015F00DFD28466FF08404E0
:10FC900085F8516000F0ECF8DFE76FF0F904DCE77D
:10FCA0006FF08504D9E700BFFC300020F0B583B0C9
:10FCB0006D46114E85E803004FF0FF313046174680
:10FCC00000F0CCF8A0B90123044695E803003A46B9
:10FCD00086F8513015F0A2F810F1FA0F86F851406D
:10FCE000044602D0304600F0C3F8204603B0F0BD11
:10FCF0006FF0F904F9E700BFFC30002010B50446AE
:10FD0000006A14F079FB2046BDE81040282200214B
:10FD100014F05CB910B5EFF39084012383F390885D
:10FD200013F058FB240200280CBF204644F00100C9
:10FD300010BD00BFC30710B5044603D5240A84F3E1
:10FD4000908810BD13F04AFB240A84F3908810BDFC
:10FD5000034B53F8203013B1D3E90120104770470B
:10FD6000183F002038B50446A8B1B3B158685FFA0F
:10FD700080FCBCF1FF0F1DD0114D2D688D4201D0CC
:10FD8000E02815D018681B7AC4E901200D4A2160CB
:10FD900042F821403BB9204638BD0A48626040F82D
:10FDA0002140A360216008461BF0ECFA204638BDD4
:10FDB0000024F0E7C02518685D601B7AE4E700BF07
:10FDC0003C1C0020183F002030B100214FF0FF32D2
:10FDD0000123C0E900120372704700BFF8B5054661
:10FDE0000F461646EFF39084012383F3908813F0B7
:10FDF000F1FA2402002818BF44F00104C5E9017695
:10FE000018B1240A84F39088F8BD13F0E7FA240AA5
:10FE100084F39088F8BD00BF1BF03CBB4FF0E0239B
:10FE2000D3F8040DC0F30800003818BF0120704754
:10FE30004FF0E022044B92F8040D1B68C01AB0FA90
:10FE400080F04009704700BF3C1C0020704700BF95
:10FE5000003918BF01210170704700BF02780346C6
:10FE60001AB1002210461A7070474FF0FF307047E9
:10FE700001230370704700BF704700BF0E4A10B4E3
:10FE8000904216D00D4A904210D101200C4C0D4AE0
:10FE900052F8200050B10C4A80F8203012684461BA
:10FEA000C0E906125DF8044B05F094BB5DF8044B05
:10FEB00070470020054CEAE728E4010014400020C8
:10FEC0000120CDABAC400020844000200020CDAB11
:10FED000F8B50E461746054624211E2230461CF072
:10FEE00059FF002836D0284C24223146201D14F01A
:10FEF00023F81E22102160681CF04CFF50B3102222
:10FF00006168284614F018F8284605F08DFA064670
:10FF100000BB1E2294F82410606965601CF03AFF53
:10FF2000C0B1E169C9B9216A01BB44F222439F42D1
:10FF300008D01E2294F82510A0691CF02BFF48B1B0
:10FF40003046F8BD172294F82510A0691CF022FF56
:10FF50000028F5D16FF08006F2E71E22A0681CF0A1
:10FF600019FF0028F6D0216A0029DED01E22E068A1
:10FF70001CF010FF0028EDD01722216A20691CF028
:10FF800009FF0028D1D1E5E78440002043F2223365
:10FF90002DE9F041046805469C428CB000F0848154
:10FFA0003ADC41F622139C4200F04C8100F38F8032
:10FFB00040F622039C4200F0638141F222139C42EE
:10FFC00066D1002103690291082B40F0C780026AC4
:10FFD000042A40F0C380406803AA14F05FF8049C30
:10FFE0002CB1AB68002BC0F21E8307AE344621460D
:10FFF0009DF80C0005F0F8FA20B1AB68002BC0F2B8
:020000021000EC
:100000002C83029068680423002102AA14F052F89D
:1000100000200CB0BDE8F08145F622539C4200F070
:10002000998140F3A08046F622639C4200F0B6819D
:1000300047F222739C4240F08C802B69142B40F0D5
:100040008D802A6A042A40F089800021686807AA06
:1000500014F024F8AB68002BC0F24C82DDE9076194
:1000600046F222630B9A9C42009230460A9B099A00
:1000700000F0FD8206F0DEF80446686804230021E3
:1000800002AA029414F016F800200CB0BDE8F0812A
:10009000222C63D1002103690291082B5ED1026AF0
:1000A000042A5BD1406803AA13F0F8FFAB68002B69
:1000B000C0F24782DDE903463146204605F0F6FEF0
:1000C000AB68002800F0DF82002B9ADC9AE742F24E
:1000D00022239C4200F0148142F622239C423DD10F
:1000E0000369082B3AD1026A042A37D100214068FB
:1000F00007AA13F0D3FFAB68002B80F2B681079AF2
:10010000A24922F47F6323F00F038B4226D1C2F36E
:100110000B02002A00F0C682012A1FD19C4F089EC4
:100120009C4C1E220821304626601CF033FEA8B1EC
:1001300008223146201D13F0FFFED4E901011E22E2
:100140001CF028FE50B1211D384606F0E5F80446A3
:100150008BE046F222639C423FF46FAF6FF0800069
:100160000CB0BDE8F08144F222439C4209D023DD6B
:1001700044F622439C4200F0ED8045F222539C421B
:10018000ECD12B69082BE9D12A6A042AE6D1002197
:10019000686803AA13F082FFAB68002BC0F22682C6
:1001A000DDE9037144F222439C42384600F0638249
:1001B00005F062FF044660E743F622339C42CDD14E
:1001C0000369082BCAD1026A042AC7D100214068FA
:1001D00007AA13F063FFAB68002B80F24081079AF7
:1001E0006A4922F47F6323F00F038B42B6D1C2F336
:1001F0000B02002A00F05882012AAFD1644F089EFA
:10020000644C1E220C21304626601CF0C3FD0028E1
:10021000A4D00C223146201D13F08EFE1E22E16870
:1002200060681CF0B7FD002898D0D4E902011722BD
:100230001CF0B0FD002891D0211D384606F0BCF816
:10024000044612E003690C2B88D10021406807AAFC
:1002500013F024FFAB68002BC0F2E680079C204619
:10026000DDE9081206F032F804466868042300212C
:1002700003AA039413F01EFF00200CB0BDE8F08128
:100280000369102B7FF46AAF0021406807AA13F0BE
:1002900005FFAB68002BC0F2B48007980899DDE930
:1002A000092305F0FFFFDFE70369042B7FF456AF56
:1002B0000021406807AA13F0F1FEAB68002B80F222
:1002C0009B80079A314922F47F6323F00F038B420E
:1002D0007FF444AFC2F30B02002A00F0E181012A4F
:1002E0007FF43CAF2A4805F017FE079A274922F40D
:1002F0007F6323F00F038B4200F0FC8100202FE787
:100300008368002BBFF62AAF0369082B7FF426AF62
:10031000002107AA406813F0C1FE079C1B4924F482
:100320007F6222F00F028A427FF418AFC4F30B04FD
:1003300014B1012C7FF412AF1722242108981CF06D
:1003400029FD00283FF40AAF134B089A002043F818
:10035000242005E72B69082B7FF400AF2A6A042AC2
:100360007FF4FCAE0021686807AA13F097FEAB6823
:10037000002BC0F28080DDE9076144F622439C42F5
:10038000304600F07C8106F0E5F86DE70020CDAB4B
:100390001440002084400020AC4000208368002BE3
:1003A0003FF7DCAE0369042B7FF4D8AE036A042B5D
:1003B0007FF4D4AE002103AA406813F06FFE039AC5
:1003C000BA4922F47F6323F00F038B427FF4C6AE59
:1003D000C2F30B02002A00F03E81012A7FF4BEAE78
:1003E000B34806F027F9044604230021686807AAE9
:1003F000079413F05FFE81E7079805F08DFD00205C
:10040000AEE6079AA94922F47F6323F00F038B42DB
:100410007FF4A4AEC2F30B02002A00F05E81012A31
:100420007FF49CAEA24839E7079AA04922F47F6383
:1004300023F00F038B427FF491AEC2F30B02002A2C
:1004400000F04D81012A7FF489AE994C1E22DDE92E
:1004500008011CF09FFC00287FF401AF7EE6DDE977
:10046000070105F0A9FF0446FFE6DDE9070105F0F5
:1004700053FF0446F9E6079A8C4922F47F6323F080
:100480000F038B427FF46AAEC2F30B02002A00F026
:100490002A81012A7FF462AE854EDDF82080854FE7
:1004A0001E2214214046C7F800801CF073FC00286F
:1004B0003FF454AE41461422381D13F03DFD396916
:1004C00071B11E2278681CF065FC00283FF446AE2E
:1004D00017223969B8681CF05DFC00283FF43EAE75
:1004E0001E22397DF8681CF055FC00283FF436AE1A
:1004F000714942E7079A6D4922F47F6323F00F03A5
:100500008B427FF42BAEC2F30B02002A00F0E9808D
:10051000012A7FF423AE664E1E22102108981CF09B
:1005200039FC00283FF41AAE1022089903A813F0F2
:1005300003FD03A804F078FF00287FF40FAE03A9A1
:100540008EE5049EBEB11E22102130461CF022FC16
:1005500000283FF403AE1022314607A813F0ECFC4C
:100560009DF81C305A1E012A40F29380042B08BFCC
:1005700007AE7FF4F3AD4E4C2768002F40F0B780F4
:10058000DDF80C801E22082140461CF003FC0028E8
:100590003FF4E4AD41460822204613F0CDFC1E2274
:1005A000642120681CF0F6FB00283FF4D7ADA0467C
:1005B00058F8081B6422404613F0BEFC1E2201219D
:1005C0006068C4F800801CF0E5FB00283FF4C6AD6D
:1005D00004F16C0801224046616813F0ADFC374B12
:1005E000C4F804805F60364B029365E5039A2F4997
:1005F00022F47F6323F00F038B427FF4AFADC2F38D
:100600000B02002A71D0012A7FF4A8AD284F04996B
:10061000284E224607A83160FFF75AFC00287FF4D5
:100620009FAD311DBEE51E22102120461CF0B2FBFD
:1006300000283FF493AD07AE10222146304613F058
:100640007BFC9DF81C305A1E012A3FD9042B7FF4F5
:1006500085AD3446CBE41B48C3E600209DF80C2052
:10066000124B16491343029341F82200CAE405F0E5
:10067000ABFD044601E505F057FC0446FDE405F03A
:10068000FFFE0446F1E5002B0290BFF6BBAC2060F4
:10069000B8E401230C4A07AE08928DF81C306AE7D3
:1006A000084820E6074F3AE5064FA8E50020CDAB05
:1006B000144000208440002088400020AC400020EE
:1006C0000120CDAB28E401007DFE000001230E4A8D
:1006D000344608928DF81C3089E40C48DEE50B4C5A
:1006E000B4E60A4E18E7094ED7E6084F8FE76FF0D9
:1006F0008C0035E5C2F30B02012A7FF4FFAD002325
:10070000034A184613602BE57DFE000028E4010033
:100710001440002005F0C0BB0E4A10B4904216D021
:100720000D4A904210D101200C4C0D4A52F8200085
:1007300050B10C4A80F8203012684461C0E90612BA
:100740005DF8044B04F046BF5DF8044B7047002091
:10075000054CEAE720E40100B44000200110CDABD5
:1007600014410020F84000200010CDAB42F61123C8
:100770002DE9F041046805469C4288B000F00D81E7
:100780003BDC41F211139C4200F049816ADD41F6E5
:1007900011139C4200F0948142F211239C4240F0DC
:1007A000F7808368002B80F2F3800369082B40F008
:1007B000EF80002104AA406813F070FC049CAD494E
:1007C00024F47F6222F00F028A4240F0E180C4F3F9
:1007D0000B04002C00F0F882012C40F0D980172285
:1007E000242105981CF0D6FA002800F0D180A24BF5
:1007F000059A002043F82420CCE044F211439C42A7
:1008000064D07EDD46F211639C4203D047F211733F
:100810009C4257D12B69082B40F0BA802A6A042ADF
:1008200040F0B6800021686802AA13F037FCAB687C
:10083000002BC0F24682DDE9026146F211639C4260
:10084000304600F0CA8106F061FA04460423686865
:1008500000210DEB0302019413F02CFC002008B0E2
:10086000BDE8F081112C00F00D8140F611039C428F
:1008700040F08E8003690C2B40F08A80026A042AC3
:1008800040F086800021406804AA13F007FC059818
:1008900000287DD0069A102A7AD1AB68002BC0F2CE
:1008A0005881049C0146204606F058FA04466868C0
:1008B0000423002102AA029413F0FCFB002008B0DC
:1008C000BDE8F08145F211539C4261D12B69082BA0
:1008D0005ED12A6A042A5BD10021686802AA13F05B
:1008E000DDFBAB68002BC0F21482DDE9027144F23B
:1008F00011439C42384600F0748106F08DF904469D
:10090000A4E743F211339C422DD043F611339C42AD
:100910003ED18368002B3BDC0369042B38D1036A8A
:10092000042B35D1002102AA406813F0B7FB029ACC
:10093000504922F47F6323F00F038B4228D1C2F386
:100940000B02002A00F03E82012A21D14B4806F01A
:10095000A3FA044604230021686804AA049413F04F
:10096000A9FB002016E00369042B11D10021406887
:1009700004AA13F093FBAB68002B80F23C81049A2D
:100980003C4922F47F6323F00F038B4200F0FD808B
:100990006FF0800008B0BDE8F0810369082BF7D143
:1009A000026A042AF4D10021406804AA13F076FBFD
:1009B000AB68002B80F22A81049A2E4922F47F63CF
:1009C00023F00F038B42E3D1C2F30B02002A00F0A5
:1009D0002C82012ADCD1294F059E294C1E220C2194
:1009E000304626601CF0D6F90028D1D00C223146C2
:1009F000201D13F0A1FA1E22E16860681CF0CAF9FC
:100A00000028C5D0D4E9020117221CF0C3F9002840
:100A1000BED0211D384606F0E5F9044647E700211F
:100A200003690191082BB3D1026A042AB0D140684E
:100A300002AA13F033FB039C2CB1AB68002BC0F26D
:100A4000C58104AE344621469DF8080005F0D8FE65
:100A500020B1AB68002BC0F2B68001900423686817
:100A600000210DEB030213F025FB002008B0BDE8C8
:100A7000F08100BF0010CDAB14410020B440002035
:100A8000F8400020002103690191082B80D1026AFF
:100A9000042A7FF47DAF406802AA13F0FFFAAB6826
:100AA000002BC0F2B880DDE902463146204606F050
:100AB0001FF8AB68002800F09880002BCDDCCDE754
:100AC0000369082B7FF464AF026A042A7FF460AFE5
:100AD0000021406804AA13F0E1FAAB68002B80F211
:100AE0008F80049AC54922F47F6323F00F038B4261
:100AF0007FF44EAFC2F30B02002A00F09481012A6A
:100B00007FF446AFBE4F059EBE4C1E220C213046E0
:100B100026601CF03FF900283FF43AAF0C22314622
:100B2000201D13F009FA1E22E16860681CF032F9FA
:100B300000283FF42DAFD4E9020117221CF02AF956
:100B400000283FF425AF211D384606F017F904466A
:100B5000ADE6049AA94922F47F6323F00F038B4288
:100B60007FF416AFC2F30B02002A00F06B81012A5A
:100B70007FF40EAFA24C1E2210211CF00BF90028AE
:100B80003FF406AFDDE905028CE6C2F30B02002A52
:100B900000F04781012A7FF4FBAE994805F0E2FF9F
:100BA000049A964922F47F6323F00F038B427FF46B
:100BB000D8AEC2F30B02012A7FF4D3AE0023904AD1
:100BC00018461360E6E600209DF808208B4B8E49FE
:100BD0001343019341F8220040E706F06FF8044602
:100BE00034E605F0C7FF044630E6002B0190BFF65F
:100BF00035AF206032E7049805F0B4FF0020C9E665
:100C0000DDE9040106F0BAF8044650E6DDE9040126
:100C100006F0E8F84AE6039EC6B11E2210213046CF
:100C20001CF0B8F800283FF4B3AE102231460DEBAB
:100C3000020013F081F99DF810305A1E012A40F28B
:100C4000E980042B08BF04AE7FF4A2AE6C4C276889
:100C5000002F40F0F980DDF808801E220821404670
:100C60001CF098F800283FF493AE41460822204635
:100C700013F062F91E22382120681CF08BF800283E
:100C80003FF486AEA04658F8081B3822404613F0C1
:100C900053F91E2201216068C4F800801CF07AF824
:100CA00000283FF475AE04F1400801224046616817
:100CB00013F042F9544BC4F804805F60534B019326
:100CC000F3E6029A4D4922F47F6323F00F038B422F
:100CD0007FF45EAEC2F30B02002A00F0B180012A5D
:100CE0007FF456AE464E1E22102103981CF052F897
:100CF00000283FF44DAE102203990DEB020013F0D3
:100D00001BF904A804F090FB00287FF441AE04A96D
:100D100093E5029A394922F47F6323F00F038B4253
:100D20007FF436AEC2F30B02002A00F08780012A5E
:100D30007FF42EAE324FDDF80C80324E1E22182189
:100D40004046C6F800801CF025F800283FF420AE8D
:100D500041461822301D13F0EFF81E221021706852
:100D60001CF018F800283FF413AE0DF11008102203
:100D70004046716813F0E0F84046C6F8048004F07D
:100D800053FB00287FF404AE1E22102130691CF0B2
:100D900001F800283FF4FCAD1E227169B0681BF019
:100DA000F9FF00283FF4F4AD17227169F0681BF0D9
:100DB000F1FF00283FF4ECAD337E002B7FF4E8AD6B
:100DC000311D94E51248C2E5002408E51E221021D9
:100DD00020461BF0DFFF00283FF4DAAD04AE1022FE
:100DE0002146304613F0A8F89DF810305A1E012A0B
:100DF0001DD9042B3FF426AECAE500BF0010CDABD1
:100E0000B4400020F8400020144100200110CDAB78
:100E100020E4010001230E4A04AE05928DF8103043
:100E200014E70C48BAE60B4F6DE60A4FD4E50123F0
:100E3000074A344605928DF8103004E6054F7AE7EC
:100E4000044E50E7034C96E66FF08C00A2E500BF1D
:100E50001907010020E4010005F040BE114A10B45A
:100E6000904219D00832904219D00F4A904210D1C6
:100E700002200E4C0E4A52F8200050B10D4A80F864
:100E8000203012684461C0E906125DF8044B04F09A
:100E9000A1BB5DF8044B70470020074CEAE7012036
:100EA000064CE7E730E401001C4100200230CDABE6
:100EB00084410020704100200030CDAB0130CDAB2B
:100EC00070B50D461646044610211E2228461BF01A
:100ED00061FFE8B110222946204613F02DF81E22AA
:100EE000A16820681BF056FF90B1F20707D4F30603
:100EF00007D41E22E16860681BF04CFF40B100205F
:100F000070BD1722E16860681BF044FF0028F6D12D
:100F10006FF0800070BD00BF42F233232DE9F04135
:100F2000046805469C4288B000F07A8174DD44F282
:100F300033439C4254D02CDD46F233639C4203D0B1
:100F400047F233739C4247D12B69082B3FD12A6A61
:100F5000042A3CD10021686801AA13F09FF8AB680D
:100F6000002BC0F26A82DDE9016146F233639C42E4
:100F7000304600F0B68106F0C9FC044668680423D8
:100F800000216A46009413F095F8002008B0BDE8EF
:100F9000F08142F633239C4200F0C08043F23333A9
:100FA0009C4214D10369042B11D10021406804AA8A
:100FB00013F074F8AB68002B80F29B81049AAF4960
:100FC00022F47F6323F00F038B4200F05F816FF008
:100FD000800008B0BDE8F08145F233539C42F6D161
:100FE0002B690C2BF3D12A6A042AF0D100216868FE
:100FF00001AA13F053F8AB68002BC0F2E781DDE9DA
:101000000161039A44F233439C42304600F06D8103
:1010100006F000FC0446B1E741F233139C4200F0B5
:10102000D58036DD41F633139C42D0D10369082BBD
:10103000CDD1026A042ACAD10021406804AA13F063
:101040002DF8AB68002B80F25981049A8B4922F469
:101050007F6323F00F038B42B9D140F6FE710A4241
:10106000C2F30B0340F04582854C04EBC304854E6C
:1010700005993046236840F8041B93F84120FFF798
:101080001FFF0028A5D12046311D06F0ABFC044609
:1010900038E0332C71D040F633039C4297D103697A
:1010A000082B94D1026A042A91D10021406804AA35
:1010B00012F0F4FFAB68002B80F22681049A6F498E
:1010C00022F47F6323F00F038B4280D140F6FE7140
:1010D0000A42C2F30B0340F00782694C04EBC304DD
:1010E000684E05993046236840F8041B93F8412068
:1010F000FFF7E6FE00287FF46CAF2046311D06F0B6
:1011000029FC04460423686800210DEB03020194C6
:1011100012F0D0FF002008B0BDE8F0818368002BFA
:101120003FF755AF0369042B7FF451AF036A042BDB
:101130007FF44DAF002101AA406812F0AFFF019A81
:101140004E4922F47F6323F00F038B427FF43FAFBD
:1011500040F6FE731A42C2F30B0140F0AE804848DD
:1011600000EBC10006F084FC0446042300216868FB
:1011700004AA049412F09EFF9DE0002103690091EF
:10118000082B7FF424AF026A042A7FF420AF406862
:1011900001AA12F083FFAB68002BC0F2BB80DDE92F
:1011A00001463146204606F099FAAB68002800F067
:1011B0006C81002B00DD00906868042300216A46E2
:1011C00012F078FF002008B0BDE8F081002103692B
:1011D0000091082B7FF4FBAE026A042A7FF4F7AE7D
:1011E000406801AA12F05AFF029C2CB1AB68002B98
:1011F000C0F2518104AE344621469DF8040005F04A
:10120000B3FE0028D8D0AB68002BD4DA00209DF8BC
:1012100004201A4B1C491343009341F82200CBE7EA
:101220008368002BBFF6D3AE0369082B7FF4CFAEE3
:10123000002104AA406812F031FF049B0F4923F4F7
:101240007F6222F00F028A427FF4C1AE40F6FE7147
:10125000C3F30B020B4035D0022A7FF4B8AE022450
:101260001722242105981BF095FD00283FF4AFAE0E
:10127000054B059A002043F82420AAE60030CDABA8
:1012800030E40100704100208441002040F6FE73EC
:101290001A42C2F30B0140F02281A94800EBC100C1
:1012A00006F058FA049AA74922F47F6323F00F034B
:1012B0008B4200F0378100208BE602297FF487AE55
:1012C000A1484FE79E4901EBC2028A4200F03681F5
:1012D00008318A4200F030819B4B9A427FF477AE0E
:1012E000BDE706F0EDFA044648E606F03BFA044690
:1012F00044E6049806F02EFA00206AE6DDE90401CF
:1013000006F070FB0446FDE6DDE9040106F022FB71
:101310000446F7E6029EF6B11E22102130461BF06D
:1013200039FD00283FF453AE102231460DEB020088
:1013300012F002FE9DF81130013B012B3FF647AE43
:101340009DF810305A1E012A40F2C280042B08BFBB
:1013500004AE7FF43CAE7C4C2768002F40F0DF8069
:10136000DDF804801E22082140461BF013FD0028F2
:101370003FF42DAE41460822204612F0DDFD1E222C
:10138000482120681BF006FD00283FF420AEA0464F
:1013900058F8081B4822404612F0CEFD1E220121BB
:1013A0006068C4F800801BF0F5FC00283FF40FAE25
:1013B00004F1500801224046616812F0BDFD634B04
:1013C000C4F804809F60624B0093EAE6019A5D498D
:1013D00022F47F6323F00F038B427FF4F8AD40F6D5
:1013E000FE731A42C2F30B0140F08F80544E06EB9D
:1013F000C106584F02993846336840F8041B93F8E9
:101400004120FFF75DFD00287FF4E3AD1E2210218F
:1014100003981BF0BFFC00283FF4D9AD10220399BC
:101420000DEB020012F088FD04A803F0FDFF002878
:101430007FF4CDAD04AA391DE4E5019A414922F4B7
:101440007F6323F00F038B427FF4C1AD40F6FE7340
:101450001A42C2F30B015DD1394E06EBC1061E22C2
:10146000102102981BF096FC00283FF4B0AD10222A
:1014700002990DEB020012F05FFD04A803F0D4FF07
:1014800000287FF4A4AD04A96FE5002B0090BFF6FF
:1014900093AE206090E61E22102120461BF07AFCBD
:1014A00000283FF494AD04AE10222146304612F0DD
:1014B00043FD9DF81130013B012B3FF688AD9DF8AF
:1014C00010305A1E012A19D9042B3FF494AE7EE540
:1014D0000123214A04AE05928DF810303BE7022922
:1014E0007FF475AD1848DBE6022B7FF470AD164C27
:1014F000F6E5022B7FF46BAD134CB8E50123164AD9
:10150000344605928DF8103076E602297FF45FADFF
:101510000D4E6EE702297FF45AAD0B4E9FE76FF038
:101520008C0056E5C2F30B02022A7FF4C4AE0023FE
:10153000054A184613604CE5012491E61C468FE6E7
:1015400030E401000030CDAB1C410020844100207C
:101550000230CDAB704100205D0E010006F0B4B842
:101560000E4A10B4904216D00D4A904210D101207C
:101570000C4C0D4A52F8200050B10C4A80F8203033
:1015800012684461C0E906125DF8044B04F022B809
:101590005DF8044B70470020054CEAE748E4010081
:1015A000904100200140CDABF8410020E0410020F7
:1015B0000040CDAB42F244232DE9F04104680546DA
:1015C0009C4288B000F0A48174DD44F244439C4204
:1015D00055D02DDD46F244639C4203D047F244735C
:1015E0009C4248D12B690C2B40D12A6A042A3DD158
:1015F0000021686801AA12F051FDAB68002BC0F20F
:101600009182DDE9016146F244639C423046039ACF
:1016100000F0C38106F042FD0446686804230021FF
:101620006A46009412F046FD002008B0BDE8F08143
:1016300042F644239C4200F0E28043F244339C4251
:1016400014D10369042B11D10021406804AA12F0BF
:1016500025FDAB68002B80F2A881049AA74922F4EB
:101660007F6323F00F038B4200F079816FF08000DD
:1016700008B0BDE8F08145F244539C42F6D12B6995
:10168000082BF3D12A6A042AF0D10021686801AA44
:1016900012F004FDAB68002BC0F2EE81DDE90171B0
:1016A00044F244439C42384600F07B8106F06CFCD7
:1016B0000446B2E741F244139C4200F0F48045DD59
:1016C00041F644139C42D1D10369082BCED1026A62
:1016D000042ACBD10021406804AA12F0DFFCAB68D9
:1016E000002B80F26781049A844922F47F6323F0FF
:1016F0000F038B42BAD1C2F30B02002A00F06A82B8
:10170000012AB3D17E4F059E7E4C1E220C2130460D
:1017100026601BF03FFB0028A8D00C223146201D7C
:1017200012F00AFC1E22E16860681BF033FB0028FF
:101730009CD0D4E9020117221BF02CFB002895D085
:10174000211D384606F00CFD04464CE0442C00F008
:10175000818040F644039C4288D10369082B85D1DF
:10176000026A042A82D10021406804AA12F096FC81
:10177000AB68002B80F22481049A604922F47F63D5
:1017800023F00F038B427FF471AFC2F30B02002AE8
:1017900000F01E82012A7FF469AF594F059E594C13
:1017A0001E220C21304626601BF0F4FA00283FF47C
:1017B0005DAF0C223146201D12F0BEFB1E22E168F7
:1017C00060681BF0E7FA00283FF450AFD4E902014B
:1017D00017221BF0DFFA00283FF448AF211D3846DE
:1017E00006F086FC04460423686800210DEB030222
:1017F000019412F05FFC002008B0BDE8F08183681E
:10180000002B3FF733AF0369042B7FF42FAF036A3C
:10181000042B7FF42BAF002101AA406812F03EFC9C
:10182000019A364922F47F6323F00F038B427FF441
:101830001DAFC2F30B02002A40F0A780324806F029
:10184000DBFC044604230021686804AA049412F017
:1018500031FC98E0002103690091082B7FF406AF6A
:10186000026A042A7FF402AF406801AA12F016FC53
:10187000AB68002BC0F2AA80DDE901463146204664
:1018800006F0E0FAAB68002800F07C81002B00DD58
:1018900000906868042300216A4612F00BFC0020C7
:1018A00008B0BDE8F081002103690091082B7FF4A6
:1018B000DDAE026A042A7FF4D9AE406801AA12F0B4
:1018C000EDFB029C2CB1AB68002BC0F2618104AE31
:1018D000344621469DF8040006F030F90028D8D09F
:1018E000AB68002BD4DA00209DF80420034B074995
:1018F0001343009341F82200CBE700BF0040CDAB7B
:1019000090410020E041002048E40100F84100201F
:101910008368002BBFF6AAAE0369082B7FF4A6AE3E
:10192000002104AA406812F0B9FB049CB64924F4D3
:101930007F6222F00F028A427FF498AEC4F30B0458
:1019400044BB1722242105981BF024FA00283FF4F9
:101950008DAEAE4B059A002043F8242088E6C2F3F2
:101960000B02002A00F03281012A7FF47FAEA848E2
:1019700006F0A2FA049AA44922F47F6323F00F032D
:101980008B4200F03781002072E6012A7FF46EAEB0
:101990009F4854E7012CD4D068E606F055FB044676
:1019A0003BE606F091FA044637E6049806F084FA1E
:1019B00000205DE6DDE9040106F0D2FB044612E7F3
:1019C000DDE9040106F094FB04460CE7029EC6B173
:1019D0001E22102130461BF0DDF900283FF446AEF0
:1019E000102231460DEB020012F0A6FA9DF81030DD
:1019F0005A1E012A40F2E380042B08BF04AE7FF494
:101A000035AE834C2768002F40F0F180DDF804806C
:101A10001E22082140461BF0BDF900283FF426AEE7
:101A200041460822204612F087FA1E2244212068EF
:101A30001BF0B0F900283FF419AEA04658F8081B77
:101A40004422404612F078FA1E2201216068C4F850
:101A500000801BF09FF900283FF408AE04F14C0809
:101A600001224046616812F067FA684BC4F80480AE
:101A70005F60684B009301E7019A634922F47F633A
:101A800023F00F038B427FF4F1ADC2F30B02002A67
:101A900000F0AB80012A7FF4E9AD5D4FDDF80880EE
:101AA0005D4E1E2214214046C6F800801BF072F9DC
:101AB00000283FF4DBAD41461422301D12F03CFA01
:101AC0001E22102170681BF065F900283FF4CEAD8E
:101AD0000DF1100810224046716812F02DFA4046B0
:101AE00003F0A2FC00287FF4C1AD1E227169B0682A
:101AF000C6F804801BF04EF900283FF4B7AD17225A
:101B00007169F0681BF046F900283FF4AFAD306909
:101B100030B11E2210211BF03DF900283FF4A6AD84
:101B2000311DBDE5019A384922F47F6323F00F038C
:101B30008B427FF49BADC2F30B02002A53D0012AE3
:101B40007FF494AD324E039830B11E2210211BF069
:101B500021F900283FF48AAD1E22102102981BF0C3
:101B600019F900283FF482AD102202990DEB020012
:101B700012F0E2F904A803F057FC00287FF476ADD8
:101B800004A940E5002B0090BFF683AE206080E6FC
:101B90001E22102120461BF0FDF800283FF466AD00
:101BA00004AE10222146304612F0C6F99DF81030DE
:101BB0005A1E012A10D9042B3FF48AAE56E50123A0
:101BC000164A04AE05928DF810301AE71448CFE695
:101BD000134FE3E5124F96E50123104A3446059270
:101BE0008DF8103075E60E4EADE70D4F56E76FF0ED
:101BF0008C003DE5C2F30B02012A7FF4C4AE002342
:101C0000034A1846136033E50040CDABF84100208D
:101C1000904100200140CDABE04100206115010062
:101C200048E4010006F004B90E4A10B4904216D000
:101C30000D4A904210D101200C4C0D4A52F8200060
:101C400050B10C4A80F8203012684461C0E9061295
:101C50005DF8044B03F0BEBC5DF8044B70470020F8
:101C6000054CEAE750E40100004200200150CDABF2
:101C700048420020344200200050CDAB42F65523AC
:101C80002DE9F041046805469C4288B000F0FC80D4
:101C90003BDC41F255139C4200F01E816CDD41F6A5
:101CA00055139C4200F0C38042F255239C4240F001
:101CB000E6808368002B80F2E2800369082B40F005
:101CC000DE80002104AA406812F0E8F9049C9E49D5
:101CD00024F47F6222F00F028A4240F0D080C4F3E5
:101CE0000B04002C00F02481012C40F0C880172246
:101CF000242105981BF04EF8002800F0C080934B7B
:101D0000059A002043F82420BBE045F255539C423D
:101D100000F08D805ADD46F255639C4204D047F2B4
:101D200055739C4240F0AB802B69082B40F0A78094
:101D30002A6A042A40F0A3800021686802AA12F0EF
:101D4000ADF9AB68002BC0F24681DDE9026146F2D5
:101D500055639C42304600F0BA8106F0FBFC044615
:101D60000423686800210DEB0302019412F0A2F92C
:101D7000002008B0BDE8F081552C54D10021036942
:101D80000191082B7BD1026A042A78D1406802AA0B
:101D900012F084F9AB68002BC0F24581DDE9024600
:101DA0003146204606F02AFCAB68002800F09381FB
:101DB000002B00DD01900423686800210DEB030275
:101DC00012F078F9002008B0BDE8F08143F25533F5
:101DD0009C4250D10369042B51D10021406804AAD0
:101DE00012F05CF9AB68002B80F2A880049A564987
:101DF00022F47F6323F00F038B4240D1C2F30B0226
:101E0000002A00F08C81012A39D1514806F030FCBB
:101E1000049A4D4922F47F6323F00F038B4200F0B4
:101E2000988100202DE040F655039C4227D12B6974
:101E3000082B24D12A6A042A21D10021686802AA29
:101E400012F02CF9AB68002BC0F28680DDE902713C
:101E500044F255439C4200F0648145F255539C4244
:101E600000F06F8140F655039C42384662D006F080
:101E7000A9FC044674E744F255439C42D7D06FF066
:101E8000800008B0BDE8F0818368002BF7DC0369AF
:101E9000042BF4D1036A042BF1D1002102AA40687B
:101EA00012F0FCF8029A284922F47F6323F00F0312
:101EB0008B42E4D1C2F30B02002A37D0012ADED1D3
:101EC000234806F0AFFC044604230021686804AAF6
:101ED000049412F0EFF8A4E7002103690191082BA4
:101EE000CDD1026A042ACAD1406802AA12F0D6F8FB
:101EF000039C2CB1AB68002BC0F2F38004AE3446D7
:101F000021469DF8080006F0E7F900283FF453AF9A
:101F1000AB68002BBFF64EAF00209DF808200A4B9F
:101F20000A491343019341F8220044E70948C8E7EE
:101F30000024DCE606F030FC044611E7049806F0C5
:101F400097FB00209DE700BF0050CDAB484200202A
:101F50000042002050E40100029A8B4922F47F6382
:101F600023F00F038B428AD1C2F30B02002A00F048
:101F7000E680012A83D1854FDDF80C80844E1E2235
:101F800010214046C6F800801AF004FF00283FF4F4
:101F900076AF41461022301D11F0CEFF1E221021D7
:101FA00070681AF0F7FE00283FF469AF0DF11008D1
:101FB00010224046716811F0BFFF404603F034FA2A
:101FC00000287FF45CAF3169C6F80480002940F036
:101FD000CA80311D3CE7029A6B4922F47F6323F0EB
:101FE0000F038B427FF44BAFC2F30B02002A00F0C9
:101FF000A480012A7FF443AF644E1E22102103986F
:102000001AF0C8FE00283FF43AAF102203990DEBF6
:10201000020011F091FF04A803F006FA00287FF4F3
:102020002EAF04A993E6039EBEB11E2210213046B6
:102030001AF0B0FE00283FF422AF102231460DEB1B
:10204000020011F079FF9DF810305A1E012A5FD965
:10205000042B08BF04AE7FF412AF4C4C2768002F4E
:1020600074D1DDF808801E22082140461AF092FE45
:1020700000283FF404AF41460822204611F05CFFDF
:102080001E22282120681AF085FE00283FF4F7AEB2
:10209000A04658F8081B2822404611F04DFF1E228A
:1020A00001216068C4F800801AF074FE00283FF433
:1020B000E6AE04F1300801224046616811F03CFFB1
:1020C000344BC4F804805F60334B019368E606F03C
:1020D0001FFB044644E6002B0190BFF66CAE206067
:1020E00069E61E22102120461AF054FE00283FF413
:1020F000C6AE04AE10222146304611F01DFF9DF8F9
:1021000010305A1E012A11D9042B3FF4F8AEB6E65E
:102110000123224A04AE05928DF810309DE7204835
:1021200074E6384606F0ACFA044619E601231B4A69
:10213000344605928DF81030E2E6194E5DE7184FEF
:102140001AE7384606F0C0FA044609E66FF08C003C
:1021500097E6C2F30B02012A7FF463AE00230B4A19
:10216000184613608DE61E22B0681AF013FE002890
:102170003FF485AED6E9030117221AF00BFE0028C2
:102180007FF427AF7BE600BF0050CDAB00420020BC
:1021900034420020484200200150CDAB291C0100F0
:1021A00050E4010006F020BA0E4A10B4904216D056
:1021B0000D4A904210D101200C4C0D4A52F82000DB
:1021C00050B10C4A80F8203012684461C0E9061210
:1021D0005DF8044B03F0FEB95DF8044B7047002036
:1021E000054CEAE758E40100504200200160CDAB05
:1021F000E0420020B84200200060CDABF8B51646A2
:1022000090F82220002A3ED104460D461E222421A9
:1022100030461F461AF0BEFDA8B3242231462046A0
:1022200011F08AFE1E22102120681AF0B3FD50B36F
:1022300010222168284611F07FFE284603F0F4F8AA
:10224000064600BB1E2294F82010206925601AF073
:10225000A1FDC0B1A169C9B9E16901BB44F26643FE
:102260009F4208D01E2294F8211060691AF092FD56
:1022700048B13046F8BD172294F8211060691AF071
:1022800089FD0028F5D16FF08006F2E71E22606814
:102290001AF080FD0028F6D0E1690029DED01E2268
:1022A000A0681AF077FD0028EDD01722E169E068F8
:1022B0001AF070FD0028D1D1E5E700BF43F2663384
:1022C0002DE9F041046805469C428AB000F08D81FA
:1022D0003BDC41F666139C4200F04C8100F38F809A
:1022E00040F666039C4200F06D8141F266139C4209
:1022F00066D1002103690191082B40F0C780026A72
:10230000042A40F0C380406802AA11F0C7FE039C73
:102310002CB1AB68002BC0F2218306AE34462146B7
:102320009DF8080006F0D4FA20B1AB68002BC0F28B
:102330002F8301900423686800210DEB030211F044
:10234000B9FE00200AB0BDE8F08145F666539C4214
:1023500000F0A18140F39F8046F666639C4200F046
:10236000BD8147F266739C4240F08B802B69102B35
:1023700040F08C802A6A042A40F088800021686836
:1023800002AA11F08BFEAB68002BC0F23082DDE9AF
:10239000026146F266639C423046DDE9042300F0A8
:1023A000018307F007F804460423686800210DEB59
:1023B0000302019411F07EFE00200AB0BDE8F08116
:1023C000662C63D1002103690191082B5ED1026A5A
:1023D000042A5BD1406802AA11F060FEAB68002BB2
:1023E000C0F22C82DDE902463146204606F05AFE54
:1023F000AB68002800F0EC82002B9ADC9AE742F2EE
:1024000066239C4200F01D8142F666239C423DD12A
:102410000369082B3AD1026A042A37D100214068A7
:1024200006AA11F03BFEAB68002B80F2A381069A4E
:10243000A64922F47F6323F00F038B4226D1C2F317
:102440000B02002A00F0D382012A1FD1A04F079E61
:10245000A04C1E220821304626601AF09BFCA8B131
:1024600008223146201D11F067FDD4E901011E222A
:102470001AF090FC50B1211D384606F0EFFF0446DB
:1024800095E046F266639C423FF470AF6FF08000C7
:102490000AB0BDE8F08144F266439C4209D023DDD6
:1024A00044F666439C4200F0F68045F266539C4237
:1024B000ECD12B69082BE9D12A6A042AE6D1002144
:1024C000686802AA11F0EAFDAB68002BC0F20B822B
:1024D000DDE9027144F266439C42384600F06682B0
:1024E00006F0A8FE04465FE743F666339C42CDD172
:1024F0000369082BCAD1026A042AC7D100214068A7
:1025000006AA11F0CBFDAB68002B80F22D81069A54
:102510006E4922F47F6323F00F038B42B6D1C2F3DE
:102520000B02002A00F06582012AAFD1684F079E96
:10253000684C1E220C21304626601AF02BFC002825
:10254000A4D00C223146201D11F0F6FC1E22E168B9
:1025500060681AF01FFC002898D0D4E90201172205
:102560001AF018FC002891D0211D384606F0C6FF4D
:1025700004461CE003690C2B88D1026A042A85D129
:102580000021406806AA11F089FD079800283FF451
:102590007DAF089A0C2A7FF479AFAB68002BC0F2AC
:1025A000C281069C0146204606F044FF0446686846
:1025B0000423002102AA029411F07CFD00200AB03D
:1025C000BDE8F08103690C2B7FF460AF0021406807
:1025D00006AA11F063FDAB68002BC0F2B28006982A
:1025E000DDE9071206F018FFE0E70369042B7FF42A
:1025F0004DAF0021406806AA11F050FDAB68002BDA
:1026000080F29A80069A314922F47F6323F00F0307
:102610008B427FF43BAFC2F30B02002A00F0E5814E
:10262000012A7FF433AF2A4806F06EFD069A274947
:1026300022F47F6323F00F038B4200F0018200201D
:1026400026E78368002BBFF621AF0369082B7FF4D0
:102650001DAF002106AA406811F020FD069C1B4911
:1026600024F47F6222F00F028A427FF40FAFC4F39A
:102670000B0414B1012C7FF409AF17222421079811
:102680001AF088FB00283FF401AF134B079A002093
:1026900043F82420FCE62B69082B7FF4F7AE2A6A66
:1026A000042A7FF4F3AE0021686806AA11F0F6FC54
:1026B000AB68002B64DBDDE9066144F666439C42AF
:1026C00000F08181304606F0E7FF6FE70060CDAB98
:1026D00050420020B8420020E04200208368002BD6
:1026E0003FF7D4AE0369042B7FF4D0AE036A042B0A
:1026F0007FF4CCAE002102AA406811F0CFFC029A10
:10270000BD4922F47F6323F00F038B427FF4BEAEFA
:10271000C2F30B02002A00F03981012A7FF4B6AE21
:10272000B64807F027F8044604230021686806AA83
:10273000069411F0BFFC82E7069806F0E5FC002045
:10274000A6E6069AAC4922F47F6323F00F038B427E
:102750007FF49CAEC2F30B02002A00F06481012AD0
:102760007FF494AEA5483BE7DDE9060106F0C6FE1E
:1027700004461CE7DDE9060106F070FE044616E794
:10278000069A9D4922F47F6323F00F038B427FF466
:102790007DAEC2F30B02002A00F04B81012A7FF4C8
:1027A00075AE964EDDF81C80954F1E2214214046D2
:1027B000C7F800801AF0EEFA00283FF467AE4146F1
:1027C0001422381D11F0B8FB3969002940F042810C
:1027D00044F666439C4200F0ED801E22397DF86885
:1027E0001AF0D8FA00283FF451AE86496AE7029AF7
:1027F000814922F47F6323F00F038B427FF446AEBE
:10280000C2F30B02002A00F01281012A7FF43EAECF
:102810007A4E1E22102103981AF0BCFA00283FF4C9
:1028200035AE1022039906A811F086FB06A802F027
:10283000FBFD00287FF42AAE06A9AAE5039EBEB1DF
:102840001E22102130461AF0A5FA00283FF41EAED1
:102850001022314606A811F06FFB9DF818305A1E61
:10286000012A40F2BB80042B08BF06AE7FF40EAEF7
:10287000624C2768002F40F0E080DDF808801E22BF
:10288000082140461AF086FA00283FF4FFAD414681
:102890000822204611F050FB1E225C2120681AF00D
:1028A00079FA00283FF4F2ADA04658F8081B5C22E4
:1028B000404611F041FB1E2201216068C4F80080EF
:1028C0001AF068FA00283FF4E1AD04F1640801222F
:1028D0004046616811F030FB4B4BC4F804805F60E8
:1028E0004A4B019380E5029A434922F47F6323F027
:1028F0000F038B427FF4CAADC2F30B02002A00F033
:102900009480012A7FF4C2AD3C4F3D4E039A30467D
:10291000234640F8042B06A9FFF770FC00287FF43B
:10292000B7AD311DD6E5069A334922F47F6323F013
:102930000F038B427FF4AAADC2F30B02002A7AD0B8
:10294000012A7FF4A3AD2D4C1E220C211AF022FA8D
:1029500000283FF49BADDDE9070223E61E2210218B
:1029600020461AF017FA00283FF490AD06AE102268
:102970002146304611F0E0FA9DF818305A1E012A1F
:102980004AD9042B7FF482AD3446C8E42048C8E617
:1029900000209DF80820184B1B491343019341F870
:1029A0002200C7E406F0D4FC0446FDE406F0B4FBC4
:1029B0000446F9E41722397DF8681AF0EBF900288B
:1029C0003FF464AD0F49304606F0FCFD0446EEE5E9
:1029D000002B0190BFF6AEAC2060ABE401230D4AA2
:1029E00006AE07928DF8183042E709481CE6084FFA
:1029F0002DE5074F9BE500BF0060CDAB50420020A6
:102A0000B8420020BC420020E04200200160CDAB73
:102A100058E40100A92101000123164A3446079217
:102A20008DF818307BE41448DAE5134F6DE7124E49
:102A3000EFE6114EB6E6104C86E76FF08C0027E506
:102A4000C2F30B02012A7FF4FAAD00230B4A1846A9
:102A500013601DE51E2278681AF09CF900283FF4E7
:102A600015AD17223969B8681AF094F900287FF477
:102A7000AFAE0BE5A921010058E40100504200204F
:102A800006F006BB30B4134CA04220D0124CA0423A
:102A90001BD10124114D124850F82400A8B1114C4B
:102AA0008161616980F82030012BC1610CBF9168A0
:102AB000D16845610B78A26A082B137008BF8B6838
:102AC00030BC08BF936002F085BD30BC7047002465
:102AD000054DE0E760E40100E84200200180CDAB55
:102AE00040430020144300200080CDAB43F28832E5
:102AF0002DE9F0410368044693428CB02DD06FDC81
:102B000041F28812934200F00A8142F288229342F5
:102B10003DD18368002B35DA0369082B32D10021BF
:102B200008AA406811F0BAFA089C924924F47F621E
:102B300022F00F028A4225D1C4F30B04002C40F08E
:102B4000BA811722242109981AF024F9D0B18A4BAE
:102B5000099A002043F8242016E00369042B11D1C0
:102B60000021406808AA11F099FAA368002B80F2AE
:102B7000A681089A7F4922F47F6323F00F038B42DA
:102B800000F081816FF080000CB0BDE8F081882BEF
:102B9000F8D1002103690291082BF3D1026A042ABB
:102BA000F0D1406804AA11F079FAA368002BC0F2B2
:102BB0009781DDE904563146284607F0B3F8A3684B
:102BC000002800F0E581002B00DD029060680423FE
:102BD000002102AA11F06EFA00200CB0BDE8F081CD
:102BE00045F28852934200F0CF8046F288629342C9
