:02000004000AF0
:20E000000040022075E40A0093E40A00B3E20A0091E40A0091E40A0091E40A00000000009E
:20E0200000000000000000000000000091E40A0091E40A000000000091E40A0091E40A00E4
:20E0400091E40A0091E40A0091E40A0091E40A0091E40A0091E40A0091E40A0091E40A00C8
:20E0600091E40A0091E40A0091E40A0091E40A0091E40A0091E40A0091E40A0091E40A00A8
:20E0800091E40A0091E40A0091E40A0091E40A0091E40A0091E40A0091E40A0091E40A0088
:20E0A00091E40A0091E40A0091E40A0091E40A0091E40A0091E40A0091E40A0091E40A0068
:18E0C00091E40A0091E40A0091E40A0091E40A0091E40A0091E40A004E
:20E0D80070B52548066800F087F924480025244C0560206C806C80472248006838B12248EE
:20E0F8000068B6F1FF3018BF304600F051F81F4840F2391205601E48016862F31B4101601A
:20E118001C48016801F44051B1F5805F06D10168194A114001F5003202600160174D0126A5
:20E13800EE612068016A142088471548016841F4E021016013482E60006800F44000B0F5FB
:20E15800000F03D1206C416C0F4888470F4801680029FCD170BD00BF1C130050840460421A
:20E17800B001001080012843800520438C2108404820034028000940EFFFFCFC0000244394
:20E1980000200940B44F0050BD3786000C006842F8B504462148224E4168890705D4016830
:20E1B800F02242EA114186F84D101E494FF001221E4F0A601C4909883968096885682846D9
:20E1D8008847A80105D4E80103D5307840F002003070386829464268204690471448154AEA
:20E1F8000068C0F305311170C1054FF0130158BF232140237354382101EA901000F560500E
:20E21800A2F85C003868816828468847022000F08BF8094801210160F8BD00BFAC4F005002
:20E238000962084004A40C4000A00C40F00100100C1400500EB00C409404604270B5A4B005
:20E258006E460D46002108230446324600F09EF8304600F0D1F8F0B16A46204600212C23B5
:20E2780000F094F89DF81200A84214D1059800F0D3F880B19DF80C0003280CD19DF80D00C0
:20E29800012808D1069800EB4430B0F5302F02D8079800F0E8F824B070BDFEE710B50D4C16
:20E2B8002068416904208847042000F01BF80128FAD12068C1694FF4A060884706480121D2
:20E2D8000160064801688907FCD5054801210160416010BDB8010010282008602820084066
:20E2F800181A44420F49C3070A68496D01D1012106E001F0040102F00103C91818BF012164
:20E31800830744BF02F0020301EA5301400744BF02F0040001EA90010220002918BF012023
:20E33800704700BF40210840B0B50A490A4A0B4B0C684D68AC42FCD1844208BFB0BD155CF5
:20E35800145DAC424FF0FF3538BF01252C441C5D0C60EDE700600C409CE40A00A0E40A00C9
:20E37800084880F308880848016841F47001016000BF00BF00F07CF8002000F01BF801204C
:20E3980000F078F80040022088ED00E070B51C46154601EB403600F048F8210405D016F8D2
:20E3B800011B013C05F8011BF7E708B900F04AF8002070BD00200721FFF740FF0124E0B281
:20E3D800572804D80021FFF739FF0134F7E7FFF765FF00F03DF8FCE70448054900680840BC
:20E3F8000449884208BF7047FEE700BF1813005000F0FF0F0070B70BB0B5064907231A46E3
:20E41800002B04D48C5C855C531EA542F7D0D00FB0BD00BF94E40A00002118B1421E0131F0
:20E438001040FAE701208843704780B500F004F8002818BF012080BD0020EFF3108072B6B8
:20E45800704770470020EFF3108062B670477047014801210170704706200240FFF730FEFF
:1CE47800FFF77EBFFEE7016881F30888406800470120704700BFFEE7FEE7FEE7CE
:10E494004343323678325231010200030200010351
:20FFA80000008001100080FFFDFF5800FFFFBBF3FFFFFFFFFFFFFFFFFFFFFFFFFFFFFFFF39
:20FFC800FFFFFFFFFFFFFFFFFFFFFFFFFFFFFFFFFFFFFF00FFFFFFFF00FFFFFF00C5C5FFAA
:18FFE800000000FF00E00A00FFFFFFFFFFFFFFFFFFFFFFFFFFFFFFFF28
:00000001FF
