:02000004000AF0
:20E000000040022013E80A0033E80A002FE80A0031E80A0031E80A0031E80A0000000000EA
:20E0200000000000000000000000000031E80A0031E80A000000000031E80A0031E80A0054
:20E0400031E80A0031E80A0031E80A0031E80A0031E80A0031E80A0031E80A0031E80A00A8
:20E0600031E80A0031E80A0031E80A0031E80A0031E80A0031E80A0031E80A0031E80A0088
:20E0800031E80A0031E80A0031E80A0031E80A0031E80A0031E80A0031E80A0031E80A0068
:20E0A00031E80A0031E80A0031E80A0031E80A0031E80A0031E80A0031E80A0031E80A0048
:18E0C00031E80A0031E80A0031E80A0031E80A0031E80A0031E80A0076
:20E0D8002DE9F04F8BB08046581C022803D200200BB0BDE8F08F14981E460C46B3F5801FB7
:20E0F80001D90028F3D1B6F5302F01D90028EED0069238B14A4A404600214FF4807300F096
:20E11800E9FA06E0464808FB04F14FF4807200F033FB701E0123424F4FF0FF39B0FBF4F1FB
:20E1380001FB1400013082B2C5B2100A002D18BF03EB12200190424608BF4FF480750595EB
:20E15800029401EB0800C0B208900898D3B2834263D801984FF0FF3118BF200A51FA80F129
:20E178000792C0B20A91099003FB04F0002400F580700490501C039009985FFA84FB5845A4
:20E1980048D90A984FF480769A4645465845059808BF0646089883424FF4807018BF0646F8
:20E1B800079880EA08004FF0000820430006069808BF00F10C081FFA88F086420AD9385C4C
:20E1D8005FFA89F1484000F099FA80EA192908F10108F0E7149830B10A9858450CD1039880
:20E1F8000021C0B20DE004984FF4807200EB0B21384600F0C1FA09E04FF4807000EB0B2143
:20E2180050463A464FF4807300F064FAA84653460134B1E7DDE9024297E76FEA090057E7D0
:20E23800000300202DE9F0470C4631498046344F154608688946800744BF2E48C8602E4809
:20E25800002101602D488246006838688169272088472C4E2C49306B08403063B06F20F447
:20E278008070B0673868016B4FF4806088473868016B4FF4816088473868016B4FF4C06013
:20E298008847224801210160C6F880413160D9F80000800705D4681C08BF4FF04045C9F899
:20E2B8000C50DAF80000F0698007FCD5072000F047F90228FAD1B8F1000F13D1144C386A7D
:20E2D8008168204688470428F9D0012804D1386A0321426820469047D6F8180220F003006D
:20E2F800C6F818023868806BBDE8F047004700BF10000940FD0000400C4009402C20094001
:20E31800B80100100C200840FFFFFEFE282008600040034070B52548066800F0FFF9244827
:20E338000025244C0560206C806C80472248006838B122480068B6F1FF3018BF304600F0EC
:20E35800A9F81F4840F2391205601E48016862F31B4101601C48016801F44051B1F5805F02
:20E3780006D10168194A114001F5003202600160174D0126EE612068016A14208847154879
:20E39800016841F4E021016013482E60006800F44000B0F5000F03D1206C416C0F488847F9
:20E3B8000F4801680029FCD170BD00BF1C13005084046042B0010010800128438005204365
:20E3D8008C2108404820034028000940EFFFFCFC0000244300200940B44F0050BD37860091
:20E3F8000C00684270B590B002AE0D46002108230446324600F06EF9304600F09FF900285C
:20E4180043D002AA204600212C2300F063F99DF81A00A84239D1079800F0C4F9A8B39DF824
:20E438001400032831D19DF8150001282DD19DF81900FC2829D0FF2819D19DF81A000728F8
:20E4580015D1FE20089B00228DF8070010480168002000902046FFF733FE049988420AD10F
:20E478000DF1070220461121012300F0FFF8099800F0C8F909E0FC200DF107021121012326
:20E498008DF80700204600F0F1F810B070BD00BF00040020F8B504462148224E41688907C0
:20E4B80005D40168F02242EA114186F84D101E494FF001221E4F0A601C49098839680968EF
:20E4D800856828468847A80105D4E80103D5307840F0020030703868294642682046904747
:20E4F8001448154A0068C0F305311170C1054FF0130158BF232140237354382101EA9010F5
:20E5180000F56050A2F85C003868816828468847022000F073F8094801210160F8BD00BFBD
:20E53800AC4F00500962084004A40C4000A00C40F00100100C1400500EB00C409404604230
:20E558000F49C3070A68496D01D1002106E001F0040102F00103C91818BF0121830744BF2D
:20E5780002F0020341EA5301400744BF02F0040041EA90010220002918BF0120704700BF58
:20E598004021084010B50C484FF47051006801EA80200A49086000200721FFF723FF01246A
:20E5B800E0B2572804D80021FFF71CFF0134F7E700F0EDF8002010BD302403400004002094
:20E5D80070B50A480A4C84420DD00A4D0A48461B4EB1D5E9000110F8012B54F82220904752
:20E5F800083E0835F4E700BF00BF70BD54E80A0050E80A0054E80A005CE80A00B0B50A4926
:20E618000A4A0B4B0C684D68AC42FCD1844208BFB0BD155C145DAC424FF0FF3538BF0125FA
:20E638002C441C5D0C60EDE700600C403CE80A0040E80A0070B50B4E0B4C306881682046D1
:20E658008847054600060AD03068002142682046904730688168204688470028F9D1E8B2C6
:20E6780070BD00BFD801001000400340F8B51C46154601EB4036FFF7DDFF00F0B8F80446A2
:20E698002FB1054801210068426804489047002C18BFFF242046F8BDD80100100040034031
:20E6B8000A4880F308880A48016841F47001016000BF00BF00F0ABF808B1FFF781FF0020CB
:20E6D800FFF760FF012000F0A4F800BF0040022088ED00E070B51C46154601EB403600F076
:20E6F80073F8210405D016F8011B013C05F8011BF7E708B900F075F8002070BD10B5064ABF
:20E7180008210B0608BF10BD82EA5003C40708BF430801391846F4E72083B8ED0448054922
:20E73800006808400449884208BF7047FEE700BF1813005000F0FF0F0070B70BB0B5064979
:20E7580007231A46002B04D48C5C855C531EA542F7D0D00FB0BD00BF34E80A0080B5044B77
:20E778001B689B699847034900220A6080BD00BFA801001084046042B0B538B1431E01397B
:20E7980022B18D5C541E9D542246F9E7B0BD80B500F021F8002000214FF0FF32BDE8804039
:20E7B800FFF740BD002118B1421E01311040FAE7012088437047D0F80300002218B101F84F
:20E7D800012B0138FAE7704780B500F004F8002818BF012080BD0020EFF3108072B6704735
:20E7F80070470020EFF3108062B6704770470746284631462246FFF7B1BFFFF78BFDFFF7BE
:1CE818004FBFFEE7016881F30888406800470120704700BFFEE7FEE7FEE7FEE76A
:10E8340043433133783252310102000302000103B1
:14E848000000000004010000CFE70A0048E80A00000300209A
:20FFA80000008001100080FFFDFF5800FFC1B9F3FFFFFFFFFFFFFFFFFFFFFFFFFFFFFFFF79
:20FFC800FFFFFFFFFFFFFFFFFFFFFFFFFFFFFFFFFFFFFF00FFFFFFFF00FFFFFF00C5C5FFAA
:18FFE800000000FF00E00A00FFFFFFFFFFFFFFFFFFFFFFFFFFFFFFFF28
:00000001FF
