:02000004000AF0
:20E000000040022079E50A0091E50A00DFE40A008BE50A008BE50A008BE50A00000000007B
:20E020000000000000000000000000008BE50A008BE50A00000000008BE50A008BE50A00F8
:20E040008BE50A008BE50A008BE50A008BE50A008BE50A008BE50A008BE50A008BE50A00F0
:20E060008BE50A008BE50A008BE50A008BE50A008BE50A008BE50A008BE50A008BE50A00D0
:20E080008BE50A008BE50A008BE50A008BE50A008BE50A008BE50A008BE50A008BE50A00B0
:20E0A0008BE50A008BE50A008BE50A008BE50A008BE50A008BE50A008BE50A008BE50A0090
:18E0C0008BE50A008BE50A008BE50A008BE50A008BE50A008BE50A006C
:20E0D80070B541F21C30C5F20000066840F2B014C1F2000400F0D2F940F28440C4F26020CB
:20E0F80000250560206C806C804740F28010C4F22830006850B140F28051C4F22031B6F155
:20E11800FF30096818BF304600F03CF842F28C11C4F208010D6042F24801C4F203010A6830
:20E1380040F23913282063F31B42C4F209000A60016801F44051B1F5805F09D101684FF629
:20E15800EF72CFF6FC42114001F50032026001600025C4F224350126EE612068016A142036
:20E17800884742F20000C4F20900016841F4E02101600C20C4F268202E6000BF016800297C
:20E19800FCD170BDF0B581B044F6AC71C5F200014A6846F2092605469007C4F2080605D4F0
:20E1B8000868F02242EA104086F84D004AF20440C4F20C004FF0012202604AF2000040F20A
:20E1D800F017C4F20C00C1F2000700888C68386801682046884704F04070B0F1807F03D1D2
:20E1F800307840F0020030703868214642682846904741F20C40C5F2000000684BF20E02AC
:20E21800C0F30531C4F20C021170C1054FF0130158BF232140237354382101EA901000F541
:20E238006050A2F85C003868816820468847022000F092F840F29440C4F260200121016007
:20E2580001B0F0BDF0B540F6FF7C10F8013B0024082CFAD00646DF0716F8015B0AD1467857
:20E2780006F00F070337122F0AD187783A0609D403300DE001F8015B304601345B08E7E7B7
:20E29800023006E0C27807F07F07043047EAC2171237320942EA0515654508BFF0BDED4341
:20E2B800002FEAD04A5D013F0A700131F8E770B5A4B06E460D46002108230446324600F06D
:20E2D800C9F8304600F000F9F0B16A46204600212C2300F0BFF89DF81200A84214D1059825
:20E2F80000F00CF980B19DF80C0003280CD19DF80D00012808D1069800EB4430B0F5302F92
:20E3180002D8079800F0F0F824B070BD10B50E4C2068416904208847042000F041F80128D9
:20E33800FAD12068C1694FF4A0608847074801210160074801688907FCD50648012101607A
:20E358004160816010BD00BFB80100102820086028200840141A444280B546F200014EF22C
:20E378009A5E4EF29E5CC4F20C01C0F20A0EC0F20A0C00BF0B6800BF4A689342FCD18342F4
:20E3980008BF80BD1EF803201EF800309A424FF0FF3338BF01231A441CF802200A60E9E7AC
:20E3B80042F24011C4F208010A68496DC30701D1012106E002F0010301F00401C91818BF91
:20E3D8000121830744BF02F0020301EA5301400744BF02F0040001EA90010220002918BF62
:20E3F8000120704770B50A480A4C84420DD00A4D0A48461B4EB1D5E9000110F8012B54F875
:20E4180022209047083E0835F4E700BF00BF70BDB0E50A00A8E50A00B8E50A00C0E50A0036
:20E438000A4880F308880A48016841F47001016000BF00BF00F099F808B1FFF7D3FF00200D
:20E4580000F02FF8012000F092F800BF0040022088ED00E070B51C46154601EB403600F048
:20E478005FF8210405D016F8011B013C05F8011BF7E708B900F068F8002070BD41F21830FC
:20E49800C5F2000000684FF20001C0F6FF71084047F20001C0F6B731884208BF704700BFB6
:20E4B800FEE700200721FFF702FF0124E0B2572804D80021FFF7FBFE0134F7E7FFF726FFD0
:20E4D80000F048F8FCE7FEE7B0B5064907231A46002B04D48C5C855C531EA542F7D0D00F24
:20E4F800B0BD00BF92E50A00034904300860D0F800D008680068004700030020002118B1AB
:20E51800421E01311040FAE701208843704710B500239A4208BF10BDCC5CC4540133F8E7D2
:20E5380080B500F00BF8002818BF012080BD0B46D0F80320C11D184600F01CB80020EFF300
:20E55800108072B6704770470020EFF3108062B6704770470148012101707047062002406A
:1AE57800FFF7AEFDFFF75CBFFEE70120704700BFFEE7FEE7FFF7CBBFFEE72C
:10E592004343323678325231010200030200010352
:18E5A8005DE20A0047E50A000001000000FFF000B0E50A00000300202A
:20FFA80000008001100080FFFDFF5800FFFFBBF3FFFFFFFFFFFFFFFFFFFFFFFFFFFFFFFF39
:20FFC800FFFFFFFFFFFFFFFFFFFFFFFFFFFFFFFFFFFFFF00FFFFFFFF00FFFFFF00C5C5FFAA
:18FFE800000000FF00E00A00FFFFFFFFFFFFFFFFFFFFFFFFFFFFFFFF28
:00000001FF
