:02000004000AF0
:20E0000000400220EBE80A005FE80A00DFE50A00D3E70A00D3E70A00D3E70A000000000056
:20E02000000000000000000000000000D3E70A00D3E70A0000000000D3E70A00D3E70A00D0
:20E04000D3E70A00D3E70A00D3E70A00D3E70A00D3E70A00D3E70A00D3E70A00D3E70A00A0
:20E06000D3E70A00D3E70A00D3E70A00D3E70A00D3E70A00D3E70A00D3E70A00D3E70A0080
:20E08000D3E70A00D3E70A00D3E70A00D3E70A00D3E70A00D3E70A00D3E70A00D3E70A0060
:20E0A000D3E70A00D3E70A00D3E70A00D3E70A00D3E70A00D3E70A00D3E70A00D3E70A0040
:18E0C000D3E70A00D3E70A00D3E70A00D3E70A00D3E70A00D3E70A00B0
:20E0D8002DE9F04F8BB08046581C022803D200200BB0BDE8F08F14981E460C46B3F5801FB7
:20E0F80001D90028F3D1B6F5302F01D90028EED0069238B14A4A404600214FF4807300F096
:20E1180035FB06E0464808FB04F14FF4807200F084FB701E0123424F4FF0FF39B0FBF4F15D
:20E1380001FB1400013082B2C5B2100A002D18BF03EB12200190424608BF4FF480750595EB
:20E15800029401EB0800C0B208900898D3B2834263D801984FF0FF3118BF200A51FA80F129
:20E178000792C0B20A91099003FB04F0002400F580700490501C039009985FFA84FB5845A4
:20E1980048D90A984FF480769A4645465845059808BF0646089883424FF4807018BF0646F8
:20E1B800079880EA08004FF0000820430006069808BF00F10C081FFA88F086420AD9385C4C
:20E1D8005FFA89F1484000F0F9FA80EA192908F10108F0E7149830B10A9858450CD1039820
:20E1F8000021C0B20DE004984FF4807200EB0B21384600F012FB09E04FF4807000EB0B21F1
:20E2180050463A464FF4807300F0B0FAA84653460134B1E7DDE9024297E76FEA090057E784
:20E23800000300202DE9F04740F21009C4F209091546D9F800200C469107804642BFFD2029
:20E25800C4F20000C9F80C0044F20C0042F22C0AC4F209000021C4F2090A40F2B81701606C
:20E27800C1F20007DAF80000386842F20C0681692720C4F208068847306B4FF6FF71CFF63B
:20E29800FE6108403063B06F20F48070B0673868016B4FF4806088473868016B4FF48160C4
:20E2B80088473868016B4FF4C060884742F22800C6F2080001210160C6F880413160D9F8B9
:20E2D8000000800705D4681C08BF4FF04045C9F80C50DAF8000000BFF0698007FCD500BF99
:20E2F800072000F095F90228FAD1B8F1000F16D144F20004C4F20304386A81682046884716
:20E318000428F9D0012804D1386A0321426820469047D6F8180220F00300C6F818023868D2
:20E33800806BBDE8F047004770B541F21C30C5F20000066840F2B014C1F2000400F02AFA2D
:20E3580040F28440C4F2602000250560206C806C804740F28010C4F22830006850B140F245
:20E378008051C4F22031B6F1FF30096818BF304600F03CF842F28C11C4F208010D6042F2C4
:20E398004801C4F203010A6840F23913282063F31B42C4F209000A60016801F44051B1F5B9
:20E3B800805F09D101684FF6EF72CFF6FC42114001F50032026001600025C4F224350126E3
:20E3D800EE612068016A1420884742F20000C4F20900016841F4E02101600C20C4F2682083
:20E3F8002E6000BF01680029FCD170BDF0B581B044F6AC71C5F200014A6846F209260546E3
:20E418009007C4F2080605D40868F02242EA104086F84D004AF20440C4F20C004FF0012243
:20E4380002604AF2000040F2F017C4F20C00C1F2000700888C68386801682046884704F0C3
:20E458004070B0F1807F03D1307840F0020030703868214642682846904741F20C40C5F2DA
:20E47800000000684BF20E02C0F30531C4F20C021170C1054FF0130158BF23214023735403
:20E49800382101EA901000F56050A2F85C003868816820468847022000F096F840F2944081
:20E4B800C4F260200121016001B0F0BD70B590B002AE0D46002108230446324600F056F978
:20E4D800304600F08BF9002843D002AA204600212C2300F04BF99DF81A00A84239D1079807
:20E4F80000F0BCF9A8B39DF81400032831D19DF8150001282DD19DF81900FC2829D0FF286B
:20E5180019D19DF81A00072815D1FE20089B00228DF8070010480168002000902046FFF7F9
:20E53800CFFD049988420AD10DF1070220461121012300F0E7F8099800F086F909E0FC200E
:20E558000DF10702112101238DF80700204600F0D9F810B070BD00BF00040020F0B540F6E8
:20E57800FF7C10F8013B0024082CFAD00646DF0716F8015B0AD1467806F00F070337122FE6
:20E598000AD187783A0609D403300DE001F8015B304601345B08E7E7023006E0C27807F0D2
:20E5B8007F07043047EAC2171237320942EA0515654508BFF0BDED43002FEAD04A5D013F97
:20E5D8000A700131F8E7FEE780B546F200014EF6081E4EF60C1CC4F20C01C0F20A0EC0F230
:20E5F8000A0C00BF0B6800BF4A689342FCD1834208BF80BD1EF803201EF800309A424FF045
:20E61800FF3338BF01231A441CF802200A60E9E742F24011C4F208010A68496DC30701D1BF
:20E63800002106E002F0010301F00401C91818BF0121830744BF02F0020341EA53014007AB
:20E6580044BF02F0040041EA90010220002918BF0120704710B50C484FF47051006801EA83
:20E6780080200A49086000200721FFF71FFF0124E0B2572804D80021FFF718FF0134F7E778
:20E6980000F0D6F8002010BD302403400004002070B50A480A4C84420DD00A4D0A48461B82
:20E6B8004EB1D5E9000110F8012B54F822209047083E0835F4E700BF00BF70BD1CE90A00D3
:20E6D80010E90A0030E90A0040E90A0070B50B4E0B4C3068816820468847054600060AD013
:20E6F8003068002142682046904730688168204688470028F9D1E8B270BD00BFD80100104B
:20E7180000400340F8B51C46154601EB4036FFF7DDFF00F0D8F804462FB1054801210068FF
:20E73800426804489047002C18BFFF242046F8BDD8010010004003400A4880F308880A48A0
:20E75800016841F47001016000BF00BF00F0C6F808B1FFF79DFF0020FFF77CFF012000F018
:20E77800BFF800BF0040022088ED00E070B51C46154601EB403600F08CF8210405D016F894
:20E79800011B013C05F8011BF7E708B900F095F8002070BD41F21830C5F2000000684FF2AB
:20E7B8000001C0F6FF71084047F20001C0F6B731884208BF704700BFFEE7FEE710B5064A14
:20E7D80008210B0608BF10BD82EA5003C40708BF430801391846F4E72083B8EDB0B5064948
:20E7F80007231A46002B04D48C5C855C531EA542F7D0D00FB0BD00BF00E90A0080B540F227
:20E81800A813C1F200031B689B69984740F28441C4F2602100220A6080BDB0B538B1431E63
:20E83800013922B18D5C541E9D542246F9E7B0BD80B500F03CF8002000214FF0FF32BDE803
:20E858008040FFF7EFBCFEE7034904300860D0F800D008680068004704040020002118B1A9
:20E87800421E01311040FAE701208843704710B500239A4208BF10BDCC5CC4540133F8E76F
:20E89800D0F80300002218B101F8012B0138FAE7704780B500F00BF8002818BF012080BD2F
:20E8B8000B46D0F80320C11D184600F01BB80020EFF3108072B6704770470020EFF310804B
:20E8D80062B6704770470746284631462246FFF795BFFFF729FDFFF72FBFFEE701207047F9
:08E8F80000BFFEE7FFF7C3BFFC
:10E9000043433236783252310102000302000103E0
:20E9100075E50A00B9E80A0099E80A000000000002000000040100000001000000FFF00056
:10E9300020E90A000003002028E90A00040400205E
:20FFA80000008001100080FFFDFF5800FFFFBBF3FFFFFFFFFFFFFFFFFFFFFFFFFFFFFFFF39
:20FFC800FFFFFFFFFFFFFFFFFFFFFFFFFFFFFFFFFFFFFF00FFFFFFFF00FFFFFF00C5C5FFAA
:18FFE800000000FF00E00A00FFFFFFFFFFFFFFFFFFFFFFFFFFFFFFFF28
:00000001FF
