:020000040005F5
:2060000000800020D964050053640500C76105000B6305000B6305000B630500000000005C
:206020000000000000000000000000000B6305000B630500000000000B6305000B63050094
:206040000B6305000B6305000B630500000000000B6305000B6305000B6305000B6305001B
:20606000000000000B6305000B6305000B6305000B6305000B6305000B6305000B630500FB
:206080000B6305000B6305000B6305000B6305000B6305000B6305000B6305000B63050068
:2060A0000B6305000B6305000B6305000B6305000B6305000B6305000B6305000B63050048
:1860C0000B6305000B6305000B63050000000000000000000B630500FC
:2060D8002DE9F04144F6AC71C5F200014A6846F2092804469007C4F2080805D40868F02235
:2060F80042EA104088F84D0041F20C37C5F200073B684AF242204AF20002C4F20C00002B9F
:20611800C4F20C020ED4D7F8EC6086F0C00682F831600C2606EAD363C03303704FF400332B
:20613800C2F884304FF0012340F2F016C0F8C231C1F2000610888D6830680168284688470F
:2061580005F04070B0F1807F05D198F8000040F0020088F8000030682946426820469047DC
:20617800D7F800014BF20E02C0F30531C4F20C021170C1054FF0130158BF2321402308F8E5
:206198000130382101EA901000F56050A2F85C003068816828468847022000F0ABF840F292
:2061B8009440C4F2602001210160BDE8F081FEE770B541F21C30C5F20000066840F2B01480
:2061D800C1F2000400F014F940F28440C4F2602000250560206C806C804740F28010C4F286
:2061F8002830006850B140F28051C4F22031B6F1FF30096818BF3046FFF762FF42F28C1100
:20621800C4F208010D6042F24801C4F203010A6840F23913282063F31B42C4F209000A60EF
:20623800016801F44051B1F5805F09D101684FF6EF72CFF6FC42114001F5003202600160AA
:206258000025C4F224350126EE612068016A1420884742F20000C4F20900016841F4E021F4
:20627800016044F6B4702E60C5F20000006800F44000B0F5000F06D1206C416C43F2BD7040
:20629800C0F2860088470C20C4F2682001680029FCD170BD70B5A4B06E460D46002108231D
:2062B8000446324600F090F8304600F0C7F8F0B16A46204600212C2300F086F89DF812002B
:2062D800A84214D1059800F0D9F880B19DF80C0003280CD19DF80D00012808D1069800EB72
:2062F8004430B0F5B02F02D8079800F0EEF824B070BDFEE780B546F2000146F2FA4E46F233
:20631800FE4CC4F20C01C0F2050EC0F2050C00BF0B6800BF4A689342FCD1834208BF80BDC2
:206338001EF803201EF800309A424FF0FF3338BF01231A441CF802200A60E9E710B50D4C72
:206358002068416904208847042000F01BF80128FAD12068C1694FF4A060884706480121B1
:206378000160064801688907FCD5054801210160416010BDB8010010282008602820084045
:20639800181A444242F24011C4F208010A68496DC30701D1012106E002F0010301F0040131
:2063B800C91818BF0121830744BF02F0020301EA5301400744BF02F0040001EA900102204A
:2063D800002918BF0120704770B51C46154601EB403600F05CF8210405D016F8011B013CE4
:2063F80005F8011BF7E708B900F05EF8002070BD41F21830C5F2000000684FF20001C0F6A8
:20641800FF7108404AF20001C0F6B731884208BF704700BFFEE700200721FFF73BFF012448
:20643800E0B22B2804D80021FFF734FF0134F7E7FFF784FF00F03EF8FCE7FEE7B0B506490B
:2064580007231A46002B04D48C5C855C531EA542F7D0D00FB0BD00BFF2640500064880F388
:20647800088800BF00BF00F034F80020FFF7D3FF012000F030F800BF00800020002118B170
:20649800421E01311040FAE701208843704780B500F004F8002818BF012080BD0020EFF3FE
:2064B800108072B6704770470020EFF3108062B6704770470148012101707047062002408B
:1A64D800FFF776FEFFF7CABFFEE7D0F800D0406800470120704700BFFEE7D9
:1064F2004343323678325231010200030200010373
:00000001FF
