:02000004000AF0
:20E0000000400220EDF00A0013F00A00B7ED0A00A7EF0A00A7EF0A00A7EF0A00000000001C
:20E02000000000000000000000000000A7EF0A00A7EF0A0000000000A7EF0A00A7EF0A0060
:20E04000A7EF0A00A7EF0A00A7EF0A00A7EF0A00A7EF0A00A7EF0A00A7EF0A00A7EF0A00C0
:20E06000A7EF0A00A7EF0A00A7EF0A00A7EF0A00A7EF0A00A7EF0A00A7EF0A00A7EF0A00A0
:20E08000A7EF0A00A7EF0A00A7EF0A00A7EF0A00A7EF0A00A7EF0A00A7EF0A00A7EF0A0080
:20E0A000A7EF0A00A7EF0A00A7EF0A00A7EF0A00A7EF0A00A7EF0A00A7EF0A00A7EF0A0060
:18E0C000A7EF0A00A7EF0A00A7EF0A00A7EF0A00A7EF0A00A7EF0A0088
:20E0D8002DE9F04F0C460823ADF1D40D002102AA339000F00FFF02A800F05AFF012840F0FD
:20E0F80031813398002102AA2C2300F003FF9DF81A00A04240F02681079800F0B7FF0028A8
:20E1180000F020819DF81400032840F01B819DF81500012840F016819DF81900FC2800F05A
:20E1380011819DF81A00072818BF002840F093809DF81900FF2840F08E80864EFE20089F69
:20E1580031688DF8C500002F8A467AD0B7F5302F77D8DFF8F881339C4FF4807240466143A3
:20E1780000F091FF7F1EB7FBFAF64FF0FF35B7FBFAF00119C9B200193491C0B206FB0AF1D8
:20E19800A042A7EB010707F101071FFA87F955DB001B00F1010B3498A04207D15FFA99F69C
:20E1B80019F0FF0F1CBF761CF6B201E05FFA9AF6002E3ED00AFB04F0B04600273290B81B6A
:20E1D800B0F1FF3F05D13498A04202D119F0FF0001D14FF480703399A1420ABF002F00221B
:20E1F8000C22904217DD5949801A8918491E11F8012F4FEA152C554005F0FF0508226B08F1
:20E2180032BF6D08524B83EA5505521EF7D1401E85EA0C05EBD132994C484FF4807201EBCA
:20E23800072101F5807100F02EFF7F1CB8F10108C5D1641CBBF1010BE4B2ACD185F0FF35C3
:20E2580000E000250498A84273D1339811210DF1C50200F0C1FE3398089945034819B0F5AC
:20E27800302F6FD89DF81A004FF0FF38072818BF002851D1FF200027894605F12C048DF8AB
:20E29800C600BA460097D34601E00127BA462FBB20460DF1C601012200F062FE9DF8C60004
:20E2B800032810D0241D05EB0906201D864215D320466946042200F053FE00982418241F7B
:20E2D800A642E4D20AE01534CDF804B001A90422204600F045FE01980028D6D1BAF1000F51
:20E2F8001AD0339859460DF19502302300F002FE31AC2078FC280FD0284600F03BF94FFA87
:20E3180080F8B8F1000F0AD0FC208DF8C40033982F21224600F060FEB8F1000F12D1099869
:20E3380085420FD80899491981420BD300F0EDFE08E0FC208DF8C500339811210DF1C50288
:20E3580000F04AFE35B0BDE8F08FC046A82700202083B8ED000300202DE9F843089C0F46BA
:20E378001D461646214600F098FEDFF8008104F120014046083000F090FE404604F1400173
:20E39800283000F08AFE384604F1600100F085FE304604F1800100F080FE264805602649B2
:20E3B800006800F24C4900F2944700F5976600F2DC4500F58E68214808602248204908608D
:20E3D800224821490860234821490860234822490860244822490860234903200870082000
:20E3F800C9F80000C8F800003860306004F12001286009F1040000F064FE08F1040004F17C
:20E41800400100F05EFE381D214600F05AFE301D04F1600100F055FE281D04F1800100F0C2
:20E4380050FE0095484641463A46334600F020F8BDE8F8833401002038010020D4570210C0
:20E458003C010020F8570210400100201C58021044010020405802102C01002064580210D5
:20E4780030010020885802104801002058FF0A00DFF800F005C800102DE9F047344F81463C
:20E4980057F80C0C15468846800824BF31483860334E3149DFF8C4A0002034680860DAF82C
:20E4B8000000A169272088472F4C2E4804F13002116823460840106003F17800006820F48A
:20E4D8008070A0673068016B4FF4806088473068016B4FF4816088473068016B4FF4C060D9
:20E4F8008847224901200860C4F88081206057F80C0C800805D2B5F1FF3F08BF4FF04045CF
:20E518003D60DAF80000E0698008FCD3072000F047FC0228FAD1B9F1010F13D0306A144DED
:20E538008168284688470428F8D0012804D1306A4268032128469047D4F8180220F0030005
:20E55800C4F818023068806B8047BDE8F087C0461C000940FD0000400C4009402C20094095
:20E57800B8010010FFFFFEFE0C20084028200860004003402DE9F0433A4C074641F2880042
:20E5980000214FF4A052ADF1C40D2018804600F063FB251D81223846294600F0E1FC04F1BE
:20E5B8003D0000F007FD002858D104F1850039464FF4805200F067FDD4F89D0004F1850676
:20E5D800002837D000F0A6FA06F10C00042100F04DF806F112002F2100F048F806F1810006
:20E5F80040F67F7100F042F8B469B06907F58059A4F58054B0F5805F14D04FF4805749462A
:20E61800BAB2304600F03FFD394600F02FF8E41BB4F5805F94BF271C4FF4805709F5805930
:20E63800002CECD1104C204600F060F900F01AFA207808B9FF2012E001A80021C02200F0C4
:20E658000BFB01A9204605F161024346009105F14101FFF781FEA52808BF0020C0B231B065
:20E67800BDE8F08300030020882700202DE9F84F82463548A0F10809D9F800000E46416965
:20E69800272088472F4C00256561A574278B2570B8193F2839D957B9304600F03CFDD04677
:20E6B80004F110050746BB4607EB080012E004F11008C7F1400B07EB080051465A4610307D
:20E6D80000F078FA2583AAEB070045464027403004F120086060A6EB0B06A66000F009FD9F
:20E6F800E069002807BFD9F854008668D9F85400C66805F1500108223B464046B0470126CF
:20E71800E0696674C019E06116E0E01951463246203000F04FFA208B80192083A56000F041
:20E73800E8FC012209486274001F40F8042C016841F001010160826000F0E1FC00F034F943
:20E75800BDE8F88FA8280020B8010010884702402E4A2DE9F04180462F4C5068800806D293
:20E77800106804F14D01000C40F0F000087029484FF001214FF08057C0F8041407F5F87600
:20E798000088D7F8F0019568214F016828468847A80E05D2680E03D3207840F002002070D3
:20E7B800306842682946404690471F48F4300068C0F305313970410A39BF402184F823105B
:20E7D8004021E174800900F0380040F46050A7F85C0030688168284688471049104A0AE080
:20E7F800105C9478131D844299BF184410F8010C18444078086008684B689842FCD102285A
:20E81800EED1084901200860BDE8F081AC4F00500EB00C4000A00C400962084000600C4091
:20E838003CF10A0094046042181300502D4870B5001D0468B4F1FF3F08BF002400F0DEFB1A
:20E85800052838D128481C4E002510380560306C806C80471948006820B1194800682046A6
:20E87800FFF776FF174818490560184C0A686FF35B4244EA0200086015490868C0F30130D1
:20E89800012806D10A681348104040F400320A600860114D0124EC613068016A1420884735
:20E8B8000E49086840F4E02008600D492C6008680028FCD170BDFEE7B001001080012843D7
:20E8D800800520438C210840482003400000390128000940EFFFFCFC000024430020094037
:20E8F8000C00684218130050940460422DE9FF412B4E80463068416927208847294C00270C
:20E918006761A7740125257000F0F3FBE3696574002B35D0228B4ABBD800002102AA04F1C2
:20E93800100582E803003946402205F1100000F093F92034042780202946207002A8C279D7
:20E95800C37885F848207F1E85F84C30A0F1010005F10105F3D150314046202200F02AF93B
:20E97800706DC5680822402320460FE0706D9B18082704F16006056800923246019703E087
:20E99800706D228B4568082304F120004146A84700F0B5FB00F008F80090BDE8FF81C04627
:20E9B800B0010010A82800202DE9F84F2B48DFF8A8B02B4CDFF89C8000254FF0FF3A00F197
:20E9D8004C090BF1020BD9F80000416922488847D8F80860C8F800B000F08BFBA77C87BB8A
:20E9F800A768300826D23FB362683F2F04F110010AD801F1100061683A4600F0DBF8208BF5
:20EA1800A560C019208317E0384600F084FB0746D9F80000C66850313B4610460822B047B4
:20EA3800A0686668E369C01BA060F0196060D819E06106E0C4F814A02078657408B1E56100
:20EA5800258300F05CFB607C0028BCD16069BDE8F88FC0468847024001000080B8010010C8
:20EA7800A828002070B500F044FB244E264C707CA8B100F03EFB707C78B121480125A4F1AF
:20EA9800080305601868016A2720884700203083F061B5746FF00203736100F030FB00202D
:20EAB80018493074F068086000F029FB00F021FB70780125012808D02068816904208847E5
:20EAD800042000F097F90228FAD12068016A4FF4806088472068816A4FF4806088472068B3
:20EAF800016B4FF48060884708480949056008688008FCD300F003FB70BDC046A8280020C1
:20EB18004047024034EF00E0B80100102820086028200840F8B500F0ECFA214C04F1100013
:20EB38000078002839D10126267400256574A57400F0E5FA2583E56100F0DBFA04206670BF
:20EB580000F058F901280AD0164800684169657004208847042000F04DF90128FAD14FF094
:20EB78008057D7F8B801C1694FF480608847D7F8B801416A4FF480608847D7F8B801C16A2A
:20EB98004FF48060884708480849066008688008FCD307490868E0600D6000F0B0FAF8BDE1
:20EBB800A8280020B8010010282008602820084034EF00E0002A4AD05FEA000C8B071CD129
:20EBD800830722D1102A08D370B4103A78C978C0103AFBD270BC103238D0042A2CD3082AB8
:20EBF80005D30C2A24BF08C908C008C908C008C908C092072AD0920F22E00B780370491CB0
:20EC1800401C521E22D08B07F7D1C30714D18307D8D0121F12D308C903801B0C4380001D72
:20EC3800121FF8D20AE008C903701B0A43701B0A83701B0AC370001D121FF4D2121D05D033
:20EC58000B780370491C401C521EF9D160467047002213460A46194671B510F0030F0BD011
:20EC7800002A82BF00F8011BB2F1010210F0030FF6D1002A08BF71BD11F0FF0141EA012111
:20EC9800042A18D341EA0141082A0FD30E46102A08D30C460D46B2F10F0312F00F0272C0BA
:20ECB800103BFCD812F0080F18BF42C012F0040F18BF40F8041B12F0020F18BF20F8021BC9
:20ECD80012F0010F18BF017071BD2DE9FE4F0D9C80469B460C9DA06801920021042281468F
:20ECF800FFF7BAFF4FF0FF3605F1080A05F12807B8F1010F1CD1FFF70DFF01995846FFF7D6
:20ED1800B5FC4846FFF7F2FDFFF7ACFE284600F051F968B9A06820300090236851463A46C4
:20ED38004846FFF719FB40B210F15B0F08BF00263046BDE8FE8FF8B5844640F6FF741CF8FD
:20ED5800013B002210E0481B401E10F8015B7F1E01F8015BF9D103E01CF8010B01F8010B64
:20ED7800521C5B08082AEADA5808F5D21CF8010B1CF8015B05F00F07FF1CC5F30315122FC6
:20ED980045EA001508D11CF8016B300A24BF1CF8010B60F3DF16BF19AC42D4D1F8BDFEE734
:20EDB8000246134898B570300168476D01F00103002007F004071F4318BF0120930802EA96
:20EDD800000006D301F002040023204318BF01231846D20806D301F004010022084318BF7F
:20EDF80001221046002814BF0120022098BDC046D02008401149C8B570310A684E6D4108C3
:20EE180006D302F0010106F0040600270E4300D00127810805D3002117B1930828BF0121AF
:20EE38000F46C00805D3002017B1D10828BF01200746002F14BF01200220C8BDD0200840AD
:20EE5800B0B50C480C4DA84210D00C480C4CA0420CD0001B083CC71054F8080F017855F8F5
:20EE780021206168401C90477F1EF5D100BF00BFB0BDC0465CF10A0050F10A0080F10A00CC
:20EE980070F10A00B0B54FF0805000F5EC74D0F8D801094D816828468847C7B257B1206800
:20EEB800426800212846904720688168284688470028F9D13846B0BD0040034010B50B4804
:20EED8000B49006800F00F008002086000200721FFF7F6F8012420460021FFF7F1F8641C3E
:20EEF800582CF8DB00F0E3F8002010BD3024034000030020F8B51F46164601EB403500F072
:20EF1800F8F8002400B101240020211C08BF012003E015F8011B06F8011B39464A1E002974
:20EF380097B2F6D108B100F0EAF8F8BD0B4880F308880949086840F47000086000BF00BFC7
:20EF580000F0ECF808B1FFF77BFF0020FFF7B6FF012000F0E5F8C04688ED00E00040022026
:20EF7800F8B517460D46044600F0C3F8002600B101260020311C08BF012014F8011B7F1E0F
:20EF980005F8011BF9D108B100F0B9F8F8BDFEE710B5074C0821083014F8012D10F8013D89
:20EFB8009A4218BF002002D1491EF5D1012010BD4CF10A0010B5074C401E0021625C10F8D4
:20EFD800013F9A4204D1491C0829F7DB002010BD012010BD58FF0A00F8B516460C460546DE
:20EFF800FFF750FF0746012204EB4531304600F013F8384600F02CF8F8BDFEE7054800688D
:20F018004BF677310001B1EB104F14BF4FF0FF30052070471813005008B5044B1B689B69C8
:20F038009847034A0021116008BDC046A801001084046042D0F80300401EB0F1FF3F06D06E
:20F058000022401E01F8012BB0F1FF3FF9D1704708B530B1044830300068426801480121CC
:20F07800904708BD00400340A8010010002103E0421E491C1040C9B20028F9D181F00100A8
:20F0980000F00100704738B101E08B5C835413465A1E002B92B2F8D1704700F11F02202016
:20F0B80012F80139401E01F8013BF9D1704708B500F01FF800204FF0FF320146FFF7DCF97A
:20F0D80008BD0246202011F8013B401E02F8013BF9D1704708B5FFF7A9FBFFF727BFFFF748
:20F0F8005EFE08BDD0F80320C31D08461946FFF761BDEFF3108072B6704700207047EFF341
:20F11800108062B670470020704708B5D0F800D04068804708BD20F03F007047012070473A
:04F1380000BFFEE72F
:10F13C00010200030200010343433236783252319C
:20F150004FED0A00FDF00A004DF00A00000100000F9549FFF00000000200000080010000BB
:10F170005CF10A000003002068F10A00A8270020C3
:20FF5400014C0000B0177D511DEC108BD851BCA2ED3D9E19B733A52F33DA05404D13765069
:20FF74003D88DF5CD0E2F2583053C42AB92ABEEF665FECCF5616CC36EF2DC95E462B7C3B17
:0CFF940009C19956D9AF958163237BE722
:04FFA000E3EC0A0084
:20FFA80000008001100080FFFDFF58003AFFBBF3FFFFFFFFFFFFFFFFFFFFFFFFFFFFFFFFFE
:20FFC800FFFFFFFFFFFFFFFFFFFFFFFFFFFFFFFFFFFFFF00FFFFFFFF00FFFFFF00C5C5FFAA
:18FFE800000000FF00E00A00FFFFFFFFFFFFFFFFFFFFFFFFFFFFFFFF28
:00000001FF
