:200000004343323678325231FFFFFFFF0301DFFFFFFF0100FF000000FFFFFFFF00010000EC
:2000200030303031788A02002C00FFFF03DFFFFF550000000100000000000000000000009B
:200040000000000000000000000000000000000000000000000000000000000000000000A0
:20006000000000000000000000000000000000000000000000000000000000000000000080
:0E0080000001DFFF0000000000000000000093
:2000900000008001100080FFFDFF58003AFFBBF3FFFFFFFFFFFFFFFFFFFFFFFFFFFFFFFF15
:2000B000FFFFFFFFFFFFFFFFFFFFFFFFFFFFFFFFC50DFEC5FFFFFFFF00FFFFFF00C5C5FF29
:1800D000000000FF00000000FFFFFFFFFFFFFFFFFFFFFFFFFFFFFFFF29
:20010000003C01205DC6010039FB021039FB021039FB021039FB021039FB021039FB0210BA
:1C01200039FB021039FB021039FB021039FB021039FB021039FB021011FB021001
:200140002DE9F04F0746A848ADF1940D1F900FB1386810B91F9801F04CBA00241C94A34E83
:200160000F9621460B911E911D911B911991179118911A91159116910C9112911391149152
:200180002046109011907868102801F031823E68002E01F02C82BF49BF4D2091BF4C219503
:2001A000BF4B2294706D2393410880F0F6843E6B002E00F0EE8438461AF0A0FE041C40F00A
:2001C000E5843868406D80080AD3386B90F85005012805D138460BF0BEFA041C40F0D684AA
:2001E00078680F2800F2AE84DFE810F0CE04D802D700C904A2008E006500C5042B00100014
:20020000C104BD04B904B504B304AF04386C0468384606F027FC002840F0B484A07A0528FA
:2002200000F0B780072800F0B480082800F0B180062800F0AE800B2800F0AB80209C00F0AD
:20024000A5BC396C09683868897A0B2931D181690091C0690190D7F8B410386B4FF43F72EF
:2002600002AB091D12F0A8FD002840F08B843968386BC96900F5DE62009100F2347119F0C1
:20028000C1FA002840F07E8416260298D7F8B450C7F8B860001DC7F8BC0010212970786887
:2002A000401C786038460CF06BFF002840F06A84EDE0406D61E0384602F0DCFE002840F083
:2002C0006184F86E162840F06582396854310868800834BF04200C20D7F8902090420FD1EC
:2002E000786E00780E280BD17868401C78600868810818D338461CF062FF3868406D12E06C
:200300000F9C3222803CE5E1386C00683968807A5431401E032809D90838012806D978689D
:20032000401C786008681E9C00F034BC086824E0386C0468384602F09DFE002840F02284F2
:20034000F86E162840F021827A6E10780C2817D13868406D81082CBF0C210421A37A0B2B34
:200360000BD1D7F89030386B5118521AD21818F009FE70B10F982F22ABE1209C00F00ABC8A
:20038000A07A052818BF072840F0FF810120C7F898007868401C786079E07D6E384602F020
:2003A00069FE002840F0EE83F86E162840F0ED813868406D4608700874D32878032817D0BF
:2003C000386BD0F8440524F043F9386B1099C0F84415386B0E4680F848653868406D460805
:2003E00070085FD30C205EE0008FFFFF0085FFFF16F001020CBF04200C207B6E04A9C61841
:200400001B1803A821F075FB03980328C0F2AF81049B022BC0F2AB81396891F850208242CD
:20042000C0F2A58191F8511018468142C0F29F81B61C786E396F16F8014B801B4018844294
:2004400000F39C81386BD0F8440524F001F90120214624F0F5F8396BC1F844053D6BD5F826
:200460004405002808BF219C00F090833146224616F07EFC05F5B76685F8484501201E992C
:20048000786030461DF024FC38461CF098FE1E9878E3C0460094FFFF0081FFFF8091FFFF8A
:2004A000808FFFFF0420D7F890102630884200F265812878022840F0618107F10C0107F1CB
:2004C000080016F001060CBF04220C22AD182B46324621F00EFB3868B96890F852208A4299
:2004E00000F34581FA6890F85330934200F33F8190F850308B42C0F23A8190F85100904261
:20050000C0F23581386BA91C202200F2147016F02FFC95F82260202E00F230813868406DD5
:20052000410848082CBF0C220422D7F890009219273282420CD349082CBF0C210421401AF5
:20054000801B262840F01A811E9C05EB060B16E0AA1992F8263092F8274005EB060B54EA63
:20056000032402D0042CC0F0098149082CBF0C210421401A801B001B282840F0FF809BF8E8
:2005800025809BF823009BF82490B8F1000F49EA002940F0E580484622F0DAFB396C08608E
:2005A000386C0368002B00F0D480587A072803D0386B7949C0F8E016D7F830A0DAF85437DA
:2005C000CBB1C6B1F86A0168894514D14168884511D181688E420ED10C3005F123013246EC
:2005E00021F0A2FF38B90C207860384606F03AFAB0B150226DE07868401C7860129BCAF809
:200600005437F86AC0F80090F86AC0F80480F86A8660F86A2335324629460C3016F0A8FB39
:20062000FD6AFB683868296850F82300001F4668002E00F08C80B14200F10400F7D108465F
:2006400022F086FB39461A461FF025FF00287ED1B8F1000F7BD1C5F80480002C0BF12805E4
:2006600064D0A878EE7846EA0026301D8442C0F0858028786B7843EA00235B1E44D00A3BFD
:200680002DD0F53B0CD04FF601601B1A48D1012E58D12B79002B55D10120C7F8DC003FE035
:2006A000386C0068807A0B283AD1386BD0F8300523F0CEFF386B1399C0F83015386B0B4636
:2006C000C0F83435386B3246291D1BF0F1FB38B3282204463846022120F01AF956E2002EF8
:2006E0004CD02B79981BB0F1FF3F47D1681D4BB3401E10F8011F31F0010202D05B1EF8D14F
:2007000020E0386B81600BE03868406D10F4E07F18D0012E16D12979C0F38210884211D129
:20072000A41BAD19241F05F104050DD1D7F8DC0000287FF4ACAE3868406DC0F30110022839
:200740007FF4A5AE28221AE0032C8AD81BE02F2215E038460221502220F0DAF81F9C15E216
:20076000384602212F2220F0D3F8239C0EE238460221462220F0CCF8229C07E232223846A7
:20078000022120F0C5F8A64C00E2384602210A2220F0BEF8A14CF9E1094C02003868866955
:2007A00000F15401002E00F0CA8190F85220BA6090F85320FA6090F85060002E00F0BD818D
:2007C00090F851C0D7F8B43008681C46C0F340020D94614630461B1D23F0EAFA3B68DDF8A1
:2007E00078B0386B596D241DA41C5E4600F2F465890802D3D0F8442582B9D8699B692946F2
:200800000422984738B93B68D8699B692D1D1C222946984710B1002840F0B481386B2022F1
:2008200000F2F461204616F0A3FAF86A85682034102D05D3202D03D8386BD0F8543703B9D6
:200840005D4604F8015B4DB15846F96A0918097B6D1E00F1010004F8011BF6D13868416D4F
:20086000890819D3386BD0F84455002D04BF584604F8010B0FD090F8480504F8010B386B02
:20088000D0F8441590F84825204616F071FA386B90F8480524183868F96850F82150A24615
:2008A000A41CD846D5F80090B9F1000F40F027813246FF2004F8012B08F1010504F8010BA6
:2008C000E9090AF8011B68008AF80000012304F8013BBBF1000F04F8012B5FD03868D7F841
:2008E000B4A0066CA51C04F10809934690460AF5407A307880BB554533D8AAEB050008F1E8
:20090000060181422DD83868D0F840805E4698F8000098B92EB358460A2305F8010BB21CD8
:2009200005F8013B110A05F8011B05F8012B330A05F8013B06F1060B2E7012E022F0E8F920
:200940004188091209F80610807806EB0903B61C08F101085870DAE722F0DAF9002840F00D
:20096000CA80D7F8B4201E995E46A019801C02F54072904211D8121A062A0ED300F8011B25
:200980000B2200F8012B00F8011B022500F8015B012300F8013B017006217618D7F8B42056
:2009A000DDF87880386B22F0A3F9A519AD1C02F5407200284ED1501B04284BDB012005F8C7
:2009C000010B434605F8013B386BD0F8303513B1D0F8343533BB386881690091C0690190C1
:2009E000386B521B05AB921EA91C0BF063F905F1020978BB0599012023F022FE396BC1F8E8
:200A00003005D7F830A0DAF8300518B3059A494616F0AEF90598CAF8340511E00089FFFF45
:200A20008086FFFF396BD1F83435501B801E1A46059382420ED8D1F83015A81C16F098F9C8
:200A40009DF8150005F8010B9DF814002870059800F104083A681E99526D4644A019801C11
:200A600012F4E07F19D0D7F8B42002F54072904213D8121A052A10D30A4600F8012B01214B
:200A800000F8011B00F8012B0D4600F8015B3968496DC1F3821101700521761805D0300AA5
:200AA00004F8010B2670A419641C16260D98D7F8B450C7F8B860241AC7F8BC40012129701C
:200AC0003B687868401C7860586D800802D338461FF0C6FC38460CF053FB002852D138683B
:200AE000406D8008FFF409AC38460AF034FE00283FF403AC46E008F10208761CF9E648463D
:200B000022F026F9396891F8513091F853200E9039461FF0C0FC70B90E9823F03EF94FEAC3
:200B200029234BEA000004F8013B8346287808F1010804F8010B2D1DB4E61F9C00E0BA4C04
:200B4000086827E03868406D23E038461BF036FE1CE00F2019E0384614F0B0FB12E0384650
:200B600019F0F4FF0EE0384610F0F6FE0AE0384621F0C8FC06E0384621F09EF902E0384670
:200B800021F086F9044601E0012078603868406D00E01F9C4008C0F026857868102800F00E
:200BA00021853E6B002E00F01D8538461AF0A6F9041C40F018853868406D80080AD3386BBD
:200BC00090F85005012805D138460AF0C4FD041C40F009857868122800F20485DFE810F0C6
:200BE000FF04D804CA003C02930081005B00380222001300340230022C0228022602220224
:200C0000020502052002386C0068807A052876D0072874D0082872D0062870D00B2840F075
:200C2000A5846CE0386C0468384602F023FA002840F0F4813868406D800834BF04230C23B7
:200C4000F86E162824D1796E0878102820D1A07A0B2840F08B84D7F89020386BC918D21AF0
:200C600018F090F990B93968386BC96900F5DE62009100F2347118F0C5FD002840F0CE8156
:200C8000384605F0EFFE002839D0C7E10F98C5E1C24C00F0A8BC04201626C7F8BC00D7F8C2
:200CA000B450C7F8B8600E21297078683C68401C7860606D800802D338461FF0D1FB3846D8
:200CC0000CF05EFA002840F0A9813868406D8008C0F0A38138460AF03EFD002800F09D81AC
:200CE0009CE1386C0068807A052808D0072806D0062804D0082818BF0B2840F03784786860
:200D0000401C786089E1386C04210068C7F8BC10807A0B281DD115983E680690B1690091CA
:200D2000F0690190D7F8B410386B4FF43F7206AB091D12F041F830B110F5CA4F1CBF169904
:200D4000C7F8BC106AE10699D7F8BC004018C7F8BC001620D7F8B460C7F8B8000C21317062
:200D60007868401C786038460CF00AFA002800F0548153E13868416DC1F340022AB1396BFD
:200D800091F84865002E40F00B818669002E00F00281D7F8B430B868F96898461B1D23F046
:200DA00007F83B68D8699B6908F10404A41C042221469847002840F031813B68D8699B692D
:200DC000241D1C2221469847002840F02781386B08F10601202200F2147015F0C9FF386B83
:200DE000D0F854671C340EBBF96A8E684EB13868066A36B1806AB04718B9386B0121C0F8D9
:200E00005417386BD0F8546786B97868FE6A401C78602021B1603B68F96AD8699B692022A7
:200E20000C31984750B1F9E0008CFFFF0C207860384605F017FE002840F0F080F86A007A02
:200E400004F8010BF86A826800F10C01204615F08FFFF86A81684078641804F8010BF86A5E
:200E6000007804F8010BF86A007904F8010BD7F8DC00A51C012810D1FF2005F8010B01264A
:200E800005F8016B179B05F8013B314605F8011B05F8013B2D1BAE1E00E01E9EF96A91F899
:200EA0006050A019801C002D08BF1E9810D0189900F8011B012200F8012B00F8011B154628
:200EC00000F8015BF96A91F860100170F96A05203618086821F03CFF22F05FFFC8B1396BD2
:200EE000D1F86017A019801C490838BF1E980FD3199900F8011B0B2200F8012B00F8011B52
:200F0000022500F8015B012300F8013B017006203618386CD7F8B4200068DDF87890807A93
:200F2000A519AD1C02F540720B281CD1012005F8010B4B4605F8013B386881690091C06929
:200F40000190386B521B08AB921EA91C0AF0B2FE48B99DF8210005F8010B9DF82000287011
:200F6000089800F1040916EB090605D0300A04F8010B2670A419641C1620A4EB0804D7F839
:200F8000B460C7F8B8000221C7F8BC40384631700CF0F6F863E0D04C25E3C0460084FFFFF0
:200FA000D7F8B430B868F9681B1D079322F000FF079C3868A41CC66A0794002E00F0D682D6
:200FC0002146491C0791D7F8D8500095D7F8A010406BD7F8D43001F22D3207A9B047E8B98A
:200FE00007981626001B0325401E2070D7F8B4100798C7F8B860401AC7F8BC0012230D7055
:2010000038467B600CF0BCF840B93868406D800803D338460AF09FFB00B91E988046A8E153
:20102000D54CE0E238461BF0C9FBDCE20F20D7E2384610F091FC12E0384621F063FA0EE003
:20104000384614F03BF90AE0384619F07FFD06E0384620F01DFF02E0384620F02DFF044677
:20106000C1E2891C0A6807F1C600026089888180384614F0A5FD002840F08682384612F080
:201080005FF8F96D08784E7846EA0026B6F5407F00F2DD813868406D800834BF05210D2121
:2010A000384689190BF0AEFF041C40F09C823868406D800839BF1B98786706F10D00F86738
:2010C000386B7C6ED0F8E03632462146384698473868406D450868082CBF0C200420B04232
:2010E00000F2B5812078012840F0B1816378002B40F0AD8168082CBF0C200420A278E17823
:2011000041EA0221711A884240F0A181680821D3786E01793D6B407940EA0120C5F83C056C
:20112000396B431CC1F84035796E8D7985B9CD7975B90D7A65B9481C0322093121F0F4F979
:2011400030B93868406D4508680803D30C2002E0239C48E20420241815F001020CBF042078
:201160000C20361A262EC0F0728107F1080007F10C01234620F0BDFCB868396BC1F85807E9
:20118000F868396BC1F85C073868B96890F852208A4200F3F281FA6890F85330934200F30D
:2011A000EC8190F850308B4204DB90F85100904204DA02E0BB6090F85100F860386BA11CF7
:2011C000202200F2F46015F0D3FD94F82250202D00F2388105F124008642C0F03381F86A14
:2011E00085601E99F86A20220C3017F0C5FFFA6A02F10C00926804F1230115F0B9FD3868D7
:20120000416D890827D305F123082D1995F8235008EB0501C91C8E421BD3D0F830C0BCF12D
:20122000000F01D195B112E1D7F8D8100091406BD7F8D4302A4608EB0401491CE0470028B2
:201240000CBF1C990121386B80F8481545446D1C02E04622F7E0233528192919027849782B
:201260000D9041EA022102290E91C0F0EB804919C81C8642C0F0E6800E98400880F0E280BA
:20128000881C09198A78511E0F2900F2DB801118491C8E42C0F0D680F96A0B9B4B603968D9
:2012A000496D890824BFF96A4B608018411CB14214D2C21CB24200F2C58022189578507810
:2012C00055EA002502D0042DC0F0BC80761A761B022E04D0B6E0C046008CFFFF1D46641891
:2012E000002D04F1020400F0C980042DC0F0AA80A078E67846EA0026301D8542C0F0A280D0
:201300002078637843EA00235B1E00F0A280093B52D05B1E32D0F53B0FD04FF601601B1AB4
:2013200040F0A280012E40F0C8802379002B40F0C4800120C7F8DC0096E03A6B104621F03B
:20134000D7FC002840F090801046211D32461AF0AFFD5FEA000807D1386BD0F8601741F054
:201360000201C0F860177FE0384602212F221FF0CFFA404673E6C0468095FFFF386BD0F8AF
:201380006017002E41F00101C0F860175AD02379981BB0F1FF3F55D1002B04F1050063D070
:2013A000401E10F8011F31F0010202D05B1EF8D15AE0386B816057E0022E04F1060A41D331
:2013C0002179607940EA0128A8EB060010F1020F38D15FEA580035D2386BD0F838358BBBCD
:2013E0004FEA580000F10109B9F10C0F88BF4FF00C090421484623F023F95FEA000B06D1F4
:201400003846022150221FF083FA219CEBE0386BC0F838B5B8F1000F26D0B9F1020F23D3FE
:201420009AF800109AF8010040EA012021F01DFA18B14BF8040BA9F10109A8F102080AF1A7
:20144000020AE7E73222384602211FF061FA6A4CC9E0012E06D120790428DCBFF96A81F8B2
:20146000600001DD2F22EEE7AD1BA4192D1F04F1040403D0032D3FF63BAFE3E7DDF834A0A5
:201480000E980AF1020A401CAAF10201400811F8026F36B94A78FF2A04BF0120C7F8DC008A
:2014A0000DD0401EF3D1D7F8DC00012807D03868406DC0F30110022801D12822C3E7D7F8B2
:2014C0000090FD681E9A59F825800D92D8F8006076B932B93846022128221FF019FA474CE0
:2014E00081E03846022128221FF012FA444C7AE00E98AAF10204C6F3072B401C430814F8B6
:20150000020F834534D1617806F0FF0088422FD1304621F01DFC48B3016901228D4212DB71
:2015200081698D420FDCD9F85410890802D3017FC90808D2817A0B2904D1396BD1F8601759
:20154000890800D30D900D9991B1F86A0660386C0D4605603C687868401C7860606D800871
:20156000FFF45BAD38461BF02AFE56E5209C3AE05B1EC4D108F10408A8E738460221462203
:201580001FF0C6F9229C2EE01E98F86706467E67384605210BF036FD041C24D1BB6D1878CC
:2015A00016287FF454AF3868406D5B1C0AA9C0F3400209A820F09DFA09980328FFF647AFFC
:2015C0003868406D8008FFF45CAD796D087800287FF43DAF487800283FF443AD37E7012003
:2015E000786000E01F9C002C3EF4CDAD00E01F9C204625B0BDE8F08F0087FFFF808CFFFF17
:201600008096FFFF2DE9F04FDFF8E8820020ADF14C0D44F201210D9000220A900AAB0B2078
:201620000B9001200C9040460AF024FCB54C211D086000210A46404613460AF01BFC10900A
:2016400019F086FE08A823F090FB032008A98DF820004FF080401AF079F9A74D28601AF035
:20166000EDFDA748A54908600E2021F085FD60B923F01AF921F06CF941F6A80140181CF081
:20168000BBFE22F055FD23F015F90D2021F074FD002800F0E083286820B10021C2A30A46AB
:2016A00020F040F923F000F921F052F91CF062FC074623F0FFF8A346FFB123F0F5F821F00E
:2016C00047F9012105F040FBA0B921F041F9012121F05EFB48B921F03BF9044621F038F976
:2016E0000146204620F0B0F804E021F031F9002105F02AFB23F0DEF842E023F0D5F821F02F
:2017000027F9B0490822481E10F8013FFF2B02D1521EF9D1C349C91D00200A780DEB000312
:20172000401C491E082883F82020F6D323F0C2F8286838B1AEA100910022AAA3022120F06A
:20174000F1F82868E0B19DF8201000919DF8217001979DF8221002919DF8231003919DF820
:20176000241004919DF8251005919DF8261006919DF827100022A0A30791032120F0D2F817
:201780000BF11807A848A94C0F9780463AE3A06823F020FD5FEA000A00F034839AF80800F4
:2017A0002968401E00F04481401E06D0401E00F0A381401E00F08C81A1E131B108460021B1
:2017C000C5A30A4620F0AEF82968DAF80C20B4F80D70B2F801303846834240F0F5801646C4
:2017E00061B1009780200190D078C7A30290084600210A4620F096F8B4F80D00BD4AC701E6
:20180000F61CF9B24FF00009891898F800201196531E834278D898F80160801AB0F1FF3FDB
:201820000ED0D8F80C00C019010BCAB2C0F30B011046119A802320F0CBFB002857D168E0BC
:20184000084611990E2215F093FA16F005FB410326B1FF2805D14FF005095AE0FF2808BF3B
:20186000CE491EB198F83200032806D0B8F82E00C989884218BF4FF00509D8F81800D8F8E9
:20188000A910401E084218BF4FF00509B9F1000F3FD1D8F8380040F6FF76010BCFB2064272
:2018A0001CBF7F1CFFB2B8F80600C6B203E0B8F80600761CF6B2C119B14213DCB9F1030F88
:2018C00015D08C4AC0B200218E2320F081FB70B9119A98F806008E2172230E3220F078FB0C
:2018E00028B916E0304620F0D7FDFF28DFD14FF003090EE074610200D0660020E066002014
:201900004D250200F07B002008468022314615F02FFAB4F80D000221ADF838000A460EA874
:201920001FF066FF2868B9F1000F014644D1B4F80D00B4F80D70B4F80F60401C83B2781C6C
:201940009E42A4F80D0000F3C380574631B1084600930021BDA30A461FF0E4FFA54805268D
:20196000F86010210122BFA37E815046002600960EF042FC0FF0F8FE002828680ED11AF036
:2019800041F8286820B131463246B8A31FF0CAFF22F060FF964901200860FEE7002800F0B5
:2019A0009280BAA38BE0C046446F6F72204C6F636B20696E69742100002900F08480B8A39D
:2019C0007DE0C046C84F0050002900F098800090B2F80100B8A30190084600210A461FF017
:2019E000A1FF8CE070736B643A20257300C046C04452524C434B310045554936343A2030A7
:201A00007825303278253032782530327825303278253032782530327825303278253032CE
:201A20007800C046F012005090860020C887002029B108460021ACA30A461FF073FFDAF8F6
:201A40000C00007820738DF824000020A4F80D001DF028FADAF80C00401C10F0EFF8574610
:201A600000260346A4F80F3003B1012628688DF8256028B100930021A1A30A461FF052FF26
:201A8000F868172100221FF0B3FE07F11400122101221FF0ADFEB4F80F0002210322ADF808
:201AA0003A000DF13A001FF0A3FE09A95046022215F0F4FF60684EB9286820B1C9A30021E3
:201AC0000A461FF02FFF18F025FE18E01BF072FE504619F01DFE12E04F414420426C6F63BB
:201AE0006B527370204576656E7420726563656976656400B0860020504620F075FB5046BB
:201B000021F0BEFF7EE1C0464F414420426C6F636B20777269746520626C6B4E756D3D257D
:201B2000642C206C656E203D2025642C20646174613D256400C022F0B7FE20F009FF23F052
:201B4000EFF8074622F0B6FE381C1DD0401E09D0401E022800F256812868002800F0528147
:201B6000C6A322E00720002122F0A2F90620012122F09EF9286820B101210022C3A31FF0FA
:201B8000D1FE1DF01FFE3DE10720002122F090F90620002122F08CF934E1C0460000000052
:201BA0002868002800F02E81BCA3012127E1286820B101210022BDA31FF0B4FE22F074FEFB
:201BC00020F0C6FE43F2CA71085C00283BD020F0BFFE012121F0DCF8002834D120F0B8FE63
:201BE000064620F0B5FE014630461FF02DFE2AE07C052043D487002020F0AAFE1CF0BAF9FF
:201C0000002840F0FF80C7480078022800F0FA80286820B101210022A7A31FF083FE22F041
:201C200043FE20F095FE012105F08EF820F090FEABA1A5A2A8A30091C2490EF099FF10B9AC
:201C4000B8490220087022F035FEDBE052657175657374696E6720426C6F636B204E756D67
:201C60003A2564006F61642F696D6700446F776E6C6F616420636F6D706C6574652C207292
:201C800065626F6F74696E6700C046C0446F776E6C6F616420435243204572726F722100AC
:201CA0004F414420426C6F636B205772697465206661696C757265004F4144206E6F7420AD
:201CC00076616C696420706B74207265713D256420727865643D25642C20646973636172FC
:201CE00064696E6700C046C04F4144204E5446204576656E7420726563656976656400C057
:201D00004F414420496D6720626C6F636B73203D202564009BF80000012873D001208BF86B
:201D2000000020F015FE064622F0BEFD304622F061FD074622F0BEFDAFB98348008A10F0AA
:201D4000030F10D07848CBF81C007F4FCBF82060F868CBF8180022F0A7FD0F99304622F0C0
:201D600035FF22F0A7FD734816F05AFF1EF004FE7148002123F02AFA6F485BA626626B4F44
:201D80006762A06020F0E4FDA06220F0E1FD6B491FF0C4FE56A727636548606320F0D8FD38
:201DA000A06320F0D5FD66491FF0B8FE23F0A7F801280AD11EF088FF28B11EF045FE4FF610
:201DC000DF71814201D011F0DBF81EF0BBFD13F0DFFB20F0BDFD22F0A7FF13E0286888B16A
:201DE00045A30BE04F414420496D672052656A65637465642100286820B145A3002100220C
:201E00001FF090FD109808A9012200231EF0C4F90028F7D40128F5D19DF820000928F1D82B
:201E2000800001A109588F46F71D0000DD1D0000151D0000051E0000F91B0000AF1B000009
:201E4000A11B0000371B00008F170000511E000013F09EFBD6E722F0FDFC08A80021082200
:201E600017F08AF9394908A8082221F0CBF922F0F1FC374901200860FEE7C046446576692C
:201E80006365204A6F696E656400C046446576696365204465746163686564004A6F696EE9
:201EA000204661696C75726500C046C04A6F696E6564204E776B00C04A6F696E696E67201D
:201EC0004E776B202E2E2E0054492D4F50454E54485245414400C04643433133353200C05D
:201EE000312E322E342E30006F61642F6E7466006F61642F66777600556E6C6F636B20455F
:201F000076656E7420726563656976656400C0464C6F636B204576656E74207265636569C4
:201F2000766564009E8C00203DEE00006DC8010015C8010008880020DC870020E887002017
:201F4000F8870020F019000074610200000000007C0520432DE9F04FADF1840D1993189244
:201F60000E461790B18B1C912B9B1B932A9A1A9214CA04A880E814004FF4C04028221F786F
:201F8000ADF8280030460DF12A0314F0F3FA4FF00008282840F03384B3480DF1320106AA88
:201FA000834617F03FFB444618B99DF81E0000B10124A246BAF1010F04D05846414606AAE7
:201FC00018F0B8F958460DF1420108AA17F02AFB444618B99DF8260000B10124A146B9F10E
:201FE000010F04D05846414608AA18F0A3F90498059A811C8A4238BF032502D3801C4546C3
:202000000490002D40F0FC839DF825109DF81D3051EA030516D0BDF82840451C41EA0311BE
:20202000AA42CBB244F08004ADF8284038BF032503D3411C049145460370002D40F0E083CD
:20204000059A04989DF82A109DF82B409DF82B303C2505EA81059DF82B1014F00F0445EA9A
:20206000A1154FF0040113FB01F303F0C0012AD19DF82CC0BCF1000F25D19DF82DC0BCF153
:20208000000F20D103F0C00355EA030414D0BDF828300D43411C8A4243F48053ADF82830D3
:2020A00038BF032503D3411C049105704546002D40F0A683049858E0BDF8281041F4C051AC
:2020C000ADF8281052E015BBBDF82830214343F40063ADF82830431C9A4238BF032504D3E8
:2020E00004930170059A04984546002D40F08883811C8A4238BF032506D30BA90988018083
:2021000004984546801C0490002D2ED078E30D43411C8A4238BF032504D304910570059ACA
:2021200004984546002D40F06B839DF82B10431C9A4201F00F0138BF032504D30493017023
:20214000059A04984546002D40F05A83811C8A4238BF032506D30BA9098801800498454631
:20216000801C0490002D40F04B83059A9DF8301021B1113918BFB1F1180101D1022F10DAF5
:202180009DF83030411C8A4238BF032503D3411C049145460370002D40F03283059A0498EF
:2021A00005E0BDF8281041F48061ADF828109DF831502946491E19D03F3912D0BF390BD058
:2021C000431C29469A4238BF032503D3421C04924546017085B113E3BDF8280040F4407083
:2021E00008E0BDF8280040F4007003E0BDF8280040F48070ADF828000DF1320020F0ECFE9B
:20220000002833D10DF1320021F064FDF0B9049CBAF1010F14D0059804F11001884238BFA4
:20222000032509D30DF132012046102214F0A0FD049C454610340494002D40F0E1821CE06D
:20224000BDF8280040F04000ADF828000AA804AD189900900DF1320206AB019511F082FCC8
:20226000051C40F0CD8207E018510020BDF8280040F04000ADF82800049C9DF84200059D1B
:20228000FF2830D00DF1420021F024FDE8B90498B9F1010F13D0059900F11002914238BF60
:2022A000032508D30DF14201102214F061FD0498454610300490002D00F0CF80A0E2BDF8A8
:2022C000280040F00400ADF828000AA804AD199900900DF1420208AB019511F0AAFC051CDD
:2022E00000F0BB808CE2BDF82800C14640F00800ADF8280002200DEB000191F842301BB972
:20230000401C1028F7D39FE09DF84310022902D10E2800F287800C2861D80A2840D8584676
:20232000414602AA18F006F868BB9DF845009DF80C10884227D102980DF14601082220F0DB
:20234000F3F800BBBDF82800A31C9D4240F00400ADF8280038BF032005D30DF143000088A0
:202360002080A41C40465FEA000972D1201D854238BF032005D30DF14E0000682060241D77
:20238000404681460AE004F1100085423ED30DF142012046102214F0EBFC103448463FE074
:2023A000BDF828009DF84310631C9D4240F00100ADF8280038BF032003D32046641C0170B5
:2023C00040465FEA000944D1601D85421ED30DF14D000168216000792071641D1FE0BDF867
:2023E00028009DF84310631C9D4240F00200ADF8280038BF032003D32046641C01704046A3
:202400005FEA000925D1E01C854201D2032007E00DF14F00018821808078A070E41C4046CF
:2024200081460FE0BDF828009DF85110631C9D4240F00300ADF8280038BF032003D320465F
:20244000641C017048468146B9F1000F04BF049405955FEA090540F0D3813046282120F0DE
:20246000A7FB9DF83000022F1D90B8BF4FF00108C0F2C681CDF88080CDF87C807F1E159790
:20248000012016901D99049C0598002900F0FE8011391BD0183940F0AF81DDF85880611CDB
:2024A000884238BF032504D3601CEE270490209D2770002D40F0A48104A80090189A199BBF
:2024C000179831461DF07BFF054699E1B18BDDF858800546082202AB3046894614F04AF8F4
:2024E000082840F0CC80BDF80810BDF80A700806000C40EA212082B222F00F034FF2B00165
:20250000380699424FEA104040EA272080B222D120F00F0399421ED1611C8D4238BF03272A
:2025200005D32746F3233B70209F491C641C002F40F0A680120700F00F008D4240EA1260E9
:2025400038BF032703D3209F2146641C0870002F00F0828094E002F47F41B1F5704F4ED098
:2025600000F47F41B1F5704F18D0601C854238BF032704D3209F2046F021641C0170002FC9
:202580007ED1201D854238BF032704D302A800682060209F241D002F5ED071E0611C8D4264
:2025A00038BF032705D32746F1233B70209F491C641C002F64D113128D4238BF032704D302
:2025C00027463B70209F491C641C002F58D1D2B28D4238BF032704D3209F2346491C641C8F
:2025E0001A70002F4CD1C0B28D4238BF032703D3209F2146641C0870002F2DD040E0611CE6
:202600008D4238BF032705D32746F2233B70209F491C641C002F33D1D2B28D4238BF03277A
:2026200004D3209F2346491C641C1A7047BB02128D4238BF032704D3209F2346491C641C42
:202640001A70EFB9C0B28D4238BF032703D3209F2146641C08709FB9A01C854238BF0327F6
:2026600005D30DF10E0000882080209FA41C3FB93046082120F09CFA0494059504E006274F
:202680003046494621F0ACFF38461DE7B18B8146022202AB30461E9113F06CFF022840F036
:2026A0009D803046022120F083FA9DF80830DDF880801F46113F12D0183F10D0601C814525
:2026C00038BF032506D32046E02101709DF808304546641C002D40F08280184600E0E120B4
:2026E00004F1010AD14538BF032505D321460AF1010A4546641C0870002D70D19DF80910C1
:20270000062000EBC10087B2B7F5807F64DA40464346B58B8DF80C00002F8DF80D30284686
:2027200008BF42461BD003AB30462946022213F021FF022852D19DF80C203AB9B18BB08B0D
:202740006D1CADB2691A8F42EDDC08E09DF80D004019801C85B2B08B291A8F42E3DC9DF81B
:2027600008303AB1012A07D19DF80D10891C5FFA81F801E04FF00108718BA7EB0807BFB2D3
:20278000C0194044814229DB5FFA87FB1D93D145584638BF032503D3209D2146641C0870C5
:2027A000EDB90BEB040081450BD3B18B30465A46234613F0DFFE834504BF5C44209D01D081
:2027C000FEE703255DB947443046394620F0F0F90494CDF8149006E0012500E006251E998E
:2027E000304621F0FDFE3DB91698159F401C1690781E15907FF446AEDDF8588000E00625A3
:202800001B9880F80080F5B91A9842680168481C824208D31A984A1CBDF8287002603A1284
:202820000A7042680168481C824206D31A9A0846491C11609DF8287007701A9904A805C862
:2028400081E8050003E01C99304621F0C9FE284621B0BDE8F08F70472DE9F04FC84BC74D8E
:20286000046899461968C74EC74FDFF824B3DFF82483DFF824A3607B2A68C44BADF1140D5C
:20288000401E0493352800F2CE81DFE810F0360039003C003F004200D8004500D5004C0074
:2028A000C503B20024025900B0035F00A50366000D026D00F100770098039B00CF01A30072
:2028C0007003A8005F03CC00AD014303B2009501B9000803CC00DF02D500D002D800AA02D7
:2028E000DB003701DE00E1009402F300840219015D02F700400203011501216948680DE004
:202900002169C868D4E02169886807E021690869CEE02169486901E02169886909682A46C7
:2029200013F068FFA3E32069C168022008702169096908702169C96908702169096A96E040
:20294000206933680168DB68006941E04FF480703168C9F8000008684DE04FF48070316827
:20296000C9F80000C86B46E0206933680168DB6889690069984721690A694CE02169886890
:20298000049D096840688A69401C294614F09AFE2069016880688A69406859468018401C1B
:2029A00014F090FE206901683768CA68786D00920A6901928A6902928B684A680446284661
:2029C000594663E0206933680168D86803464046896913E0206935680168E86927E0206924
:2029E000016837688B69F86945460446591940464CE030680069034649463846984746E025
:202A000020693368416A0568DB684868A969984721694A6A5268054608688169104620F093
:202A2000BAFE284633E020693568016868698B6904463846D91929E02169086A38E02169A8
:202A4000C86935E02169886A32E02169086B2FE02069C169022008702169096A087021694A
:202A6000496A08702169896A08702169096B08700020FCE220693468E46902E02069346849
:202A80006469016840698B694068C118A0471CF05CFEECE2206931680368CE6940699B6956
:202AA0004068C118491C401CB04721692A68486909681CF0B7F9EAE7206941690220D6E700
:202AC0002069016837688B694069C9F800304068F96BC0180B4649469847054620690168F7
:202AE000D9F8003089698B429BD2406932684468926DCF18C91A3819904792E74FF080563B
:202B00002169D6F80022C86A0968526C40688969904706F5007768BB2169C86A09684068FF
:202B20008A69514614F0CEFD2169086A096840688A690499401C14F0C5FD20690168006A19
:202B40008A69406859468018401C14F0BBFD216938680A68C06A1169926903465046984792
:202B60003868406A80470828FAD0386840688047062813D06FF0060079E2C046B866002026
:202B8000148C0020000200100064024060620240C062024000650240006202402069016818
:202BA0003C688A68206A0092CA6801928A69029203954B68049975E0206900688369994222
:202BC0000AD23068826D5B1AC8191946904720690068D9F8001083694FF080568B4206F56B
:202BE0000072C0F08F808CE02069C1680268486892694146401C14F065FD20690168C0680E
:202C00008A694068454651198018401C14F05AFD2069006880693946420040461CF021FC8B
:202C200000287FF425AF4FF0FF3020E2206901688A694069514614F045FD206947687FB9DA
:202C40004FF080560368D6F800029968006A0091D96801919969029103951A6AD9696FE013
:202C600079680268049F9269481C394614F02AFD2069016840688A69406859468018401C95
:202C800014F020FD20694FF080560168D6F800428A68206A0092CA6801928A69029203950A
:202CA0004B6839465A464CE020690068836999420AD23068826D5B1AC819194690472069E6
:202CC0000068D9F8001083694FF080568B4206F5007217D315E020690068836999420AD2FD
:202CE0003068826D5B1AC8191946904720690068D9F8001083694FF080568B4206F50072B4
:202D000000D319461268546B00950269C5E020690169026848689269514614F0D3FC4FF0F2
:202D200080562169D6F800020B68006A49699C689A6949680094DC68019402928A180395E1
:202D40005B680446504683E121698868049F096840688A69401C394614F0B4FC20690168C2
:202D600080688A69406859468018401C14F0AAFC4FF080562069D6F80022016892694069F8
:202D80008B694C6840680094896814460191C11802935B46BCE022694FF080561068D6F8E1
:202DA00000128369096C00955269406852680C461946D2184CE121694868096840688A69E0
:202DC000514614F07FFC2169049FC868096840688A69401C394614F075FC20690168C0680A
:202DE00014E02169486A096840688A69514614F069FC2169049F086A096840688A69401C90
:202E0000394614F05FFC20690168006A8A69406859468018401C14F055FC4FF08056206957
:202E2000D6F800420168206A04465046BCE02169C868DDF81080096840688A69401C414605
:202E400014F040FC20690168C0680DE021694869DDF81080096840688A69401C414614F098
:202E600031FC2069016840698A69406859468018401C14F027FC20694FF080560268D6F85F
:202E8000004253689169A069009392685B46019242460291C919039504463846D8E02169D2
:202EA0008868DDF81080096840688A69401C414614F008FC2069016880688A6940685946B2
:202EC0008018401C14F0FEFB21690869096840688A69401C394614F0F5FB206901680069D0
:202EE0008A694068D1198018401C14F0EBFB20694FF080560168D6F800424A688B69A069A9
:202F00000092896804464046019159460293DB1903959CE0206941680268486892695146B2
:202F200014F0D0FB206981698A684868394614F0C9FB4FF08056D6F800022169806B009577
:202F40000B688A69996993683A46FAE620694FF080560168D6F800424A688B69A069009256
:202F6000896842460191D91902939B1893E721698868049F096840688A69401C394614F08A
:202F8000A1FB2069016880688A69406859468018401C14F097FB4FF080562069D6F8004249
:202FA0000168206A044640468A680092CA6801928A69029203954B685A46394648E0206963
:202FC00001688A690069514614F07CFB4FF08056D6F80002406B18E04FF08056D6F80002AD
:202FE0002269006C009513689B69126954E721692069096880688A694068514614F062FB11
:203000004FF08056D6F80002806A216909688B6900950A69194694E62069416802684868C5
:203020009269514614F04EFB206901688A69C068394614F047FB4FF080562169D6F8000270
:203040000968806B8B6904465046009519463A46A047D6F8B001006A014613208847D6F8E5
:20306000B00100690146132088476FF01F0005B0BDE8F08F2DE9FE4F0546D5F8980000285B
:2030800040F0D9833CE010F5C94F05D010F5CE4F29D00020686732E02F6B2C6F0D3417B33A
:2030A000E86E16281FD1D7F8A805E0B9D7F87005C0F50040A04216D3B5F878002146401C8B
:2030C000C7F8B0050120C7F8AC1521F0B9FAC7F8A80540B1A96D224613F04AFED7F87005AD
:2030E0000019C7F870052968286F496D890834BF05210D21401802E0002007466F67E86701
:20310000D5F89070A86EDFF8EC92DFF8EC82DFF8ECB21FB9A8B90020286716E0002840F087
:203120007A83286FB8429CBF0020286706D9686E2A6FC119D21B2A671FF0A8FB0020C5F8C2
:203140009000286F002840F035812868406D800844D3284621F09CFA00283FD12E6B002E4A
:203160003CD0686800270A2821D00C281FD006F5AF62106800EA900040081BD3D6F87C1573
:203180004B788878CE7840EA032346EA03200C30B0F5407F22D828671621E9660346C5F8CE
:2031A0009030686E51681A4613F0E2FD13E096F8744514B94FF0FF370DE014200124E8666E
:2031C0006B6E2C67214619703A466A673C46EC673B4686F87435002F00F0EC802868406DFD
:2031E000430880082BD3286B28B3D0F8A875D0F8AC45D0F8B065F7B1284621F049FA012882
:2032000019D0B5F87800B04215D1A86D296D40F22D36421AB11AA142C0F0FD823946224668
:2032200013F0A6FD6C670020E86728461EF08BFC2868406D4308580828BF0D2100D20521AE
:20324000284609F0DFFE002840F0AD80AB6DEF6D18782E68E8663978787840EA0120286742
:20326000706D5B1C01A9C0F3400268461EF041FCEC6E173CB4F1FF3F12D014F1020F0FD0FB
:2032800014F1030F0CD05CB12868406D4708800880F08580284602210A221DF039FB7BE04C
:2032A000A8680099884277D12868019A90F85110914272DB2A6D696E2E6F40F22D37891ADB
:2032C000791AB14269D3406D4708800811D3686D0178407840EA0120B5F87810814254D156
:2032E000284612F06DFC002852D114B9686810284ED1686B28B9701E40F2FF2181420AD283
:203300004DE08068B0424AD8E968002903DD00F58060B04243D378082CBF0D200520311847
:20332000284609F06FFE00283DD12868406D800805D3286F696F0D30E867814201E0002027
:203340006867686B38B1284606F064FE60B9286FB0F5407F07D82868406D80082AD32846F9
:203360000FF0EEFE26E040462968496D89081AD310F5E44F18BF10F5E34F14D169680B29E1
:2033800011D00D297FF4B8AE0DE0401A012801D0CC4805E0584603E02868406D4708404670
:2033A0007908BFF470AE10F5CB4F00F0B380002840F04582E86E16284DD12B682E6F5433F1
:2033C0001868410880082CBF0C200420B04200F2998048082CBF0C240424284620F0D7FF7D
:2033E0000019C5F890001968890809D2B04232D9B54888E00094FFFF008EFFFF809BFFFFE1
:203400006C6E2079637943EA0023284620F0BFFF8246284620F0B2FF0746284620F0A5FF6B
:20342000BA456FD3AAEB070181426BD30C30864268D32F6B57B16868103804D0D7F84015BC
:2034400099424AD110B92078012846D128461DF0C7FA012854D0E86E14280FD1296F012918
:2034600038D1696E0978012934D12968496D890804D369680A2918BF0C2925D115280DD0ED
:203480002868406D80084CD3286B002849D06868102846D128461EF073FD42E0286F022886
:2034A00018D1686E017802290BD001297FF428AE407818B164287FF423AE32E0D748BDE834
:2034C000FE8FD748BDE8FE8F286B00285FD17D48BDE8FE8F4046BDE8FE8FD7F84005984286
:2034E0000ED3D7F860051B1AB3F1FF3F06D12078032803D0284621F006FD20B9D14802E0DD
:20350000584600E0404610F5C94F40D010F5CD4F3FF4F6AD10F5CB4F3FF4F2AD002840F03A
:203520008E81E86E162840F0898168682F6B102807D037B1D7F8E036696ED5F890202846A6
:2035400098472868406D8008C0F07881286B002800F07481D7F840050021401CC7F84005E9
:2035600028461BF0DCFB07F5AF670021491C07F10C004E1C0DC8042E87E80D0007F10C0767
:20358000F4D3384600210C2215F0F6FD56E1D5F830805FEA08023FF4B3AD0020EF6E0290F6
:2035A000143F00F03F81BF1E40F03F81D5F89000696EA0F10C0A0B794F79D2F8400547EAD4
:2035C0000327B84200F227813F1A032F00F22D81B80000EBC70014188018D0F8780504F596
:2035E000AF64400872D228461DF0FAF94FF0000B012808BF4FF0010B20680AF10C06B6F5F9
:20360000407F20F0020040EA4B00206000F20D81D8F87015B1F5004F00F2FD80800807D349
:2036200000201AF0070F18BF0120361806EBDA06C1F50041B1421DD2002F40F0F680D5F8B8
:20364000309028461EF07FFAD9F87005C0F50040B0420FD20327F9B228461BF060FBD9F82D
:203660007005C0F50040B04204D27F1EF3D576490291DAE00120314620F0E2FF6060002836
:2036800004BF724B029300F0D080A660696E0A688988026003228180801D002115F06CFDC1
:2036A0006068411C0A880930028089788170206840F001002060D8F870058019C8F870055A
:2036C0000BE0C0460099FFFF808FFFFF606804221EF02AFF002840F0A8802068C00880F0F0
:2036E000A4806668284620F049FE0746284620F03CFE696E0C3680464246B8190C3113F096
:2037000037FB20688108C0F081803A4641460AEB060902F007074FEADA0812F0070FCC4665
:20372000C7F1080723D08F424FEAD20311D300293CD003EB0A00305C7A1A4FF0010E491E0A
:203740000EFA02F240EA0200C0B2F5D10CF803002BE063441878D219C91B7F1E4FF001060E
:2037600006FA07F640EA0600C0B2F6D1187011F0070F01F0070011D05318091ADF0868B1DD
:2037800067443B78C0F108064FF0010E401E0EFA06F643EA0603DBB2F4D13B700CEBD20C54
:2037A000CA086046FF2115F0E7FC2068B8F1000F4946524608D04B1E474613F801CFBCF1CC
:2037C000FF0F17D17F1EF8D112F0070F10D0D308CB5C02F007020021C1F107064FF0010C6C
:2037E0000CFA06F6334205D0521E01F10101F3D1002701E04FF0FF374FF0000C0FB94FF086
:20380000010C20F0040040EA8C0002E0206840F00400206009E04846BDE8FE8F8087FFFF05
:203820008088FFFF012088F87405029800283FF467ACBDE8FE8F0020C5F898000020BDE8F4
:20384000FE8FC046809AFFFF0096FFFF0081FFFF2DE9F04F064614460F46ADF5A67D0AA8E3
:20386000519421F0B1F8606A002800F09683204690F82800FF2840F09083B98B38460C223E
:203880000DF5937312F076FE9DF82621FF2A07D0002A40F082839DF82711152940F07D8334
:2038A000012500F07A83002A14BF00210A21891CC9B28842C0F27183FF2A00F05B8396F996
:2038C0000950002D00F06983002A40F066834B9BDB4C1D0A03F47F41180605F47F4540EA53
:2038E000012043F2B4210543605845EA1365A8420FD043F25830B438294604EB00093430B9
:203900002218484618F04AFD9DF8262109F1340806E043F25830B43804EB000909F11408E1
:20392000B98B002A14BF00200A207B8B801CC0B24018001D8342C0F03083002A14BF00202E
:203940000A20801CC1B23846491E1FF031F9788B04220DF59973001F81B2384612F00AFEFF
:20396000788B001F81B2384611F076FF002840F01483519808A9103050901FF08AFE4A99DB
:2039800008A805220DF58B731FF082F88B460AA8414621F020FA0DF58B700090B88B7A8BBD
:2039A0002A210423121A0AA808F095FE002840F0F48250990AA8102213F0E4FF51990AA80F
:2039C000102213F0DFFF0DF227110AA80A2213F0D9FFB98B4FF000085291788B884200F3B6
:2039E000AB824FF0040A0AA80DF59B710DF59D728DF83AA11AF0D4F80DF599700DF59B712D
:203A000052461EF091FD002840F0C78243F2B4202058A84203D24846294617F09FF952990A
:203A2000384620F0DDFDB98B0DF23B133846012212F0A0FD384601211FF0BAF896F9090054
:203A4000401E01280BD9801E012806D89DF83B010C2804D004F5545002E043461BE0304604
:203A600008A918F0B5F8031C15D0987E00F00F00072810D15869A84206D0A84280F08D82CD
:203A80005D614046D86003E01869584500F285820BF1010018619DF83B01001F00F0BD811C
:203AA000001F00F07881801E00F03F82801E00F03782401E00F02E82401E00F0AE80401E90
:203AC00040F06B8238461421052206AB1CF083F9002840F062829DF819000328C0F05D8212
:203AE000BDF81B0016210A2202AB051238461CF072F9002840F051829DF809000828C0F031
:203B00004C823846152134AA1DF08AFF002840F0448243F2B420AC38201820F097FF071CA3
:203B200019D00DF10A0112F0A1F8002813DC38460DF10A0112F09AF8002840F12E82304647
:203B4000294642461EF0F1FA509B3046294642460EF0D2FA21E296F9090001280CD143F27D
:203B60005830205C854207D143F25630BDF8D070215A8F4200F0118296F93500012820D145
:203B8000BDF80A10039C0806000C04F47F47002240EA212080B20300210641EA0720270A73
:203BA00007F47F41014306F5887741EA1461891842EB030297E81800944208BF8B4280F028
:203BC000EC81BDF80A10039C86F80B510806000C04F47F47250A40EA212080B20300210662
:203BE00041EA072005F47F41BDF8D050002206F588770143A6F80C5141EA146130468918D3
:203C000042EB030287E80600012120F0C9FD06F13C00FA211FF0E5FFBFE196F90900401E2E
:203C200010D0401E40F0B68006F10C00984240F0B48196F8260000F00F00072819D0ACE146
:203C4000501A0020394602AA21F022F8002840F0A48196F870209DF81000824205D106F1B3
:203C6000680102A81EF060FC18B1B8F1000F00F09481384611214FAA1EF06AFF002879D0B0
:203C8000384601210DF23D121EF062FF002840F0848196F834009DF83D11884240F07D81CD
:203CA00096F90900401E02D0401E27D061E03846052131AA1CF0ACF9002840F06E813846B1
:203CC000082132AA1CF0A4F920B1173840F06581319832903198329DB06196F82630F56192
:203CE00003F0F00040F0070086F8260020F0A8FE0146304612F064F801203072384641466D
:203D00000DF1D2021DF08CFE002840F0468120F097FEBDF8D2108912B1EBA02F2AD1519AF3
:203D20003046394605F044FD002840F036813846022133AA1CF06CF910B1173803D02CE16A
:203D40003398C6F8F80096F8340000090CD243F2EB4541460B3D60191EF0BBFC7C3D414687
:203D6000601919F047FB08E043F2EB450121873DF6E7FEE7304618F0C1FB96F97A0002281D
:203D800040F00B8186F8798086F87A80304619F0D1FB02E1FEE7002B00F0FF80987E00F0C5
:203DA0000F00072840F0F980519A3046394605F0FFFC96F97C00002840F0EF8096F83400B8
:203DC000000980F0EA8043F2EB40215C31F0030000F0E380FC2980F0E08001F0FC0001F0D9
:203DE0000302FC3043F2EB4100F0FC001043C0B2605430F0030040F0D08043F2F940205C3F
:203E000043F2F9410F4600F00F006054A7F119000121201813F09DFCBFE0634800781D465F
:203E2000414635AA8DF8080038461DF0F9FD002840F0B38004AA3046394618F0CAFE0028E8
:203E400040F0AB8096F9090001280DD006F10C01A94209D1BDF8D410B28C914204D03046AC
:203E600018F04CFB96F90900012840F29680801E0BD0401E012827D8002D00F08E80A87E9A
:203E800000F00F0007281FD087E006F10C00A84240F08380BDF8D400B18C884211D104996F
:203EA0003068884204D1F0799DF81720904208D09DF814209DF8173030461CF08DF801201F
:203EC00030721DF0ABFC7061307A28B904A930461EF02EFA002860D034490888C8B1486849
:203EE00048F24E32A2FB002000EB5200020824BF20F00040401C486083B24FF47A7193FBDC
:203F0000F1F04843509902AA1B1A304611F002FE43E0FEE7519A3046394604F085FD3CE07A
:203F20003046394607F054F937E0519A304639462B4600F05FFF30E0384640220DF1D603CB
:203F400012F018FB8246CDF8008003460DF1D6010DF1D6020AA80BF019FFB98B38460DF1C6
:203F6000D603524612F028F8384651461EF020FEB98B32E5384602211EF01AFE9DF826018F
:203F8000FF2814BF9DF931019DF92701112804D130463946224604F0C8FA0AA820F01AFDA7
:203FA00053B0BDE8F08FC04629630200608000202DE9F04F0D4609AF9846ADF1940D0021A8
:203FC0001E9038781F922C22209006A815F0D4F811A829461BF0E6FC061C40F0A0820AA81A
:203FE00013A9102212F0C4FE06A817A9102212F0BFFE9DF84B00CDF83C809DF85C108DF8C9
:204000004000FF294FF0000008BF012000273C46219458B9A64817A91EF0C1FB88B917A82A
:204020001FF058FE78B11F9868B10EE01F9850B117A91EF0C5FB20B91F98067A06B1012402
:2040400003E0012701E0012021902846282120F0C7FA9DF84A60229621988DF86D00002652
:204060003AE0229800282BD0293841D0801E25D0401E04D00F3821D0401E21D038E0A98B3F
:2040800004AB2846082212F075FA082813D1BDF81200010600F48076090C41EA202189B2E0
:2040A00056EAE10005D1284608211EF081FD002602E0022600E006265EB119E0022617E083
:2040C0001E98294611AA0DF16D0304F0DBFD061C0ED19DF8080022900FB9229840B9A98BC7
:2040E0002846022202AB12F045FA0228B9D00626002E40F01482012F0BD0002C00F0DE80E8
:2041000020980090229B1E98294606AA0EF05BF9D4E0229F292F00F0F581209800901E9842
:20412000294606AA3B460EF04EF93846113841D0293840F0BF801E9CA98B2846082202ABBF
:2041400012F018FA2434082840F0B080A98B688B3A23401A82B2904606A90AA81EF0DBFA37
:20416000AA8B01464346284614F014FE4FF6FF71814240F09B809DF80800802807D1204670
:20418000294606AA0FF072FA061C01D093E00026284608211EF00CFD2468002C00F08B80A8
:2041A00027686068294606AA02ABB847A468002CF6D180E0A98B688B1E9C401A2C3482B2AF
:2041C0009146B9F1080F71D30AA806A9112380461EF0A1FAAA8B01464B46284614F0DAFDA9
:2041E0004FF6FF7181425FD1A98B2846082202AB12F0C0F9082859D1284608211EF0D8FC10
:20420000BDF808106768BDF80A3000260806000C40EA2120ADF83A001806000C40EA2320F2
:20422000ADF838004FB17B68B868294606AA9847002840D13F68002FF5D1A768002F3AD083
:20424000BDF83800398A88422AD19DF81800FF2808D038461EF0C0FE20B9384606A920F0DD
:2042600057F8E8B1BC8C74B1BDF83A00A04217D107F1140318461EF0AFFE20B9184641464A
:2042800020F046F860B1A98B28461EF066FAAC8B2CB9BB6AF86A294606AA98470BE0FEE73E
:2042A0007F6B002FCCD106E0022604E0062602E0D04900200026002E40F0318121980028F8
:2042C00000F01A819DF81800FF2800F0E28006A81FF000FD002840F0DC8094484FF43E5111
:2042E000475857B1384606A920F084FD397C814240F3CF807F69002FF4D10020012800F04A
:20430000C880002743F2C670042488492497FE38239409181C911C980AA93A461AF0D2FB96
:204320000028249059D090F802A0804A43F2C6717E4F1C98525C002443F2C863A146B918AD
:20434000C9181D911D9901221DF076FC071C5BD1002C3AD1249FF8780024C01D07EBE000EA
:20436000001D79780222C919891C1DF065FC031C02D1002CCFD028E0991C1DE048880202CB
:20438000900A18D3B4B1608812B20002921300B2801390420EDB90420DD10A881006000C7C
:2043A00040EA222082B220F04BFB904202D020F047FB00E00C46091D58781818801E884251
:2043C000DCD25878C018801CCBE72188002708062397000C40EA212081B2239A2AB920F047
:2043E0002FFB884201D0002A53D020980090229B1E98294606AA0DF0E6FF061C40F08F808E
:20440000284620F061FC77E0B87882453DD197F803B0381D06A95A461FF036FA8046C14574
:2044200033DA0BF1070007EBE000001D25E08A1C1BE0B4B194F9020092F9023080119B11E9
:2044400098420EDB98420FD113881806000C40EA232083B220F0F4FA984202D020F0F0FAD4
:2044600002E014465FFA88F9D21C48780818401E9042DED248784018801C79780022C919CF
:20448000891C1DF0D9FB011CD1D17878C019801C58E71F9858B11E980078002804BF00203A
:2044A000219029D09DF84B00401E8DF84B009DF84B0028B38DF86C00072101221BAB284619
:2044C00011F07AFD95F82800002140F0400085F82800284620F084F8DFF85080696108F511
:2044E000525029461AF097FB061C05D1404643F2B84140181DF076FF8EB9219878B111E06F
:2045000002260CE0A98B28461EF027F920981F9A00901E9843462946FFF74AFD02E028467B
:2045200020F0D2FB304625B0BDE8F08F501A00202DE9FC47D44C0F460646F80B80F00C828A
:204540006078B90F80F0AC81B90880F09F81DFF84C83F90A80F00281390B80F0CC803809F0
:2045600007D2F80FC0F02E8227F0804716F008F928E220F07CFC81461EF04AFA002800F053
:20458000B480082020F0A8F9002840F0AE80802020F0A2F9002840F0A880684612F084FC8D
:2045A000012803D10098002800F09F8094F84102002840F09A8000250126E8B21FF0C8FC35
:2045C00048B1837A3BB1867290F9090006FA00F0C0B21BF0FDFF6D1C032DEED3032084F8ED
:2045E000240004F5CE7020F03CFC484620F0EAFDC34800252A460168056050F8081CD4499C
:2046000040F8085C04F160001EF062F940460068006B8047A168401A010BE06AC1F1FF3284
:2046200082422CBF08444FF0FF30E06294F8300020B12069E16AB1EBC02F25D91EF0F8F9E6
:20464000294600B13146081C1BD0C24840F6090101804580417B06F00F0221F00F010A43F3
:204660004273017B05F00F0321F00F0143EA01020273294641601FF013FF418811F4406F8E
:20468000FBD084F83060E56219F0BEFCD1482946056002201DF03AFE02201CF02DFB10205F
:2046A0000FF018FF207818B96068503020F0EFFBC948007810B90D200FF00CFF94F83100F3
:2046C00020B184F8315005201CF016FBC348A06284F82450B4F9B400B4F9B610884214BF5C
:2046E0000220072013F0D0FD02E0484620F06AFD27F008073AE720B104201CF0FDFA00205B
:20470000607065681BF0F8FB38B128462D6A6FF4807100224FF00073A847E06858B1404622
:204720000068006B8047E2686168801AC860000BC8600026E660AA4904F1600000221EF0F3
:20474000C7F80221D4F8A00084F8241018B104F1E00020F0A2FB27F4006707E720F087FB0E
:2047600006461EF055F9D4F898100028894600F08480002900F081809A49042504F16000B7
:20478000002284F824501EF0A3F8304620F01AFD04F5CE7020F065FB40460068006B8047FA
:2047A000E0604FF0010884F8018028461CF0BCFAD9F810006060D9F81000816AC90803D330
:2047C000436A294600229847404616F021FE606880F81980606810F0BBF86568D5F808A07B
:2047E00040F60A02D01F564600F1010C00E01E46736833B119888A4203D0884218BF8C4539
:20480000F5D100217160727B08F00F0322F00F0213437373D9F80C201288904224D0604687
:20482000904221D02B8F03B3E96305F13802518095F8440001F00F0320F00F00034385F842
:20484000443095F8450008F00F0320F00F00034385F845307260707B01F00F0520F00F00D0
:2048600045EA0001717300E0E16050461FF018FE514640461DF04AFD02E0304620F0A2FCD1
:2048800027F480679EE0C046E876002009F0F8FED4F8A00008B927F0020793E08C010010C8
:2048A000514A116841F08001116020B104201CF023FA0020607020F0DAFA80464B4800680E
:2048C000016804208847216A81421BD1357ECDB1A568BDB1D4F8A8506DB1E968098840F69C
:2048E0000300884204D0E9680988401C884202D106F1140001E006F110001AF073FB06E0EB
:204900001410044040F6C411316171612062404620F058FC1BF0F0FA80B1356A30466FF4B6
:20492000807100224FF00073A847D4F89800002808BF47F0020701D015F022FFF5690021BA
:2049400030464FF080630A46A84727F0005739E061BA01003066002020F089FAD4F8B060B8
:2049600066B306F1280106C90A234FF0E0450B40154008BF002B21D106F1280191E800037E
:2049800006F1280595E8060006F1280322EA090221EA080183E8060020F014FCB16879B14F
:2049A000B9F1000F08BFB8F1000F09D03069B6F93010B5684B464246A84701E020F002FC4A
:2049C00027F4804727B104F1E000394620F065FABDE8FC8700000460E2620200191F01004F
:2049E0007D0D0100F1290200CC210840E00100102DE9F04F06463078346DADF1240D4008E9
:204A0000C0F0E581A07C00F0FE00A07496F90200401E00F03781801E00F0C180401E16D0B8
:204A2000401E03D0801E00F0158112E1707A2146A07130460EF014FB002840F0C8813079FF
:204A4000411C317121688870042727743AE1707A0423DD4D237405F55351A0710F7896F85F
:204A60003000002F607400F0B28143F2984858F80520002A00F0AB8192F8283001204FF0CE
:204A8000000901F80B0C13F0030F7AD1DFF85CA3C3F38303022B49D10B7A202B11D243F25C
:204AA0005C325159984008420BD0CE490C3A08780B7240F010000870A8181AF091FF4F46C0
:204AC00000E007275FEA070940F0818150461430007858F80520A071D18C4FF6FF7088428A
:204AE00024D143F256314B5B98421FD1BE4B1F885A68891F48F24E3C9E4669180346002FDA
:204B00003ED0ACFB020202EB5002100824BF22F00042521C90B28342F1D0CEF804200246E6
:204B2000084611461CF030FD4046425908F11A016F1853460C39681800901878019037F89D
:204B4000020C0290388842390390681838316B18214602F071FE27F81C0C57F81A0C90F86F
:204B60002810C1F383020A2A01D1CF1103D1A088072806D1FEE7408BA8F10201485326E1EE
:204B8000FEE7A07CB9F1000F00F0FE00A07440F01E813079411C31712168887095E0707A02
:204BA0004FF440410022A071204618F0A2FEF18820461EF007FC06F1420120461BF076FFE0
:204BC00020461FF09DF80025074640F6FF7043F248312B4638807C48BD70425CFB703D1D89
:204BE00012092CD30322AC393A714018202208A97A711EF049FC9DF8200020B9787900F0EE
:204C0000FE00787103E0687840F00100687006F1180104A81DF0ECFF04A90A6806A80260FE
:204C200009790171A91C1DF0A6FA05F1120706F110000168406839601E21786000E0042132
:204C400020461EF0CDFBF078411CF1702168887036E0FEE7D6F880202168E0681546B5E83F
:204C600080502346A3E8805095E8A01083E8A0102160E06020681168928812F079F806F112
:204C80003C089AE04FF6FF711FF06EFE96F82900002240F60301A071204618F02AFE204606
:204CA0004FF6FF711EF03EF920464FF6FF711DF029FA204607211EF00BFE20680021817070
:204CC0000420207496F8300060742068007806F13C08000971D320460DF121011EF0E6FC8C
:204CE0009DF82100002851D0083829D008386DD13F4D2868049005F11F07A760D6F80C1140
:204D00002046491CC6F80C111CF054FC20461FF00DF82268FF2802EB000110D0105C00F03C
:204D200018001FF09BFA0246481D04A912F020F805F10409FF2120461CF0CEFF39E0FEE7E3
:204D4000214D43F2F827A7F1440A0AF114002818A060A07C4FF44C5B08F10609400828D20C
:204D6000E95920461CF026FCE85955F80B10401CE851814203D805F554500AF0E7FE55F8B7
:204D80000A0000F07F00401CC1B2D4E70E4F43F24435A5F110003818A060A07C08F10609EB
:204DA000400806D2795920461CF004FC7859401C7851204649460EF031FD002070714046F1
:204DC0001DF0B6FE18B909E0501A0020FEE70022304621460B23A28000F0DCFD09B0BDE873
:204DE000F08FC046A14D002060800020044F00208C5E02002DE9F04F1446666A05468A4627
:204E000008469946ADF1440D00210DF12A021CF007FE002840F0E681504612210AAA1CF0D2
:204E2000FFFD002840F0DE81BDF828000228C0F2D98151460EAA1FF02BFF002840F0D28179
:204E400095F870209DF840000027824205D105F168010EA81DF068FB10B1002F00F0C281F7
:204E600004F1100002A91EF014FC95F90900022808D105F10C0002A91FF053FA10B10120DF
:204E800085F88000284651466A4617F0A2FE002840F0A881504610210DF141021DF058FECD
:204EA000002840F09F811FF053FD96F903101FF0C3F904469DF84100A042B8BF9DF841401F
:204EC00020461FF067FF80460F210C220BAB50461AF081FF002840F085819DF82D004FF09E
:204EE000010B0A2802D2072840F07C81BBF1000F00F07881D5F8BC3143B302A90A6806A825
:204F0000026049684160BDF82A00ADF8200096F903009DF82F108DF822009DF92E208DF8C3
:204F2000241090119DF831108DF823009DF830208DF8261028468DF825201EF002FF1A46D7
:204F4000D5F8C0118DF8270006A8904795F8A60000F00F00032840F0AB8005F18C0002A99D
:204F60001FF0DFF9002840F0A38095F8B32095F8AC00BDF82AE09DF82830414602F003020C
:204F80008242DCBF95F8B30000F00300884240F088809DF82EC040F2FF11384611EA0E0F22
:204FA00008BF5846B5F8A42039466FF35F2202B95946814273D195F972104FFA8CF08011F2
:204FC000814265D19DF82F1095F873208A425BD195F8A8109DF82DC0994251D1BCF10A0F62
:204FE00038BF4FF4A06006D3BDF835100806000C40EA212080B2B5F8761081422DD1BCF14C
:205000000A0F34BF5A469DF8372095F878109DF83000914217D195F8741081420FD19DF81A
:20502000310095F87510814205D195F87E003A46A04223DA21E081423A461FDA1DE081422D
:205040003A461BDA19E0BCF10A0F34BF58469DF837003A46814211DA0FE0BCF10A0F38BFE5
:205060004FF4A06006D3BDF835201006000C40EA222080B281423A4600DA5A4610460EE049
:20508000994238460BDA09E08A42384607DA05E04FFA8CF238469211914200DA584603465D
:2050A00003E03B468842B8BF5B46181C00F09A805046052104AA1AF0ABFF002840F09280E4
:2050C0005046082105AA1AF0A3FF20B1173840F089800498059005F1B40251461FF0E0FDFD
:2050E00000287FD102A90A6805F18C00026049684160A5F8AE70A5F8B070B84685F8AC80C6
:20510000049BC5F89830BDF82A00A5F8A400059AC5F89C207F209DF8283085F8AD0095F8F0
:20512000A62085F8A83042F0F00085F8A60005F1AA00078096F903101BF0F0F89DF841007D
:2051400085F8A7801FF026FE95F8B31095F8A6609DF82F2000F0030001F0FC019DF92E30DC
:20516000C5F8A090084385F8B3009DF8301085F8732006F0F00085F8741040F003009DF833
:20518000316085F8A6009DF82D1085F8756098119DF8323085F872000A2985F8603038BF71
:2051A0004FF4A06006D3BDF835201006000C40EA222080B2A5F876000A2934BF58469DF89D
:2051C0003700694685F8780006C905F1840080E806009DF834000228B8BF5F4685F87E40F3
:2051E00085F87F7011B0BDE8F08F70472DE9F0470F464FF0000804464146ADF1180D914653
:20520000101C8DF81210D4F8C8108DF8088001F10101C4F8C81040F09481002F00F0C881D5
:2052200020784008C0F09E81384618F07EFE0546FF2D08D0BE8838461DF028FF4019864255
:20524000A8BF464600DA06265FEA060940F079813846694617F013FD38460DF10A0117F001
:20526000E3FC9DF90800DFF820A3401E02D0401E2ED02BE043F2245909F1820E5046AEF10F
:20528000020CACF17E01BDF80050435C4246012603F00F03072B04D0012B18BF062B05D17C
:2052A00026B11EB130F809309D420BD010F80E3003F00F03072B07D130F80C309D4203D1C1
:2052C000663100E01A394218104605E0404603E0C148694616F07CFC05469DF91200401E7F
:2052E00013D0401E35D1384605A91DF0B1FEE088BDF81410884240F0418104F142010DF14C
:205300000A001FF00EF820BB38E1384605A91DF09FFEBDF814104FF6FF70884205D0E1880F
:20532000BDF81420914240F029816178890809D39DF912204146012A03D1BDF80A20904292
:2053400007D031B9B4F84000BDF80A10884240F015819DF90800401E02D0401E0BD012E048
:20536000002D00F01F812968684601606E68466002238DF8083004F1420168461EF0D1FFAE
:20538000002840F009819DF912004146012805D1BDF80A004FF6FF72824206D029B9D4F840
:2053A000CC00401CC4F8CC0004E0D4F8D000401CC4F8D00039466A462B4605F039FA814646
:2053C00038B11D3840F0BA8094F90200062840F0B580504643F2F846805D40080ED31AF8E2
:2053E00006003B6800F087000AF806001878400904D3A6F11800504410F07EF945B397F993
:20540000101005F11E001AF089FF3868017808091ED3A87E00F00F00401E04D0401F02D023
:20542000401E15D0BEE001F00701454603298DF816500AD138460DF116011DF0E9FB20B9B8
:205440009DF81600042808BF0125002D00F08A8094F90200401E13D0401E16D0001F19D144
:205460009DF9120040B104F174001FF071F820461FF0A2FC0BF074FAB9F1000F0AD060E063
:205480003868007810F0070F4FD0207A94F82910884244D13868007810F0070033D0401E01
:2054A0002BD0801E3BD138460DF117011DF0B0FB9DF817004146001F18D0C01E10D1D4F836
:2054C000E0002778401CC4F8E0007808C0F08180607800097DD32046032115F041FE78E0CD
:2054E000D4F8E400401CC4F8E40004E0D4F8D800401CC4F8D80059B16BE0D4F8D400401C37
:20550000C4F8D40004E0D4F8DC00401CC4F8DC00943E39460AEB060001F0DCFE0EE0D4F8AA
:20552000E400401CC4F8E40008E0D4F8DC003946401CC4F8DC0020461CF0D1FDB9F1000F8F
:2055400047D0484608383FD0093837D0401E2FD0401E27D0401E1FD0401E17D0401E0DD090
:20556000C01F05D0D4F80801401CC4F8080130E0D4F8F000401CC4F8F0002AE0D4F8EC00EB
:20558000401CC4F8EC0024E0501A0020D4F8E800401CC4F8E8001CE0D4F8FC00401CC4F8E9
:2055A000FC0016E0D4F8F800401CC4F8F80010E0D4F8F400401CC4F8F4000AE0D4F80401AE
:2055C000401CC4F8040104E0D4F80001401CC4F8000106B0BDE8F087504F00202DE9F04FFE
:2055E00009AF38897C680D469346ADF1240D0228059304EB000106948846C0F0C5812078AB
:20560000667846EA002670134003B0F5C04F40F0BB814FF0000A01208DF804A0310A8DF81D
:205620000CA004F102040790DFF85893089017D3A04540F2A981217848466A46091114F0B2
:2056400079FE08B1CDF81CA014F8011B02AA484601F00F0114F06EFE08B1CDF820A009E09F
:20566000484651466A4614F065FE4846514602AA14F060FE28465146282213F07DFD504659
:2056800006F4C05260232860B2F5C05F2B702FD0A04540F2798120786978801020F00F005A
:2056A00008436870310B0CD221782A7814F8013BC1F383011143297003F0030140EA811053
:2056C0006870700B14D2E01C8045C0F05D81207869786278AB7800F00F000843A178687091
:2056E000E41C42EA0300EB78A87041EA0300E870F00A4FEAA62907D2A04540F2458114F8B6
:20570000010BA871504600E001208BF8000006F44070B0F580700FD0B0F580700AD0B0F518
:20572000807005D0A04540F22F8114F8010B04E0FF2002E0402000E00120E87116F03000F0
:2057400026D0103818D0103802D010382FD034E0A01C8045C0F0188105F10800FF2105F1D0
:205760000803C172FE221A73218805F1080303F10E00A41C018020E004F108008045C0F0DF
:20578000038105F1080021461FF0D6F8083414E0F00912D204F110008045C0F0F58005F151
:2057A00008002146102211F0E3FA103405E0059805F10802694614F01AFB16F0300F10D0B7
:2057C000F00909D30798002800F0DE8005F1080168461FF011F904E005F1080048F2FE01FE
:2057E0000180300952D216F003002BD0401E1DD0401E07D0386805F1180202A914F0F7FAF7
:2058000078B3C1E0A01C8045C0F0BE8005F11800FF2105F11807C172FE233B73218805F169
:20582000180202F10E00A41C01801AE004F108008045C0F0A98005F1180021461FF07CF87F
:2058400008340EE0F00880F09F8004F110008045C0F09A8005F118002146102211F088FAD9
:205860001034F00808D216F0030F7AD005F1180048F2FE01018074E00898002800F08480D8
:2058800005F1180102A81FF0B7F86AE005F11800FF210170F0083FD216F0030030D0401E38
:2058A0001FD0401E0BD0A0456ED905F118000221417014F8010B05F11807F87351E0201DAC
:2058C000804561D3207805F1180105F11807661C487007F10D003288B1780280241D81703D
:2058E0003FE0A01D80454FD3207805F118014870601C027905F1180707F10B010A712DE0EE
:2059000004F1100080453FD305F118002146102211F02EFA103424E016F0030F34D1A01DB9
:20592000804531D3089878B3207805F118014870607805F11807B8709DF80C0005F11806AA
:20594000F070029905F11803181D0A684968026005F118074160A01C07F10C010068A41DE1
:2059600008605FEA590009D3A0450DD9217804AA18F0B6FA40B99DF81000A8710698201AE8
:2059800004E0C046185100204FF0FF3009B0BDE8F08F70472DE9FE4F0D460746A888984681
:2059A0001646E8B10846002469468DF8084017F03BF99DF90800012805D1BDF800004FF632
:2059C000FF71814200D05CB17879401CC0B2787128B907F13C001DF0ABF8BDE8FE8F7C712B
:2059E00097F90200401E00F09D81801E00F08D81D24C401E00F0AA80401E03D0801E00F0B8
:205A0000898181E1A8884FF0000920B1286800788009C0F09A80B8F1000F10D17EB13878FE
:205A200040080CD330680078400908D307F1740064211EF0D6F83846062115F091FBD7F839
:205A4000A000401CC7F8A00038461FF0B5F9204643F2F844215C8DF8089000F5145A49088B
:205A6000C0F05B810646A88858B12846694617F0DBF8A4F19400294642466B4630180EF007
:205A8000A5F91DF0F3FC807E183C331910F00F0F53D05FEA0801484616D00B3942D0091F49
:205AA00040D09AF8F91F01F0F002491C01F00F0111438AF8F91F01F00C01042925DA9AF839
:205AC000F81FCA081ED22FE09AF8F91F31F00F0614D001F00F0201F0F001F03101F0F00133
:205AE0001143CEB28AF8F96F36F00F0606D19AF8EB0F00F003008AF8EB0F01209AF8F81F11
:205B0000C90802D2012813D007E19AF8F80F00F0FB008AF8F80F9AF8F90F00F0F0008AF8E3
:205B2000F90F05E09AF8F81F41F004018AF8F81F1846012111F00DFEEFE018461AF0CAFD76
:205B400006F5545016F0DAFCE7E0FEE7D7F89C00B8F1000F4FF0000900F10100C7F89C0066
:205B600004D0D7F8B400401CC7F8B40038461FF023F9CA46B8F1000F8DF8089009D0B8F1EF
:205B80000F0F06D0B8F10B0F18BFB8F10E0F40F0BA80204643F2B5468119CC7A81F80090C8
:205BA000002C00F0BA800446A88860B12846694617F03AF8A6F15100424629466B462018E6
:205BC0000EF004F98246A6F11D056119DFF870B10868002800F08D8000F1280C9CF8002069
:205BE000D209C0F08F80B8F1000F08D090F8292002F0F70280F82920428B21F8022C1F3E8D
:205C0000A319428B19888A422DDC9CF8000000F0BF008CF80000D3F8020049461EF0E0FC78
:205C2000BAF1000F0AD0D3F8021091F829100AF124008022C1F3C0011CF04AFF63191968A9
:205C400091F8282012F0030F13D191F82900000903D2186C401C18640BE006F13A031859FF
:205C6000401C185105E01EF0BBFC2046295891F82820C2F3830EBEF1020F31D0D00938D213
:205C800001F11F030220C84613F801CFBCF1000F2FD1401EF8D1B8F1010F2AD0BEF10A0F87
:205CA00010D1D3110ED09F36A01990F90020062A08D1012180F8481004F5545008F08AFDF3
:205CC0002046295804F5525016F02DFF661930681EF0FAFF28464946015126F8029C08E0FF
:205CE000012158462E3E01704FF49671A0191DF078FF58460B30007878B1203560191CF02C
:205D000071FB0AE0FEE7FEE7FEE7D7F8A400401CC7F8A40038461FF04FF838460AF020FEE2
:205D2000BDE8FE8FD7F8A800798D401CC7F8A80007F174001DF055FFBDE8FE8F501A002068
:205D4000054F00202DE9F84F1E460F4686464FF017084FF0060B4FF0030A12E06A780023FC
:205D6000291ABB708918891C79703AE09CF801100025ACEB0E007D702C46BC704018801C7E
:205D8000387039789EF8FE200EEB010C64468A4240F29981217800204D106D1E16D02D1F5B
:205DA0001DD1B568DDB1A578A21C35F07F050CBF0421011C6046857835F07F050CBFC37966
:205DC000C3785B189B1CD9B2501808E035680DB9756825B1E178C91D04EBE100001D002819
:205DE000C4D061787D7809192D18891CA942BDD921780122B2EB610F6FD02978BBEB610FF5
:205E0000ACD1B9780029A9D10020804670604FF40172B068C6F80080414613F0ADF9A07827
:205E2000B16800F00F000870A07830F07F0013D1D4F80310D4F80300D4F80330D4F803209B
:205E400001F47F41000640EA0120190A01F47F41014341EA126101E04AF6AA71B06841608D
:205E6000A07830F07F000CBFE079E078B16808722146887830F07F000CBFC91DC91C002898
:205E800001F1010114BFE278E279B068093010F06FFFB268297892F8060101F0010100F098
:205EA000FE00014382F806116878B168801E81F80701B0686A78291D00F58470921ED2B29A
:205EC00010F056FF6988B4680806000C40EA2120A4F800020125BD70F5E02978E1464B10F2
:205EE00000F09B809B1E7FF439AF316800293FF435AFB9784A1CBA706A78B1EBA20FBFF605
:205F00002DAF4FF00008404605EB8107B06018223068C6F80480414613F02EF9E278306899
:205F2000211DD21DD21010F023FF99F803003168BF1C0874316878880C69000200B2821157
:205F4000120A62F309240C6132687988507CC1F3D40101F0040100F0FB00014351743268C2
:205F60007988507CC1F3560101F0080100F0F7000143517432687988507C0902C90901F02A
:205F8000100100F0EF000143517432687988507C0902490901F0200100F0DF00014351745A
:205FA00032687988507C0902C90801F0400100F0BF000143517432687988507C09024908F1
:205FC00001F0800100F07F000143517432682978907C01F0010100F0FE00014391743988A5
:205FE00033680806000C40EA2120988232687988907C0912890901F0FE0100F0FD000143F2
:20600000917432687988907C0912090901F0040100F0FB000143917455E0716800293FF413
:206020009DAEB9784A1CBA706A78B2FBFAF2D2B28A427FF793AE4FF0000801EB41044046D4
:2060400047461822B06041467068376013F094F899F80320706809F10401D21DD21010F088
:2060600087FE99F8030071686419A41C0874716894F902008211486962F3010048617268F0
:206080002978107D890001F0040100F0FB0001431175218873680806000C40EA21205882BB
:2060A000218872680806000C40EA212083B21EF0C7FC4146984208BF0121107D00F0F70014
:2060C00040EAC10010754046BDE8F88F2DE9F04F0E46074630687C68BD68ADF1140D002820
:2060E0003AD01EF0C4FED4F8E81081460120019008294FF0000088BF0198B168084202D103
:206100007168084205D0019880F00100C0B201281DD1D4F8C000B8B9C4F8C060C4F8C4603B
:206120000020C4F8D0000146C4F8D41094F8FC30C4F8D810002BC4F8DC100CBF0198052014
:20614000D4F8C410087410E094F8F80030B90320307448461FF036F8002050E1D4F8C40053
:206160004661C4F8C46006233374D4F8C4000021416194F8FC00012808D1022194F8FB0041
:2061800084F8FC104FF4E0211AF03EFD706810F0704F06D128B104201AF0C6FD06201AF086
:2061A000C3FD02201AF0C0FD94F8F800DFF85482002840F0B480E86B3168884240F2AF8062
:2061C00094F8FC00002840F0AA8094F8F90028B1D4F8EC00B0F1FF3F40F0A18048461EF0D3
:2061E000F1FFB768AA463FB1D4F8E800B94609282CBF0220019802E004F1F4090020776853
:20620000039037B1D4F8E80009282CBF0220019802E004F1F60700200290DAF80010D6F842
:2062200000B048685FEA0B0540F0020048604ED04046A0F11008D4F8E800ABF1010B0928F1
:2062400020D3019803460DE0D8F800108A68398890470346002003B10198031C02D00298D1
:206260006D1E3F18DAF800000DB1012BECD0D8F80010C9680A4669469047BDF80000A9F887
:2062800000001FE0019803460DE0D8F800108A68397890470346002003B10198031C02D02F
:2062A00002986D1E3F18DAF800000DB1012BECD0D8F80010C9680A46694690479DF800006E
:2062C00089F800000398BBF1000F8144B3D17768DAF80010D4F8F030CA680020134218BF73
:2062E0000198102B18BF80F001000028F4D117F0704F06D12FB106201AF0FEFC04201AF0C0
:20630000FBFC02201AF0F8FCD4F8C010002008740746C4F8C4703E46C4F8C0606EE0D4F877
:20632000D800002843D1D4F8DC00002842D128791EF09FFD4646D4F8CC0032682969406823
:206340005268006891FAA1F1B1FA81F1134602229847D4F8CC0032686969406852680068B7
:2063600091FAA1F1B1FA81F113460222984728791EF079FD28791EF07EFD2046294609F06A
:2063800065F80021D4F8C000C4F8E0100068B0F5806F03D92046294609F058F894F8FE00C7
:2063A00060B92968486840F00200486006E0D4F8DC0018B92046294609F048F829684869FA
:2063C00040F00100486148461EF0FCFE94F8F800A0B9D4F8EC1004F16C0528461DF011FFB7
:2063E00060B1D4F8C00003210174384607F03EF8284600211DF005FF00200190019805B01D
:20640000BDE8F08FD40100102DE9F04FB74C0020ADF12C0D44F2012105900022029002ABD6
:206420001020039008200490204605F023FDDFF8EC8208F10401086000210A462046134687
:2064400005F018FD0A9017F069FC17F08DFC1BF011FAA74E00219422304612F08DFEA54DC5
:2064600000219422284612F087FEA34F00219422384612F081FEDFF8849200219422484636
:2064800012F07AFE35607079012161F3830070718C23F3802F6068790C4664F38300687193
:2064A000EB80C7F80090787964F383007871C9F80060FB8099F8050064F3830089F80500DC
:2064C0008F4D6E610022AA618E4FAA848E492F628E48A9F80630C8C80A46C8C249C882E8DF
:2064E0004900087B64F3C71008730DF0D3FA022105F10C001AF0C8FDDFF814A200208AF83A
:2065000000001EF0E9FB43F624460746F05D78B9804813F0BFFB07467F4AF455104612F0DF
:206520007FFB11680020884707F5545009F0BEFC404607601CF00CFA17F01CFD18B91CF02A
:2065400007FA0AF09DFE1EF0B5F9764EDFF8D881734883460A9869460822002319F01CFEB0
:206560000028F7D40828F5D11EF09EF99DF80000002871D0401E14D0401E00F0B080401E71
:2065800040F0B18001988008C0F0AD8069490020CBF80000DBF80400202200231CF068FA5D
:2065A000A1E01CF0D5F98146019C9AF80000401E44D0401E30D0401E1BD0401E40F09380D0
:2065C000200A0FD2600803D3484621460DF0FAFD14F00C0F03D04846214611F0E1FFA00918
:2065E00037D280E00B206870012148460DF0EAFD79E0A00810D302208AF80000286917F07B
:2066000001F9B8F80200B0F5105F14BF7F2198F9121048461DF078FD14F00C0F03D0484604
:20662000214611F0BDFF2B69A00901D31DF010FAE00958D3184617F0E5F854E02B69600987
:2066400004D31DF005FA184613F002FA14F00C0F49D01DF0FDF946E01CF07AF90446307828
:20666000002840D01BF0DAF8B7687168401AB84210D22E491EC906A880E81E00F06806A93E
:2066800016F04AFD089800282DD1099858BB1CF095FF28E0002030701EF0F6F9D8B92046D7
:2066A0001EF032FBF8B104F10409D9F8007077B11F48006880477968401A000807D2201D9C
:2066C000394619F033F93968384688470BE0484618F028FD07E020461EF07DFA03E01CF0B1
:2066E00037F91DF039FE1EF0E5F833E7C4620200405D0020D45D0020685E0020FC5E00208B
:206700009883002094600020006600201058020086660020501A0020B8890020D8660020E5
:2067200050640020B48B0020E86500208C5C02000C630200586400202DE9F8431EF0F0F83B
:20674000044694F935200027032A03D0042A18BF052A23D194F8B30094F8AC1000F0030044
:206760008842B8BF011C032901D0032A16D094F8A60000F00F00032810D194F909000228AE
:2067800006D194F8800018B994F97100032805D1204608F01FF8002800F04D8194F9351019
:2067A000081C00F04781DFF8A882401E00F00F81401E00F0EB80401E00F03481401E1FD015
:2067C000401E02D0401E53D028E1454643F2082000976946281817F033FE18B143F25C30CF
:2067E0004059009004F58571684618F08FFF00283ED194F80A11204601221BF096FCC3E096
:20680000009794F90910384602292ED094F936605EBB454642F22821691891F8F12F0646DA
:20682000920803D391F8FC1F490804D31EB994F83410890819D243F208206946281817F0A6
:20684000FFFD18B143F25C304059009068461BF0C8FF4FF4AF61401C91FBF0F080B26087D5
:206860005028BCBF5020608784E0012800F08280204639461DF094FF04F18C001DF0E0FB61
:2068800094F9361073483D46022906D003292ED184F8365010F086FE29E04430064610F06C
:2068A00081FE10BB30461AF05FFB0320022184F8360020461DF074FF67490888A0B10846F7
:2068C000416848F24E32A2FB011505EB5105290824BF25F000456D1C32214560B5FBF1F0DC
:2068E00048432D1A6D1C02E0FEE784F8365094F9360000283CD194F9710030B1401E33D03C
:20690000401E2FD0801E2DD032E094F90900022816D0B4F80C014FF6FF7686420CD04F4F12
:2069200094F80B11384615F091FDB4F80C1138461AF02AFEA4F80C61204615F0DFFD17E0DE
