:020000040005F5
:2060000000400120C3710500E57105000B6B0500DF710500DF710500DF7105000000000011
:20602000000000000000000000000000DF710500DF71050000000000DF710500DF7105000C
:20604000DF710500DF710500DF710500DF710500DF710500DF710500DF710500DF71050098
:20606000DF710500DF710500DF710500DF710500DF710500DF710500DF710500DF71050078
:20608000DF710500DF710500DF710500DF710500DF710500DF710500DF710500DF71050058
:2060A000DF710500DF710500DF710500DF710500DF710500DF710500DF710500DF71050038
:1860C000DF710500DF710500DF710500DF710500DF710500DF710500CA
:2060D8002DE9F04F9BB0B4484FF47051006801EA8020B249086000F067FC002800F0B28015
:2060F80003AC0DF138094FF0FC0A4FF0000B5FFA8BF008212246000300F030FD204600F030
:20611800C9FF70B9204600F0B5FF40B90BF1010B5FFA8BF02C28EAD34FF0FE0B01E04FF01E
:20613800FF0B4FFA8BF8B8F1000F00F189804FEA083634214A46304600F010FD9DF8480013
:20615800FE287AD19DF84400032876D19DF84500012872D19DF84900FC286ED01498199F81
:206178003844B0F5801F68D838462C2122468DF80BA000F0F3FC0999384600F0CBFD0546A2
:2061980001305AD00A98A84257D309994A19904253D838462A4600F03DFB824646F01000B0
:2061B80001210DF10B0200F081FBBAF1000F4FF0FC0A4FF0000240D17848099B00920022C5
:2061D8000168C5F3473000F0EBF80599884222D1FE200DF10B0601216D0B8DF80B004FEA51
:2061F80048303246113000F061FBE8B211213246012300F069FE9DF81E00072814D801215B
:2062180001FA00F010F08B0F0ED000F029FE0A9800F0D0FF08E007F1110001210DF10B026D
:206238008DF80BA000F042FB07F1100001210DF10B028DF80BA000F039FB0BF1010B56E71B
:2062580000F00EFE4FF000080EAC01254FF0FE0A0DF10C0900264FF0000B30462146082232
:2062780000F0E6FE204600F005FF002846D0304621462C2200F0DCFE9DF84A0007283DD882
:2062980005FA00F010F08A0F38D0149B581C022834D3B3F5B02F31D81598B0422ED3F118C9
:2062B80088422BD89DF84410032927D19DF84510012923D19DF84910FE291DD0FF291DD1CC
:2062D800364800228DF80CA0CDF8008001685FFA8BF000F065F807461098494687421CBFDE
:2062F800FC208DF80C0006F11100012200F0D2FD1098874202D1159800F05CFF0BF1010BAB
:2063180006F50056BBF12C0FA7D100F04DFBE0B30EAA0020342100F021FC9DF84900FE28AC
:2063380033D11499199D4819B0F5801F2DD8284600F0F0FC0446013027D01598A04224D3F2
:2063580014990A19904220D82846224600F062FAC8B91248149B0022016800200090C4F3ED
:20637800473000F01DF8109988420CD1600BFE2101238DF80C10C0B203AA112100F0A4FD08
:20639800159800F017FF00F06BFD00F0C6FE00201BB0BDE8F08F00BF30240340000400209D
:2063B8002DE9F04F8BB08046581C022803D200200BB0BDE8F08F14981E460C46B3F5801F54
:2063D80001D90028F3D1B6F5B02F01D90028EED0069238B14A4A404600214FF4807300F0B3
:2063F80013FE06E0464808FB04F14FF4807200F089FE701E0123424F4FF0FF39B0FBF4F112
:2064180001FB1400013082B2C5B2100A002D18BF03EB12200190424608BF4FF48075059588
:20643800029401EB0800C0B208900898D3B2834263D801984FF0FF3118BF200A51FA80F1C6
:206458000792C0B20A91099003FB04F0002400F580700490501C039009985FFA84FB584541
:2064780048D90A984FF480769A4645465845059808BF0646089883424FF4807018BF064695
:20649800079880EA08004FF0000820430006069808BF00F10C081FFA88F086420AD9385CE9
:2064B8005FFA89F1484000F0D5FD80EA192908F10108F0E7149830B10A9858450CD10398DE
:2064D8000021C0B20DE004984FF4807200EB0B21384600F017FE09E04FF4807000EB0B2186
:2064F80050463A464FF4807300F08EFDA84653460134B1E7DDE9024297E76FEA090057E741
:20651800000300202DE9F84315460C46804600F00FFA2C4800212D4F01602B48814600686F
:206538003868816927208847294E2A49306B08403063B06F20F48070B0673868016B4FF4BA
:20655800806088473868016B4FF4816088473868016B4FF4C06088471F48012101601F48E6
:20657800C6F8804131600168890704D4691C08BF4FF04045C560D9F80000F0698007FCD56B
:20659800072000F065FB0228FAD1B8F1000F13D1134C386A8168204688470428F9D001289E
:2065B80004D1386A0321426820469047D6F8180220F00300C6F818023868806BBDE8F84303
:2065D800004700BF0C4009402C200940B80100100C200840FFFFFEFE282008601000094033
:2065F8000040034070B52548066800F0F9FC24480025244C0560206C806C804722480068A4
:2066180038B122480068B6F1FF3018BF304600F051F81F4840F2391205601E48016862F3DE
:206638001B4101601C48016801F44051B1F5805F06D10168194A114001F5003202600160CE
:20665800174D0126EE612068016A142088471548016841F4E021016013482E60006800F4B0
:206678004000B0F5000F03D1206C416C0F4888470F4801680029FCD170BD00BF1C130050BA
:2066980084046042B001001080012843800520438C2108404820034028000940EFFFFCFC2C
:2066B8000000244300200940B44F0050BD3786000C006842F8B505462248234E4168890763
:2066D80005D40168F02242EA114186F84D101F494FF001221F4F0A601D490988396809684A
:2066F800846820468847A00105D4E00103D5307840F00200307038682146426828469047BE
:2067180000F05AFC1448154A0068C0F305311170C1054FF0130158BF232140237354382197
:2067380001EA901000F56050A2F85C003868816820468847022000F025FB09480121016057
:20675800F8BD00BFAC4F00500962084004A40C4000A00C40F00100100C1400500EB00C4054
:20677800940460422DE9FF41254E054688463068416906208847062000F08CFA0128FAD11E
:206798003068C1694FF4A06088471E4C1E4F0120206038688007FCD53068C1694FF48070A8
:2067B80088470120206038688007FCD5174F184900220023386920F00F0038610320F86178
:2067D800F06804680820CDE900504FF08040A04756F8040C082109224FF0FF33446C4FF0B7
:2067F8008040CDF80080A047386840F00200386003ACF06800F0D4FC0028FAD1BDE8FF814C
:20681800B8010010282008602820084004000040006CDC022DE9F043C1B0814690070DD1D3
:2068380088180D461446411E1F480068B1FBF0F1B2FBF0F68E4298BF2C2904D9FF2040B23B
:2068580041B0BDE8F083B5FBF0F101FB1050002818BF0131C8B250FA86F7F0B2874205D96F
:2068780000F0E4FA0136FF28F7D1E7E74FF480760DF10408B5B1B0B24246854238BF2E4679
:20689800B7B24846394600F069F90028D6D0204641463A4600F0FEFA0028CFD1ED1B3C44A5
:2068B800B944E7E70020CAE7000400202DE9F84F06461E4814460D464FF002094FF0000AB1
:2068D800E84683467DB300F015F948BB00F05EFB30BB300A8DF800908DF803608DF8020086
:2068F800300C8DF80100F0B28BF800A0C0F580774046BD4238BF2F46042100F031FB60B902
:206918002046394600F02CFB38B90121ED1B3E4458463C448BF80010D4E701208BF80000B6
:206938000020BDE8F88F0120BDE8F88F1420024010B517480168890726D417480468A002AC
:2069580021D41648006800688047C0F13E000722C1100729B8BFC210012000EB24718A4266
:20697800D8BF0A460E490968C1F30321891A0F29A8BF0F210129D8BF014641F0F00009498B
:2069980081F84D00087810BD0249C16010BD00BF10000940FD000040B44F0050EC010010EE
:2069B8000C1300500D620840BCB518480A21FFF7D9FE17480068C16B14208847154C012553
:2069D800AB20012125708DF80700002020700DF1070000F0C5FA257088B94FF4C870ADF837
:2069F8000400BDF80400BDF8040028B1BDF804000138ADF80400F6E700F07CF818B100F09B
:206A18002FFA0020BCBD00F007F8BCBD00093D00B401001014200240BCB51648164D04215C
:206A380001900020287001A800F09AFA10B10120287007E0114C0221204600F0BFF90121B7
:206A5800297008B10020BCBD0D4B2278647803F12001186840B11D79AA4202D15D79AC42C6
:206A780001D00833F5E71946064A0028116018BF0120BCBD90FFFF00142002400404002031
:206A9800E871050008040020F0B540F6FF7C10F8013B0024082CFAD00646DF0716F8015BFC
:206AB8000AD1467806F00F070337122F0AD187783A0609D403300DE001F8015B3046013487
:206AD8005B08E7E7023006E0C27807F07F07043047EAC2171237320942EA0515654508BF25
:206AF800F0BDED43002FEAD04A5D013F0A700131F8E7FEE72DE9F843174E05204FF000083F
:206B18008DF8030086F8008000F0F0FA4FF001090DF103040DF10205022786F8009020460D
:206B3800012186F8008000F01BFA2846012100F045F986F8009000284FF001009DF802103D
:206B580008BF27EA41000028E9D002280CBF00206FF00100BDE8F883142002407CB515468C
:206B78000C460646FFF7C6FF0146002001B17CBD03218DF807608DF80410310A8DF80610D3
:206B9800310C0B4E8DF805100421307001A800F0E7F918B10120307000207CBD28462146B7
:206BB80000F00CF9B0FA80F00121400931707CBD1420024070B5104C2068016A4FF480704C
:206BD80088470E4E0E4D0120306028688007FCD52068016A4FF4A060884701203060286838
:206BF8008007FCD52068816906208847062000F051F80228FAD170BDB801001028200860C4
:206C1800282008400E480F4A0F4B0168825800680340D0B20D4A7F2888BF0020934207D141
:206C3800090F022906D307D0032901D1153004E0FF2002E00A2000E00B3040B2704700BF74
:206C58001813005088FDFFFF00F0FF0F0010B40B0F49C3070A68496D01D1002106E001F03D
:206C7800040102F00103C91818BF0121830744BF02F0020341EA5301400744BF02F00400E4
:206C980041EA90010220002918BF0120704700BF402108400F49C3070A68496D01D1012180
:206CB80006E001F0040102F00103C91818BF0121830744BF02F0020301EA5301400744BF03
:206CD80002F0040001EA90010220002918BF0120704700BF4021084070B50A480A4C844235
:206CF8000DD00A4D0A48461B4EB1D5E9000110F8012B54F822209047083E0835F4E700BF21
:206D180000BF70BD34720500287205004872050058720500FEB50C4605462C276E467819AF
:206D38000C213246FFF71AFF58B19DF8000001280AD001994FF0FF3011B10F44A742EED31F
:206D5800FEBD4FF0FF30FEBD0298FEBD10F1240FD8BF6FF023001B28A8BF1B202430032138
:206D78000F22A1EB101122EA000022FA01F14FF6FF7222FA00F040EA01400149086070476D
:206D980018A00C40B0B50A490A4A0B4B0C684D68AC42FCD1844208BFB0BD155C145DAC42C7
:206DB8004FF0FF3538BF01252C441C5D0C60EDE700600C402072050024720500F8B50C4F1C
:206DD8000C4605466E466CB13868002182684FF08040904740B100F0D7F90098013C05F829
:206DF800010BF0E70020F8BD4FF0FF30F8BD00BFC401001070B50B4E0B4C30688168204650
:206E18008847054600060AD03068002142682046904730688168204688470028F9D1E8B27E
:206E380070BD00BFD801001000400340B0B50446FFF7E0FF0546600300F04AF904462DB155
:206E5800054801210068426804489047E0B2002818BFFF20B0BD00BFD8010010004003402E
:206E78007CB5B9200A4D0024012101268DF807000DF107002C7000F073F82E70092C04D8F5
:206E98000134FFF7C9FD0028F8D1FFF793FE7CBD14200240F8B514460D460646FFF7AAFF7D
:206EB80000F078F904462FB1054801210068426804489047002C18BFFF242046F8BD00BF8B
:206ED800D801001000400340F8B51C46154601EB4036FFF78FFF00F05DF904462FB1054821
:206EF80001210068426804489047002C18BFFF242046F8BDD8010010004003400A4880F3B1
:206F180008880A48016841F47001016000BF00BF00F055F908B1FFF7DFFE0020FFF7D0F8E1
:206F3800012000F04EF900BF0040012088ED00E007480068C00608D40648074900680840C5
:206F58000649884204BF012070470020704700BFB04F00505013005000C4FF3F00C0071CE8
:206F7800F8B5094F0C4605466E4654B1386815F8011B42684FF08040904700F005F9013C2A
:206F9800F3E70020F8BD00BFC4010010BCB50620084C012101258DF80700002020700DF129
:206FB8000700FFF7DDFF2570002818BF6FF00200BCBD00BF1420024080B5FFF7B9FF60B149
:206FD8000648006881034FEA00414FF0000058BF0816BDE88040FFF7B9BE80BDB44F00500F
:206FF80080B506480649006808400649884204D1FFF708FE1328C8BF80BDFEE718130050AE
:2070180000F0FF0F0010B40B70B51C46154601EB403600F09FF8210405D016F8011B013C5F
:2070380005F8011BF7E708B900F0A8F8002070BD70B514460D46064600F08CF82CB116F826
:20705800011B013C05F8011BF8E708B900F096F8002070BD10B5064A08210B0608BF10BD58
:2070780082EA5003C40708BF430801391846F4E72083B8EDB0B5064907231A46002B04D460
:207098008C5C855C531EA542F7D0D00FB0BD00BF18720500B0B5064907231A46002B04D415
:2070B8008C5C855C531EA542F7D0D00FB0BD00BF1072050080B5044B1B689B699847034908
:2070D80000220A6080BD00BFA80100108404604280B50449096849698847034900220A60E1
:2070F80080BD00BFA801001084046042BCB5044D01AC286800F054F80028FAD1BCBD00BF33
:20711800C4010010B0B538B1431E013922B18D5C541E9D542246F9E7B0BD80B500F028F880
:20713800002000214FF0FF32BDE88040FFF7EAB910B500239A4208BF10BDCC5CC4540133BC
:20715800F8E7D0F80300002218B101F8012B0138FAE7704780B500F00BF8002818BF012044
:2071780080BD0B46D0F80320C11D184600F02CB80020EFF3108072B6704770470020EFF344
:20719800108062B67047704738683146C2684FF0804010470746284631462246FFF78ABF51
:2071B800214602694FF080401047FFF71BFAFFF7A5BEFEE7016881F30888406800470120C9
:0E71D800704700BFFEE7FEE7FFF7B2BFFEE71D
:2071E80000002000C215000000001000C214000000000800EF12000000000400EF1100009D
:2072080000000000000000004F4144204E564D314343323678325231010200030200010329
:20722800A16A05007B7105005B7105000000000002000000060100000001000000FFF0007B
:107248003872050000030020407205000804002081
:207FA80000008001100080FFFDFF5800FFFFBBF3FFFFFFFFFFFFFFFFFFFFFFFFFFFFFFFFB9
:207FC800FFFFFFFFFFFFFFFFFFFFFFFFFFFFFFFFFFFFFF00FFFFFFFF00FFFFFF00C5C5FF2A
:187FE800000000FF00600500FFFFFFFFFFFFFFFFFFFFFFFFFFFFFFFF2D
:00000001FF
