:020000040005F5
:2060000000400120D7710500F771050057700500FF700500FF700500FF700500000000003D
:20602000000000000000000000000000FF700500FF70050000000000FF700500FF70050090
:20604000FF700500FF700500FF700500FF700500FF700500FF700500FF700500FF700500A0
:20606000FF700500FF700500FF700500FF700500FF700500FF700500FF700500FF70050080
:20608000FF700500FF700500FF700500FF700500FF700500FF700500FF700500FF70050060
:2060A000FF700500FF700500FF700500FF700500FF700500FF700500FF700500FF70050040
:1860C000FF700500FF700500FF700500FF700500FF700500FF70050010
:2060D8002DE9F04FE3B00FAE0D46002108230446324600F08EFF304600F0C2FF002800F0E6
:2060F800B5800FAA204600212C2300F082FF9DF84E00A84240F0AA80149801F009F8002866
:2061180000F0A4809DF84800032840F09F809DF84900012840F09A809DF84D00FC2800F0B5
:2061380095809DF84E10072900D0B1B9FF2814D1FE20159B00228DF8CC005C48016800205B
:206158000090204600F0BCF81199884275D133AA20461121012300F001FF159800EB443638
:20617800B6F5B02F72D89DF84E00072801D000286CD14FEA4439FF204FF001080DF1CB0500
:206198000DF1CC0B8DF8CB00002049F02C07339082465FEAC87026D038462946012200F034
:2061B8003CFF9DF8CB0003280FD007F10800B04219D8381D5946042200F02FFF33984FF0FD
:2061D80001080744B742E4D90DE04FF0000815370422CDF80C80384603A900F01EFF0399D3
:2061F80001200029D4D15FEACA702FD02046002103AA302300F0FDFE9DF83B00FE284BD093
:20621800FF2823D1DFF8A88003A84FF4A05100F12F0A404600F078FF264D48468122294643
:2062380000F0FBFE05F1390000F05EFF88B1FC202F2152468DF83B0004E0FC2011218DF82D
:20625800CC0033AA2046012300F088FE63B0BDE8F08F194948464FF48052002300F034FCFE
:206278000028E4D007465846C02100F04DFF134905F1610005F141033A468DE8010900F046
:2062980099FFA528D3D1FE202F21524601238DF83B00204600F062FE16984845D6D31599AB
:2062B8004944884298BF00F08FFFCFE724290020000300203028002030170020547F05009D
:2062D8002DE9F04F8BB08046581C022803D200200BB0BDE8F08F14981E460C46B3F5801F35
:2062F80001D90028F3D1B6F5B02F01D90028EED0069238B14A4A404600214FF4807300F094
:2063180078FE06E0464808FB04F14FF4807200F0D4FE701E0123424F4FF0FF39B0FBF4F142
:2063380001FB1400013082B2C5B2100A002D18BF03EB12200190424608BF4FF48075059569
:20635800029401EB0800C0B208900898D3B2834263D801984FF0FF3118BF200A51FA80F1A7
:206378000792C0B20A91099003FB04F0002400F580700490501C039009985FFA84FB584522
:2063980048D90A984FF480769A4645465845059808BF0646089883424FF4807018BF064676
:2063B800079880EA08004FF0000820430006069808BF00F10C081FFA88F086420AD9385CCA
:2063D8005FFA89F1484000F03BFE80EA192908F10108F0E7149830B10A9858450CD1039858
:2063F8000021C0B20DE004984FF4807200EB0B21384600F062FE09E04FF4807000EB0B211C
:2064180050463A464FF4807300F0F3FDA84653460134B1E7DDE9024297E76FEA090057E7BC
:20643800302700202DE9FC47DDF83090304F0C46054610461E464946B84709F1200A2846E9
:206458005146B84709F1400520462946B84709F1600830464146B84709F180060A98314684
:20647800B847244824490B9C304F0160234825490460234801602448244901602448254988
:20649800016025482549016025482649016026480321017008205146C4F8DC04C4F8B80434
:2064B800C4F89404C4F87004C4F84C0404F58A60B84704F274402946B84704F593604946BF
:2064D800B84704F2BC404146B84704F59C603146B84704F2DC4004F58E6104F2944204F503
:2064F8009763009004F24C4000F022F8BDE8FC873B71050038010020D457021034010020AA
:206518003C010020F8570210400100201C58021044010020405802102C0100206458021094
:206538003001002088580210480100205F710500DFF800F005C800102DE9F04742F22C0968
:2065580040F2100A42F20C0640F2B81715460C468046C4F20909C4F2090AC4F20806C1F215
:20657800000700F03FFB44F20C00C4F2090000210160D9F800003868816927208847306B43
:206598004FF6FF71CFF6FE6108403063B06F20F48070B0673868016B4FF480608847386857
:2065B800016B4FF4816088473868016B4FF4C060884742F22800C6F2080001210160C6F8C9
:2065D80080413160DAF80000800705D4681C08BF4FF04045CAF80C50D9F80000F069800741
:2065F800FCD500BF072000F0FBFB0228FAD1B8F1000F16D144F20004C4F20304386A8168D0
:20661800204688470428F9D0012804D1386A0321426820469047D6F8180220F00300C6F8D4
:2066380018023868806BBDE8F047004770B541F21C30C5F20000066840F2B014C1F2000404
:2066580000F0C0FC40F28440C4F2602000250560206C806C804740F28010C4F22830006849
:2066780050B140F28051C4F22031B6F1FF30096818BF304600F01AF942F28C11C4F20801D0
:206698000D6042F24801C4F203010A6840F23913282063F31B42C4F209000A60016801F4CC
:2066B8004051B1F5805F09D101684FF6EF72CFF6FC42114001F50032026001600025C4F2A9
:2066D80024350126EE612068016A1420884742F20000C4F20900016841F4E021016044F6B0
:2066F800B4702E60C5F20000006800F44000B0F5000F06D1206C416C43F2BD70C0F286001F
:2067180088470C20C4F2682001680029FCD170BD2DE9FE4F2D48304D2D4EDFF8C0A04FF056
:20673800000B80462B488146841C05F15000029005F110000190D8F8000041694846884750
:20675800B768346000F024FDA878B0BBB7F1FF3F1ADDDAF80C7037B3402F19D3D8F8001082
:2067780027F03F07DAF8080008223B46D1F80CC00299E047DAE90201C91B3844CAE90201EC
:20679800E8683844E86018E04FF0FF3068600AE0DAF8081001983A4600F022FD2889CAF830
:2067B8000CB03844288185F801B09AF80100012804BFA5F808B0C5F80CB000F0EFFC6878AA
:2067D8000028B8D16868BDE8FE8F00BF040200108847024001000080B42800202017002034
:2067F8002DE9F84F83462D480C4600684169272088472B4F0026DFF8ACA03989BE707E60DB
:206818008AF801600D19402D0FD319B307F11008C1F1400608EB01005946324600F0E0FC5D
:2068380000204FF04009388118E0781859462246103000F0D5FC3D81CAF80C6000F0A8FCCF
:2068580019490120787008604A6842F001024A60C8601CE024F03F06D846B146A01B0BEB79
:206878000601CAE9021000F093FC0C48F968406D09B1C46800E0846807F1500140460822A8
:206898004B46A04701207870F8684844F86000F085FCBDE8F84FFFF73BBF00BFB00100104E
:2068B800B42800202017002080470240F0B581B044F6AC71C5F200014A6846F2092605461B
:2068D8009007C4F2080605D40868F02242EA104086F84D004AF20440C4F20C004FF00122FF
:2068F80002604AF2000040F2F017C4F20C00C1F2000700888C68386801682046884704F07F
:206918004070B0F1807F03D1307840F0020030703868214642682846904700F0A3F941F20C
:206938000C40C5F2000000684BF20E02C0F30531C4F20C021170C1054FF0130158BF2321E5
:2069580040237354382101EA901000F56050A2F85C003868816820468847022000F01CFA90
:2069780040F29440C4F260200121016001B0F0BD2DE9FF412A4E044656F8540C416927202B
:206998008847284F00200125B87078602648457000F0FEFB7D70F86868B1398999B132683B
:2069B800431807F1100015680822CDE9001207F1500221462CE030683A8921460823456896
:2069D80007F1100024E0C00007F110080025402102904046039500F097FB8020387407F1C7
:2069F800480002A92A1D07D04A19013DD378D27900F8012BC370F5E707F150012046202213
:206A180000F0EEFB3068214608224023C5684046A84700F0C3FBBDE8FF41FFF779BE00BFD8
:206A380004020010B428002020170020F8B500F0AFFB1F4D287810B14FF0FF3433E0002715
:206A580001246F702C70AF7000F0A8FBEF602F8100F09EFB174D04202C7000F0E3F9164EF0
:206A7800012809D02F703068416904208847042000F0D8F90128FAD13068C16900F0A8FBFA
:206A98003068416A00F0A4FB3068C16A00F0A0FB0A4804600A4801688907FCD50948002477
:206AB80001686960046000F079FB2046F8BD00BFB428002020170020B8010010282008601E
:206AD8002820084034EF00E02DE9F0410646884608461446314600F0F0FAD8F81800B8B35E
:206AF800FFF7A4FF1C4D08F10C000421A84708F112002F21A84708F18100A4F18101A84799
:206B1800D8F8180026442746051B7DB1BAB24046314600F0D2FA40463946FFF761FEED1BC9
:206B380026442F46A54288BF2746EEE70B4C2046FFF71EFF00F014F800210020202903D0C5
:206B5800625C01311043F9E7002808BF044600E000242046BDE8F081F967050000170020A5
:206B780010B500F015FB194C607808B100F07CF9002018492070164C6068086000F00EFB41
:206B980000F006FB2078144C40B92068816904208847042000F046F90228FAD12068016A5B
:206BB80000F016FB2068816A00F012FB2068016B00F00EFB09480121016009480168890741
:206BD800FCD5BDE8104000F0E9BA00BFB42800202017002034EF00E0B801001028200860B6
:206BF80028200840B0B51020C4F209000168890733D444F6B470C5F200000068810248BF92
:206C1800B0BD40F2EC11C1F2000109680124096804EB20758847C0F13E00C1100722072999
:206C3800B8BFC21041F20C30C5F200000068AA42C0F30320D8BF2A46801A0F28A8BF0F2035
:206C58000128D8BF204646F20D2140F0F000C4F2080181F84D000878B0BDFD21C4F2000129
:206C7800C160B0BD44F6B070C5F200000168C90633D441F25031C5F2000109684CF20042C1
:206C9800C3F6FF7211404CF20002C1F60742914218BF704740680F22010480034FF0000020
:206CB80058BF081610F1240FD8BF6FF023001B28A8BF1B2024300321A1EB101122FA01F122
:206CD80022EA00004FF6FF7222FA00F040EA01404AF21801C4F20C0108607047F0B540F651
:206CF800FF7C10F8013B0024082CFAD00646DF0716F8015B0AD1467806F00F070337122FDF
:206D18000AD187783A0609D403300DE001F8015B304601345B08E7E7023006E0C27807F0CA
:206D38007F07043047EAC2171237320942EA0515654508BFF0BDED43002FEAD04A5D013F8F
:206D58000A700131F8E741F218324FF68850C5F20002CFF6FF70116810584FF20003C0B272
:206D78007F2888BF00201268C0F6FF731A4041F20003C0F6B4339A4207D1090F022906D34E
:206D980007D0032901D1153004E0FF2002E00A2000E00B3040B2704780B546F2000147F247
:206DB800042E47F2082CC4F20C01C0F2050EC0F2050C00BF0B6800BF4A689342FCD18342C7
:206DD80008BF80BD1EF803201EF800309A424FF0FF3338BF01231A441CF802200A60E9E7E2
:206DF80042F24011C4F208010A68496DC30701D1002106E002F0010301F00401C91818BFC8
:206E18000121830744BF02F0020341EA5301400744BF02F0040041EA90010220002918BF17
:206E38000120704742F24011C4F208010A68496DC30701D1012106E002F0010301F0040166
:206E5800C91818BF0121830744BF02F0020301EA5301400744BF02F0040001EA900102209F
:206E7800002918BF0120704770B500F091F90C4D687878B10B48012606600B480068016A1B
:206E98002720884700246FF00200AE70EC602C81686001E04FF0FF3400F080F9204670BD11
:206EB800B428002040470240B001001010B50C484FF47051006801EA80200A490860002049
:206ED8000721FFF7FDF80124E0B22B2804D80021FFF7F6F80134F7E700F0FAF8002010BDBA
:206EF800302403402429002070B50A480A4C84420DD00A4D0A48461B4EB1D5E9000110F836
:206F1800012B54F822209047083E0835F4E700BF00BF70BD1C7205001072050030720500FE
:206F38004072050070B50B4E0B4C3068816820468847054600060AD0306800214268204603
:206F5800904730688168204688470028F9D1E8B270BD00BFD801001000400340F8B51C4699
:206F7800154601EB4036FFF7DDFF00F01DF904462FB1054801210068426804489047002C6A
:206F980018BFFF242046F8BDD8010010004003400A4880F308880A48016841F47001016041
:206FB80000BF00BF00F017F908B1FFF79DFF0020FFF77CFF012000F010F900BF0040012025
:206FD80088ED00E080B541F21830C5F2000000684FF20001C0F6FF71084041F20001C0F6DB
:206FF800B431884204D1FFF7AEFE1328C8BF80BDFEE770B51C46154601EB403600F0B3F890
:20701800210405D016F8011B013C05F8011BF7E708B900F0C3F8002070BD70B514460D4675
:20703800064600F0A0F82CB116F8011B013C05F8011BF8E708B900F0B1F8002070BDFEE79C
:2070580010B5064A08210B0608BF10BD82EA5003C40708BF430801391846F4E72083B8EDDE
:20707800B0B5064907231A46002B04D48C5C855C531EA542F7D0D00FB0BD00BFFC71050052
:2070980080B540F2A813C1F200031B689B69984740F28441C4F2602100220A6080BD10B5DE
:2070B8004AB110F8013B11F8014B013AA3421CBF012010BDF4E7002010BDB0B538B1431EC4
:2070D800013922B18D5C541E9D542246F9E7B0BD80B500F05DF8002000214FF0FF32BDE8BA
:2070F8008040FFF729BAFEE780B5034908220431FFF7D5FFC0B280BD547F05000B46114621
:207118001A4600F037B800BF0A46002100F032B8002118B1421E01311040FAE70120884375
:2071380070471F22531C08BF7047835C013A01F8013BF7E710B500239A4208BF10BDCC5CA5
:20715800C4540133F8E70022202A08BF70478B5C83540132F8E780B50A46D0F8031010467C
:20717800FFF7D2FF80BD80B500F012F8002818BF012080BD00239A4208BF7047C1540133A1
:20719800F9E70B46D0F80320C11D184600F028B80020EFF3108072B6704770470020EFF385
:2071B800108062B6704770470746284631462246FFF766BF01F10C002C31FFF733B9FFF7B9
:2071D80035FAFFF7E5BEFEE7D0F800D0406800474FF4806008470120704700BFFEE7FEE790
:0471F800FFF7A8BF36
:1071FC004343313378325231010200030200010360
:20721000F56C05009B7105006F710500000100000F9D28FFF000000002000000F811000033
:107230001C72050000030020287205003017002092
:207F5400014C0000B0177D511DEC108BD851BCA2ED3D9E19B733A52F33DA05404D137650E9
:207F74003D88DF5CD0E2F2583053C42AB92ABEEF665FECCF5616CC36EF2DC95E462B7C3B97
:0C7F940009C19956D9AF958163237BE7A2
:207FA80000008001100080FFFDFF5800FFFFBBF3FFFFFFFFFFFFFFFFFFFFFFFFFFFFFFFFB9
:207FC800FFFFFFFFFFFFFFFFFFFFFFFFFFFFFFFFFFFFFF00FFFFFFFF00FFFFFF00C5C5FF2A
:187FE800000000FF00600500FFFFFFFFFFFFFFFFFFFFFFFFFFFFFFFF2D
:00000001FF
