:02000004000AF0
:20E00000004002207DF90A00A1F90A006BF20A008BF70A008BF70A008BF70A00000000006F
:20E020000000000000000000000000008BF70A008BF70A00000000008BF70A008BF70A00B0
:20E040008BF70A008BF70A008BF70A008BF70A008BF70A008BF70A008BF70A008BF70A0060
:20E060008BF70A008BF70A008BF70A008BF70A008BF70A008BF70A008BF70A008BF70A0040
:20E080008BF70A008BF70A008BF70A008BF70A008BF70A008BF70A008BF70A008BF70A0020
:20E0A0008BF70A008BF70A008BF70A008BF70A008BF70A008BF70A008BF70A008BF70A0000
:18E0C0008BF70A008BF70A008BF70A008BF70A008BF70A008BF70A0000
:20E0D8002DE9F04F9BB0B8484FF47051006801EA8020B649086001F017F88346002800F049
:20E0F8000E8103AD0DF1380A4FF000085FFA88F008212A46000301F0E1F8284601F05AFB57
:20E1180070B9284601F046FB40B908F101085FFA88F05828EAD34FF0FE0801E04FF0FF08A9
:20E138004FFA88F9B9F1000F00F1A2804FEA093434215246204601F0C1F89DF84800FE28BB
:20E1580011D19DF8440003280DD19DF84500012809D19DF84900FC2805D01499199FC819E9
:20E17800B0F5801F02D908F10108BFE73846012200F01EF90028F6D19DF84800FE28F2D163
:20E19800FC202C212A468DF80B00384601F096F80999384601F0B2F906460130E3D00A9873
:20E1B800B042E0D3099931448842DCD80C983246801B411C3846099100F0D6FECDF804B0A4
:20E1D800834644F0100001210DF10B0200F05AFFBBF1000FDDF804B0C5D17448099B002248
:20E1F800016800200090C6F3473000F0FBF90599884228D1FE200121740B8DF80B004FEAF1
:20E2180049300DF10B0911304A4600F03BFFE0B211214A46012301F013FA149930460022A5
:20E2380000F0C6F89DF81E10072916D8012202FA01F111F08B0F10D078B901F0CDF90A9821
:20E2580001F095FB09E0FC2001210DF10B028DF80B0007F1110000F015FFFC2001210DF11A
:20E278000B028DF80B0007F1100000F00BFF7AE701F0B2F900250EAE0124284631460822D5
:20E2980001F065FA304601F085FA88B1284631462C2201F05CFA9DF84A00072808D804FA91
:20E2B80000F010F08A0F03D01499481C022805D205F50055B5F5302FDFD120E0B1F5302FCB
:20E2D800F6D81598A842F3D36A189042F0D89DF844000328ECD19DF845000128E8D19DF8CD
:20E2F8004900FE2801D0FF28E2D12846002200F05FF80028DCD1159801F039FBD8E700F0BF
:20E3180003FF002842D00EAA0020342100F0D6FF9DF84900FE2839D11499199D4819B0F540
:20E33800801F33D8284601F0E9F8044601302DD01598A0422AD314990A19904226D82846C9
:20E35800224600F011FEF8B91848149B0022016800200090C4F3473000F044F91099884275
:20E3780012D1600BFE2101238DF80C10C0B203AA112101F065F914992046002200F018F87E
:20E3980010B9159801F0F3FA01F026F9BBF1000F05D001F062FA00201BB0BDE8F08F01F024
:20E3B80005F801F0CFFAFEE730240340282900202DE9F04FC1B0002900F0F98093468146A9
:20E3D800B1F5801F03D9BBF1000F40F0F080FF20BBF1000F37D08DF84300002001EB0905E6
:20E3F80001F083FA119011AC82465FEAC87026D0304601213A4600F061FF9DF8430003288F
:20E418000FD006F10800A84219D8301D0421224600F054FF11984FF001080644AE42E4D926
:20E438000DE04FF0000815360421CDF81080304604AA00F043FF049901200029D4D15FEAA0
:20E45800CA703BD1B3E0B1F5302F00F2B1808DF84300002001EB090401F047FA0DF1440A44
:20E47800119005465FEAC87026D030463946012201F06DF99DF8430003280FD006F10800D1
:20E49800A04219D8301D5146042201F060F911984FF001080644A642E4D90DE04FF0000829
:20E4B80015360422CDF81080304604A901F04FF9049901200029D4D1E80778D0BBF1000FA4
:20E4D8003FD004AD484630212A4600F0F7FE9DF83F00FC286BD0414C4FF4A051204601F0E5
:20E4F800D7F93D4E48468121324600F0E7FE06F1390001F0BDF9074600285ED135494846A5
:20E518004FF48052012300F0CBFB002854D007460078002850D00DF14408C021404601F0F9
:20E53800B7F92F4906F1610006F141033A468DE8110101F00DFA07460020CFB3A52F37D03F
:20E558003BE004AC48463022214601F000F99DF83F00FC282BD01F4948464FF48052002386
:20E5780000F09EFBC8B105460078B0B11A4E49468122304601F066F911A8194906F14103A7
:20E598002A4602901548019006F16100009001F0DFF9A52801D100200AE0FC2004F12F01D8
:20E5B80001228DF83F0009F12F0001F02FF8FF2040B241B0BDE8F08FFF27FC2005F12F028C
:20E5D80001218DF83F0009F12F0000F05BFD3846EEE700BF341700203428002000030020B0
:20E5F80054FF0A002DE9F04F8BB08046581C022803D200200BB0BDE8F08F14981E460C467C
:20E61800B3F5801F01D90028F3D1B6F5302F01D90028EED0069238B14A4A404600214FF40C
:20E63800807301F06DF806E0464808FB04F14FF4807201F007F9701E0123424F4FF0FF392D
:20E65800B0FBF4F101FB1400013082B2C5B2100A002D18BF03EB12200190424608BF4FF4C5
:20E6780080750595029401EB0800C0B208900898D3B2834263D801984FF0FF3118BF200A31
:20E6980051FA80F10792C0B20A91099003FB04F0002400F580700490501C039009985FFADF
:20E6B80084FB584548D90A984FF480769A4645465845059808BF0646089883424FF48070DA
:20E6D80018BF0646079880EA08004FF0000820430006069808BF00F10C081FFA88F086427B
:20E6F8000AD9385C5FFA89F1484001F043F880EA192908F10108F0E7149830B10A985845B3
:20E718000CD103980021C0B20DE004984FF4807200EB0B21384601F095F809E04FF48070E9
:20E7380000EB0B2150463A464FF4807300F0E8FFA84653460134B1E7DDE9024297E76FEA52
:20E75800090057E7342700202DE9FC47DDF83090304F0C46054610461E464946B84709F193
:20E77800200A28465146B84709F1400520462946B84709F1600830464146B84709F1800662
:20E798000A983146B847244824490B9C304F016023482549046023480160244824490160A6
:20E7B80024482549016025482549016025482649016026480321017008205146C4F8DC042F
:20E7D800C4F8B804C4F89404C4F87004C4F84C0404F58A60B84704F274402946B84704F526
:20E7F80093604946B84704F2BC404146B84704F59C603146B84704F2DC4004F58E6104F2AD
:20E81800944204F59763009004F24C4000F022F8BDE8FC87B1F80A0038010020D45702108A
:20E83800340100203C010020F8570210400100201C58021044010020405802102C0100206A
:20E8580064580210300100208858021048010020D5F80A00DFF800F005C800102DE9F0475E
:20E8780040F21009C4F209091546D9F800200C469107804642BFFD20C4F20000C9F80C00D0
:20E8980044F20C0042F22C0AC4F209000021C4F2090A40F2B8170160C1F20007DAF800001D
:20E8B800386842F20C0681692720C4F208068847306B4FF6FF71CFF6FE6108403063B06F28
:20E8D80020F48070B0673868016B4FF4806088473868016B4FF4816088473868016B4FF4B9
:20E8F800C060884742F22800C6F2080001210160C6F880413160D9F80000800705D4681CAD
:20E9180008BF4FF04045C9F80C50DAF8000000BFF0698007FCD500BF072000F06BFD02288D
:20E93800FAD1B8F1000F16D144F20004C4F20304386A8168204688470428F9D0012804D1AB
:20E95800386A0321426820469047D6F8180220F00300C6F818023868806BBDE8F047004771
:20E9780070B541F21C30C5F20000066840F2B014C1F2000400F0D8FE40F28440C4F2602017
:20E9980000250560206C806C804740F28010C4F22830006850B140F28051C4F22031B6F1AC
:20E9B800FF30096818BF304600F01AF942F28C11C4F208010D6042F24801C4F203010A68A9
:20E9D80040F23913282063F31B42C4F209000A60016801F44051B1F5805F09D101684FF681
:20E9F800EF72CFF6FC42114001F50032026001600025C4F224350126EE612068016A14208E
:20EA1800884742F20000C4F20900016841F4E021016044F6B4702E60C5F20000006800F41D
:20EA38004000B0F5000F06D1206C416C43F2BD70C0F2860088470C20C4F268200168002955
:20EA5800FCD170BD2DE9FE4F2D48304D2D4EDFF8C0A04FF0000B80462B488146841C05F1BD
:20EA78005000029005F110000190D8F80000416948468847B768346000F04CFFA878B0BBB5
:20EA9800B7F1FF3F1ADDDAF80C7037B3402F19D3D8F8001027F03F07DAF8080008223B462C
:20EAB800D1F80CC00299E047DAE90201C91B3844CAE90201E8683844E86018E04FF0FF3091
:20EAD80068600AE0DAF8081001983A4600F05AFF2889CAF80CB03844288185F801B09AF80C
:20EAF8000100012804BFA5F808B0C5F80CB000F017FF68780028B8D16868BDE8FE8F00BFEB
:20EB1800040200108847024001000080B8280020201700202DE9F84F83462D480C46006889
:20EB38004169272088472B4F0026DFF8ACA03989BE707E608AF801600D19402D0FD319B348
:20EB580007F11008C1F1400608EB01005946324600F018FF00204FF04009388118E078189A
:20EB780059462246103000F00DFF3D81CAF80C6000F0D0FE19490120787008604A6842F0D9
:20EB980001024A60C8601CE024F03F06D846B146A01B0BEB0601CAE9021000F0BBFE0C48A4
:20EBB800F968406D09B1C46800E0846807F15001404608224B46A04701207870F868484417
:20EBD800F86000F0ADFEBDE8F84FFFF73BBF00BFB0010010B828002020170020804702406E
:20EBF800F0B581B044F6AC71C5F200014A6846F2092605469007C4F2080605D40868F022FE
:20EC180042EA104086F84D004AF20440C4F20C004FF0012202604AF2000040F2F017C4F264
:20EC38000C00C1F2000700888C68386801682046884704F04070B0F1807F03D1307840F04C
:20EC5800020030703868214642682846904741F20C40C5F2000000684BF20E02C0F3053130
:20EC7800C4F20C021170C1054FF0130158BF232140237354382101EA901000F56050A2F876
:20EC98005C003868816820468847022000F06AFB40F29440C4F260200121016001B0F0BDAE
:20ECB8002DE9F84398461446894607462BB1384621464A4600F002FB04E048463946224600
:20ECD80000F0C0FDD9F81800002840D000F0FEF8214D09F10C000421A84709F112002F2184
:20ECF800A84709F18100A4F18101A847D9F8180027442546061BC6B1B8F1000F05D038462A
:20ED180029464A4600F0DAFA04E0AAB24846394600F098FD48462946FFF7FCFE761B27445D
:20ED38003546A64288BF2546E5E70C4C204600F017F800F065F900210020202903D0625CB4
:20ED580001311043F9E7002808BF044600E000242046BDE8F88300BF2DEB0A00001700205B
:20ED78002DE9FF412A4E044656F8540C416927208847284F00200125B87078602648457015
:20ED980000F0C8FD7D70F86868B1398999B13268431807F1100015680822CDE9001207F1D0
:20EDB800500221462CE030683A8921460823456807F1100024E0C00007F11008002540217A
:20EDD80002904046039500F063FD8020387407F1480002A92A1D07D04A19013DD378D2798F
:20EDF80000F8012BC370F5E707F150012046202200F0C8FD3068214608224023C5684046E3
:20EE1800A84700F08DFDBDE8FF41FFF71BBE00BF04020010B8280020201700202DE9FF413B
:20EE3800254E054688463068416906208847062000F002FB0128FAD13068C1694FF4A060EB
:20EE580088471E4C1E4F0120206038688007FCD53068C1694FF48070884701202060386856
:20EE78008007FCD5174F184900220023386920F00F0038610320F861F06804680820CDE99F
:20EE980000504FF08040A04756F8040C082109224FF0FF33446C4FF08040CDF80080A04726
:20EEB800386840F00200386003ACF06800F055FD0028FAD1BDE8FF81B801001028200860F6
:20EED8002820084004000040006CDC02F8B500F021FD1F4D287810B14FF0FF3433E00027C8
:20EEF80001246F702C70AF7000F01AFDEF602F8100F010FD174D04202C7000F09DFA164E29
:20EF1800012809D02F703068416904208847042000F092FA0128FAD13068C16900F02BFD95
:20EF38003068416A00F027FD3068C16A00F023FD0A4804600A4801688907FCD50948002448
:20EF580001686960046000F0EBFC2046F8BD00BFB828002020170020B80100102820086082
:20EF78002820084034EF00E02DE9F043C1B0814690070DD188180D461446411E1F48006875
:20EF9800B1FBF0F1B2FBF0F68E4298BF582904D9FF2040B241B0BDE8F083B5FBF0F101FB0D
:20EFB8001050002818BF0131C8B250FA86F7F0B2874205D900F0F6FA0136FF28F7D1E7E74A
:20EFD8004FF480760DF10408B5B1B0B24246854238BF2E46B7B24846394600F06FF900285E
:20EFF800D6D0204641463A4600F010FB0028CFD1ED1B3C44B944E7E70020CAE7282900208E
:20F0180010B500F087FC194C607808B100F036FA002018492070164C6068086000F080FC7B
:20F0380000F078FC2078144C40B92068816904208847042000F000FA0228FAD12068016A08
:20F0580000F099FC2068816A00F095FC2068016B00F091FC09480121016009480168890790
:20F07800FCD5BDE8104000F05BBC00BFB82800202017002034EF00E0B80100102820086019
:20F09800282008402DE9F84F06461E4814460D464FF002094FF0000AE84683467DB300F062
:20F0B800D9F848BB00F016FB30BB300A8DF800908DF803608DF80200300C8DF80100F0B256
:20F0D8008BF800A0C0F580774046BD4238BF2F46042100F0E9FA60B92046394600F0E4FA94
:20F0F80038B90121ED1B3E4458463C448BF80010D4E701208BF800000020BDE8F88F0120DE
:20F11800BDE8F88F14200240BCB518480A21FFF785FE17480068C16B14208847154C012543
:20F13800AB20012125708DF80700002020700DF1070000F0B9FA257088B94FF4C870ADF85B
:20F158000400BDF80400BDF8040028B1BDF804000138ADF80400F6E700F07CF818B100F0B3
:20F178003BFA0020BCBD00F007F8BCBD00093D00B401001014200240BCB51648164D042169
:20F1980001900020287001A800F08EFA10B10120287007E0114C0221204600F0CBF90121D0
:20F1B800297008B10020BCBD0D4B2278647803F12001186840B11D79AA4202D15D79AC42DF
:20F1D80001D00833F5E71946064A0028116018BF0120BCBD90FFFF0014200240B528002075
:20F1F800A4F90A0030170020F0B540F6FF7C10F8013B0024082CFAD00646DF0716F8015B91
:20F218000AD1467806F00F070337122F0AD187783A0609D403300DE001F8015B304601349F
:20F238005B08E7E7023006E0C27807F07F07043047EAC2171237320942EA0515654508BF3D
:20F25800F0BDED43002FEAD04A5D013F0A700131F8E7FEE72DE9F843174E05204FF0000857
:20F278008DF8030086F8008000F0E0FA4FF001090DF103040DF10205022786F80090204636
:20F29800012186F8008000F00FFA2846012100F051F986F8009000284FF001009DF8021056
:20F2B80008BF27EA41000028E9D002280CBF00206FF00100BDE8F883142002407CB51546A5
:20F2D8000C460646FFF7C6FF0146002001B17CBD03218DF807608DF80410310A8DF80610EC
:20F2F800310C0B4E8DF805100421307001A800F0DBF918B10120307000207CBD28462146DC
:20F3180000F018F9B0FA80F00121400931707CBD1420024070B5104C2068016A4FF4807058
:20F3380088470E4E0E4D0120306028688007FCD52068016A4FF4A060884701203060286850
:20F358008007FCD52068816906208847062000F073F80228FAD170BDB801001028200860BA
:20F378002820084080B546F200014FF6DC1E4FF6E01CC4F20C01C0F20A0EC0F20A0C00BFE3
:20F398000B6800BF4A689342FCD1834208BF80BD1EF803201EF800309A424FF0FF3338BF43
:20F3B80001231A441CF802200A60E9E710B50D4C2068416904208847042000F03DF801288E
:20F3D800FAD12068C1694FF4A0608847064801210160064801688907FCD5054801210160CD
:20F3F800416010BDB80100102820086028200840181A444242F24011C4F208010A68496D5A
:20F41800C30701D1002106E002F0010301F00401C91818BF0121830744BF02F0020341EABC
:20F438005301400744BF02F0040041EA90010220002918BF0120704742F24011C4F2080126
:20F458000A68496DC30701D1012106E002F0010301F00401C91818BF0121830744BF02F083
:20F47800020301EA5301400744BF02F0040001EA90010220002918BF0120704770B500F065
:20F4980049FA0C4D687878B10B48012606600B480068016A2720884700246FF00200AE70F0
:20F4B800EC602C81686001E04FF0FF3400F038FA204670BDB828002040470240B0010010E1
:20F4D80070B50A480A4C84420DD00A4D0A48461B4EB1D5E9000110F8012B54F82220904743
:20F4F800083E0835F4E700BF00BF70BDF4F90A00E8F90A0008FA0A0018FA0A00FEB50C46DC
:20F5180005462C276E4678190C213246FFF7D6FE58B19DF8000001280AD001994FF0FF30D8
:20F5380011B10F44A742EED3FEBD4FF0FF30FEBD0298FEBDF8B50C4F0C4605466E466CB145
:20F558003868002182684FF08040904740B100F0EDF90098013C05F8010BF0E70020F8BDC1
:20F578004FF0FF30F8BD00BFC401001070B50B4E0B4C3068816820468847054600060AD006
:20F598003068002142682046904730688168204688470028F9D1E8B270BD00BFD80100109C
:20F5B80000400340B0B50446FFF7E0FF0546600300F01FF904462DB10548012100684268CD
:20F5D80004489047E0B2002818BFFF20B0BD00BFD8010010004003407CB5B9200A4D002423
:20F5F800012101268DF807000DF107002C7000F05BF82E70092C04D80134FFF7BDFD00287E
:20F61800F8D1FFF787FE7CBD14200240F8B514460D460646FFF7AAFF00F08EF904462FB1F9
:20F63800054801210068426804489047002C18BFFF242046F8BD00BFD801001000400340A2
:20F65800F8B51C46154601EB4036FFF78FFF00F073F904462FB105480121006842680448EF
:20F678009047002C18BFFF242046F8BDD8010010004003400A4880F308880A48016841F4A9
:20F698007001016000BF00BF00F078F908B1FFF717FF0020FEF714FD012000F071F900BF7C
:20F6B8000040022088ED00E0F8B5094F0C4605466E4654B1386815F8011B42684FF08040AE
:20F6D800904700F033F9013CF3E70020F8BD00BFC4010010BCB50620084C012101258DF8E7
:20F6F8000700002020700DF10700FFF7DDFF2570002818BF6FF00200BCBD00BF14200240C1
:20F7180070B51C46154601EB403600F0E7F8210405D016F8011B013C05F8011BF7E708B9A5
:20F7380000F0FEF8002070BD41F21830C5F2000000684FF20001C0F6FF71084047F20001FA
:20F75800C0F6B731884208BF704700BFFEE770B514460D46064600F0C1F82CB116F8011B39
:20F77800013C05F8011BF8E708B900F0D9F8002070BDFEE710B5064A08210B0608BF10BDA5
:20F7980082EA5003C40708BF430801391846F4E72083B8EDB0B5064907231A46002B04D4B9
:20F7B8008C5C855C531EA542F7D0D00FB0BD00BFD4F90A00B0B5064907231A46002B04D426
:20F7D8008C5C855C531EA542F7D0D00FB0BD00BFCCF90A0080B540F2A813C1F200031B68F4
:20F7F8009B69984740F28441C4F2602100220A6080BD80B540F2A811C1F200010968496920
:20F81800884740F28441C4F2602100220A6080BD10B54AB110F8013B11F8014B013AA34291
:20F838001CBF012010BDF4E7002010BDBCB5044D01AC286800F091F80028FAD1BCBD00BF7C
:20F85800C4010010B0B538B1431E013922B18D5C541E9D542246F9E7B0BD80B500F05AF887
:20F87800002000214FF0FF32BDE88040FEF7F6BF80B5034908220431FFF7CAFFC0B280BD62
:20F8980054FF0A000B4611461A4600F035B800BF0A46002100F030B81F22531C08BF7047D8
:20F8B800835C013A01F8013BF7E710B500239A4208BF10BDCC5CC4540133F8E70022202AEC
:20F8D80008BF70478B5C83540132F8E780B50A46D0F803101046FFF7DBFF80BD80B500F0DA
:20F8F80019F8002818BF012080BD09F12C064FF001080DF14307704700239A4208BF704792
:20F91800C1540133F9E70B46D0F80320C11D184600F038B80020EFF3108072B67047704726
:20F938000020EFF3108062B67047704738683146C2684FF080401047074628463146224666
:20F95800FFF748BF01480121017070470620024001F10C002C31FEF7F7BE214602694FF081
:20F9780080401047FEF7FCFFFFF784BEFEE7D0F800D0406800474FF480600847012070477A
:0AF9980000BFFEE7FFF791BFFEE796
:20F9A40000002000C215000000001000C214000000000800EF12000000000400EF11000059
:20F9C40000000000000000004F4144204E564D3143433236783252310102000302000103E6
:20F9E80001F20A001FF90A00E5F80A00000100000FA128FFF000000002000000F811000026
:10FA0800F4F90A000003002000FA0A003417002065
:20FF5400014C0000B0177D511DEC108BD851BCA2ED3D9E19B733A52F33DA05404D13765069
:20FF74003D88DF5CD0E2F2583053C42AB92ABEEF665FECCF5616CC36EF2DC95E462B7C3B17
:0CFF940009C19956D9AF958163237BE722
:20FFA80000008001100080FFFDFF5800FFFFBBF3FFFFFFFFFFFFFFFFFFFFFFFFFFFFFFFF39
:20FFC800FFFFFFFFFFFFFFFFFFFFFFFFFFFFFFFFFFFFFF00FFFFFFFF00FFFFFF00C5C5FFAA
:18FFE800000000FF00E00A00FFFFFFFFFFFFFFFFFFFFFFFFFFFFFFFF28
:00000001FF
