:02000004000AF0
:20E000000040022025F90A004DF90A002FF20A0047F90A0047F90A0047F90A00000000001D
:20E0200000000000000000000000000047F90A0047F90A000000000047F90A0047F90A00B8
:20E0400047F90A0047F90A0047F90A0047F90A0047F90A0047F90A0047F90A0047F90A0070
:20E0600047F90A0047F90A0047F90A0047F90A0047F90A0047F90A0047F90A0047F90A0050
:20E0800047F90A0047F90A0047F90A0047F90A0047F90A0047F90A0047F90A0047F90A0030
:20E0A00047F90A0047F90A0047F90A0047F90A0047F90A0047F90A0047F90A0047F90A0010
:18E0C00047F90A0047F90A0047F90A0047F90A0047F90A0047F90A008C
:20E0D8002DE9F04F9BB0B8484FF47051006801EA8020B649086000F0F9FF8346002800F061
:20E0F8000E8103AD0DF1380A4FF000085FFA88F008212A46000301F0C3F8284601F030FB9F
:20E1180070B9284601F01CFB40B908F101085FFA88F05828EAD34FF0FE0801E04FF0FF08D3
:20E138004FFA88F9B9F1000F00F1A2804FEA093434215246204601F0A3F89DF84800FE28D9
:20E1580011D19DF8440003280DD19DF84500012809D19DF84900FC2805D01499199FC819E9
:20E17800B0F5801F02D908F10108BFE73846012200F01EF90028F6D19DF84800FE28F2D163
:20E19800FC202C212A468DF80B00384601F078F80999384601F070F906460130E3D00A98D3
:20E1B800B042E0D3099931448842DCD80C983246801B411C3846099100F0B8FECDF804B0C2
:20E1D800834644F0100001210DF10B0200F03CFFBBF1000FDDF804B0C5D17448099B002266
:20E1F800016800200090C6F3473000F0FBF90599884228D1FE200121740B8DF80B004FEAF1
:20E2180049300DF10B0911304A4600F01DFFE0B211214A46012301F0EDF9149930460022EA
:20E2380000F0C6F89DF81E10072916D8012202FA01F111F08B0F10D078B901F0A7F90A9847
:20E2580001F069FB09E0FC2001210DF10B028DF80B0007F1110000F0F7FEFC2001210DF165
:20E278000B028DF80B0007F1100000F0EDFE7AE701F08CF900250EAE01242846314608221A
:20E2980001F02CFA304601F05BFA88B1284631462C2201F023FA9DF84A00072808D804FA2D
:20E2B80000F010F08A0F03D01499481C022805D205F50055B5F5302FDFD120E0B1F5302FCB
:20E2D800F6D81598A842F3D36A189042F0D89DF844000328ECD19DF845000128E8D19DF8CD
:20E2F8004900FE2801D0FF28E2D12846002200F05FF80028DCD1159801F00DFBD8E700F0EB
:20E31800E5FE002842D00EAA0020342100F0B8FF9DF84900FE2839D11499199D4819B0F57D
:20E33800801F33D8284601F0A7F8044601302DD01598A0422AD314990A19904226D828460B
:20E35800224600F0F3FDF8B91848149B0022016800200090C4F3473000F044F91099884294
:20E3780012D1600BFE2101238DF80C10C0B203AA112101F03FF914992046002200F018F8A4
:20E3980010B9159801F0C7FA01F000F9BBF1000F05D001F036FA00201BB0BDE8F08F00F0A3
:20E3B800C3FF01F0A3FAFEE730240340282900202DE9F04FC1B0002900F0F9809346814610
:20E3D800B1F5801F03D9BBF1000F40F0F080FF20BBF1000F37D08DF84300002001EB0905E6
:20E3F80001F057FA119011AC82465FEAC87026D0304601213A4600F043FF9DF843000328D9
:20E418000FD006F10800A84219D8301D0421224600F036FF11984FF001080644AE42E4D944
:20E438000DE04FF0000815360421CDF81080304604AA00F025FF049901200029D4D15FEABE
:20E45800CA703BD1B3E0B1F5302F00F2B1808DF84300002001EB090401F01BFA0DF1440A70
:20E47800119005465FEAC87026D030463946012201F034F99DF8430003280FD006F108000A
:20E49800A04219D8301D5146042201F027F911984FF001080644A642E4D90DE04FF0000862
:20E4B80015360422CDF81080304604A901F016F9049901200029D4D1E80778D0BBF1000FDD
:20E4D8003FD004AD484630212A4600F0D9FE9DF83F00FC286BD0414C4FF4A051204601F003
:20E4F800ABF93D4E48468121324600F0C9FE06F1390001F091F9074600285ED1354948461B
:20E518004FF48052012300F057FB002854D007460078002850D00DF14408C021404601F06D
:20E538008BF92F4906F1610006F141033A468DE8110101F0E1F907460020CFB3A52F37D098
:20E558003BE004AC48463022214601F0C7F89DF83F00FC282BD01F4948464FF480520023C0
:20E5780000F02AFBC8B105460078B0B11A4E49468122304601F03AF911A8194906F1410347
:20E598002A4602901548019006F16100009001F0B3F9A52801D100200AE0FC2004F12F0104
:20E5B80001228DF83F0009F12F0001F009F8FF2040B241B0BDE8F08FFF27FC2005F12F02B2
:20E5D80001218DF83F0009F12F0000F03DFD3846EEE700BF341700203428002000030020CE
:20E5F80054FF0A002DE9F04F8BB08046581C022803D200200BB0BDE8F08F14981E460C467C
:20E61800B3F5801F01D90028F3D1B6F5302F01D90028EED0069238B14A4A404600214FF40C
:20E63800807301F047F806E0464808FB04F14FF4807201F0DBF8701E0123424F4FF0FF3980
:20E65800B0FBF4F101FB1400013082B2C5B2100A002D18BF03EB12200190424608BF4FF4C5
:20E6780080750595029401EB0800C0B208900898D3B2834263D801984FF0FF3118BF200A31
:20E6980051FA80F10792C0B20A91099003FB04F0002400F580700490501C039009985FFADF
:20E6B80084FB584548D90A984FF480769A4645465845059808BF0646089883424FF48070DA
:20E6D80018BF0646079880EA08004FF0000820430006069808BF00F10C081FFA88F086427B
:20E6F8000AD9385C5FFA89F1484001F009F880EA192908F10108F0E7149830B10A985845ED
:20E718000CD103980021C0B20DE004984FF4807200EB0B21384601F069F809E04FF4807015
:20E7380000EB0B2150463A464FF4807300F0C2FFA84653460134B1E7DDE9024297E76FEA78
:20E75800090057E7342700202DE9FC47DDF83090304F0C46054610461E464946B84709F193
:20E77800200A28465146B84709F1400520462946B84709F1600830464146B84709F1800662
:20E798000A983146B847244824490B9C304F016023482549046023480160244824490160A6
:20E7B80024482549016025482549016025482649016026480321017008205146C4F8DC042F
:20E7D800C4F8B804C4F89404C4F87004C4F84C0404F58A60B84704F274402946B84704F526
:20E7F80093604946B84704F2BC404146B84704F59C603146B84704F2DC4004F58E6104F2AD
:20E81800944204F59763009004F24C4000F022F8BDE8FC8759F80A0038010020D4570210E2
:20E83800340100203C010020F8570210400100201C58021044010020405802102C0100206A
:20E85800645802103001002088580210480100207DF80A00DFF800F005C800102DE9F047B6
:20E878000C4631498046344F154608688946800744BF2E48C8602E48002101602D48824674
:20E89800006838688169272088472C4E2C49306B08403063B06F20F48070B0673868016BAD
:20E8B8004FF4806088473868016B4FF4816088473868016B4FF4C060884722480121016024
:20E8D800C6F880413160D9F80000800705D4681C08BF4FF04045C9F80C50DAF80000F06988
:20E8F8008007FCD5072000F043FD0228FAD1B8F1000F13D1144C386A816820468847042874
:20E91800F9D0012804D1386A0321426820469047D6F8180220F00300C6F818023868806B0D
:20E93800BDE8F047004700BF10000940FD0000400C4009402C200940B80100100C200840E0
:20E95800FFFFFEFE282008600040034070B52548066800F0E5FE24480025244C0560206CAD
:20E97800806C80472248006838B122480068B6F1FF3018BF304600F035FA1F4840F2391219
:20E9980005601E48016862F31B4101601C48016801F44051B1F5805F06D10168194A11404D
:20E9B80001F5003202600160174D0126EE612068016A142088471548016841F4E021016027
:20E9D80013482E60006800F44000B0F5000F03D1206C416C0F4888470F4801680029FCD1FD
:20E9F80070BD00BF1C13005084046042B001001080012843800520438C2108404820034035
:20EA180028000940EFFFFCFC0000244300200940B44F0050BD3786000C0068422DE9FE4FD1
:20EA38002D48304D2D4EDFF8C0A04FF0000B80462B488146841C05F15000029005F1100052
:20EA58000190D8F80000416948468847B768346000F034FFA878B0BBB7F1FF3F1ADDDAF826
:20EA78000C7037B3402F19D3D8F8001027F03F07DAF8080008223B46D1F80CC00299E047A4
:20EA9800DAE90201C91B3844CAE90201E8683844E86018E04FF0FF3068600AE0DAF808106C
:20EAB80001983A4600F044FF2889CAF80CB03844288185F801B09AF80100012804BFA5F854
:20EAD80008B0C5F80CB000F0FFFE68780028B8D16868BDE8FE8F00BF040200108847024087
:20EAF80001000080B8280020201700202DE9F84F83462D480C4600684169272088472B4F97
:20EB18000026DFF8ACA03989BE707E608AF801600D19402D0FD319B307F11008C1F140069A
:20EB380008EB01005946324600F002FF00204FF04009388118E0781859462246103000F0A1
:20EB5800F7FE3D81CAF80C6000F0B8FE19490120787008604A6842F001024A60C8601CE08E
:20EB780024F03F06D846B146A01B0BEB0601CAE9021000F0A3FE0C48F968406D09B1C468B9
:20EB980000E0846807F15001404608224B46A04701207870F8684844F86000F095FEBDE8AB
:20EBB800F84FFFF73BBF00BFB0010010B828002020170020804702402DE9F843984614469D
:20EBD800894607462BB1384621464A4600F058FB04E048463946224600F008FED9F8180035
:20EBF800002840D000F054F9214D09F10C000421A84709F112002F21A84709F18100A4F1A5
:20EC18008101A847D9F8180027442546061BC6B1B8F1000F05D0384629464A4600F030FBEF
:20EC380004E0AAB24846394600F0E0FD48462946FFF75CFF761B27443546A64288BF254643
:20EC5800E5E70C4C204600F017F800F0BBF900210020202903D0625C01311043F9E70028C7
:20EC780008BF044600E000242046BDE8F88300BF05EB0A00001700202DE9FF412A4E0446D9
:20EC980056F8540C416927208847284F00200125B87078602648457000F010FE7D70F868C3
:20ECB80068B1398999B13268431807F1100015680822CDE9001207F1500221462CE0306856
:20ECD8003A8921460823456807F1100024E0C00007F110080025402102904046039500F018
:20ECF800ABFD8020387407F1480002A92A1D07D04A19013DD378D27900F8012BC370F5E795
:20ED180007F150012046202200F012FE3068214608224023C5684046A84700F0D5FDBDE855
:20ED3800FF41FFF77BBE00BF04020010B8280020201700202DE9FF41254E054688463068A6
:20ED5800416906208847062000F034FB0128FAD13068C1694FF4A06088471E4C1E4F0120F7
:20ED7800206038688007FCD53068C1694FF4807088470120206038688007FCD5174F1849DF
:20ED980000220023386920F00F0038610320F861F06804680820CDE900504FF08040A04769
:20EDB80056F8040C082109224FF0FF33446C4FF08040CDF80080A047386840F002003860D3
:20EDD80003ACF06800F09DFD0028FAD1BDE8FF81B801001028200860282008400400004025
:20EDF800006CDC02F8B504462148224E4168890705D40168F02242EA114186F84D101E4994
:20EE18004FF001221E4F0A601C49098839680968856828468847A80105D4E80103D5307884
:20EE380040F002003070386829464268204690471448154A0068C0F305311170C1054FF060
:20EE5800130158BF232140237354382101EA901000F56050A2F85C003868816828468847BC
:20EE7800022000F025FB094801210160F8BD00BFAC4F00500962084004A40C4000A00C4022
:20EE9800F00100100C1400500EB00C4094046042F8B500F013FD1F4D287810B14FF0FF34B9
:20EEB80033E0002701246F702C70AF7000F00CFDEF602F8100F002FD174D04202C7000F046
:20EED80079FA164E012809D02F703068416904208847042000F06EFA0128FAD13068C1693B
:20EEF80000F01EFD3068416A00F01AFD3068C16A00F016FD0A4804600A4801688907FCD50D
:20EF18000948002401686960046000F0DDFC2046F8BD00BFB828002020170020B80100100B
:20EF3800282008602820084034EF00E02DE9F043C1B0814690070DD188180D461446411ED4
:20EF58001F480068B1FBF0F1B2FBF0F68E4298BF582904D9FF2040B241B0BDE8F083B5FB5B
:20EF7800F0F101FB1050002818BF0131C8B250FA86F7F0B2874205D900F0EEFA0136FF284B
:20EF9800F7D1E7E74FF480760DF10408B5B1B0B24246854238BF2E46B7B24846394600F098
:20EFB8006FF90028D6D0204641463A4600F008FB0028CFD1ED1B3C44B944E7E70020CAE7B7
:20EFD8002829002010B500F079FC194C607808B100F012FA002018492070164C60680860E9
:20EFF80000F072FC00F06AFC2078144C40B92068816904208847042000F0DCF90228FAD111
:20F018002068016A00F08CFC2068816A00F088FC2068016B00F084FC0948012101600948FD
:20F0380001688907FCD5BDE8104000F04DBC00BFB82800202017002034EF00E0B80100101E
:20F0580028200860282008402DE9F84F06461E4814460D464FF002094FF0000AE846834612
:20F078007DB300F0D9F848BB00F00EFB30BB300A8DF800908DF803608DF80200300C8DF821
:20F098000100F0B28BF800A0C0F580774046BD4238BF2F46042100F0E1FA60B92046394607
:20F0B80000F0DCFA38B90121ED1B3E4458463C448BF80010D4E701208BF800000020BDE800
:20F0D800F88F0120BDE8F88F14200240BCB518480A21FFF72FFE17480068C16B14208847B9
:20F0F800154C0125AB20012125708DF80700002020700DF1070000F0B1FA257088B94FF4FA
:20F11800C870ADF80400BDF80400BDF8040028B1BDF804000138ADF80400F6E700F07CF8CF
:20F1380018B100F033FA0020BCBD00F007F8BCBD00093D00B401001014200240BCB5164880
:20F15800164D042101900020287001A800F086FA10B10120287007E0114C0221204600F076
:20F17800C3F90121297008B10020BCBD0D4B2278647803F12001186840B11D79AA4202D105
:20F198005D79AC4201D00833F5E71946064A0028116018BF0120BCBD90FFFF0014200240EE
:20F1B800B528002050F90A0030170020F0B540F6FF7C10F8013B0024082CFAD00646DF0792
:20F1D80016F8015B0AD1467806F00F070337122F0AD187783A0609D403300DE001F8015B21
:20F1F800304601345B08E7E7023006E0C27807F07F07043047EAC2171237320942EA051544
:20F21800654508BFF0BDED43002FEAD04A5D013F0A700131F8E7FEE72DE9F843174E05206D
:20F238004FF000088DF8030086F8008000F0D2FA4FF001090DF103040DF10205022786F833
:20F2580000902046012186F8008000F007FA2846012100F049F986F8009000284FF0010057
:20F278009DF8021008BF27EA41000028E9D002280CBF00206FF00100BDE8F88314200240CA
:20F298007CB515460C460646FFF7C6FF0146002001B17CBD03218DF807608DF80410310A3B
:20F2B8008DF80610310C0B4E8DF805100421307001A800F0D3F918B10120307000207CBD5E
:20F2D8002846214600F010F9B0FA80F00121400931707CBD1420024070B5104C2068016AFF
:20F2F8004FF4807088470E4E0E4D0120306028688007FCD52068016A4FF4A060884701207E
:20F31800306028688007FCD52068816906208847062000F04FF80228FAD170BDB8010010AE
:20F33800282008602820084010B50D4C2068416904208847042000F03DF80128FAD120686D
:20F35800C1694FF4A0608847064801210160064801688907FCD5054801210160416010BD32
:20F37800B80100102820086028200840181A44420F49C3070A68496D01D1002106E001F0A0
:20F39800040102F00103C91818BF0121830744BF02F0020341EA5301400744BF02F004003D
:20F3B80041EA90010220002918BF0120704700BF402108400F49C3070A68496D01D10121D9
:20F3D80006E001F0040102F00103C91818BF0121830744BF02F0020301EA5301400744BF5C
:20F3F80002F0040001EA90010220002918BF0120704700BF4021084070B500F05FFA0C4D5A
:20F41800687878B10B48012606600B480068016A2720884700246FF00200AE70EC602C8113
:20F43800686001E04FF0FF3400F04EFA204670BDB828002040470240B001001070B50A48CD
:20F458000A4C84420DD00A4D0A48461B4EB1D5E9000110F8012B54F822209047083E0835B7
:20F47800F4E700BF00BF70BD9CF90A0090F90A00B0F90A00C0F90A00FEB50C4605462C27A3
:20F498006E4678190C213246FFF7FAFE58B19DF8000001280AD001994FF0FF3011B10F44BE
:20F4B800A742EED3FEBD4FF0FF30FEBD0298FEBDB0B50A490A4A0B4B0C684D68AC42FCD10B
:20F4D800844208BFB0BD155C145DAC424FF0FF3538BF01252C441C5D0C60EDE700600C40E5
:20F4F80088F90A008CF90A00F8B50C4F0C4605466E466CB13868002182684FF080409047E3
:20F5180040B100F0E7F90098013C05F8010BF0E70020F8BD4FF0FF30F8BD00BFC4010010D1
:20F5380070B50B4E0B4C3068816820468847054600060AD0306800214268204690473068C5
:20F558008168204688470028F9D1E8B270BD00BFD801001000400340B0B50446FFF7E0FF0D
:20F578000546600300F01AF904462DB1054801210068426804489047E0B2002818BFFF2046
:20F59800B0BD00BFD8010010004003407CB5B9200A4D0024012101268DF807000DF107005C
:20F5B8002C7000F05BF82E70092C04D80134FFF7C5FD0028F8D1FFF78FFE7CBD1420024095
:20F5D800F8B514460D460646FFF7AAFF00F088F904462FB10548012100684268044890478F
:20F5F800002C18BFFF242046F8BD00BFD801001000400340F8B51C46154601EB4036FFF7C5
:20F618008FFF00F06DF904462FB1054801210068426804489047002C18BFFF242046F8BDDF
:20F63800D8010010004003400A4880F308880A48016841F47001016000BF00BF00F073F955
:20F6580008B1FFF7FBFE0020FEF73AFD012000F06CF900BF0040022088ED00E0F8B5094FAD
:20F678000C4605466E4654B1386815F8011B42684FF08040904700F02DF9013CF3E7002086
:20F69800F8BD00BFC4010010BCB50620084C012101258DF80700002020700DF10700FFF79F
:20F6B800DDFF2570002818BF6FF00200BCBD00BF1420024070B51C46154601EB403600F07F
:20F6D800E1F8210405D016F8011B013C05F8011BF7E708B900F0F8F8002070BD70B5144674
:20F6F8000D46064600F0CEF82CB116F8011B013C05F8011BF8E708B900F0E6F8002070BD85
:20F7180010B5064A08210B0608BF10BD82EA5003C40708BF430801391846F4E72083B8ED97
:20F7380004480549006808400449884208BF7047FEE700BF1813005000F0FF0F0070B70B83
:20F75800B0B5064907231A46002B04D48C5C855C531EA542F7D0D00FB0BD00BF80F90A00DA
:20F77800B0B5064907231A46002B04D48C5C855C531EA542F7D0D00FB0BD00BF78F90A00C2
:20F7980080B5044B1B689B699847034900220A6080BD00BFA80100108404604280B504492E
:20F7B800096849698847034900220A6080BD00BFA80100108404604210B54AB110F8013B84
:20F7D80011F8014B013AA3421CBF012010BDF4E7002010BDBCB5044D01AC286800F091F893
:20F7F8000028FAD1BCBD00BFC4010010B0B538B1431E013922B18D5C541E9D542246F9E7A1
:20F81800B0BD80B500F05AF8002000214FF0FF32BDE88040FFF722B880B503490822043126
:20F83800FFF7CAFFC0B280BD54FF0A000B4611461A4600F035B800BF0A46002100F030B8F8
:20F858001F22531C08BF7047835C013A01F8013BF7E710B500239A4208BF10BDCC5CC4549D
:20F878000133F8E70022202A08BF70478B5C83540132F8E780B50A46D0F803101046FFF7F7
:20F89800DBFF80BD80B500F019F8002818BF012080BD09F12C064FF001080DF14307704733
:20F8B80000239A4208BF7047C1540133F9E70B46D0F80320C11D184600F03AB80020EFF32E
:20F8D800108072B6704770470020EFF3108062B67047704738683146C2684FF0804010473B
:20F8F8000746284631462246FFF74ABF01480121017070470620024001F10C002C31FEF70C
:20F9180023BF214602694FF080401047FFF71EF8FFF78ABEFEE7016881F30888406800473A
:16F938004FF4806008470120704700BFFEE7FEE7FFF78FBFFEE7BD
:20F9500000002000C215000000001000C214000000000800EF12000000000400EF110000AD
:20F9700000000000000000004F4144204E564D31434332367832523101020003020001033A
:20F99000C5F10A00C7F80A008DF80A00000100000FA128FFF000000002000000F81100006C
:10F9B0009CF90A0000030020A8F90A00341700206F
:20FF5400014C0000B0177D511DEC108BD851BCA2ED3D9E19B733A52F33DA05404D13765069
:20FF74003D88DF5CD0E2F2583053C42AB92ABEEF665FECCF5616CC36EF2DC95E462B7C3B17
:0CFF940009C19956D9AF958163237BE722
:20FFA80000008001100080FFFDFF5800FFFFBBF3FFFFFFFFFFFFFFFFFFFFFFFFFFFFFFFF39
:20FFC800FFFFFFFFFFFFFFFFFFFFFFFFFFFFFFFFFFFFFF00FFFFFFFF00FFFFFF00C5C5FFAA
:18FFE800000000FF00E00A00FFFFFFFFFFFFFFFFFFFFFFFFFFFFFFFF28
:00000001FF
