:02000004000AF0
:20E0000000400220B5EF0A00C3ED0A0057EA0A0013EC0A0013EC0A0013EC0A0000000000D0
:20E0200000000000000000000000000013EC0A0013EC0A000000000013EC0A0013EC0A00BC
:20E0400013EC0A0013EC0A0013EC0A0013EC0A0013EC0A0013EC0A0013EC0A0013EC0A0078
:20E0600013EC0A0013EC0A0013EC0A0013EC0A0013EC0A0013EC0A0013EC0A0013EC0A0058
:20E0800013EC0A0013EC0A0013EC0A0013EC0A0013EC0A0013EC0A0013EC0A0013EC0A0038
:20E0A00013EC0A0013EC0A0013EC0A0013EC0A0013EC0A0013EC0A0013EC0A0013EC0A0018
:18E0C00013EC0A0013EC0A0013EC0A0013EC0A0013EC0A0013EC0A0012
:20E0D8002DE9F04FADF1640D00F060FA002800F084804FF0FC0900244FF0FE0BC84674E04C
:20E0F800260334216A46304600F038FD9DF81020FE2A68D19DF80C00032864D19DF80D0076
:20E11800012860D19DF81100FC285CD00B98069905464919B1F5801F55D8FE2A53D18DF865
:20E1380060902C210DAA00F019FD1399284600F023FE0746B7F1FF3F45D01498874242D8CB
:20E158001399CA1982423ED328463A4600F0B8F910365FFA80FA18A9304600F005FCBAF1C8
:20E17800000F30D11399780BC6B2304600F038F80F99814219D160038DF860B018A91130EB
:20E1980000F0F2FB304618A900F0A8FE9DF8461031F0010003D0032918BF07290CD100F0DD
:20E1B800A7FB149800F025FF06E08DF8609005F1110018A900F0D8FB8DF8608005F1100094
:20E1D80018A900F0D1FB641C64B2E0B200F07EFD0446002884D500F08BFB19B0BDE8F08FE9
:20E1F8002DE9FE4F01903D4800680C46611EB1F5302F824628BF00206DD2019D684300F009
:20E218007DFE641EB4FBFAF7B4FBFAF04119C9B2029107FB0AF1641A641C1FFA84F92C4645
:20E2380000194FF0FF35C0B2A04252DB001B00F1010B0298A04207D15FFA99F619F0FF0F4E
:20E258001CBF761CF6B201E05FFA9AF6002E3BD00AFB04F0B04600270090B81BB0F1FF3F36
:20E2780005D10298A04202D119F0FF0001D14FF480700199A1420ABF002F00220C229042BD
:20E2980017DD1849801A5118491E11F8012F4FEA152C554005F0FF0508226B0832BF6D0863
:20E2B8000F4B83EA5505521EF7D1401E85EA0C05EBD1009800EB072000F5807000F01EFEB8
:20E2D8007F1CB8F10108C8D1641CBBF1010BE4B2AFD185F0FF30BDE8FE8FC04600040020F2
:20E2F8002083B8ED000300202DE9F047344F814657F80C0C15468846800824BF31483860F8
:20E31800334E3149DFF8C4A0002034680860DAF80000A169272088472F4C2E4804F1300281
:20E33800116823460840106003F17800006820F48070A0673068016B4FF4806088473068BE
:20E35800016B4FF4816088473068016B4FF4C0608847224901200860C4F88081206057F890
:20E378000C0C800805D2B5F1FF3F08BF4FF040453D60DAF80000E0698008FCD3072000F079
:20E39800C3FB0228FAD1B9F1010F13D0306A144D8168284688470428F8D0012804D1306A68
:20E3B8004268032128469047D4F8180220F00300C4F818023068806B8047BDE8F087C046F7
:20E3D8001C000940FD0000400C4009402C200940B8010010FFFFFEFE0C2008402820086072
:20E3F800004003402E4A2DE9F04180462F4C5068800806D2106804F14D01000C40F0F00083
:20E41800087029484FF001214FF08057C0F8041407F5F8760088D7F8F0019568214F01682C
:20E4380028468847A80E05D2680E03D3207840F002002070306842682946404690471F48DF
:20E45800F4300068C0F305313970410A39BF402184F823104021E174800900F0380040F498
:20E478006050A7F85C0030688168284688471049104A0AE0105C9478131D844299BF18445C
:20E4980010F8010C18444078086008684B689842FCD10228EED1084901200860BDE8F08130
:20E4B800AC4F00500EB00C4000A00C400962084000600C4060F00A00940460421813005095
:20E4D8002DE9F04F15460F46064615F0030FADF5827D49D12A480268EC19B5FBF2F1601E0F
:20E4F800B0FBF2F088423FD358283DD8CBB2B7FBF2F0B7FBF2F1C0B251437C1A1CBF401C8D
:20E51800C0B24FF000081C4604EB0009B8B1DFF874B000F0FBFB40901B48303800684169D9
:20E538006003884782464098CBF8008000F01EFD5FFA8AF0C0B9641CE4B2A145E9DCB8F1ED
:20E55800000F11D1BFB14FF48074BC4288BFBCB230466A46214600F001FB28B12246284630
:20E57800694600F07FFC10B14FF0FF3004E03F1B26442544E9D1404641B0BDE8F08FC046CE
:20E598000004002084046042D8010010FEB52C4D6868416906208847062000F02FFB012828
:20E5B800FAD16868C1694FF4A06088470127254E254C376020688008FCD36868C1694FF4AD
:20E5D80080708847376020688008FCD34FF08046706920F00F0070610327376228691C4967
:20E5F80004681A48002208271346009030460197A0472868394609224FF0FF330A27446C7A
:20E6180000973046A047706840F0020070602869026902A9304690470028F8D12868C16B73
:20E638001420884700F0C2FC00F0C0FA041C02D100F05EF902E000F003FA04462046FEBDF3
:20E65800B4010010282008602820084000093D00006CDC022D4870B5001D0468B4F1FF3F07
:20E6780008BF002400F058FC052838D128481C4E002510380560306C806C80471948006859
:20E6980020B1194800682046FFF7ACFE174818490560184C0A686FF35B4244EA0200086030
:20E6B80015490868C0F30130012806D10A681348104040F400320A600860114D0124EC616B
:20E6D8003068016A142088470E49086840F4E02008600D492C6008680028FCD170BDFEE760
:20E6F800B001001080012843800520438C210840482003400000390128000940EFFFFCFC3C
:20E7180000002443002009400C00684218130050940460422DE9F04100264FF0FE08FC27D1
:20E73800ADF1300D740369460822204600F056FB684600F0ADFB2546012840D128466946E7
:20E758002C2200F04BFB9DF81200012803D0032818BF072833D10699002930D0B1F5302F78
:20E778002DD8079885422AD84A19824227D39DF80C20032A23D19DF80D20012A1FD19DF89F
:20E798001120FC2A1BD0FF2A02D0FE2A17D114E08DF82C803046FFF723FD04460298A0429D
:20E7B80018BF8DF82C700BA9012205F1110000F059FB0298A04202D1079800F01AFC3046BD
:20E7D800411C5728CEB2ADDB0CB0BDE8F081002A4AD05FEA000C8B071CD1830722D1102A9C
:20E7F80008D370B4103A78C978C0103AFBD270BC103238D0042A2CD3082A05D30C2A24BF62
:20E8180008C908C008C908C008C908C092072AD0920F22E00B780370491C401C521E22D0C6
:20E838008B07F7D1C30714D18307D8D0121F12D308C903801B0C4380001D121FF8D20AE02F
:20E8580008C903701B0A43701B0A83701B0AC370001D121FF4D2121D05D00B780370491CA1
:20E87800401C521EF9D16046704730B5ADF13C0DFFF78CFE002839D0002034216A4600F0FB
:20E898006DF99DF81100FE2830D10B98069905464A19B2F5801F29D800F06EFA0446B4F1AF
:20E8B800FF3F23D00798844220D806990A1982421CD328462246FFF703FEA8B90699600B05
:20E8D800C4B22046FFF78CFCFC21029D8DF83410854209D1FE208DF834000DA9204600F0BD
:20E8F800FDFA079800F085FB00F002F80FB030BDF8B5B9208DF8000000F060FB012168463E
:20E9180000F054FA00F052FB0A2400F099F8002818BFB4F10104F8D14FF0805000F5DC75EE
:20E93800D0F8B801016A4FF48070884701270C4E0C4C376020688008FCD32868016A4FF443
:20E95800A0608847376020688008FCD32868816906208847062000F051F90228FAD1F8BDE1
:20E9780028200860282008402DE9FC410F46054601264FF0020800F097F850BB00F046FA22
:20E9980038BB05F0FF04C4F58074B44288BF341C8DF800808DF80350280C8DF80100280A71
:20E9B8008DF8020000F00AFB6846042100F0FEF9361B2D1920B93846214600F0F7F918B10B
:20E9D80000F0F4FABDE8FC8100F0F0FA3F19002ED1D1BDE8FC81F8B5844640F6FF741CF8C7
:20E9F800013B002210E0481B401E10F8015B7F1E01F8015BF9D103E01CF8010B01F8010BC8
:20EA1800521C5B08082AEADA5808F5D21CF8010B1CF8015B05F00F07FF1CC5F30315122F29
:20EA380045EA001508D11CF8016B300A24BF1CF8010B60F3DF16BF19AC42D4D1F8BDFEE797
:20EA5800BCB5184DD5F80200009000F0B7FA0421684600F0ABF9F0B9114C0221204600F0E2
:20EA780015F9024600F0A2FABAB905F10800214607683FB102790B789A420AD142794B7832
:20EA98009A4206D148600068002100B101210846BCBD0830ECE700F089FA0020BCBDC046C3
:20EAB8000404002020F00A001FB5154800788DF8040000F083FA134C2068026969464FF01D
:20EAD800804090470028F7D100F070FA00F076FA01A8012100F06AF902A8012100F0D6F835
:20EAF800024600F063FA002A18BF6FF0010004D19DF808004008E9D2002000901FBDC04601
:20EB180020F00A00C40100100246134898B570300168476D01F00103002007F004071F43C8
:20EB380018BF0120930802EA000006D301F002040023204318BF01231846D20806D301F0EB
:20EB580004010022084318BF01221046002814BF0120022098BDC046D02008407CB515467E
:20EB78000E460446FFF7A0FF98B903208DF800008DF80340230C8DF80130200A8DF80200F3
:20EB980000F01CFA6846042100F010F918B100F00DFA00207CBD2846314600F077F80246E6
:20EBB80000F004FA002002B901207CBD1CB5AB208DF8020000F002FA01210DF1020000F0F9
:20EBD800F5F8002400B9012400F0F0F99CB14FF4C870ADF80000BDF8000004E0BDF800009A
:20EBF800401EADF80000BDF800000028F6D1FFF75BFF00B1002420461CBDFEE71149C8B536
:20EC180070310A684E6D410806D302F0010106F0040600270E4300D00127810805D3002106
:20EC380017B1930828BF01210F46C00805D3002017B1D10828BF01200746002F14BF012022
:20EC58000220C8BDD0200840B0B50C480C4DA84210D00C480C4CA0420CD0001B083CC71041
:20EC780054F8080F017855F821206168401C90477F1EF5D100BF00BFB0BDC04674F00A0054
:20EC980068F00A0098F00A0088F00A00BCB50F1C054617D00C4C2068826800214FF080402E
:20ECB8009047002808BF4FF0FF300CD02068C26869464FF0804090479DF800007F1E05F8C6
:20ECD800010BE8D10020BCBDC401001010B50446ADF1300D200308216A46FFF73FFF684621
:20ECF80000F0EAF8012808BF60B20DD0684600F0CFF8012808BF4FF0FF3005D0641CE4B29D
:20ED1800582CE7DB6FF001000CB010BDB0B54FF0805000F5EC74D0F8D801094D8168284695
:20ED38008847C7B257B12068426800212846904720688168284688470028F9D13846B0BD48
:20ED5800004003400B4880F308880949086840F47000086000BF00BF00F051F908B1FFF78D
:20ED780073FF002000F068F8012000F04AF9C04688ED00E000400220FEB50D4606464FF0F7
:20ED9800FF372C2430190C216A46FFF7E7FE50B19DF80000012805D0019820B12418A542B3
:20EDB800F0D800E0029F3846FEBDFEE77CB50C1C06460FD0084D286816F8011B42684FF058
:20EDD800804090472868C26869464FF080409047641EF0D100207CBDC4010010F8B51746CA
:20EDF8000D46044600F0F9F8002600B101260020311C08BF012014F8011B7F1E05F8011B4C
:20EE1800F9D108B100F0EFF8F8BD0000094808B500788DF8000000F0D1F801216846FFF741
:20EE3800C5FF024600F0C2F8002A14BF6FF00200002008BD21F00A0008B5084808490068E0
:20EE580000F00F0080020860FFF73AF9FFF762FCFFF70BFD00F098F8002008BD302403403A
:20EE780000040020F8B514460D460646FFF74EFF074631462246284600F05CF804463846C7
:20EE980000F074F8002C14BFFF200020F8BD0000084910B508300822083911F8013D10F803
:20EEB800014DA34218BF002002D1521EF5D1012010BDC04660F00A0010B5074C0821083040
:20EED80014F8012D10F8013D9A4218BF002002D1491EF5D1012010BD60F00A0070B50D4607
:20EEF8000446FFF713FF0646610301221131284600F020F8304600F039F870BD054B4FF4C6
:20EF1800807101E0425C5A540A46511E002A89B2F8D1704700030020054800684BF6773156
:20EF38000001B1EB104F14BF4FF0FF30052070471813005008B5054B303B1B689B69984747
:20EF5800014A0021116008BD84046042D8010010D0F80300401EB0F1FF3F06D00022401E86
:20EF780001F8012BB0F1FF3FF9D1704708B528B103480068426803480121904708BDC046F2
:20EF9800D80100100040034008B500F026F800204FF0FF320146FFF7A7F908BD08B5FFF73D
:20EFB80059FBFFF7CFBEFFF74AFD08BD02494FF4801008607047C0469020024002484FF49E
:20EFD800801110300160704790200240D0F80320C31D08461946FFF7FABBEFF3108072B681
:20EFF800704700207047EFF3108062B670470020704708B5D0F800D04068804708BD0120A9
:06F01800704700BFFEE797
:20F02000050690FFFF00000000002000C215000000001000C214000000000800EF12000051
:20F0400000000400EF110000000000000000000043433236783252314F4144204E564D317B
:08F0600001020003020001039C
:20F06800EFE90A00E5EF0A0069EF0A000000000002000000040100000001000004FFF0006B
:10F0880078F00A000003002080F00A000404002041
:20FFA80000008001100080FFFDFF58003AFFBBF3FFFFFFFFFFFFFFFFFFFFFFFFFFFFFFFFFE
:20FFC800FFFFFFFFFFFFFFFFFFFFFFFFFFFFFFFFFFFFFF00FFFFFFFF00FFFFFF00C5C5FFAA
:18FFE800000000FF00E00A00FFFFFFFFFFFFFFFFFFFFFFFFFFFFFFFF28
:00000001FF
