:020000040005F5
:20600000004001205D7A0500857A0500D77205007F7A05007F7A05007F7A050000000000F7
:206020000000000000000000000000007F7A05007F7A0500000000007F7A05007F7A050068
:206040007F7A05007F7A05007F7A05007F7A05007F7A05007F7A05007F7A05007F7A050050
:206060007F7A05007F7A05007F7A05007F7A05007F7A05007F7A05007F7A05007F7A050030
:206080007F7A05007F7A05007F7A05007F7A05007F7A05007F7A05007F7A05007F7A050010
:2060A0007F7A05007F7A05007F7A05007F7A05007F7A05007F7A05007F7A05007F7A0500F0
:1860C0007F7A05007F7A05007F7A05007F7A05007F7A05007F7A0500D4
:2060D8002DE9F04F9BB0C7484FF47051006801EA8020C549086001F04DF8002800F0C680F8
:2060F80003AC0DF138094FF0FC0A4FF0000B5FFA8BF008212246000301F016F9204601F04C
:20611800D1FB70B9204601F0BDFB40B90BF1010B5FFA8BF02C28EAD34FF0FE0B01E04FF015
:20613800FF0B4FFA8BF8B8F1000F00F19D804FEA083634214A46304601F0F6F89DF848001D
:20615800FE2811D19DF8440003280DD19DF84500012809D19DF84900FC2805D01499199F24
:20617800C819B0F5801F02D90BF1010BBFE73846012200F03BF90028F6D19DF84800FE28A2
:20619800F2D138462C2122468DF80BA001F0CCF80999384601F0C6F905460130E4D00A986A
:2061B800A842E1D309994A199042DDD838462A4600F0D4FE824646F0100001210DF10B02B2
:2061D80000F05AFFBAF1000F4FF0010A4FF0000247D18548099B009200220168C5F3473044
:2061F80000F01EFA0599884227D1FE2001216E0B8DF80B004FEA48300DF10B08113042464B
:2062180000F03AFFF0B211214246012301F064FA14992846002200F0E9F89DF81E1007296D
:2062380015D80AFA01F111F08B0F10D078B901F01FFA0A9801F00BFC09E0FC2001210DF1EE
:206258000B028DF80B0007F1110000F015FFFC2001210DF10B028DF80B0007F1100000F0AB
:206278000BFF4FF0FC0A7FE701F002FA4FF000080EAC01254FF0FE0A0DF10C0900264FF07E
:20629800000B30462146082201F0DAFA204601F0F9FA88B1304621462C2201F0D1FA9DF810
:2062B8004A00072808D805FA00F010F08A0F03D0149B581C022807D20BF1010B06F5005693
:2062D800BBF12C0FDDD13FE0B3F5B02FF4D81598B042F1D3F1188842EED89DF8440003289F
:2062F800EAD19DF845000128E6D19DF84900FE281FD0FF28E0D13C4800228DF80CA0CDF8AA
:20631800008001685FFA8BF000F08AF907461098494687421CBFFC208DF80C0006F1110058
:20633800012201F0BFF910988742C5D11499304601E030461946002200F058F80028BBD183
:20635800159801F084FBB7E700F014FF002842D00EAA0020342100F0E7FF9DF84900FE2826
:2063780039D11499199D4819B0F5801F33D8284601F0D8F8044601302DD01598A0422AD3B5
:2063980014990A19904226D82846224600F0E6FDF8B91548149B0022016800200090C4F3ED
:2063B800473000F03DF91099884212D1600BFE2101238DF80C10C0B203AA112101F08CF9BC
:2063D80014992046002200F011F810B9159801F03EFB01F04DF901F0B6FA00201BB0BDE86F
:2063F800F08F00BF30240340282900202DE9F04FC1B0002900F0F98093468146B1F5801F02
:2064180003D9BBF1000F40F0F080FF20BBF1000F37D08DF84300002001EB090501F0DBFAA4
:20643800119011AC82465FEAC87026D0304601213A4600F079FF9DF8430003280FD006F14E
:206458000800A84219D8301D0421224600F06CFF11984FF001080644AE42E4D90DE04FF0F8
:20647800000815360421CDF81080304604AA00F05BFF049901200029D4D15FEACA703BD1AE
:20649800B3E0B1F5B02F00F2B1808DF84300002001EB090401F09FFA0DF1440A1190054606
:2064B8005FEAC87026D030463946012201F0C8F99DF8430003280FD006F10800A04219D8CF
:2064D800301D5146042201F0BBF911984FF001080644A642E4D90DE04FF000081536042270
:2064F800CDF81080304604A901F0AAF9049901200029D4D1E80778D0BBF1000F3FD004AD3A
:20651800484630212A4600F00FFF9DF83F00FC286BD0414C4FF4A051204601F02FFA3D4E17
:2065380048468121324600F0FFFE06F1390001F015FA074600285ED1354948464FF48052B9
:20655800012300F04FFB002854D007460078002850D00DF14408C021404601F00FFA2F4949
:2065780006F1610006F141033A468DE8110101F05FFA07460020CFB3A52F37D03BE004AC8A
:2065980048463022214601F05BF99DF83F00FC282BD01F4948464FF48052002300F022FB29
:2065B800C8B105460078B0B11A4E49468122304601F0BEF911A8194906F141032A46029016
:2065D8001548019006F16100009001F031FAA52801D100200AE0FC2004F12F0101228DF81F
:2065F8003F0009F12F0001F05DF8FF2040B241B0BDE8F08FFF27FC2005F12F0201218DF89F
:206618003F0009F12F0000F037FD3846EEE700BF341700203428002000030020547F0500E2
:206638002DE9F04F8BB08046581C022803D200200BB0BDE8F08F14981E460C46B3F5801FD1
:2066580001D90028F3D1B6F5B02F01D90028EED0069238B14A4A404600214FF4807301F02F
:20667800DBF806E0464808FB04F14FF4807201F05FF9701E0123424F4FF0FF39B0FBF4F1FB
:2066980001FB1400013082B2C5B2100A002D18BF03EB12200190424608BF4FF48075059506
:2066B800029401EB0800C0B208900898D3B2834263D801984FF0FF3118BF200A51FA80F144
:2066D8000792C0B20A91099003FB04F0002400F580700490501C039009985FFA84FB5845BF
:2066F80048D90A984FF480769A4645465845059808BF0646089883424FF4807018BF064613
:20671800079880EA08004FF0000820430006069808BF00F10C081FFA88F086420AD9385C66
:206738005FFA89F1484001F09DF880EA192908F10108F0E7149830B10A9858450CD1039897
:206758000021C0B20DE004984FF4807200EB0B21384601F0EDF809E04FF4807000EB0B2132
:2067780050463A464FF4807301F056F8A84653460134B1E7DDE9024297E76FEA090057E7FA
:20679800342700202DE9FC47DDF83090304F0C46054610461E464946B84709F1200A284682
:2067B8005146B84709F1400520462946B84709F1600830464146B84709F180060A98314621
:2067D800B847244824490B9C304F0160234825490460234801602448244901602448254925
:2067F800016025482549016025482649016026480321017008205146C4F8DC04C4F8B804D1
:20681800C4F89404C4F87004C4F84C0404F58A60B84704F274402946B84704F5936049465B
:20683800B84704F2BC404146B84704F59C603146B84704F2DC4004F58E6104F2944204F59F
:206858009763009004F24C4000F022F8BDE8FC879D79050038010020D457021034010020DC
:206878003C010020F8570210400100201C58021044010020405802102C0100206458021031
:20689800300100208858021048010020C1790500DFF800F005C800102DE9F84315460C4653
:2068B800804600F02BFC2C4800212D4F01602B48814600683868816927208847294E2A4945
:2068D800306B08403063B06F20F48070B0673868016B4FF4806088473868016B4FF48160C2
:2068F80088473868016B4FF4C06088471F48012101601F48C6F8804131600168890704D441
:20691800691C08BF4FF04045C560D9F80000F0698007FCD5072000F081FD0228FAD1B8F175
:20693800000F13D1134C386A8168204688470428F9D0012804D1386A03214268204690478D
:20695800D6F8180220F00300C6F818023868806BBDE8F843004700BF0C4009402C200940B1
:20697800B80100100C200840FFFFFEFE28200860100009400040034070B52548066800F04C
:2069980037FF24480025244C0560206C806C80472248006838B122480068B6F1FF3018BFCA
:2069B800304600F0DDF91F4840F2391205601E48016862F31B4101601C48016801F4405106
:2069D800B1F5805F06D10168194A114001F5003202600160174D0126EE612068016A14203A
:2069F80088471548016841F4E021016013482E60006800F44000B0F5000F03D1206C416C0D
:206A18000F4888470F4801680029FCD170BD00BF1C13005084046042B00100108001284340
:206A3800800520438C2108404820034028000940EFFFFCFC0000244300200940B44F00503C
:206A5800BD3786000C0068422DE9FE4F2D48304D2D4EDFF8C0A04FF0000B80462B4881469D
:206A7800841C05F15000029005F110000190D8F80000416948468847B768346000F0C0FFB6
:206A9800A878B0BBB7F1FF3F1ADDDAF80C7037B3402F19D3D8F8001027F03F07DAF80800CC
:206AB80008223B46D1F80CC00299E047DAE90201C91B3844CAE90201E8683844E86018E0D4
:206AD8004FF0FF3068600AE0DAF8081001983A4600F0CAFF2889CAF80CB03844288185F8F1
:206AF80001B09AF80100012804BFA5F808B0C5F80CB000F08BFF68780028B8D16868BDE800
:206B1800FE8F00BF040200108847024001000080B8280020201700202DE9F84F83462D4877
:206B38000C4600684169272088472B4F0026DFF8ACA03989BE707E608AF801600D19402DBC
:206B58000FD319B307F11008C1F1400608EB01005946324600F088FF00204FF04009388184
:206B780018E0781859462246103000F07DFF3D81CAF80C6000F044FF1949012078700860D0
:206B98004A6842F001024A60C8601CE024F03F06D846B146A01B0BEB0601CAE9021000F04D
:206BB8002FFF0C48F968406D09B1C46800E0846807F15001404608224B46A0470120787001
:206BD800F8684844F86000F021FFBDE8F84FFFF73BBF00BFB0010010B82800202017002096
:206BF800804702402DE9F84398461446894607462BB1384621464A4600F096FB04E048468B
:206C18003946224600F094FED9F81800002840D000F056F9214D09F10C000421A84709F111
:206C380012002F21A84709F18100A4F18101A847D9F8180027442546061BC6B1B8F1000F5B
:206C580005D0384629464A4600F06EFB04E0AAB24846394600F06CFE48462946FFF75CFF7C
:206C7800761B27443546A64288BF2546E5E70C4C204600F017F800F0BDF900210020202932
:206C980003D0625C01311043F9E7002808BF044600E000242046BDE8F88300BF316B0500C3
:206CB800001700202DE9FF412A4E044656F8540C416927208847284F00200125B870786042
:206CD8002648457000F09CFE7D70F86868B1398999B13268431807F1100015680822CDE923
:206CF800001207F1500221462CE030683A8921460823456807F1100024E0C00007F1100837
:206D18000025402102904046039500F037FE8020387407F1480002A92A1D07D04A19013D0A
:206D3800D378D27900F8012BC370F5E707F150012046202200F098FE30682146082240236F
:206D5800C5684046A84700F061FEBDE8FF41FFF77BBE00BF04020010B828002020170020EA
:206D7800F8B505462248234E4168890705D40168F02242EA114186F84D101F494FF0012278
:206D98001F4F0A601D49098839680968846820468847A00105D4E00103D5307840F00200CC
:206DB80030703868214642682846904700F00CFD1448154A0068C0F305311170C1054FF09A
:206DD800130158BF232140237354382101EA901000F56050A2F85C003868816820468847C5
:206DF800022000F0D7FB094801210160F8BD00BFAC4F00500962084004A40C4000A00C4071
:206E1800F00100100C1400500EB00C40940460422DE9FF41254E054688463068416906205B
:206E38008847062000F01CFB0128FAD13068C1694FF4A06088471E4C1E4F0120206038685E
:206E58008007FCD53068C1694FF4807088470120206038688007FCD5174F18490022002359
:206E7800386920F00F0038610320F861F06804680820CDE900504FF08040A04756F8040CEF
:206E9800082109224FF0FF33446C4FF08040CDF80080A047386840F00200386003ACF068C9
:206EB80000F0CBFD0028FAD1BDE8FF81B8010010282008602820084004000040006CDC0253
:206ED800F8B500F09DFD1F4D287810B14FF0FF3433E0002701246F702C70AF7000F096FDA8
:206EF800EF602F8100F08CFD174D04202C7000F0B7FA164E012809D02F70306841690420D2
:206F18008847042000F0ACFA0128FAD13068C16900F0A2FD3068416A00F09EFD3068C16AFA
:206F380000F09AFD0A4804600A4801688907FCD50948002401686960046000F067FD20461B
:206F5800F8BD00BFB828002020170020B8010010282008602820084034EF00E02DE9F043F9
:206F7800C1B0814690070DD188180D461446411E1F480068B1FBF0F1B2FBF0F68E4298BF8A
:206F98002C2904D9FF2040B241B0BDE8F083B5FBF0F101FB1050002818BF0131C8B250FAAB
:206FB80086F7F0B2874205D900F048FB0136FF28F7D1E7E74FF480760DF10408B5B1B0B2C1
:206FD8004246854238BF2E46B7B24846394600F0ABF90028D6D0204641463A4600F062FB4D
:206FF8000028CFD1ED1B3C44B944E7E70020CAE72829002010B500F003FD194C607808B171
:2070180000F050FA002018492070164C6068086000F0FCFC00F0F4FC2078144C40B920683A
:20703800816904208847042000F01AFA0228FAD12068016A00F010FD2068816A00F00CFDE2
:207058002068016B00F008FD094801210160094801688907FCD5BDE8104000F0D7BC00BF09
:20707800B82800202017002034EF00E0B801001028200860282008402DE9F84F06461E4886
:2070980014460D464FF002094FF0000AE84683467DB300F015F948BB00F080FB30BB300AE0
:2070B8008DF800908DF803608DF80200300C8DF80100F0B28BF800A0C0F580774046BD427C
:2070D80038BF2F46042100F053FB60B92046394600F04EFB38B90121ED1B3E4458463C44D7
:2070F8008BF80010D4E701208BF800000020BDE8F88F0120BDE8F88F1420024010B5174853
:207118000168890726D417480468A00221D41648006800688047C0F13E000722C1100729F4
:20713800B8BFC210012000EB24718A42D8BF0A460E490968C1F30321891A0F29A8BF0F2188
:207158000129D8BF014641F0F000094981F84D00087810BD0249C16010BD00BF1000094038
:20717800FD000040B44F0050EC0100100C1300500D620840BCB518480A21FFF749FE1748AC
:207198000068C16B14208847154C0125AB20012125708DF80700002020700DF1070000F006
:2071B800E7FA257088B94FF4C870ADF80400BDF80400BDF8040028B1BDF804000138ADF8FA
:2071D8000400F6E700F07CF818B100F051FA0020BCBD00F007F8BCBD00093D00B401001042
:2071F80014200240BCB51648164D042101900020287001A800F0BCFA10B10120287007E0B1
:20721800114C0221204600F0E1F90121297008B10020BCBD0D4B2278647803F12001186836
:2072380040B11D79AA4202D15D79AC4201D00833F5E71946064A0028116018BF0120BCBD8B
:2072580090FFFF0014200240B5280020887A050030170020F0B540F6FF7C10F8013B0024E9
:20727800082CFAD00646DF0716F8015B0AD1467806F00F070337122F0AD187783A0609D445
:2072980003300DE001F8015B304601345B08E7E7023006E0C27807F07F07043047EAC21778
:2072B8001237320942EA0515654508BFF0BDED43002FEAD04A5D013F0A700131F8E7FEE75E
:2072D8002DE9F843174E05204FF000088DF8030086F8008000F020FB4FF001090DF1030495
:2072F8000DF10205022786F800902046012186F8008000F03DFA2846012100F067F986F82F
:20731800009000284FF001009DF8021008BF27EA41000028E9D002280CBF00206FF0010047
:20733800BDE8F883142002407CB515460C460646FFF7C6FF0146002001B17CBD03218DF8BF
:2073580007608DF80410310A8DF80610310C0B4E8DF805100421307001A800F009FA18B1E5
:207378000120307000207CBD2846214600F02EF9B0FA80F00121400931707CBD142002401A
:2073980070B5104C2068016A4FF4807088470E4E0E4D0120306028688007FCD52068016A1C
:2073B8004FF4A06088470120306028688007FCD52068816906208847062000F051F802281A
:2073D800FAD170BDB801001028200860282008400E480F4A0F4B0168825800680340D0B21B
:2073F8000D4A7F2888BF0020934207D1090F022906D307D0032901D1153004E0FF2002E048
:207418000A2000E00B3040B2704700BF1813005088FDFFFF00F0FF0F0010B40B0F49C307BA
:207438000A68496D01D1002106E001F0040102F00103C91818BF0121830744BF02F00203E9
:2074580041EA5301400744BF02F0040041EA90010220002918BF0120704700BF4021084037
:207478000F49C3070A68496D01D1012106E001F0040102F00103C91818BF0121830744BF7D
:2074980002F0020301EA5301400744BF02F0040001EA90010220002918BF0120704700BF29
:2074B8004021084070B500F0ABFA0C4D687878B10B48012606600B480068016A27208847D3
:2074D80000246FF00200AE70EC602C81686001E04FF0FF3400F09AFA204670BDB8280020C6
:2074F80040470240B001001070B50A480A4C84420DD00A4D0A48461B4EB1D5E9000110F8AA
:20751800012B54F822209047083E0835F4E700BF00BF70BDD47A0500C87A0500E87A0500B8
:20753800F87A0500FEB50C4605462C276E4678190C213246FFF7F8FE58B19DF8000001287C
:207558000AD001994FF0FF3011B10F44A742EED3FEBD4FF0FF30FEBD0298FEBD10F1240F05
:20757800D8BF6FF023001B28A8BF1B20243003210F22A1EB101122EA000022FA01F14FF640
:20759800FF7222FA00F040EA014001490860704718A00C40B0B50A490A4A0B4B0C684D68F3
:2075B800AC42FCD1844208BFB0BD155C145DAC424FF0FF3538BF01252C441C5D0C60EDE775
:2075D80000600C40C07A0500C47A0500F8B50C4F0C4605466E466CB13868002182684FF005
:2075F8008040904740B100F017FA0098013C05F8010BF0E70020F8BD4FF0FF30F8BD00BF7E
:20761800C401001070B50B4E0B4C3068816820468847054600060AD03068002142682046FE
:20763800904730688168204688470028F9D1E8B270BD00BFD801001000400340B0B5044612
:20765800FFF7E0FF0546600300F04AF904462DB1054801210068426804489047E0B20028D6
:2076780018BFFF20B0BD00BFD8010010004003407CB5B9200A4D0024012101268DF807000A
:207698000DF107002C7000F073F82E70092C04D80134FFF7A7FD0028F8D1FFF771FE7CBDC9
:2076B80014200240F8B514460D460646FFF7AAFF00F0B8F904462FB10548012100684268AB
:2076D80004489047002C18BFFF242046F8BD00BFD801001000400340F8B51C46154601EBAD
:2076F8004036FFF78FFF00F09DF904462FB1054801210068426804489047002C18BFFF24FE
:207718002046F8BDD8010010004003400A4880F308880A48016841F47001016000BF00BF35
:2077380000F09DF908B1FFF7DFFE0020FEF7C8FC012000F096F900BF0040012088ED00E031
:2077580007480068C00608D406480749006808400649884204BF012070470020704700BF20
:20777800B04F00505013005000C4FF3F00C0071CF8B5094F0C4605466E4654B1386815F802
:20779800011B42684FF08040904700F045F9013CF3E70020F8BD00BFC4010010BCB50620F0
:2077B800084C012101258DF80700002020700DF10700FFF7DDFF2570002818BF6FF002000D
:2077D800BCBD00BF1420024080B5FFF7B9FF60B10648006881034FEA00414FF0000058BFE5
:2077F8000816BDE88040FFF7B9BE80BDB44F005080B506480649006808400649884204D181
:20781800FFF7E6FD1328C8BF80BDFEE71813005000F0FF0F0010B40B70B51C46154601EB7D
:20783800403600F0D1F8210405D016F8011B013C05F8011BF7E708B900F0E8F8002070BDCB
:2078580070B514460D46064600F0BEF82CB116F8011B013C05F8011BF8E708B900F0D6F891
:20787800002070BD10B5064A08210B0608BF10BD82EA5003C40708BF430801391846F4E7B1
:207898002083B8EDB0B5064907231A46002B04D48C5C855C531EA542F7D0D00FB0BD00BF54
:2078B800B87A0500B0B5064907231A46002B04D48C5C855C531EA542F7D0D00FB0BD00BF45
:2078D800B07A050080B5044B1B689B699847034900220A6080BD00BFA801001084046042C0
:2078F80080B50449096849698847034900220A6080BD00BFA80100108404604210B54AB185
:2079180010F8013B11F8014B013AA3421CBF012010BDF4E7002010BDBCB5044D01AC286806
:2079380000F08BF80028FAD1BCBD00BFC4010010B0B538B1431E013922B18D5C541E9D54B4
:207958002246F9E7B0BD80B500F05AF8002000214FF0FF32BDE88040FEF79EBF80B50349FA
:2079780008220431FFF7CAFFC0B280BD547F05000B4611461A4600F035B800BF0A46002135
:2079980000F030B81F22531C08BF7047835C013A01F8013BF7E710B500239A4208BF10BD44
:2079B800CC5CC4540133F8E70022202A08BF70478B5C83540132F8E780B50A46D0F8031042
:2079D8001046FFF7DBFF80BD80B500F019F8002818BF012080BD09F12C064FF001080DF127
:2079F8004307704700239A4208BF7047C1540133F9E70B46D0F80320C11D184600F034B874
:207A18000020EFF3108072B6704770470020EFF3108062B67047704738683146C2684FF08E
:207A3800804010470746284631462246FFF74ABF01F10C002C31FEF7A5BE214602694FF0BA
:207A580080401047FEF798FFFFF760BEFEE7016881F30888406800474FF480600847012083
:0E7A7800704700BFFEE7FEE7FFF795BFFEE791
:207A880000002000C215000000001000C214000000000800EF12000000000400EF110000F4
:207AA80000000000000000004F4144204E564D314343323678325231010200030200010381
:207AC8006D7205000B7A0500D1790500000100000FA128FFF000000002000000F81100000E
:107AE800D47A050000030020E07A0500341700204E
:207F5400014C0000B0177D511DEC108BD851BCA2ED3D9E19B733A52F33DA05404D137650E9
:207F74003D88DF5CD0E2F2583053C42AB92ABEEF665FECCF5616CC36EF2DC95E462B7C3B97
:0C7F940009C19956D9AF958163237BE7A2
:207FA80000008001100080FFFDFF5800FFFFBBF3FFFFFFFFFFFFFFFFFFFFFFFFFFFFFFFFB9
:207FC800FFFFFFFFFFFFFFFFFFFFFFFFFFFFFFFFFFFFFF00FFFFFFFF00FFFFFF00C5C5FF2A
:187FE800000000FF00600500FFFFFFFFFFFFFFFFFFFFFFFFFFFFFFFF2D
:00000001FF
