:10D10000F80B002079F20100ADF101007D39020039
:10D110008939020095390200AD390200A1390200B7
:10D12000000000000000000000000000E502020016
:10D13000BDF101000000000091020200C1F10100F8
:10D14000C5F10100C9F10100CDF10100A9050200FE
:10D15000D1F10100D5F10100D9F10100DDF10100AB
:10D16000E1F10100E5F10100E9F10100EDF101005B
:10D17000F1F10100F5F10100F9F10100FDF101000B
:10D1800001F2010005F2010009F201000DF20100B7
:10D1900011F2010015F2010019F2010099050200D7
:10D1A0001DF2010021F2010025F2010029F2010027
:10D1B0002DF2010031F2010035F2010039F20100D7
:10D1C0003DF20100B905020041F2010045F2010003
:10D1D00049F201004DF2010051F2010055F2010047
:10D1E00059F201005DF2010061F2010065F20100F7
:0CD1F00069F201006DF2010071F2010013
:10D1FC0000015F5F00000000FE0B00004D04020008
:10D20C00000400000000000000000000000000000E
:10D21C00000000000000000020570020000000006B
:10D22C0001015F5F01000000FF030000AD0402007C
:10D23C0000010000000000000000000000000000E1
:10D24C000000000000000000205B00200000000037
:10D25C0001015F5F2D0100000F030000C5D300002A
:10D26C00001000000000000000000000050000009D
:10D27C000000000003000000481C0020000000001B
:10D28C0078EE0200800000AE0005000001000000F6
:10D29C0000000000100000008CEE02007000000086
:10D2AC00000500000100000000000000200000004C
:10D2BC0098EE020071000000000500000100000063
:10D2CC000000000040000000A4EE0200720000000C
:10D2DC0000050000010000000000000080000000BC
:10D2EC00B8EE020073000000000500000100000011
:10D2FC000000000000010000D5040200ADD30000C6
:10D30C002D0100001700000000000080190502002C
:10D31C00A1D300002D01000003000000000000401C
:10D32C0059050200B9D300002D01000021000000B6
:10D33C000000002001015F5F2C0100000F020000C3
:10D34C000DF10100001000000000000000000000C2
:10D35C00010000000000000000000000200C002074
:10D36C0000000000C8EE0200700000AE00050000D6
:0CD37C0001000000000000001000000094
:10D3A00008B5132000F08AFD002008BD08B527202D
:10D3B00000F084FD002008BD08B5312000F07EFD9E
:10D3C000002008BDF0B58DB01AF0B8FB002840F081
:10D3D000838101F0E9FD01F04BFA02F061F902F0FE
:10D3E000C3FC02F07FFF03F0E1FB06F007F803F057
:10D3F00083FE04F053F904F071FE05F0B7F905F06F
:10D4000021FE00F08DFB4FF0004017F077F94FF050
:10D41000005017F073F9AF4C4FF000414FF0FF3060
:10D4200017F024F9C5060BD52146102017F026F970
:10D430002368981C20D30021606817F03FF9EBE7C0
:10D44000810630D4470600F19A80050600F1CD80B0
:10D45000C10540F1C78021464FF4807017F00EF9E6
:10D4600001460028D8D1D4E900359A1CC0F0F380D9
:10D47000284617F023F9CFE7002B6568C0F2DF805C
:10D48000DBB2882B00F0F98046DC442B00F0FA80F8
:10D4900051DD662B00F00A81772B35D18D4805F0E0
:10D4A000D3FD0146E4E72146202017F0E7F80146C6
:10D4B0000028B1D1D4E900359A1CD9D2002BC0F292
:10D4C000C4802369082B40F0FB80A669042E40F03D
:10D4D000F780284608AA676917F0D8F8082840F0AE
:10D4E000EF8033460221606806AA17F0CFF80428BF
:10D4F00040F0E680069BA068CDE90073DDE90823D3
:10D500001AF060FB0146B3E7552B40F0D980714813
:10D5100002F056FC0146ABE7CC2B00F0B88014DDDE
:10D52000DD2B00F0C880EE2B40F0CA80694800F087
:10D53000C3FA01469CE7222B00F0AE80332B0ED1BC
:10D54000644801F08FFD014692E7AA2B00F0A98004
:10D55000BB2B0CD15F4804F0F9FD014688E7112B85
:10D5600040F0AE805B4801F0AFF9014680E7992BAF
:10D5700040F0A680574803F0F3FD014678E72146C6
:10D58000402017F07BF8014600287FF445AFD4E92E
:10D5900000359E1CBFF46CAF002B56DB2369082BB3
:10D5A00040F08E806669042E40F08A80284608AAE2
:10D5B000276A17F06BF8082840F082803346012173
:10D5C000606805AA17F062F8042879D1059B06AABD
:10D5D000CDE901720093A068DDE908231AF054FB3D
:10D5E000014645E717F072F816E72146802017F04C
:10D5F00045F8014600287FF40FAFD4E90035981CA8
:10D60000BFF436AF002B20DB2369082B67D1226AD9
:10D610000C2A64D1284606AA17F038F808285ED1EB
:10D6200008AB0093A068DDE906231AF087FB0646E5
:10D63000002848D03146284617F040F8ECE66FF055
:10D640008001284617F03AF8E6E628466FF0800198
:10D6500017F034F8E0E6002BF7DB2369082B2FD115
:10D66000284608AA17F012F8082829D1DDE908236E
:10D67000A0681AF093FB0146FAE6164803F0D2FAC6
:10D680000146F5E6134802F037F80146F0E6114886
:10D6900005F09CF80146EBE60E4800F027FD014638
:10D6A000E6E60C4804F0AAF80146E1E6094802F073
:10D6B000A1FE0146DCE6074805F016FF0146D7E665
:10D6C0006FF08001D4E601460C23606808AA16F0CA
:10D6D000E9FFAFE7882C002016F0F8FF79E66FF03D
:10D6E0008006A7E7F0B58BB028B314461AB30546F9
:10D6F0000E4628220021684616F05EFFA646EC463C
:10D700000027BCE80F00AEE80F00BCE80F00AEE851
:10D710000F009CE803008EE80300D5E90012D5E96C
:10D7200002302D69C4E90012C4E90405C4E90236D7
:10D7300038460BB0F0BD6FF08007F9E7F0B56FF039
:10D74000F903044691B02822002106A8019316F09F
:10D7500033FF2369082B34D1226A042A31D10021F6
:10D76000606802AA16F092FFA368002B21DB029AE0
:10D77000CDE9042304AB06AA93E8030000F054FBB0
:10D78000019060B9039BFBB1DDE90A12DDE9076591
:10D79000069FC3E90251C3E900761A610190042390
:10D7A000606800210DEB030216F07CFF002011B031
:10D7B000F0BD1722142103981DF03CFD08B1A368A9
:10D7C000D5E76FF08000F2E76FF08000E6E700BF7A
:10D7D0002DE9F0416FF0F90304469CB028220021A6
:10D7E00008A8019316F0E8FE2369102B60D1226A85
:10D7F000042A5DD10021606804AA16F047FFA768DB
:10D80000002F41DB049ED6F80480B8F1000F36D11A
:10D8100000252822002112A816F0CEFE0DF1480C9A
:10D820000DF1200EBCE80F00AEE80F00BCE80F00C1
:10D83000AEE80F009CE803008EE80300F36831694E
:10D84000D6F800C0CDE90C31B368CDE908C8CDE900
:10D850000A37069A02AB08A80195059900F026FA46
:10D860000423029F079E01903760606829460DEBF4
:10D87000030216F017FF28461CB0BDE8F081079B95
:10D880001B68CDE90237C3E71722082107981DF06E
:10D89000D1FC68B11E22282104981DF0CBFC38B1C0
:10D8A000DDE905011E221DF0C5FC08B1A768A9E746
:10D8B0006FF08000E0E700BF6FF0800230B50369D1
:10D8C00085B0042B01922DD1036A0446042B29D183
:10D8D0000D466A460021406816F0D8FE44F2EE4339
:10D8E000A168009A9D42CDE902210DD046F2EE6377
:10D8F0009D4210D00423606800210DEB030216F056
:10D90000D1FE002005B030BD04AB13E9030000F0E8
:10D9100057FA0190EEE704AB13E9030000F002F9B7
:10D920000190E7E71046EDE76FF0800330B58BB06C
:10D9300003930369102B42D1026A0446042A3ED1A4
:10D940000D464068002106AA16F0A0FEA368002B31
:10D9500013DB43F2EE3206999542CDE904131AD057
:10D9600042F2EE239D4220D060680423002103AAE6
:10D9700016F098FE00200BB030BD1722DDE907013C
:10D980001DF058FCD8B143F2EE32A36806999542D7
:10D99000CDE90413E4D1DDE90723099804A9009037
:10D9A00003C900F0ADF90390DEE7099804A90090DF
:10D9B000DDE9072303C900F0D3F90390D4E76FF042
:10D9C0008000D8E730B5054697B02822002102A88C
:10D9D00016F0F2FD2B69042B39D16868002101AAE9
:10D9E00016F054FE019CAD68FCB1282200210CA861
:10D9F00016F0E2FD0DF1080E0DF1300CBCE80F0041
:10DA0000AEE80F00BCE80F00AEE80F009CE8030092
:10DA10008EE803002368029363680393A36804936A
:10DA2000D4E90323CDE90552079302A800F026FAB2
:10DA3000019B4BB1DDE90612DDE90350029CC3E90D
:10DA40000201C3E900451A61002017B030BD6FF034
:10DA50008000FAE76FF0800270B503698EB0182B72
:10DA6000059226D1056A0446042D22D18168002939
:10DA70001FDB002108AA406816F008FEA368089A78
:10DA80000D99CDE90623DDE90B23CDE901310092A3
:10DA900006A90A9B099A03C900F0AAF806462B4674
:10DAA0006068002105AA059616F0FCFD00200EB066
:10DAB00070BD1046FBE700BF44F2EE42016803462A
:10DAC000914229D00FDC40F6EE0291421FD014DDC6
:10DAD00042F2EE22914203D043F2EE32914218D14B
:10DAE0001846FFF721BF46F2EE62914214D047F28A
:10DAF000EE73994205D1FFF721BEEE2909D1FFF758
:10DB0000A9BF45F2EE53994203D1FFF761BEFFF77B
:10DB100059BF6FF0800070471846FFF7CDBE00BFB9
:10DB200000F03AB830B583B06C461A4D84E8030073
:10DB300095F85130C3B1009B002B04DB6FF08304D8
:10DB4000204603B030BD94E803001EF0BAFB95F800
:10DB500051300446002BF3D110F1FA0F14D16FF0BD
:10DB6000F904204603B030BD4FF0FF31284600F0E5
:10DB700027FA0028F3D1009B002BE4DB95F8513005
:10DB80006FF08304002BD9D1024800F023FA20461D
:10DB900003B030BDB82C002038B5124C23780BB13F
:10DBA000002038BD4FF440610F4816F0DBFE17F03F
:10DBB000D5F80028F5D119F0C1FF70B90B4D95F8D3
:10DBC000503013B101232370EAE70121284600F009
:10DBD000F1F9012385F85030F4E717F079F96FF087
:10DBE000830038BD145500200C2D0020B82C0020D7
:10DBF0002DE9F0472C4F90B002AC84E803004FF0C1
:10DC0000FF31384690461E46DDF8609000F0D8F9A6
:10DC100080BB012387F85130002E3DD0199BC9F8F5
:10DC200000000093054694E803001A9B05AA17F02C
:10DC300009F8044608BB059906AC8C46D1E909EA07
:10DC4000CDE90E00BCE80F000FC49CE80F0084E88B
:10DC50000F00434652467146CDE9006906A81EF002
:10DC600071F805981EF01AFB10F1FA0F044687F8B8
:10DC700051500AD16FF0F9040AE005981EF00EFB2E
:10DC800014F1FA0F87F85150F4D0384600F0A2F999
:10DC9000204610B0BDE8F08738466FF0890487F859
:10DCA000516000F097F9F3E7B82C00202DE9F84314
:10DCB000124D06460F4628464FF0FF3190469946D2
:10DCC00000F07EF978B90446304601264B464246BC
:10DCD000394685F851601EF021F910F1FA0F85F8E8
:10DCE0005140044604D16FF0F9042046BDE8F883A2
:10DCF000284600F06FF92046BDE8F883B82C0020D4
:10DD00002DE9F041154E84B002AD85E803004FF0D7
:10DD1000FF3130461746984600F052F988B90A9903
:10DD2000044600910121434686F851103A4695E891
:10DD300003001EF033F810F1FA0F86F85140044644
:10DD400005D16FF0F904204604B0BDE8F0813046FB
:10DD500000F040F9204604B0BDE8F081B82C002066
:10DD60002DE9F041154E84B002AD85E803004FF077
:10DD7000FF3130461746984600F022F988B90A99D3
:10DD8000044600910121434686F851103A4695E831
:10DD900003001EF083F810F1FA0F86F85140044694
:10DDA00005D16FF0F904204604B0BDE8F08130469B
:10DDB00000F010F9204604B0BDE8F081B82C002036
:10DDC00070B584B06D460390154B039A85E8030047
:10DDD0009A4204D9039A03F570439A421DD9114E11
:10DDE0004FF0FF31304600F0EBF8044660B995E89B
:10DDF0000300012386F851301DF056FF10F1FA0F91
:10DE000086F85140044602D16FF0F90402E0304632
:10DE100000F0E0F8204604B070BD6FF08504F9E72B
:10DE2000FFFFFE7FB82C0020F0B583B06D46124E88
:10DE300085E803004FF0FF313046174600F0C0F888
:10DE400070B90123044695E803003A4686F851303C
:10DE50001DF055FF10F1FA0F86F85140044604D129
:10DE60006FF0F904204603B0F0BD304600F0B2F880
:10DE7000204603B0F0BD00BFB82C002010B504460A
:10DE8000006A16F0A7FD2046BDE8104028220021B8
:10DE900016F092BBEFF39080EFF31083012282F330
:10DEA000908872B643EA0020704700BFC30700D4D1
:10DEB00062B6000A80F39088704700BF034B53F8A6
:10DEC000203013B1D3E90120104770470C390020EE
:10DED00038B50446B0B1084614490D68A3B1596875
:10DEE0005FFA81FCBCF1FF0F1AD0A84201D0E029F3
:10DEF00014D019681B7AC4E901210D4A206042F848
:10DF000020403BB9204638BD0949626041F82040B5
:10DF1000A36020601BF04EFB2046F4E7002038BDD4
:10DF2000C02519685D601B7AE5E700BF201C002052
:10DF30000C39002030B100214FF0FF320123016085
:10DF400042600372704700BF00B5EFF39083EFF3B8
:10DF5000108C4FF0010E8EF3908872B61CF0010FFA
:10DF6000C0E901124CEA032300D162B61B0A83F315
:10DF700090885DF804FB00BF1BF0A4BB034B5868FE
:10DF8000C0F30800003818BF0120704700ED00E022
:10DF9000054B064A5B681068C3F30803C01AB0FA61
:10DFA00080F04009704700BF00ED00E0201C002019
:10DFB000704700BF003918BF01210170704700BFD2
:10DFC000027803461AB1002210461A7070474FF0CB
:10DFD000FF30704701230370704700BF704700BFD8
:10DFE0000E4A10B4904216D00D4A904210D1012032
:10DFF0000C4C0D4A52F8200050B10C4A80F82030E9
:10E0000012684461C0E906125DF8044B05F0C8BD12
:10E010005DF8044B70470020054CEAE7F0E9010089
:10E02000103A00200120CDAB083A0020803A0020B1
:10E030000020CDABF8B50C461746054624211E221C
:10E0400020461DF0F7F898B32146264C2422264896
:10E0500016F074FA1E22102160681DF0EBF838B338
:10E0600010226168284616F069FA284605F010FD6E
:10E070000646E8B91E2294F82410606965601DF018
:10E08000D9F8A8B1E169B1B9216AE9B944F22243EA
:10E090009F42A06994F8251005D01E221DF0CAF8F1
:10E0A00030B13046F8BD17221DF0C4F80028F8D171
:10E0B0006FF08006F5E71E22A0681DF0BBF800286F
:10E0C000F6D0216A0029E1D01E22E0681DF0B2F8E6
:10E0D0000028EDD01722216A20691DF0ABF8002836
:10E0E000D4D1E5E7803A0020843A002043F222337D
:10E0F0002DE9F041046805469C428CB000F0848113
:10E100003ADC41F622139C4200F04C8100F38F80F0
:10E1100040F622039C4200F0638141F222139C42AC
:10E1200066D1002103690291082B40F0C780026A82
:10E13000042A40F0C380406803AA16F0A7FA049CA2
:10E140002CB1AB68002BC0F21D8307AF3C462146C3
:10E150009DF80C0005F02EFD20B1AB68002BC0F23D
:10E160002B83029068680423002102AA16F09AFA11
:10E1700000200CB0BDE8F08145F622539C4200F02F
:10E18000998140F3A08046F622639C4200F0B6815C
:10E1900047F222739C4240F08C802B69142B40F094
:10E1A0008D802A6A042A40F089800021686807AAC5
:10E1B00016F06CFAAB68002BC0F24B82DDE90771F8
:10E1C000DDE90A3646F222608442099A3846009612
:10E1D00000F0FC8206F0E4FA04466868042300219B
:10E1E00002AA029416F05EFA00200CB0BDE8F0819D
:10E1F000222C63D1002103690291082B5ED1026AAF
:10E20000042A5BD1406803AA16F040FAAB68002BE1
:10E21000C0F24682DDE903463146204606F004F9A5
:10E22000AB68002800F0DE82002B9ADA9AE742F20F
:10E2300022239C4200F0148142F622239C423DD1CD
:10E240000369082B3AD1026A042A37D100214068B9
:10E2500007AA16F01BFAAB68002B80F2B581079A6B
:10E26000A24922F47F6323F00F038B4226D1C2F32D
:10E270000B02002A00F0C482012A1FD19C4F089E85
:10E280009C4C1E220821304626601CF0D3FFA8B10A
:10E2900008223146201D16F051F9D4E901011E2251
:10E2A0001CF0C8FF50B1211D384606F0EBFA0446B9
:10E2B0008BE046F222639C423FF46FAF6FF0800028
:10E2C0000CB0BDE8F08144F222439C4209D023DD2A
:10E2D00044F622439C4200F0ED8045F222539C42DA
:10E2E000ECD12B69082BE9D12A6A042AE6D1002156
:10E2F000686803AA16F0CAF9AB68002BC0F2258241
:10E30000DDE9037144F222439C42384600F0628208
:10E3100006F06CF9044660E743F622339C42CDD107
:10E320000369082BCAD1026A042AC7D100214068B8
:10E3300007AA16F0ABF9AB68002B80F23F81079A71
:10E340006A4922F47F6323F00F038B42B6D1C2F3F4
:10E350000B02002A00F05682012AAFD1644F089EBA
:10E36000644C1E220C21304626601CF063FF0028FE
:10E37000A4D00C223146201D16F0E0F81E22E168E0
:10E3800060681CF057FF002898D0D4E902011722DA
:10E390001CF050FF002891D0211D384606F0C4FA29
:10E3A000044612E003690C2B88D10021406807AABB
:10E3B00016F06CF9AB68002BC0F2E580079C204694
:10E3C000DDE9081206F038FA0446686804230021E3
:10E3D00003AA039416F066F900200CB0BDE8F081A2
:10E3E0000369102B7FF46AAF0021406807AA16F07A
:10E3F0004DF9AB68002BC0F2B38007980899DDE9AE
:10E40000092306F005FADFE70369042B7FF456AF12
:10E410000021406807AA16F039F9AB68002B80F29A
:10E420009B80079A314922F47F6323F00F038B42CC
:10E430007FF444AFC2F30B02002A00F0DF81012A0F
:10E440007FF43CAF2A4806F025F8079A274922F4C2
:10E450007F6323F00F038B4200F0FA8100202FE747
:10E460008368002BBFF62AAF0369082B7FF426AF21
:10E47000002107AA406816F009F9079C1B4924F4FB
:10E480007F6222F00F028A427FF418AFC4F30B04BC
:10E4900014B1012C7FF412AF1722242108981CF02C
:10E4A000C9FE00283FF40AAF134B089A002043F836
:10E4B000242005E72B69082B7FF400AF2A6A042A81
:10E4C0007FF4FCAE0021686807AA16F0DFF8AB689D
:10E4D000002B7FDBDDE9076144F622439C42304696
:10E4E00000F07C8106F0F2FA6EE700BF0020CDABB1
:10E4F000103A0020803A0020083A00208368002B60
:10E50000BFF6DCAE0369042B7FF4D8AE036A042B9C
:10E510007FF4D4AE002103AA406816F0B7F8039A3E
:10E52000B94922F47F6323F00F038B427FF4C6AE18
:10E53000C2F30B02002A00F03D81012A7FF4BEAE37
:10E54000B24806F035FB044604230021686807AA98
:10E55000079416F0A7F881E7079805F09BFF7DE781
:10E56000079AA94922F47F6323F00F038B427FF4BB
:10E57000A5AEC2F30B02002A00F05D81012A7FF4F0
:10E580009DAEA2483AE7079A9F4922F47F6323F0A1
:10E590000F038B427FF492AEC2F30B02002A00F00D
:10E5A0004C81012A7FF48AAE984C1E22DDE90801D5
:10E5B0001CF040FE00287FF402AF7FE6DDE9070192
:10E5C00006F0B2F9044600E7DDE9070106F05AF962
:10E5D0000446FAE6079A8C4922F47F6323F00F037E
:10E5E0008B427FF46BAEC2F30B02002A00F029814C
:10E5F000012A7FF463AE854EDDF82080844F1E2211
:10E6000014214046C7F800801CF014FE00283FF497
:10E6100055AE41461422381D15F090FF396971B18D
:10E620001E2278681CF006FE00283FF447AE172231
:10E630003969B8681CF0FEFD00283FF43FAE1E2289
:10E64000397DF8681CF0F6FD00283FF437AE7149BB
:10E6500042E7079A6C4922F47F6323F00F038B4251
:10E660007FF42CAEC2F30B02002A00F0E880012AEE
:10E670007FF424AE654F1E22102108981CF0DAFDAD
:10E6800000283FF41BAE1022089903A815F056FF8E
:10E6900003A805F0FDF900287FF410AE03A98FE56B
:10E6A000049EBEB11E22102130461CF0C3FD00287E
:10E6B0003FF404AE07AF10223146384615F03EFF56
:10E6C0009DF81C305A1E012A40F29280042B7FF4E0
:10E6D000F5AD3E464D4C2768002F40F0B680DDF882
:10E6E0000C801E22082140461CF0A4FD00283FF4A7
:10E6F000E5AD41460822204615F020FF1E22642188
:10E7000020681CF097FD00283FF4D8ADA04658F8CB
:10E71000081B6422404615F011FF1E22012160688B
:10E72000C4F800801CF086FD00283FF4C7AD04F15A
:10E730006C0801224046616815F000FF364BC4F8B2
:10E7400004805F60354B029366E5039A2E4922F4FC
:10E750007F6323F00F038B427FF4B0ADC2F30B0253
:10E76000002A70D0012A7FF4A9AD284F0499284EC1
:10E77000224607A83160FFF75DFC00287FF4A0ADBA
:10E78000311DBFE51E22102120461CF053FD00283C
:10E790003FF494AD07AF10222146384615F0CEFE67
:10E7A0009DF81C305A1E012A3ED9042B7FF486ADF9
:10E7B0003C46CCE41A48C4E600209DF80C20124BDD
:10E7C00015491343029341F82200CBE405F0B2FF50
:10E7D000044602E505F066FE0446FEE406F008F98C
:10E7E0000446F2E5002B0290BFF6BCAC2060B9E411
:10E7F00001230C4A8DF81C3008926AE7084822E68B
:10E80000074F3CE5064FAAE50020CDAB103A0020AB
:10E81000803A0020843A0020083A00200120CDAB45
:10E82000F0E90100E1DF000001230E4A3C460892B6
:10E830008DF81C308BE40C48E0E50B4CB5E60A4F34
:10E8400019E7094ED8E6084F90E76FF08C0037E5DE
:10E85000C2F30B02012A7FF401AE0022034B1A60BF
:10E86000FCE500BFE1DF0000F0E90100103A002004
:10E8700005F0D0BD0E4A10B4904216D00D4A904219
:10E8800010D101200C4C0D4A52F8200050B10C4A16
:10E8900080F8203012684461C0E906125DF8044B2C
:10E8A00005F07EB95DF8044B70470020054CEAE79F
:10E8B000FCE90100B03A00200110CDABA83A0020DD
:10E8C000F43A00200010CDAB42F611232DE9F041BF
:10E8D000046805469C4288B000F00D813BDC41F2A3
:10E8E00011139C4200F049816ADD41F611139C42EC
:10E8F00000F0948142F211239C4240F0F78083683B
:10E90000002B80F2F3800369082B40F0EF80002198
:10E9100004AA406815F0BAFE049CAD4924F47F6255
:10E9200022F00F028A4240F0E180C4F30B04002C75
:10E9300000F0F482012C40F0D980172224210598A0
:10E940001CF078FC002800F0D180A24B059A002032
:10E9500043F82420CCE044F211439C4264D07EDD95
:10E9600046F211639C4203D047F211739C4257D187
:10E970002B69082B40F0BA802A6A042A40F0B6803E
:10E980000021686802AA15F081FEAB68002BC0F276
:10E990004282DDE9026146F211639C42304600F09A
:10E9A000C88106F06DFC04460423686800210DEB65
:10E9B0000302019415F076FE002008B0BDE8F08156
:10E9C000112C00F00D8140F611039C4240F08E8026
:10E9D00003690C2B40F08A80026A042A40F086808A
:10E9E0000021406804AA15F051FE059800287DD04A
:10E9F000069A102A7AD1AB68049C002BC0F257818A
:10EA00000146204606F064FC0446686804230021A1
:10EA100002AA029415F046FE002008B0BDE8F0817D
:10EA200045F211539C4261D12B69082B5ED12A6AB1
:10EA3000042A5BD10021686802AA15F027FEAB68A2
:10EA4000002BC0F21082DDE9027144F211439C42B6
:10EA5000384600F0728106F099FB0446A4E743F2C1
:10EA600011339C422DD043F611339C423ED1836832
:10EA7000002B3BDA0369042B38D1036A042B35D110
:10EA8000002102AA406815F001FE029A504922F4C2
:10EA90007F6323F00F038B4228D1C2F30B02002ABD
:10EAA00000F03A82012A21D14B4806F0AFFC04461F
:10EAB00004230021686804AA049415F0F3FD0020E3
:10EAC00016E00369042B11D10021406804AA15F057
:10EAD000DDFDAB68002B80F23A81049A3C4922F4B8
:10EAE0007F6323F00F038B4200F0FC806FF0800007
:10EAF00008B0BDE8F0810369082BF7D1026A042A47
:10EB0000F4D10021406804AA15F0C0FDAB68002BC9
:10EB100080F22181049A2E4922F47F6323F00F03AF
:10EB20008B42E3D1C2F30B02002A00F02582012AB6
:10EB3000DCD1294F059E294C1E220C21304626602F
:10EB40001CF078FB0028D1D00C223146201D15F096
:10EB5000F5FC1E22E16860681CF06CFB0028C5D043
:10EB6000D4E9020117221CF065FB0028BED0211D4C
:10EB7000384606F0F1FB044647E70021036901919E
:10EB8000082BB3D1026A042AB0D1406802AA15F05A
:10EB90007DFD039C2CB1AB68002BC0F2C18104AF9A
:10EBA0003C4621469DF8080006F0E6F820B1AB6827
:10EBB000002BC0F2B48001900423686800210DEBA3
:10EBC000030215F06FFD002008B0BDE8F08100BF22
:10EBD0000010CDABA83A0020B03A0020F43A002053
:10EBE000002103690191082B80D1026A042A7FF475
:10EBF0007DAF406802AA15F049FDAB68002BC0F25A
:10EC0000B580DDE902463146204606F02BFAAB68B6
:10EC1000002800F09680002BCDDACDE70369082BA1
:10EC20007FF464AF026A042A7FF460AF0021406879
:10EC300004AA15F02BFDAB68002B80F29180049A9A
:10EC4000C34922F47F6323F00F038B427FF44EAF5E
:10EC5000C2F30B02002A00F09181012A7FF446AF33
:10EC6000BC4F059EBC4C1E220C21304626601CF079
:10EC7000E1FA00283FF43AAF0C223146201D15F08E
:10EC80005DFC1E22E16860681CF0D4FA00283FF4A5
:10EC90002DAFD4E9020117221CF0CCFA00283FF472
:10ECA00025AF211D384606F023FB0446ADE6A84AF1
:10ECB00024F47F6323F00F0393427FF417AFC4F370
:10ECC0000B04002C00F06781012C7FF40FAFA14CE6
:10ECD0001E2210211CF0AEFA00283FF407AFDDE938
:10ECE00005028DE6C2F30B02002A00F04381012ADF
:10ECF0007FF4FCAE974806F0EFF9049A944922F4A9
:10ED00007F6323F00F038B427FF4D9AEC2F30B0273
:10ED1000012A7FF4D4AE00228E4B1A60CFE6002089
:10ED20009DF808208A4B8D491343019341F8220036
:10ED300042E706F07DFA044636E606F0D5F90446C9
:10ED400032E6002B0190BFF637AF206034E704981D
:10ED500006F0C2F9B3E6DDE9040106F0FDFA53E678
:10ED6000DDE9040106F0C4FA04464EE6039EBEB196
:10ED70001E22102130461CF05DFA00283FF4B6AE8A
:10ED800004AF10223146384615F0D8FB9DF81030FC
:10ED90005A1E012A40F2E880042B7FF4A7AE3E46BB
:10EDA0006C4C2768002F40F0F880DDF808801E22A8
:10EDB000082140461CF03EFA00283FF497AE414639
:10EDC0000822204615F0BAFB1E22382120681CF0CC
:10EDD00031FA00283FF48AAEA04658F8081B3822C2
:10EDE000404615F0ABFB1E2201216068C4F800808C
:10EDF0001CF020FA00283FF479AE04F1400801220B
:10EE00004046616815F09AFB544BC4F804805F607B
:10EE1000534B0193F7E6029A4D4922F47F6323F0A6
:10EE20000F038B427FF462AEC2F30B02002A00F0A4
:10EE3000AE80012A7FF45AAE464E1E22102103985E
:10EE40001CF0F8F900283FF451AE102203990DEBA5
:10EE5000020015F073FB04A804F01AFE00287FF4EA
:10EE600045AE04A997E5029A394922F47F6323F05D
:10EE70000F038B427FF43AAEC2F30B02002A00F07C
:10EE80008880012A7FF432AE324FDDF80C80324E9A
:10EE90001E2218214046C6F800801CF0CBF900283D
:10EEA0003FF424AE41461822301D15F047FB1E22C8
:10EEB000102170681CF0BEF900283FF417AE0DF168
:10EEC000100810224046716815F038FB4046C6F81D
:10EED000048004F0DDFD00287FF408AE1E2210211E
:10EEE00030691CF0A7F900283FF400AE1E227169BA
:10EEF000B0681CF09FF900283FF4F8AD1722716943
:10EF0000F0681CF097F900283FF4F0AD337E002B39
:10EF10007FF4ECAD311D98E51248C6E500240CE500
:10EF20001E22102120461CF085F900283FF4DEAD9A
:10EF300004AF10222146384615F000FB9DF8103032
:10EF40005A1E012A1CD9042B7FF4D0AD3C4628E67A
:10EF50000010CDABB03A0020F43A0020A83A0020CF
:10EF60000110CDABFCE9010001230D4A8DF81030F2
:10EF7000059214E70B48BEE60A4FDBE5094F70E641
:10EF80000123074A3C4605928DF8103009E6054EEC
:10EF900053E7044F79E7034C9AE66FF08C00A7E53E
:10EFA00075E80000FCE9010006F052B8114A10B4FF
:10EFB000904219D00832904219D00F4A904210D195
:10EFC00002200E4C0E4A52F8200050B10D4A80F833
:10EFD000203012684461C0E906125DF8044B04F069
:10EFE000DFBD5DF8044B70470020074CEAE70120C5
:10EFF000064CE7E7DCE901001C3B00200230CDAB0A
:10F00000103B0020703B00200030CDAB0130CDAB79
:10F0100070B50D461646044610211E2228461CF0E7
:10F0200009F9D8B110222946204615F087FA1E2288
:10F03000A16820681CF0FEF880B1F20707D4F3063F
:10F040006068E16805D41E221CF0F4F830B100209D
:10F0500070BD17221CF0EEF80028F8D16FF0800088
:10F0600070BD00BF42F233232DE9F041046805462C
:10F070009C4288B000F07A8174DD44F233439C42B4
:10F0800054D02CDD46F233639C4203D047F23373F5
:10F090009C4247D12B69082B3FD12A6A042A3CD1D4
:10F0A0000021686801AA15F0F1FAAB68002BC0F2E4
:10F0B0000D82DDE9016146F233639C42304600F087
:10F0C000B68106F0BFFE04466868042300216A4644
:10F0D000009415F0E7FA002008B0BDE8F08142F690
:10F0E00033239C4200F0C08043F233339C4214D15E
:10F0F0000369042B11D10021406804AA15F0C6FA57
:10F10000AB68002B80F29B81049AAF4922F47F63A5
:10F1100023F00F038B4200F05F816FF0800008B096
:10F12000BDE8F08145F233539C42F6D12B690C2B9C
:10F13000F3D12A6A042AF0D10021686801AA15F0E7
:10F14000A5FAAB68002BC0F28A81DDE90161039A60
:10F1500044F233439C42304600F06D8106F0FAFDE4
:10F160000446B1E741F233139C4200F0D58036DD0E
:10F1700041F633139C42D0D10369082BCDD1026AEA
:10F18000042ACAD10021406804AA15F07FFAAB68AE
:10F19000002B80F25E81049A8B4922F47F6323F076
:10F1A0000F038B42B9D140F6FE710A42C2F30B0342
:10F1B00040F04282854C04EBC304854E05993046ED
:10F1C000236840F8041B93F84120FFF721FF002833
:10F1D000A5D12046311D06F09FFE044638E0332CB1
:10F1E00071D040F633039C4297D10369082B94D128
:10F1F000026A042A91D10021406804AA15F046FA57
:10F20000AB68002B80F21F81049A6F4922F47F6360
:10F2100023F00F038B4280D140F6FE710A42C2F305
:10F220000B0340F00482694C04EBC304684E05995B
:10F230003046236840F8041B93F84120FFF7E8FEAE
:10F2400000287FF46CAF2046311D06F01FFE0446F7
:10F250000423686800210DEB0302019415F022FAE3
:10F26000002008B0BDE8F0818368002BBFF655AFE1
:10F270000369042B7FF451AF036A042B7FF44DAF75
:10F28000002101AA406815F001FA019A4E4922F4C2
:10F290007F6323F00F038B427FF43FAF40F6FE7392
:10F2A0001A42C2F30B0140F0AE80484800EBC100A7
:10F2B00006F07AFE044604230021686804AA049438
:10F2C00015F0F0F99DE0002103690091082B7FF40F
:10F2D00024AF026A042A7FF420AF406801AA15F027
:10F2E000D5F9AB68002BC0F21A81DDE90146314641
:10F2F000204606F097FCAB68002800F06981002BDF
:10F3000000DB00906868042300216A4615F0CAF902
:10F31000002008B0BDE8F081002103690091082BAE
:10F320007FF4FBAE026A042A7FF4F7AE406801AABC
:10F3300015F0ACF9029C2CB1AB68002BC0F24E81E9
:10F3400004AF3C4621469DF8040006F0C5F80028AD
:10F35000D8D0AB68002BD4DA00209DF804201A4BDB
:10F360001C491343009341F82200CBE78368002B2C
:10F37000BFF6D3AE0369082B7FF4CFAE002104AAF9
:10F38000406815F083F9049B0F4923F47F6222F053
:10F390000F028A427FF4C1AE40F6FE71C3F30B0246
:10F3A0000B4035D0022A7FF4B8AE02241722242164
:10F3B00005981BF03FFF00283FF4AFAE054B059AC0
:10F3C000002043F82420AAE60030CDABDCE90100A0
:10F3D000703B0020103B002040F6FE731A42C2F33F
:10F3E0000B0140F01F81A74800EBC10006F056FC5E
:10F3F000049AA54922F47F6323F00F038B4200F0A7
:10F40000348100208BE602297FF487AE9F484FE7C6
:10F410009C4901EBC2028A4200F0328108318A42E3
:10F4200000F02C81994B9A427FF477AEBDE706F04D
:10F43000E3FC044648E606F039FC044644E604983A
:10F4400006F02CFCDDE7DDE9040106F01FFD0446B3
:10F45000FEE6DDE9040106F05FFD0446F8E6019AE8
:10F46000894922F47F6323F00F038B427FF455AE6A
:10F4700040F6FE731A42C2F30B0140F0E980814E60
:10F4800006EBC106824F02993846336840F8041BE8
:10F4900093F84120FFF7BCFD00287FF440AE1E2208
:10F4A000102103981BF0C6FE00283FF436AE102250
:10F4B00003990DEB020015F041F804A804F0E8FAF6
:10F4C00000287FF42AAE04AA391D41E6019A6E494C
:10F4D00022F47F6323F00F038B427FF41EAE40F6CD
:10F4E000FE731A42C2F30B0140F0B780654E06EB83
:10F4F000C1061E22102102981BF09CFE00283FF43A
:10F500000CAE102202990DEB020015F017F804A8BA
:10F5100004F0BEFA00287FF400AE04A9CBE5029EF9
:10F52000E6B11E22102130461BF084FE00283FF475
:10F53000F4AD04AF10223146384614F0FFFF9DF8B9
:10F540001130013B012B3FF6E8AD9DF810305A1EFB
:10F55000012A61D9042B7FF4E0AD3E464B4C27686D
:10F56000002F7FD1DDF804801E22082140461BF0C9
:10F5700061FE00283FF4D1AD41460822204614F038
:10F58000DDFF1E22482120681BF054FE00283FF4B6
:10F59000C4ADA04658F8081B4822404614F0CEFFE0
:10F5A0001E2201216068C4F800801BF043FE002881
:10F5B0003FF4B3AD04F1500801224046616814F0F5
:10F5C000BDFF344BC4F804809F60334B00938EE63C
:10F5D000002B0090BFF696AE206093E61E2210210D
:10F5E00020461BF027FE00283FF497AD04AF102201
:10F5F0002146384614F0A2FF9DF81130013B012B43
:10F600003FF68BAD9DF810305A1E012A19D9042BF4
:10F610007FF483AD3C4695E60123204A8DF81030F7
:10F6200005929AE702297FF478AD1848DEE6022BAE
:10F630007FF473AD154CF9E5022B7FF46EAD134CDE
:10F64000BBE50123154A3C4605928DF8103079E65A
:10F6500002297FF462AD0D4E14E702297FF45DADFF
:10F660000A4E46E76FF08C0059E5C2F30B02022AFE
:10F670007FF4C7AE0022054B1A60C2E6012495E66E
:10F680001C4693E6DCE901000030CDAB1C3B0020BA
:10F69000703B0020103B00200230CDABADEF0000EE
:10F6A00006F0B6BA0E4A10B4904216D00D4A9042F7
:10F6B00010D101200C4C0D4A52F8200050B10C4AD8
:10F6C00080F8203012684461C0E906125DF8044BEE
:10F6D00004F066BA5DF8044B70470020054CEAE779
:10F6E000D0E901008C3B00200140CDAB843B0020E1
:10F6F000DC3B00200040CDAB42F244232DE9F04139
:10F70000046805469C4288B000F0A48174DD44F290
:10F7100044439C4255D02DDD46F244639C4203D0C5
:10F7200047F244739C4248D12B690C2B40D12A6A82
:10F73000042A3DD10021686801AA14F0A7FFAB6834
:10F74000002BC0F28F82DDE9016146F244639C42E6
:10F750003046039A00F0C38106F028FF044668682B
:10F76000042300216A46009414F09CFF002008B096
:10F77000BDE8F08142F644239C4200F0E28043F26F
:10F7800044339C4214D10369042B11D100214068F9
:10F7900004AA14F07BFFAB68002B80F2A881049AC6
:10F7A000A74922F47F6323F00F038B4200F0798195
:10F7B0006FF0800008B0BDE8F08145F244539C42F0
:10F7C000F6D12B69082BF3D12A6A042AF0D1002143
:10F7D000686801AA14F05AFFAB68002BC0F2EC81F4
:10F7E000DDE9017144F244439C42384600F07B81DC
:10F7F00006F05AFE0446B2E741F244139C4200F080
:10F80000F48045DD41F644139C42D1D10369082BB5
:10F81000CED1026A042ACBD10021406804AA14F098
:10F8200035FFAB68002B80F26681049A844922F48C
:10F830007F6323F00F038B42BAD1C2F30B02002A7D
:10F8400000F06882012AB3D17E4F059E7E4C1E22B5
:10F850000C21304626601BF0EDFC0028A8D00C22BD
:10F860003146201D14F06AFE1E22E16860681BF01C
:10F87000E1FC00289CD0D4E9020117221BF0DAFC3D
:10F88000002895D0211D384606F0F2FE04464CE0D3
:10F89000442C00F0818040F644039C4288D10369E7
:10F8A000082B85D1026A042A82D10021406804AA6B
:10F8B00014F0ECFEAB68002B80F22381049A6049BF
:10F8C00022F47F6323F00F038B427FF471AFC2F306
:10F8D0000B02002A00F01C82012A7FF469AF594F05
:10F8E000059E594C1E220C21304626601BF0A2FCBE
:10F8F00000283FF45DAF0C223146201D14F01EFE9F
:10F900001E22E16860681BF095FC00283FF450AFB0
:10F91000D4E9020117221BF08DFC00283FF448AF08
:10F92000211D384606F06CFE044604236868002159
:10F930000DEB0302019414F0B5FE002008B0BDE801
:10F94000F0818368002BBFF633AF0369042B7FF48B
:10F950002FAF036A042B7FF42BAF002101AA40686C
:10F9600014F094FE019A364922F47F6323F00F03CA
:10F970008B427FF41DAFC2F30B02002A40F0A78038
:10F98000324806F0BDFE044604230021686804AA3C
:10F99000049414F087FE98E0002103690091082B7D
:10F9A0007FF406AF026A042A7FF402AF406801AA1E
:10F9B00014F06CFEAB68002BC0F2A980DDE90146B3
:10F9C0003146204606F0D6FCAB68002800F07A816C
:10F9D000002B00DB00906868042300216A4614F0C5
:10F9E00061FE002008B0BDE8F081002103690091AC
:10F9F000082B7FF4DDAE026A042A7FF4D9AE40689A
:10FA000001AA14F043FE029C2CB1AB68002BC0F29B
:10FA10005F8104AF3C4621469DF8040006F02AFBB6
:10FA20000028D8D0AB68002BD4DA00209DF8042041
:10FA3000034B07491343009341F82200CBE700BF73
:10FA40000040CDAB8C3B0020DC3B0020D0E9010026
:10FA5000843B00208368002BBFF6AAAE0369082B05
:10FA60007FF4A6AE002104AA406814F00FFE049CA7
:10FA7000B54924F47F6222F00F028A427FF498AEE7
:10FA8000C4F30B0444BB1722242105981BF0D2FBBE
:10FA900000283FF48DAEAD4B059A002043F824209A
:10FAA00088E6C2F30B02002A00F03081012A7FF4BD
:10FAB0007FAEA74806F098FC049AA34922F47F631E
:10FAC00023F00F038B4200F03581002072E6012AFB
:10FAD0007FF46EAE9E4854E7012CD4D068E606F061
:10FAE0003BFD04463BE606F087FC044637E60498F7
:10FAF00006F07AFCE9E7DDE9040106F0B9FD044609
:10FB000013E7DDE9040106F07BFD04460DE7029EE4
:10FB1000BEB11E22102130461BF08CFB00283FF4A2
:10FB200047AE04AF10223146384614F007FD9DF869
:10FB300010305A1E012A40F2E380042B7FF438AEC5
:10FB40003E46834C2768002F40F0F180DDF80480AA
:10FB50001E22082140461BF06DFB00283FF428AE12
:10FB600041460822204614F0E9FC1E224421206868
:10FB70001BF060FB00283FF41BAEA04658F8081BA2
:10FB80004422404614F0DAFC1E2201216068C4F8C9
:10FB900000801BF04FFB00283FF40AAE04F14C0834
:10FBA00001224046616814F0C9FC684BC4F8048027
:10FBB0005F60684B009303E7019A634922F47F6317
:10FBC00023F00F038B427FF4F3ADC2F30B02002A44
:10FBD00000F0AB80012A7FF4EBAD5D4FDDF80880CB
:10FBE0005D4E1E2214214046C6F800801BF022FB09
:10FBF00000283FF4DDAD41461422301D14F09EFC78
:10FC00001E22102170681BF015FB00283FF4D0ADB8
:10FC10000DF1100810224046716814F08FFC404628
:10FC200003F036FF00287FF4C3AD1E227169B0686F
:10FC3000C6F804801BF0FEFA00283FF4B9AD172285
:10FC40007169F0681BF0F6FA00283FF4B1AD306935
:10FC500030B11E2210211BF0EDFA00283FF4A8ADB0
:10FC60003E49BFE5019A384922F47F6323F00F0330
:10FC70008B427FF49DADC2F30B02002A53D0012AC0
:10FC80007FF496AD324E039830B11E2210211BF046
:10FC9000D1FA00283FF48CAD1E22102102981BF0EF
:10FCA000C9FA00283FF484AD102202990DEB02003E
:10FCB00014F044FC04A803F0EBFE00287FF478ADB8
:10FCC00004A942E5002B0090BFF685AE206082E6D5
:10FCD0001E22102120461BF0ADFA00283FF468AD2B
:10FCE00004AF10222146384614F028FC9DF810304D
:10FCF0005A1E012A10D9042B7FF45AAD3C468AE6DD
:10FD00000123174A8DF81030059219E71548D1E6FE
:10FD1000144FE5E5134F98E50123114A3C4605923F
:10FD20008DF8103077E60F4EADE70E4F56E76FF0C7
:10FD30008C003FE5C2F30B02012A7FF4C6AE00221D
:10FD4000034B1A60C1E600BF0040CDAB843B0020EE
:10FD50008C3B00200140CDABDC3B0020E03B002091
:10FD6000A5F60000D0E9010006F0FABA0E4A10B478
:10FD7000904216D00D4A904210D101200C4C0D4AF1
:10FD800052F8200050B10C4A80F8203012684461CB
:10FD9000C0E906125DF8044B03F002BF5DF8044BA6
:10FDA00070470020054CEAE7B8E90100FC3B002061
:10FDB0000150CDABF43B0020303C00200050CDABD7
:10FDC00042F655232DE9F041046805469C4288B06F
:10FDD00000F0FC803BDC41F255139C4200F01E8198
:10FDE0006CDD41F655139C4200F0C38042F255236E
:10FDF0009C4240F0E6808368002B80F2E280036939
:10FE0000082B40F0DE80002104AA406814F03EFC7C
:10FE1000049C9D4924F47F6222F00F028A4240F044
:10FE2000D080C4F30B04002C00F02481012C40F09E
:10FE3000C8801722242105981BF0FCF9002800F047
:10FE4000C080924B059A002043F82420BBE045F285
:10FE500055539C4200F08D805ADD46F255639C421A
:10FE600004D047F255739C4240F0AB802B69082BBD
:10FE700040F0A7802A6A042A40F0A3800021686825
:10FE800002AA14F003FCAB68002BC0F29981DDE9F3
:10FE9000026146F255639C42304600F0B88106F09C
:10FEA000DDFE04460423686800210DEB0302019483
:10FEB00014F0F8FB002008B0BDE8F081552C54D1B7
:10FEC000002103690191082B7BD1026A042A78D1B1
:10FED000406802AA14F0DAFBAB68002BC0F21B8169
:10FEE000DDE902463146204606F00CFEAB680028EC
:10FEF00000F09181002B00DB019004236868002151
:10FF00000DEB030214F0CEFB002008B0BDE8F08139
:10FF100043F255339C4250D10369042B51D1002147
:10FF2000406804AA14F0B2FBAB68002B80F2A880F2
:10FF3000049A554922F47F6323F00F038B4240D18A
:10FF4000C2F30B02002A00F08A81012A39D15048FD
:10FF500006F012FE049A4C4922F47F6323F00F034B
:10FF60008B4200F0968100202DE040F655039C4224
:10FF700027D12B69082B24D12A6A042A21D10021F8
:10FF8000686802AA14F082FBAB68002BC0F2848080
:10FF9000DDE9026144F255439C4200F0628145F282
:10FFA00055539C4200F06D8140F655039C4230460B
:10FFB00062D006F08BFE044674E744F255439C423F
:10FFC000D7D06FF0800008B0BDE8F0818368002BC7
:10FFD000F7DA0369042BF4D1036A042BF1D1002171
:10FFE00002AA406814F052FB029A274922F47F6368
:10FFF00023F00F038B42E4D1C2F30B02002A37D067
:020000021000EC
:10000000012ADED1224806F091FE04460423002195
:10001000686804AA049414F045FBA4E7002103696E
:100020000191082BCDD1026A042ACAD1406802AAE4
:1000300014F02CFB039C2CB1AB68002BC0F2F180B8
:1000400004AF3C4621469DF8080006F0C9FB002895
:100050003FF453AFAB68002BBFF64EAF00209DF8C6
:100060000820094B09491343019341F8220044E752
:100070000848C8E70024DCE606F012FE044611E753
:10008000049806F079FD6EE70050CDABF43B0020FC
:10009000FC3B0020B8E90100029A8A4922F47F6300
:1000A00023F00F038B428CD1C2F30B02002A00F025
:1000B000E480012A85D1844EDDF80C80834F1E2216
:1000C00010214046C7F800801BF0B4F800283FF428
:1000D00078AF41461022381D14F030FA1E2210214C
:1000E00078681BF0A7F800283FF46BAF0DF11008FB
:1000F00010224046796814F021FA404603F0C8FC0B
:1001000000287FF45EAF3969C7F80480002940F009
:10011000C9806F493EE7039EBEB11E2210213046C2
:100120001BF088F800283FF44CAF04AF1022314692
:10013000384614F003FA9DF810305A1E012A40F296
:100140008880042B7FF43DAF3E465F4C2768002F2C
:1001500040F09C80DDF808801E22082140461BF0FC
:1001600069F800283FF42DAF41460822204614F0DC
:10017000E5F91E22282120681BF05CF800283FF4D6
:1001800020AFA04658F8081B2822404614F0D6F9A4
:100190001E2201216068C4F800801BF04BF8002883
:1001A0003FF40FAF04F1300801224046616814F0BB
:1001B000C5F9484BC4F804805F60474B019391E652
:1001C000029A404922F47F6323F00F038B427FF4AD
:1001D000F8AEC2F30B02002A51D0012A7FF4F1AE2F
:1001E000394E1E22102103981BF024F800283FF4FA
:1001F000E8AE102203990DEB020014F09FF904A859
:1002000003F046FC00287FF4DCAE04A941E606F0CA
:1002100003FD044646E6002B0190BFF66EAE20605B
:100220006BE61E22102120461BF004F800283FF444
:10023000C8AE04AF10222146384614F07FF99DF86D
:1002400010305A1E012A11D9042B7FF4BAAE3C4655
:10025000F8E60123214A8DF81030059274E7204812
:1002600076E6304606F090FC04461BE601231B4A66
:100270003C4605928DF81030E4E6194E1CE7184E06
:10028000AFE7304606F0A4FC04460BE66FF08C00A6
:1002900099E6C2F30B02012A7FF465AE00220A4BF5
:1002A0001A6060E61E22B8681AF0C4FF00283FF406
:1002B00088AED7E9030117221AF0BCFF00287FF4AB
:1002C00028AF7EE60050CDABFC3B0020303C002048
:1002D000343C0020F43B00200150CDAB6DFD00000C
:1002E000B8E9010006F004BC0E4A10B4904216D0E2
:1002F0000D4A904210D101200C4C0D4A52F82000BA
:1003000050B10C4A80F8203012684461C0E90612EE
:100310005DF8044B03F044BC5DF8044B70470020CB
:10032000054CEAE7ACE901004C3C00200160CDAB94
:10033000443C0020B43C00200060CDABF8B516462C
:1003400090F82220002A3BD104460D461E2224218B
:1003500030461F461AF06EFF90B3242231462046E5
:1003600014F0ECF81E22102120681AF063FF38B355
:1003700010222168284614F0E1F8284603F088FB93
:100380000646E8B91E2294F82010206925601AF06C
:1003900051FFA8B1A169B1B9E169E9B944F2664375
:1003A0009F42606994F8211005D01E221AF042FF86
:1003B00030B13046F8BD17221AF03CFF0028F8D1C2
:1003C0006FF08006F5E71E2260681AF033FF002800
:1003D000F6D0E1690029E1D01E22A0681AF02AFFB8
:1003E0000028EDD01722E169E0681AF023FF002809
:1003F000D4D1E5E743F266332DE9F04104680546C0
:100400009C428AB000F08D813BDC41F666139C4231
:1004100000F04C8100F38F8040F666039C4200F0B0
:100420006D8141F266139C4266D1002103690191FE
:10043000082B40F0C780026A042A40F0C38040685D
:1004400002AA14F023F9039C2CB1AB68002BC0F274
:10045000218306AF3C4621469DF8080006F0BCFC0F
:1004600020B1AB68002BC0F22F8301900423686891
:1004700000210DEB030214F015F900200AB0BDE8CD
:10048000F08145F666539C4200F0A18140F39F80C5
:1004900046F666639C4200F0BF8147F266739C4259
:1004A00040F08B802B69102B40F08C802A6A042A44
:1004B00040F088800021686802AA14F0E7F8AB6871
:1004C000002BC0F2FA81DDE9026146F266608442E7
:1004D000049A3046059B00F0018307F0D9F90446E1
:1004E0000423686800210DEB0302019414F0DAF88C
:1004F00000200AB0BDE8F081662C63D100210369B9
:100500000191082B5ED1026A042A5BD1406802AADD
:1005100014F0BCF8AB68002BC0F22D82DDE9024676
:100520003146204607F02CF8AB68002800F0EA823C
:10053000002B9ADA9AE742F266239C4200F01D8172
:1005400042F666239C423DD10369082B3AD1026AE8
:10055000042A37D10021406806AA14F097F8AB6846
:10056000002B80F2A481069AA74922F47F6323F02E
:100570000F038B4226D1C2F30B02002A00F0D28275
:10058000012A1FD1A14F079EA14C1E2208213046EF
:1005900026601AF04FFEA8B108223146201D13F044
:1005A000CDFFD4E901011E221AF044FE50B1211DF5
:1005B000384607F0C1F9044695E046F266639C426E
:1005C0003FF470AF6FF080000AB0BDE8F08144F2F4
:1005D00066439C4209D023DD44F666439C4200F00A
:1005E000F68045F266539C42ECD12B69082BE9D189
:1005F0002A6A042AE6D10021686802AA14F046F8A3
:10060000AB68002BC0F20C82DDE9027144F2664354
:100610009C42384600F0668207F07AF804465FE7AD
:1006200043F666339C42CDD10369082BCAD1026AD6
:10063000042AC7D10021406806AA14F027F8AB6845
:10064000002B80F22E81069A6F4922F47F6323F0FB
:100650000F038B42B6D1C2F30B02002A00F0608276
:10066000012AAFD1694F079E694C1E220C213046EA
:1006700026601AF0DFFD0028A4D00C223146201D90
:1006800013F05CFF1E22E16860681AF0D3FD0028B9
:1006900098D0D4E9020117221AF0CCFD002891D09D
:1006A000211D384607F09AF904461CE003690C2B1B
:1006B00088D1026A042A85D10021406806AA13F075
:1006C000E5FF079800283FF47DAF089A0C2A7FF4D5
:1006D00079AFAB68069C002BC0F2C2810146204670
:1006E00007F016F9044668680423002102AA029460
:1006F00013F0D8FF00200AB0BDE8F08103690C2B8D
:100700007FF460AF0021406806AA13F0BFFFAB681A
:10071000002BC0F2B3800698DDE9071207F0EAF873
:10072000E0E70369042B7FF44DAF0021406806AA7F
:1007300013F0ACFFAB68002B80F29C80069A324924
:1007400022F47F6323F00F038B427FF43BAFC2F3AD
:100750000B02002A00F0E281012A7FF433AF2B481C
:1007600006F040FF069A284922F47F6323F00F0326
:100770008B4200F0FE81002026E78368002BBFF645
:1007800021AF0369082B7FF41DAF002106AA406842
:1007900013F07CFF069C1C4924F47F6222F00F02B8
:1007A0008A427FF40FAFC4F30B0414B1012C7FF421
:1007B00009AF1722242107981AF03CFD00283FF4C6
:1007C00001AF144B079A002043F82420FCE62B6964
:1007D000082B7FF4F7AE2A6A042A7FF4F3AE0021D7
:1007E000686806AA13F052FFAB68002BC0F28C8039
:1007F000DDE9066144F666439C4200F07E813046A6
:1008000007F0BEF96EE700BF0060CDAB4C3C0020A6
:10081000B43C0020443C00208368002BBFF6D2AEDD
:100820000369042B7FF4CEAE036A042B7FF4CAAEB7
:10083000002102AA406813F029FF029ABE4922F45F
:100840007F6323F00F038B427FF4BCAEC2F30B0235
:10085000002A00F03781012A7FF4B4AEB74807F0D0
:10086000FDF9044604230021686806AA069413F0E3
:1008700019FF80E7069806F0B5FE7CE7069AAE49B8
:1008800022F47F6323F00F038B427FF49BAEC2F30D
:100890000B02002A00F06081012A7FF493AEA74882
:1008A0003AE7DDE9060107F099F804461BE7DDE9C0
:1008B000060107F041F8044615E7029A9E4922F422
:1008C0007F6323F00F038B427FF47CAEC2F30B02F5
:1008D000002A00F04381012A7FF474AE974E1E2255
:1008E000102103981AF0A6FC00283FF46BAE1022EA
:1008F000039906A813F022FE06A803F0C9F8002801
:100900007FF460AE06A9E0E5069A8B4922F47F6386
:1009100023F00F038B427FF455AEC2F30B02002A83
:1009200000F01E81012A7FF44DAE844EDDF81C805C
:10093000834F1E2214214046C7F800801AF07AFC2B
:1009400000283FF43FAE41461422381D13F0F6FD57
:100950003969002940F0168144F666439C42F868E4
:10096000397D00F0C3801E221AF064FC00283FF499
:1009700029AE744943E7039EBEB11E2210213046C2
:100980001AF058FC00283FF41DAE06AF1022314685
:10099000384613F0D3FD9DF818305A1E012A40F254
:1009A000B780042B7FF40EAE3E46644C2768002FC0
:1009B00040F0DC80DDF808801E22082140461AF055
:1009C00039FC00283FF4FEAD41460822204613F0D2
:1009D000B5FD1E225C2120681AF02CFC00283FF493
:1009E000F1ADA04658F8081B5C22404613F0A6FD66
:1009F0001E2201216068C4F800801AF01BFC002848
:100A00003FF4E0AD04F1640801224046616813F050
:100A100095FD4D4BC4F804805F604C4B01937FE51E
:100A2000029A454922F47F6323F00F038B427FF43F
:100A3000C9ADC2F30B02002A00F09480012A7FF4B2
:100A4000C1AD3E4F3E4E039A3046234640F8042B3C
:100A500006A9FFF773FC00287FF4B6AD311DD5E57C
:100A6000354A24F47F6323F00F0393427FF4AAAD49
:100A7000C4F30B04002C77D0012C7FF4A3AD2F4CD2
:100A80001E220C211AF0D6FB00283FF49BADDDE9B5
:100A9000070223E61E22102120461AF0CBFB002875
:100AA0003FF490AD06AF10222146384613F046FDC4
:100AB0009DF818305A1E012A36D9042B7FF482ADD6
:100AC0003C46C8E42248CAE600209DF808201A4B9C
:100AD0001D491343019341F82200C7E406F0A6FE26
:100AE0000446FDE406F086FD0446F9E417221AF0F8
:100AF000A1FB00283FF466AD1249304606F0D2FF54
:100B00000446F0E5002B0190BFF6B0AC2060ADE4E8
:100B10000123104A8DF81830079245E70C481FE66C
:100B20000B4FA0E50A4F2EE501230A4A3C460792E7
:100B30008DF818308FE400BF0060CDAB4C3C002036
:100B4000B43C0020B83C0020443C00200160CDAB08
:100B5000ACE90100E90201001248DDE5114EBEE6F4
:100B6000104EE3E60F4F6DE70E4C89E76FF08C00F7
:100B70002AE5C2F30B02012A7FF4FDAD00220A4BE5
:100B80001A60F8E51E2278681AF054FB00283FF43A
:100B900019AD17223969B8681AF04CFB00287FF4A8
:100BA000DBAE0FE5ACE901004C3C002006F0DEBCFA
:100BB00030B4164CA04226D0154CA04217D10124C7
:100BC000144D154850F8240088B1144C45616569EE
:100BD00080F82030012B8161A16AC56109D0D268FB
:100BE0001378082B0B7009D030BC02F0D9BF30BC91
:100BF000704792681378082B0B70F5D130BC93685E
:100C00008B6002F0CDBF0024054DDAE7A0E90100BA
:100C1000E43C00200180CDABDC3C0020103D0020F6
:100C20000080CDAB43F288322DE9F04103680446E1
:100C300093428CB02DD06FDC41F28812934200F0C9
:100C4000FA8042F2882293423DD18368002B35DA44
:100C50000369082B32D1002108AA406813F016FD61
:100C6000089C8B4924F47F6222F00F028A4225D12E
:100C7000C4F30B04002C40F08F8117222421099823
:100C80001AF0D8FAD0B1834B099A002043F82420F7
:100C900016E00369042B11D10021406808AA13F063
:100CA000F5FCA368002B80F27B81089A784922F436
:100CB0007F6323F00F038B4200F056816FF08000BA
:100CC0000CB0BDE8F081882BF8D1002103690291B6
:100CD000082BF3D1026A042AF0D1406804AA13F069
:100CE000D5FCA368002BC0F26B81DDE904563146C8
:100CF000284607F08FFAA368002800F0B981002B7E
:100D000000DB029060680423002102AA13F0CAFCF1
:100D100000200CB0BDE8F08145F28852934200F00B
:100D2000BF8046F28862934228D18368002BC5DADF
:100D30000369042BC2D1036A042BBFD1002104AA8A
:100D4000406813F0A3FC049A514922F47F6323F016
:100D50000F038B42B2D1C2F30B02002A00F01A81BA
:100D6000012AABD14C4807F07DFC05460423002145
:100D7000606808AA089513F095FC09E144F28842DE
:100D800093429BD10369082B98D1026A042A95D11A
:100D90000021406804AA13F079FCA368002B80F2BC
:100DA0000381049A3A4922F47F6323F00F038B42B4
:100DB00084D1C2F30B02002A00F07F81012A7FF464
:100DC0007DAF354F059E354DB3681E22102130464C
:100DD0006E61AB621AF02EFA00283FF46FAF10225A
:100DE0003146284613F0AAFB286807F01BF8034693
:100DF00000283FF463AF294608A841F8043B02F0FD
:100E00007BFE00287FF45AAF05F1080105F11800B8
:100E100002F096FE00287FF451AF2946384607F0CD
:100E200027FA054660680423002102AA029513F000
:100E300039FC002044E7002103690291082B7FF46C
:100E40003DAF026A042A7FF439AF406804AA13F068
:100E50001DFC059D2DB1A368002BC0F20F8108AFCA
:100E60003D4629469DF8100006F0F8FF00283FF4A3
:100E700049AFA368002BBFF644AF00209DF81020B7
:100E8000034B04491343029341F822003AE700BFA1
:100E90000080CDABDC3C0020E43C0020103D002075
:100EA0000369082B7FF40AAF026A042A7FF406AFB5
:100EB0000021406802AA13F0E9FBA368002B79DA4D
:100EC000029A864922F47F6323F00F038B427FF45A
:100ED000F5AEC2F30B02002A00F0F180012A7FF484
:100EE000EDAE7F4F039E7F4DF3681E2214213046E6
:100EF0006E61AB621AF09EF900283FF4DFAE142257
:100F00003146284613F01AFB286806F08BFF03468B
:100F100000283FF4D3AE294604A841F8043B02F070
:100F2000EBFD00287FF4CAAE05F1080108A802F025
:100F3000E3FD00287FF4C2AE05F10C0105F11800B5
:100F400002F0FEFD00287FF4B9AE2946384607F0CE
:100F500063FA05460423606800210DEB0302019546
:100F600013F0A0FB0020ABE6C2F30B02002A00F056
:100F7000A280012A7FF4A2AE594807F071F9089ABD
:100F8000564922F47F6323F00F038B4200F09C80CC
:100F9000002095E65448E6E6012C3FF46EAE8DE65F
:100FA000089807F05DF9F3E7DDE9040107F060F95F
:100FB000054637E7DDE9020107F02EFA0546C9E7E5
:100FC000059EDEB11E22102130461AF033F90028AA
:100FD0003FF474AE08AF10223146384613F0AEFA33
:100FE0009DF820305A1E012A02D9042B7FF466AEE8
:100FF00001233E463D4A8DF820300992384D2F6836
:10100000002F5ED1DDF810801E22082140461AF024
:1010100011F900283FF452AE41460822284613F049
:101020008DFA1E22202128681AF004F900283FF4C6
:1010300045AEA84658F8081B2022404613F07EFA19
:101040001E2201216868C5F800801AF0F3F8002814
:101050003FF434AE05F1280801224046696813F0D8
:101060006DFA234BC5F804805F60224B02933EE685
:10107000002B0290BFF646AE286043E61E221021E8
:1010800028461AF0D7F800283FF418AE08AF10220F
:101090002946384613F052FA9DF820305A1E012A8C
:1010A00002D9042B7FF40AAE0123104A3D4609926F
:1010B0008DF82030D5E60C485FE70B4F82E60A4FEB
:1010C00010E76FF08C00FBE5C2F30B02012A7FF4FE
:1010D0005FAF0022024B1A605AE700BF0080CDAB21
:1010E000E43C0020103D0020A0E90100B10B01000C
:1010F000DC3C00200180CDAB07F082B8114A10B46F
:10110000904219D00832904219D00F4A904210D123
:1011100002200E4C0E4A52F8200050B10D4A80F8C1
:10112000203012684461C0E906125DF8044B02F0F9
:1011300037BD5DF8044B70470020074CEAE70120FB
:10114000064CE7E78CE90100483D00200290CDAB5A
:101150003C3D00202C3E00200090CDAB0190CDAB5B
:1011600043F299322DE9F04103680446934288B076
:101170003ED000F3818041F29912934200F01E812B
:1011800042F2992293424DD18368002B45DA0369DC
:10119000082B42D1002104AA406813F077FA049B7F
:1011A0009C4923F47F6222F00F028A4235D140F637
:1011B000FE71C3F30B020B4040F0B381964901EB83
:1011C000C2028A4200F0578208318A4200F05582FA
:1011D000924B9A4221D102241722242105981AF019
:1011E00029F8D0B18E4B059A002043F8242016E050
:1011F0000369042B11D10021406804AA13F046FAB8
:10120000A368002B80F29181049A824922F47F63C3
:1012100023F00F038B4200F069816FF0800008B06B
:10122000BDE8F081992BF8D1002103690191082BC9
:10123000F3D1026A042AF0D1406802AA13F026FA18
:10124000A368002BC0F28181DDE9025631462846B1
:1012500007F076FEA368002800F0CF81002B00DBAA
:1012600001900423606800210DEB030213F01AFAC9
:10127000002008B0BDE8F08145F29952934200F099
:10128000D38046F2996293422AD18368002BC4DA54
:101290000369042BC1D1036A042BBED1002102AA29
:1012A000406813F0F3F9029A5A4922F47F6323F05D
:1012B0000F038B42B1D140F6FE710A42C2F30B0319
:1012C00000F02B81022BA8D1544807F033FF0546CC
:1012D00004230021606804AA049513F0E3F91AE1DD
:1012E00044F29942934298D10369082B95D1026A3E
:1012F000042A92D10021406804AA13F0C7F9A36818
:10130000002B80F21681049A424922F47F6323F075
:101310000F038B4281D140F6FE710A42C2F30B03E8
:1013200040F093813C4F07EBC307059D3D4E1E22C5
:1013300014212846356019F07DFF00283FF46DAF79
:1013400029461422301D13F0F9F8706806F06AFD82
:10135000054600283FF461AF816970601E22F06885
:1013600019F068FF00283FF458AF1722A9693069C7
:1013700019F060FF00283FF450AF1722A969706987
:1013800019F058FF00283FF448AF06F1080106F1B4
:10139000180002F0B1FB00287FF43FAF3846311D42
:1013A00007F0F8FD054660680423002102AA0295B3
:1013B00013F078F9002008B0BDE8F081002103693E
:1013C0000191082B7FF429AF026A042A7FF425AF2C
:1013D000406802AA13F05AF9039D2DB1A368002BAF
:1013E000C0F2118104AF3D4629469DF8080007F080
:1013F0004BF900283FF435AFA368002BBFF630AFA0
:1014000000209DF80820034B05491343019341F840
:10141000220026E70090CDAB8CE90100483D00207A
:101420003C3D00202C3E00200369082B7FF4F5AEE4
:10143000026A042A7FF4F1AE0021406804AA13F086
:1014400025F9A368002B7ADA049A8D4922F47F6388
:1014500023F00F038B427FF4E0AE40F6FE710A42A8
:10146000C2F30B0340F0F680864F07EBC307059DE0
:10147000854E1E2214212846356019F0DBFE002817
:101480003FF4CBAE29461422301D13F057F8706894
:1014900006F0C8FC054600283FF4BFAE81697060C5
:1014A0001E22F06819F0C6FE00283FF4B6AE1E22D8
:1014B000A969306919F0BEFE00283FF4AEAE1E22C5
:1014C000A969706919F0B6FE00283FF4A6AE06F1CE
:1014D000080106F1180002F00FFB00287FF49DAE12
:1014E0003846311D07F0D4FD05465CE740F6FE7333
:1014F0001A42C2F30B0140F0A380624800EBC10026
:1015000007F016FD049A5E4922F47F6323F00F036F
:101510008B4200F0A780002081E65A4800EBC30010
:10152000D3E6022A3FF457AE77E6049807F000FDB1
:10153000F1E7DDE9040107F02DFD054633E7DDE9BC
:10154000040107F0A5FD05462DE7039EDEB11E222E
:101550001021304619F06EFE00283FF45EAE04AF55
:1015600010223146384612F0E9FF9DF810305A1E1D
:10157000012A02D9042B7FF450AE01233E46434A90
:101580008DF810300592424D2F68002F67D1DDF89D
:1015900008801E220821404619F04CFE00283FF426
:1015A0003CAE41460822284612F0C8FF1E22D82130
:1015B000286819F03FFE00283FF42FAEA84658F8DF
:1015C000081BD822404612F0B9FF1E22022168688B
:1015D000C5F8008019F02EFE00283FF41EAE05F17C
:1015E000E00802224046696812F0A8FF294BC5F8BE
:1015F00004809F60284B019328E6002B0190BFF6E2
:1016000030AE28602DE61E221021284619F012FE69
:1016100000283FF402AE04AF10222946384612F0EB
:101620008DFF9DF810305A1E012A02D9042B7FF439
:10163000F4AD0123154A3D4605928DF81030D3E6EE
:1016400002297FF4EAAD12485AE7022B7FF4E5AD98
:101650000F4F6AE6022B7FF4E0AD0D4F07E76FF006
:101660008C00DCE5C2F30B02022A7FF454AF0022A7
:10167000074B1A604FE71C46AEE50124ACE500BFFE
:101680000090CDAB8CE901002C3E0020FD10010044
:10169000483D00203C3D00200290CDAB07F03EBC11
:1016A0002DE9F0474F4CA04200F098804E4CA042EC
:1016B0001FD101244D4D4E4850F82400C8B14D4C67
:1016C00081612168012B456180F82030C16112D011
:1016D000042B42D0052B08D15169D4F888200B780F
:1016E000082B137004BF8B689360BDE8F04702F0CD
:1016F00057BABDE8F087D2F80CE0D4F8B8509EF89D
:1017000000302B70D2F810C0D4F8BC109CF8003018
:101710000B70D769D4F8C0303E781E70166AD4F8C2
:10172000C490327889F8002095F80080B8F1080F4D
:1017300004BFDEF80840AC600D78082D04BFDCF86B
:1017400008508D601978082904BFB9689960082A83
:10175000CBD1B368C9F80830C7E7D769D4F8F860C7
:101760003B783370D2F82090D4F8FC5099F80030D0
:101770002B70D2F82480D4F8001198F800300B7048
:10178000D2F828E0D4F804319EF800C083F800C0F5
:10179000D2F830C0D4F808419CF80020227096F8A6
:1017A00000A0BAF1080F04BFBF68B7602E78082EFA
:1017B00004BFD9F80860AE600D78082D04BFD8F8D2
:1017C00008508D601978082904BFDEF80810996068
:1017D000082A8AD1DCF80830A36086E70024064D89
:1017E00069E700BF80E901005C3E002001A0CDABAD
:1017F000543E0020883E002000A0CDAB43F2AA3228
:101800002DE9F04103680446934288B000F0F58169
:1018100000F3BC8041F2AA12934200F0BB8249DD82
:1018200041F6AA12934229D042F2AA2293423CD115
:101830008368002B39DA0369082B36D1002104AA0A
:10184000406812F023FF049CB14924F47F6222F027
:101850000F028A4229D1C4F30B04002C00F0F98353
:10186000012C22D117222421059819F0E3FCE0B1C4
:10187000A84B059A002043F8242018E08368002B29
:1018800013DA0369042B10D1036A042B0DD1002154
:1018900002AA406812F0FAFE029A9D4922F47F6380
:1018A00023F00F038B4200F033836FF0800008B009
:1018B000BDE8F081AA2B00F0998240F6AA0293427B
:1018C000F3D10369082BF0D1026A042AEDD100217B
:1018D000406804AA12F0DAFEA368002B80F2478366
:1018E000049A8B4922F47F6323F00F038B42DCD1EF
:1018F000C2F30B02002A00F0D483012AD5D1864F0F
:10190000059E864D73691E22182130462E60C5F84B
:10191000883019F08FFC0028C7D018223146281DC6
:1019200012F00CFE686806F07DFA0028BDD06860F1
:1019300005F1080105F1380002F0DEF80028B4D105
:1019400005F10C0105F1480002F0D6F80028ACD1F1
:1019500005F1100105F1580002F0CEF80028A4D1DD
:1019600005F1140105F1680002F0C6F800289CD1C9
:1019700005F1180105F1780002F0E2F8002894D191
:10198000291D384608F0B6FE0546F8E146F2AA627F
:10199000934200F0518240F3C38047F2AA7293420F
:1019A00083D10369082B80D1026A042A7FF47DAFBA
:1019B0000021406804AA12F069FEA368002B80F29F
:1019C000D082049A524922F47F6323F00F038B42A2
:1019D0007FF46BAFC2F30B02002A00F05B83012A95
:1019E0007FF463AFDFF83081059E4C4DB26AF76932
:1019F000336BD6E90801C5E94012C5E93E701E22E5
:101A0000342130462E60C5F8083119F013FC002847
:101A10003FF44BAF34223146281D12F08FFD686829
:101A200006F000FA00283FF440AF686005F10801B5
:101A300005F1380002F060F800287FF436AF05F1B8
:101A40000C0105F1480002F057F800287FF42DAF93
:101A500005F1100105F1580002F04EF800287FF45E
:101A600024AF05F1140105F1680002F045F80028E3
:101A70007FF41BAF05F1180105F1780002F03CF886
:101A800000287FF412AF05F11C0105F1880002F077
:101A900033F800287FF409AF05F1200105F1980023
:101AA00002F04EF800287FF400AF05F1240105F1A3
:101AB000A80002F045F800287FF4F7AE05F12801F0
:101AC00001F1900002F03CF800287FF4EEAE05F141
:101AD0002C0101F19C0002F033F800287FF4E5AE00
:101AE00005F1300101F1A80002F006F800287FF4AA
:101AF000DCAE05F1340101F1B40002F021F8002858
:101B00007FF4D3AE291D404608F066FD054636E158
:101B100000A0CDAB543E00205C3E0020883E00205B
:101B200044F2AA42934200F09B8045F2AA529342AB
:101B30007FF4BBAE0369082B7FF4B7AE026A042AB8
:101B40007FF4B3AE0021406804AA12F09FFDA368A1
:101B5000002B80F21E82049AB44922F47F6323F0A2
:101B60000F038B427FF4A1AEC2F30B02002A00F0F8
:101B70009A82012A7FF499AEAD4F059EAD4D1E228B
:101B8000142130462E6019F055FB00283FF48DAE2D
:101B900014223146281D12F0D1FC686806F042F983
:101BA00000283FF482AE816968601E22286919F01E
:101BB00041FB00283FF479AE6B681E229969686981
:101BC00019F038FB00283FF470AE05F1080105F16B
:101BD000380001F091FF00287FF467AE05F10C0199
:101BE00005F1480001F088FF00287FF45EAE291D52
:101BF000384608F03DFC0546C1E00369042B7FF43C
:101C000054AE0021406804AA12F040FDA368002BE6
:101C100080F2A381049A854922F47F6323F00F03A5
:101C20008B427FF442AEC2F30B02002A00F03082F6
:101C3000012A7FF43AAE7E4808F088FB049A7B497B
:101C400022F47F6323F00F038B4240F07481C2F3D0
:101C50000B02012A40F06F810022754B1A606AE185
:101C60000369082B7FF421AE026A042A7FF41DAEBB
:101C70000021406804AA12F009FDA368002B80F23D
:101C80007C81049A694922F47F6323F00F038B421D
:101C90007FF40BAEC2F30B02002A00F00082012A8F
:101CA0007FF403AE624F059E624DF0683169D6E95C
:101CB0000723C5E92E01C5E9302324211E22304621
:101CC0002E6019F0B7FA00283FF4EFAD2422314618
:101CD000281D12F033FC686806F0A4F800283FF4D1
:101CE000E4AD686005F1080105F1380001F004FF7A
:101CF00000287FF4DAAD05F10C0105F1480001F090
:101D0000FBFE00287FF4D1AD05F1100105F158006C
:101D100001F016FF00287FF4C8AD05F1140105F1AC
:101D2000680001F00DFF00287FF4BFAD05F1180138
:101D300005F1780001F0E0FE00287FF4B6AD05F172
:101D40001C0105F1880001F0D7FE00287FF4ADAD3D
:101D500005F1200105F1980001F0F2FE00287FF462
:101D6000A4AD05F1240105F1A80001F0E9FE002869
:101D70007FF49BAD291D384608F0F2FA05466068ED
:101D80000423002102AA029512F08CFC002008B066
:101D9000BDE8F081002103690191082B7FF485AD36
:101DA000026A042A7FF481AD406802AA12F06EFC38
:101DB000039D2DB1A368002BC0F24D8104AF3D46B9
:101DC00029469DF8080007F0C9F920B1A368002B47
:101DD000C0F2B38001900423606800210DEB030280
:101DE00012F060FC002008B0BDE8F081002103691A
:101DF0000191082B7FF459AD026A042A7FF455AD96
:101E0000406802AA12F042FCA368002BC0F2C7800F
:101E1000DDE902563146284608F072FAA368002828
:101E200000F09580002BD5DAD5E700BF00A0CDAB40
:101E30005C3E0020883E00200369082B7FF435AD0E
:101E4000026A042A7FF431AD0021406804AA12F02E
:101E50001DFCA368002B80F29680049A954922F419
:101E60007F6323F00F038B427FF41FADC2F30B029D
:101E7000002A00F01281012A7FF417AD8E4F059ED3
:101E80008E4D1E22182130462E6019F0D3F90028FD
:101E90003FF40BAD18223146281D12F04FFB686845
:101EA00005F0C0FF00283FF400AD816968601E2284
:101EB000686919F0BFF900283FF4F7AC6B681E227F
:101EC0009969A86919F0B6F900283FF4EEACAB683F
:101ED00043B105F1080105F1380001F00DFE0028BD
:101EE0007FF4E5AC764901F13C0001F005FE0028E5
:101EF0007FF4DBAC734901F1480001F0FDFD0028DF
:101F00007FF4D3AC3846704908F00CFB054636E741
:101F1000C2F30B02002A00F09A80012A7FF4C5ACBC
:101F2000654808F051FC054604230021606804AAB6
:101F3000049512F0B7FB0020B9E400209DF80820BA
:101F40005C4B62491343019341F8220043E7002BA5
:101F50000190BFF640AF28603DE7049808F0F6F91D
:101F6000E9E7DDE9040108F037FB054607E7DDE9AD
:101F7000040108F0BFFB054601E7DDE9040108F0B4
:101F8000EFF90546FBE6DDE9040108F0CBFA05466A
:101F9000F5E6DDE9040108F06BFA0546EFE6039E7D
:101FA000DEB11E221021304619F044F900283FF41A
:101FB0007CAC04AF10223146384612F0BFFA9DF8CF
:101FC00010305A1E012A02D9042B7FF46EAC012373
:101FD0003E463F4A8DF810300592374D2F68002F4E
:101FE00063D1DDF808801E220821404619F022F94D
:101FF00000283FF45AAC41460822284612F09EFAC7
:102000001E222021286819F015F900283FF44DAC54
:10201000A84658F8081B2022404612F08FFA1E22CC
:1020200001216868C5F8008019F004F900283FF420
:102030003CAC05F1280801224046696812F07EFA9E
:10204000224BC5F804805F60224B0193E2E62248F0
:1020500067E7002406E41E221021284619F0EAF85A
:1020600000283FF422AC04AF10222946384612F073
:1020700065FA9DF810305A1E012A02D9042B7FF40C
:1020800014AC0123124A3D4605928DF8103097E6B4
:102090001148D1E5DFF84080A6E40F4FEFE60E4F80
:1020A00001E60D4F2CE40C4F67E56FF08C00FFF755
:1020B000FEBB00BF00A0CDAB5C3E0020883E0020F0
:1020C000943E0020983E00208C3E0020543E00208C
:1020D000A116010001A0CDAB80E9010008F006B90E
:1020E00030B4144CA04222D0134CA04211D1012490
:1020F000124D134850F8240058B1124C81612168E8
:10210000012B456180F82030C16104D030BC01F062
:1021100047BD30BC70479168226C0B781370082B58
:1021200008BF8B6830BC08BF936001F039BD002444
:10213000054DDEE774E901009C3F002001B0CDAB06
:10214000943F00200442002000B0CDAB44F2BB42DB
:102150002DE9F04103680446934288B034D000F37F
:10216000818042F2BB22934200F0C68149DD43F2F6
:10217000BB32934240D10369042B3DD1002140681A
:1021800004AA12F083FAA368002B80F23182049A29
:102190009F4922F47F6323F00F038B422CD1C2F3BB
:1021A0000B02002A00F0BA82012A25D199480AF0D0
:1021B00037F9049A964922F47F6323F00F038B4288
:1021C00000F0C882002019E00369082B14D1026ACC
:1021D000042A11D10021406804AA12F057FAA3681A
:1021E000002B80F21782049A894922F47F6323F03E
:1021F0000F038B4200F0A8816FF0800008B0BDE8AB
:10220000F081BB2B00F0E38041F2BB129342F3D18B
:10221000002103690191082BEED1026A042AEBD157
:10222000406802AA12F032FA039D2DB1A368002B78
:10223000C0F2578204AF3D4629469DF8080008F0D9
:10224000D5FA20B1A368002BC0F2C5810190042308
:10225000606800210DEB030212F024FA002008B0A0
:10226000BDE8F08146F2BB62934200F0D78047F2AE
:10227000BB72934228D18368002BBDDA0369042B1B
:10228000BAD1036A042BB7D1002102AA406812F028
:10229000FDF9029A5E4922F47F6323F00F038B421B
:1022A000AAD1C2F30B02002A00F09381012AA3D124
:1022B00058480AF0F9FA054604230021606804AA88
:1022C000049512F0EFF97DE745F2BB52934293D1AA
:1022D0000369082B90D1026A042A8DD1002140683D
:1022E00004AA12F0D3F9A368002B80F28581049A26
:1022F000474922F47F6323F00F038B427FF47CAFC6
:10230000C2F30B02002A00F00B82012A7FF474AFA3
:10231000DFF80081059D404E1E221C2128463560B5
:1023200018F088FF00283FF467AF29461C22301DB3
:1023300002AD12F003F901222846716812F0FEF88E
:102340009DF80830082B7FF457AF706805F06AFDE0
:10235000074600283FF450AF70601E22D6E9040102
:1023600018F068FF00283FF447AF1722B969B06939
:1023700018F060FF00283FF43FAF1722B969F069F9
:1023800018F058FF00283FF437AF06F10C0106F1B2
:10239000200001F0B1FB00287FF42EAF06F1080108
:1023A00006F1300001F0A8FB00287FF425AF311DB5
:1023B00040460AF027F90646606804232A460021B1
:1023C000029612F06FF9002008B0BDE8F0810021FC
:1023D00003690191082B7FF40FAF026A042A7FF48E
:1023E0000BAF406802AA12F051F9A368002BC0F2AB
:1023F0001881DDE90256314628460AF019F8A3682B
:10240000002800F06881002BBFF620AF1FE700BF57
:1024100000B0CDAB9C3F0020044200200369082B94
:102420007FF4EAAE026A042A7FF4E6AE0021406837
:1024300004AA12F02BF9A368002B80F2E480049A1E
:10244000BD4922F47F6323F00F038B427FF4D4AEA7
:10245000C2F30B02002A00F06681012A7FF4CCAEA1
:10246000DFF8E082059DB54F1E22182128463D6009
:1024700018F0E0FE00283FF4BFAE29461822381DB0
:1024800002AD12F05BF801222846796812F056F886
:102490009DF80830082B7FF4AFAE786805F0C2FCD9
:1024A000064600283FF4A8AE78601E22D7E9030153
:1024B00018F0C0FE00283FF49FAE1E22B169786973
:1024C00018F0B8FE00283FF497AE1E22B169B86933
:1024D00018F0B0FE00283FF48FAE07F1080107F1B5
:1024E000200001F009FB00287FF486AE4046391D2C
:1024F0000AF03CF906465FE78368002BBFF67CAE26
:102500000369082B7FF478AE002104AA406812F01A
:10251000BDF8049C884924F47F6222F00F028A42AD
:102520007FF46AAEC4F30B04002C5ED11722242181
:10253000059818F07FFE00283FF45EAE804B059AA8
:10254000002043F8242059E6C2F30B02002A00F0D1
:10255000ED80012A7FF450AE7A4F059D774EAB682F
:102560001E220C2128463560336418F063FE0028D3
:102570003FF442AE29460C22301D02AD11F0DEFFC1
:1025800001222846716811F0D9FF9DF80830082B08
:102590007FF432AE706805F045FC00283FF42CAEA5
:1025A000706006F1080106F1300001F0A5FA00287C
:1025B0007FF422AE06F10C0106F1200001F0C0FA12
:1025C00000287FF419AE311D384609F069FF064630
:1025D000F2E65D486DE600209DF80820564B58490C
:1025E0001343019341F8220031E6012C9ED003E60B
:1025F000049809F015FFE5E5DDE904010AF002F8A9
:1026000002AD0646D8E6DDE904010AF0AFF802ADF6
:102610000646D1E6DDE9040109F042FF02AD0646B7
:10262000CAE6039EDEB11E221021304618F002FEDB
:1026300000283FF4E1AD04AF10223146384611F0D6
:102640007DFF9DF810305A1E012A02D9042B7FF419
:10265000D3AD01233E463D4A8DF810300592394DE9
:102660002F68002F64D1DDF808801E220821404623
:1026700018F0E0FD00283FF4BFAD4146082228468F
:1026800011F05CFF1E224FF41771286818F0D2FD7C
:1026900000283FF4B1ADA84658F8081B4FF4177254
:1026A000404611F04BFF1E2202216868C5F80080E9
:1026B00018F0C0FD00283FF49FAD05F519780222FF
:1026C0004046696811F03AFF1D4BC5F804805F6011
:1026D0001F4B01938FE6002B0190BFF6B8AD286029
:1026E000B5E51E221021284618F0A4FD00283FF46D
:1026F00083AD04AF10222946384611F01FFF9DF824
:1027000010305A1E012A02D9042B7FF475AD012323
:102710000E4A3D4605928DF810308DE50A4846E593
:10272000DFF82480F6E5DFF820809BE6064F14E70B
:102730006FF08C0062E500BF00B0CDAB044200201A
:10274000943F00209C3F002074E90100E12001003B
:1027500001B0CDABC2F30B02012A7FF433AD0022EE
:10276000014B1A602EE500BF9C3F002009F04EBED1
:10277000124B98420AD00833984215D0104B984219
:1027800018D003F59473984211D0704700229446F4
:102790000C4B53F822000028F7D00B4B4CEA0303F4
:1027A000C0E9053101F0FCB901229446F0E70322AB
:1027B0009446EDE702229446EAE700BF60E9010093
:1027C000584200204842002000C0CDAB43F2CC3339
:1027D0002DE9F04F056804469D428FB000F06C82F1
:1027E00032DD45F2CC539D4200F0C98100F3948064
:1027F00044F2CC439D4200F01A8244F6CC439D4201
:102800005AD10369042B40F0C2800021406809AA14
:1028100011F03CFFA368002B80F27E82099AAB493D
:1028200022F47F6323F00F038B4240F0B08040F628
:10283000FE710A42C2F30B0340F08083A44800EB10
:10284000C3000AF0EFFF61E241F2CC139D4200F0B9
:10285000478140F3A18042F2CC239D4200F0F880F2
:1028600042F6CC239D4240F08D802369082B40F036
:102870008E80226A042A40F08A800021606809AABA
:1028800011F004FFA368002BC0F2EC82099E41F610
:10289000CC139D4230460A9900F046830AF006FFA9
:1028A000054660680423002105AA059511F0FAFE8B
:1028B00000200FB0BDE8F08F43F6CC339D4266D1C7
:1028C0008368002B63DA0369042B60D1036A042B4D
:1028D0005DD1002105AA406811F0D8FE059A7B4918
:1028E00022F47F6323F00F038B4250D140F6FE7138
:1028F0000A42C2F30B0340F0F282754800EBC300BA
:102900000AF03CFF054604236068002109AA0995E6
:1029100011F0C8FE00203CE046F2CC639D4200F07E
:10292000028147F2CC739D4231D10369082B2ED12D
:10293000026A042A2BD10021406805AA11F0A6FEE4
:10294000A368002B80F2F181059A604922F47F632D
:1029500023F00F038B421AD140F6FE710A42C2F3F4
:102960000B0340F0FF825A4D05EBC30509A806A9E9
:1029700001F0C2F8049050B9284609A90AF028FECF
:1029800005464BE141F6CC139D423FF46EAF6FF02C
:1029900080000FB0BDE8F08FCC2D32D040F6CC03D4
:1029A0009D42F4D103690C2BF1D1026A042AEED1C5
:1029B0000021406809AA11F069FEA368002B80F28B
:1029C000AD81099A414922F47F6323F00F038B42C2
:1029D000DDD140F6FE710A42C2F30B0340F0D6820D
:1029E0003B4D05EBC3051E22DDE90A0118F022FC70
:1029F0000028CCD0DDE90A1228460AF037FC05464B
:102A00004FE7002105690491082DC0D1036A042B0A
:102A1000BDD12B46406805AA11F038FEA368002BF3
:102A2000C0F29B81DDE90576314638460AF0EEFBBF
:102A3000A368002800F07282002B72DA6068042319
:102A4000002104AA11F02EFE00200FB0BDE8F08F87
:102A50008368002B9BDA0369082B98D1002109AA0F
:102A6000406811F013FE099A184922F47F6323F09D
:102A70000F038B428BD140F6FE710A42C2F30B0367
:102A800040F03782124A02EBC303934200F0BB824C
:102A9000104A934200F0B9820F4A934200F0B78285
:102AA00002F59472934208BF03247FF470AF17229B
:102AB0001C210A9818F0BEFB00283FF468AF074BB2
:102AC0000A9A002043F8242063E700BF00C0CDAB82
:102AD00060E9010068E901005842002048420020F6
:102AE000002103690491082B7FF451AF026A042A84
:102AF0007FF44DAF406805AA11F0C8FD069D2DB1C9
:102B0000A368002BC0F2D38109AF3D4629469DF84A
:102B1000140009F0E5FE002890D0A368002BC0F255
:102B2000F38104908AE70369082B7FF430AF026ACF
:102B3000042A7FF42CAF0021406809AA11F0A6FDF9
:102B40009DF8281003293FF622AFA3680998002BAF
:102B500011DABF4A20F47F6323F00F0393427FF41E
:102B600016AF40F6FE721042C0F30B0340F0228213
:102B7000B84800EBC3000AF069FE054691E6036918
:102B8000142B7FF404AF026A042A7FF400AF002103
:102B9000406809AA11F07AFDA368002B80F2D38067
:102BA000099AAB4922F47F6323F00F038B427FF431
:102BB000EEAE40F6FE710A42C2F30B0340F0F08124
:102BC000A44D05EBC3052B681B7D032B3FF6DFAE41
:102BD000A14AD65C002E3FF4DAAE0AA905A800F09F
:102BE0008BFF049000287FF4D2AEDDE90B011E229A
